{
	"contracts/test.sol": {
		"Test": {
			"abi": [
				{
					"inputs": [],
					"name": "getBanlace",
					"outputs": [
						{
							"internalType": "uint256",
							"name": "",
							"type": "uint256"
						}
					],
					"stateMutability": "view",
					"type": "function"
				},
				{
					"inputs": [],
					"name": "sendValue",
					"outputs": [
						{
							"internalType": "uint256",
							"name": "",
							"type": "uint256"
						}
					],
					"stateMutability": "payable",
					"type": "function"
				}
			],
			"devdoc": {
				"kind": "dev",
				"methods": {},
				"version": 1
			},
			"evm": {
				"assembly": "    /* \"contracts/test.sol\":69:371  contract Test{... */\n  mstore(0x40, 0x80)\n  callvalue\n  dup1\n  iszero\n  tag_1\n  jumpi\n  0x00\n  dup1\n  revert\ntag_1:\n  pop\n  dataSize(sub_0)\n  dup1\n  dataOffset(sub_0)\n  0x00\n  codecopy\n  0x00\n  return\nstop\n\nsub_0: assembly {\n        /* \"contracts/test.sol\":69:371  contract Test{... */\n      mstore(0x40, 0x80)\n      jumpi(tag_1, lt(calldatasize, 0x04))\n      shr(0xe0, calldataload(0x00))\n      dup1\n      0x27c845dc\n      eq\n      tag_2\n      jumpi\n      dup1\n      0xdec1cf78\n      eq\n      tag_3\n      jumpi\n    tag_1:\n      0x00\n      dup1\n      revert\n        /* \"contracts/test.sol\":173:271  function sendValue() payable public returns(uint){... */\n    tag_2:\n      tag_4\n      tag_5\n      jump\t// in\n    tag_4:\n      mload(0x40)\n      tag_6\n      swap2\n      swap1\n      tag_7\n      jump\t// in\n    tag_6:\n      mload(0x40)\n      dup1\n      swap2\n      sub\n      swap1\n      return\n        /* \"contracts/test.sol\":277:369  function getBanlace() public view returns(uint){... */\n    tag_3:\n      callvalue\n      dup1\n      iszero\n      tag_8\n      jumpi\n      0x00\n      dup1\n      revert\n    tag_8:\n      pop\n      tag_9\n      tag_10\n      jump\t// in\n    tag_9:\n      mload(0x40)\n      tag_11\n      swap2\n      swap1\n      tag_7\n      jump\t// in\n    tag_11:\n      mload(0x40)\n      dup1\n      swap2\n      sub\n      swap1\n      return\n        /* \"contracts/test.sol\":173:271  function sendValue() payable public returns(uint){... */\n    tag_5:\n        /* \"contracts/test.sol\":217:221  uint */\n      0x00\n        /* \"contracts/test.sol\":232:240  uint num */\n      dup1\n        /* \"contracts/test.sol\":243:244  0 */\n      0x00\n        /* \"contracts/test.sol\":232:244  uint num = 0 */\n      swap1\n      pop\n        /* \"contracts/test.sol\":261:264  num */\n      dup1\n        /* \"contracts/test.sol\":254:264  return num */\n      swap2\n      pop\n      pop\n        /* \"contracts/test.sol\":173:271  function sendValue() payable public returns(uint){... */\n      swap1\n      jump\t// out\n        /* \"contracts/test.sol\":277:369  function getBanlace() public view returns(uint){... */\n    tag_10:\n        /* \"contracts/test.sol\":319:323  uint */\n      0x00\n        /* \"contracts/test.sol\":341:362  address(this).balance */\n      selfbalance\n        /* \"contracts/test.sol\":334:362  return address(this).balance */\n      swap1\n      pop\n        /* \"contracts/test.sol\":277:369  function getBanlace() public view returns(uint){... */\n      swap1\n      jump\t// out\n        /* \"#utility.yul\":7:84   */\n    tag_14:\n        /* \"#utility.yul\":44:51   */\n      0x00\n        /* \"#utility.yul\":73:78   */\n      dup2\n        /* \"#utility.yul\":62:78   */\n      swap1\n      pop\n        /* \"#utility.yul\":7:84   */\n      swap2\n      swap1\n      pop\n      jump\t// out\n        /* \"#utility.yul\":90:208   */\n    tag_15:\n        /* \"#utility.yul\":177:201   */\n      tag_19\n        /* \"#utility.yul\":195:200   */\n      dup2\n        /* \"#utility.yul\":177:201   */\n      tag_14\n      jump\t// in\n    tag_19:\n        /* \"#utility.yul\":172:175   */\n      dup3\n        /* \"#utility.yul\":165:202   */\n      mstore\n        /* \"#utility.yul\":90:208   */\n      pop\n      pop\n      jump\t// out\n        /* \"#utility.yul\":214:436   */\n    tag_7:\n        /* \"#utility.yul\":307:311   */\n      0x00\n        /* \"#utility.yul\":345:347   */\n      0x20\n        /* \"#utility.yul\":334:343   */\n      dup3\n        /* \"#utility.yul\":330:348   */\n      add\n        /* \"#utility.yul\":322:348   */\n      swap1\n      pop\n        /* \"#utility.yul\":358:429   */\n      tag_21\n        /* \"#utility.yul\":426:427   */\n      0x00\n        /* \"#utility.yul\":415:424   */\n      dup4\n        /* \"#utility.yul\":411:428   */\n      add\n        /* \"#utility.yul\":402:408   */\n      dup5\n        /* \"#utility.yul\":358:429   */\n      tag_15\n      jump\t// in\n    tag_21:\n        /* \"#utility.yul\":214:436   */\n      swap3\n      swap2\n      pop\n      pop\n      jump\t// out\n\n    auxdata: 0xa2646970667358221220b15c4fc8576542bc63e24b3493423d9d6fb03be4490f1b2691e990be0840bd0464736f6c634300080d0033\n}\n",
				"bytecode": {
					"linkReferences": {},
					"object": "608060405234801561001057600080fd5b5060e78061001f6000396000f3fe60806040526004361060265760003560e01c806327c845dc14602b578063dec1cf78146045575b600080fd5b6031606b565b604051603c91906098565b60405180910390f35b348015605057600080fd5b5060576079565b604051606291906098565b60405180910390f35b600080600090508091505090565b600047905090565b6000819050919050565b6092816081565b82525050565b600060208201905060ab6000830184608b565b9291505056fea2646970667358221220b15c4fc8576542bc63e24b3493423d9d6fb03be4490f1b2691e990be0840bd0464736f6c634300080d0033",
					"opcodes": "PUSH1 0x80 PUSH1 0x40 MSTORE CALLVALUE DUP1 ISZERO PUSH2 0x10 JUMPI PUSH1 0x0 DUP1 REVERT JUMPDEST POP PUSH1 0xE7 DUP1 PUSH2 0x1F PUSH1 0x0 CODECOPY PUSH1 0x0 RETURN INVALID PUSH1 0x80 PUSH1 0x40 MSTORE PUSH1 0x4 CALLDATASIZE LT PUSH1 0x26 JUMPI PUSH1 0x0 CALLDATALOAD PUSH1 0xE0 SHR DUP1 PUSH4 0x27C845DC EQ PUSH1 0x2B JUMPI DUP1 PUSH4 0xDEC1CF78 EQ PUSH1 0x45 JUMPI JUMPDEST PUSH1 0x0 DUP1 REVERT JUMPDEST PUSH1 0x31 PUSH1 0x6B JUMP JUMPDEST PUSH1 0x40 MLOAD PUSH1 0x3C SWAP2 SWAP1 PUSH1 0x98 JUMP JUMPDEST PUSH1 0x40 MLOAD DUP1 SWAP2 SUB SWAP1 RETURN JUMPDEST CALLVALUE DUP1 ISZERO PUSH1 0x50 JUMPI PUSH1 0x0 DUP1 REVERT JUMPDEST POP PUSH1 0x57 PUSH1 0x79 JUMP JUMPDEST PUSH1 0x40 MLOAD PUSH1 0x62 SWAP2 SWAP1 PUSH1 0x98 JUMP JUMPDEST PUSH1 0x40 MLOAD DUP1 SWAP2 SUB SWAP1 RETURN JUMPDEST PUSH1 0x0 DUP1 PUSH1 0x0 SWAP1 POP DUP1 SWAP2 POP POP SWAP1 JUMP JUMPDEST PUSH1 0x0 SELFBALANCE SWAP1 POP SWAP1 JUMP JUMPDEST PUSH1 0x0 DUP2 SWAP1 POP SWAP2 SWAP1 POP JUMP JUMPDEST PUSH1 0x92 DUP2 PUSH1 0x81 JUMP JUMPDEST DUP3 MSTORE POP POP JUMP JUMPDEST PUSH1 0x0 PUSH1 0x20 DUP3 ADD SWAP1 POP PUSH1 0xAB PUSH1 0x0 DUP4 ADD DUP5 PUSH1 0x8B JUMP JUMPDEST SWAP3 SWAP2 POP POP JUMP INVALID LOG2 PUSH5 0x6970667358 0x22 SLT KECCAK256 0xB1 0x5C 0x4F 0xC8 JUMPI PUSH6 0x42BC63E24B34 SWAP4 TIMESTAMP RETURNDATASIZE SWAP14 PUSH16 0xB03BE4490F1B2691E990BE0840BD0464 PUSH20 0x6F6C634300080D00330000000000000000000000 "
				},
				"gasEstimates": {
					"creation": {
						"codeDepositCost": "46200",
						"executionCost": "99",
						"totalCost": "46299"
					},
					"external": {
						"getBanlace()": "339",
						"sendValue()": "304"
					}
				},
				"methodIdentifiers": {
					"getBanlace()": "dec1cf78",
					"sendValue()": "27c845dc"
				}
			},
			"userdoc": {
				"kind": "user",
				"methods": {},
				"version": 1
			}
		}
	}
}