{
	"contracts/test.sol": {
		"Test": {
			"abi": [
				{
					"inputs": [
						{
							"internalType": "address",
							"name": "_beneficiary",
							"type": "address"
						},
						{
							"internalType": "uint256",
							"name": "_auctionEnd",
							"type": "uint256"
						},
						{
							"internalType": "uint256",
							"name": "_discloseEnd",
							"type": "uint256"
						}
					],
					"stateMutability": "nonpayable",
					"type": "constructor"
				},
				{
					"anonymous": false,
					"inputs": [
						{
							"indexed": false,
							"internalType": "address",
							"name": "_s",
							"type": "address"
						},
						{
							"indexed": false,
							"internalType": "uint256",
							"name": "amount",
							"type": "uint256"
						}
					],
					"name": "auctionEndEvent",
					"type": "event"
				},
				{
					"inputs": [],
					"name": "auctionEnd",
					"outputs": [
						{
							"internalType": "uint256",
							"name": "",
							"type": "uint256"
						}
					],
					"stateMutability": "view",
					"type": "function"
				},
				{
					"inputs": [
						{
							"internalType": "bytes32",
							"name": "_secretBid",
							"type": "bytes32"
						}
					],
					"name": "bid",
					"outputs": [],
					"stateMutability": "payable",
					"type": "function"
				},
				{
					"inputs": [
						{
							"internalType": "uint256[]",
							"name": "_value",
							"type": "uint256[]"
						},
						{
							"internalType": "bool[]",
							"name": "_fake",
							"type": "bool[]"
						},
						{
							"internalType": "bytes32[]",
							"name": "_secret",
							"type": "bytes32[]"
						}
					],
					"name": "disclose",
					"outputs": [],
					"stateMutability": "nonpayable",
					"type": "function"
				},
				{
					"inputs": [],
					"name": "discloseEnd",
					"outputs": [
						{
							"internalType": "uint256",
							"name": "",
							"type": "uint256"
						}
					],
					"stateMutability": "view",
					"type": "function"
				},
				{
					"inputs": [],
					"name": "highestPrice",
					"outputs": [
						{
							"internalType": "uint256",
							"name": "",
							"type": "uint256"
						}
					],
					"stateMutability": "view",
					"type": "function"
				},
				{
					"inputs": [],
					"name": "highester",
					"outputs": [
						{
							"internalType": "address",
							"name": "",
							"type": "address"
						}
					],
					"stateMutability": "view",
					"type": "function"
				},
				{
					"inputs": [],
					"name": "withDraw",
					"outputs": [],
					"stateMutability": "nonpayable",
					"type": "function"
				}
			],
			"devdoc": {
				"kind": "dev",
				"methods": {},
				"version": 1
			},
			"evm": {
				"assembly": "    /* \"contracts/test.sol\":70:2634  contract Test{... */\n  mstore(0x40, 0x80)\n    /* \"contracts/test.sol\":601:816  constructor(address _beneficiary, uint _auctionEnd, uint _discloseEnd) {... */\n  callvalue\n  dup1\n  iszero\n  tag_1\n  jumpi\n  0x00\n  dup1\n  revert\ntag_1:\n  pop\n  mload(0x40)\n  sub(codesize, bytecodeSize)\n  dup1\n  bytecodeSize\n  dup4\n  codecopy\n  dup2\n  dup2\n  add\n  0x40\n  mstore\n  dup2\n  add\n  swap1\n  tag_2\n  swap2\n  swap1\n  tag_3\n  jump\t// in\ntag_2:\n    /* \"contracts/test.sol\":696:708  _beneficiary */\n  dup3\n    /* \"contracts/test.sol\":682:693  beneficiary */\n  0x02\n  0x00\n    /* \"contracts/test.sol\":682:708  beneficiary = _beneficiary */\n  0x0100\n  exp\n  dup2\n  sload\n  dup2\n  0xffffffffffffffffffffffffffffffffffffffff\n  mul\n  not\n  and\n  swap1\n  dup4\n  0xffffffffffffffffffffffffffffffffffffffff\n  and\n  mul\n  or\n  swap1\n  sstore\n  pop\n    /* \"contracts/test.sol\":749:760  _auctionEnd */\n  dup2\n    /* \"contracts/test.sol\":731:746  block.timestamp */\n  timestamp\n    /* \"contracts/test.sol\":731:760  block.timestamp + _auctionEnd */\n  tag_6\n  swap2\n  swap1\n  tag_7\n  jump\t// in\ntag_6:\n    /* \"contracts/test.sol\":718:728  auctionEnd */\n  0x00\n    /* \"contracts/test.sol\":718:760  auctionEnd = block.timestamp + _auctionEnd */\n  dup2\n  swap1\n  sstore\n  pop\n    /* \"contracts/test.sol\":797:809  _discloseEnd */\n  dup1\n    /* \"contracts/test.sol\":784:794  auctionEnd */\n  sload(0x00)\n    /* \"contracts/test.sol\":784:809  auctionEnd + _discloseEnd */\n  tag_8\n  swap2\n  swap1\n  tag_7\n  jump\t// in\ntag_8:\n    /* \"contracts/test.sol\":770:781  discloseEnd */\n  0x01\n    /* \"contracts/test.sol\":770:809  discloseEnd = auctionEnd + _discloseEnd */\n  dup2\n  swap1\n  sstore\n  pop\n    /* \"contracts/test.sol\":601:816  constructor(address _beneficiary, uint _auctionEnd, uint _discloseEnd) {... */\n  pop\n  pop\n  pop\n    /* \"contracts/test.sol\":70:2634  contract Test{... */\n  jump(tag_9)\n    /* \"#utility.yul\":88:205   */\ntag_11:\n    /* \"#utility.yul\":197:198   */\n  0x00\n    /* \"#utility.yul\":194:195   */\n  dup1\n    /* \"#utility.yul\":187:199   */\n  revert\n    /* \"#utility.yul\":334:460   */\ntag_13:\n    /* \"#utility.yul\":371:378   */\n  0x00\n    /* \"#utility.yul\":411:453   */\n  0xffffffffffffffffffffffffffffffffffffffff\n    /* \"#utility.yul\":404:409   */\n  dup3\n    /* \"#utility.yul\":400:454   */\n  and\n    /* \"#utility.yul\":389:454   */\n  swap1\n  pop\n    /* \"#utility.yul\":334:460   */\n  swap2\n  swap1\n  pop\n  jump\t// out\n    /* \"#utility.yul\":466:562   */\ntag_14:\n    /* \"#utility.yul\":503:510   */\n  0x00\n    /* \"#utility.yul\":532:556   */\n  tag_27\n    /* \"#utility.yul\":550:555   */\n  dup3\n    /* \"#utility.yul\":532:556   */\n  tag_13\n  jump\t// in\ntag_27:\n    /* \"#utility.yul\":521:556   */\n  swap1\n  pop\n    /* \"#utility.yul\":466:562   */\n  swap2\n  swap1\n  pop\n  jump\t// out\n    /* \"#utility.yul\":568:690   */\ntag_15:\n    /* \"#utility.yul\":641:665   */\n  tag_29\n    /* \"#utility.yul\":659:664   */\n  dup2\n    /* \"#utility.yul\":641:665   */\n  tag_14\n  jump\t// in\ntag_29:\n    /* \"#utility.yul\":634:639   */\n  dup2\n    /* \"#utility.yul\":631:666   */\n  eq\n    /* \"#utility.yul\":621:684   */\n  tag_30\n  jumpi\n    /* \"#utility.yul\":680:681   */\n  0x00\n    /* \"#utility.yul\":677:678   */\n  dup1\n    /* \"#utility.yul\":670:682   */\n  revert\n    /* \"#utility.yul\":621:684   */\ntag_30:\n    /* \"#utility.yul\":568:690   */\n  pop\n  jump\t// out\n    /* \"#utility.yul\":696:839   */\ntag_16:\n    /* \"#utility.yul\":753:758   */\n  0x00\n    /* \"#utility.yul\":784:790   */\n  dup2\n    /* \"#utility.yul\":778:791   */\n  mload\n    /* \"#utility.yul\":769:791   */\n  swap1\n  pop\n    /* \"#utility.yul\":800:833   */\n  tag_32\n    /* \"#utility.yul\":827:832   */\n  dup2\n    /* \"#utility.yul\":800:833   */\n  tag_15\n  jump\t// in\ntag_32:\n    /* \"#utility.yul\":696:839   */\n  swap3\n  swap2\n  pop\n  pop\n  jump\t// out\n    /* \"#utility.yul\":845:922   */\ntag_17:\n    /* \"#utility.yul\":882:889   */\n  0x00\n    /* \"#utility.yul\":911:916   */\n  dup2\n    /* \"#utility.yul\":900:916   */\n  swap1\n  pop\n    /* \"#utility.yul\":845:922   */\n  swap2\n  swap1\n  pop\n  jump\t// out\n    /* \"#utility.yul\":928:1050   */\ntag_18:\n    /* \"#utility.yul\":1001:1025   */\n  tag_35\n    /* \"#utility.yul\":1019:1024   */\n  dup2\n    /* \"#utility.yul\":1001:1025   */\n  tag_17\n  jump\t// in\ntag_35:\n    /* \"#utility.yul\":994:999   */\n  dup2\n    /* \"#utility.yul\":991:1026   */\n  eq\n    /* \"#utility.yul\":981:1044   */\n  tag_36\n  jumpi\n    /* \"#utility.yul\":1040:1041   */\n  0x00\n    /* \"#utility.yul\":1037:1038   */\n  dup1\n    /* \"#utility.yul\":1030:1042   */\n  revert\n    /* \"#utility.yul\":981:1044   */\ntag_36:\n    /* \"#utility.yul\":928:1050   */\n  pop\n  jump\t// out\n    /* \"#utility.yul\":1056:1199   */\ntag_19:\n    /* \"#utility.yul\":1113:1118   */\n  0x00\n    /* \"#utility.yul\":1144:1150   */\n  dup2\n    /* \"#utility.yul\":1138:1151   */\n  mload\n    /* \"#utility.yul\":1129:1151   */\n  swap1\n  pop\n    /* \"#utility.yul\":1160:1193   */\n  tag_38\n    /* \"#utility.yul\":1187:1192   */\n  dup2\n    /* \"#utility.yul\":1160:1193   */\n  tag_18\n  jump\t// in\ntag_38:\n    /* \"#utility.yul\":1056:1199   */\n  swap3\n  swap2\n  pop\n  pop\n  jump\t// out\n    /* \"#utility.yul\":1205:1868   */\ntag_3:\n    /* \"#utility.yul\":1293:1299   */\n  0x00\n    /* \"#utility.yul\":1301:1307   */\n  dup1\n    /* \"#utility.yul\":1309:1315   */\n  0x00\n    /* \"#utility.yul\":1358:1360   */\n  0x60\n    /* \"#utility.yul\":1346:1355   */\n  dup5\n    /* \"#utility.yul\":1337:1344   */\n  dup7\n    /* \"#utility.yul\":1333:1356   */\n  sub\n    /* \"#utility.yul\":1329:1361   */\n  slt\n    /* \"#utility.yul\":1326:1445   */\n  iszero\n  tag_40\n  jumpi\n    /* \"#utility.yul\":1364:1443   */\n  tag_41\n  tag_11\n  jump\t// in\ntag_41:\n    /* \"#utility.yul\":1326:1445   */\ntag_40:\n    /* \"#utility.yul\":1484:1485   */\n  0x00\n    /* \"#utility.yul\":1509:1573   */\n  tag_42\n    /* \"#utility.yul\":1565:1572   */\n  dup7\n    /* \"#utility.yul\":1556:1562   */\n  dup3\n    /* \"#utility.yul\":1545:1554   */\n  dup8\n    /* \"#utility.yul\":1541:1563   */\n  add\n    /* \"#utility.yul\":1509:1573   */\n  tag_16\n  jump\t// in\ntag_42:\n    /* \"#utility.yul\":1499:1573   */\n  swap4\n  pop\n    /* \"#utility.yul\":1455:1583   */\n  pop\n    /* \"#utility.yul\":1622:1624   */\n  0x20\n    /* \"#utility.yul\":1648:1712   */\n  tag_43\n    /* \"#utility.yul\":1704:1711   */\n  dup7\n    /* \"#utility.yul\":1695:1701   */\n  dup3\n    /* \"#utility.yul\":1684:1693   */\n  dup8\n    /* \"#utility.yul\":1680:1702   */\n  add\n    /* \"#utility.yul\":1648:1712   */\n  tag_19\n  jump\t// in\ntag_43:\n    /* \"#utility.yul\":1638:1712   */\n  swap3\n  pop\n    /* \"#utility.yul\":1593:1722   */\n  pop\n    /* \"#utility.yul\":1761:1763   */\n  0x40\n    /* \"#utility.yul\":1787:1851   */\n  tag_44\n    /* \"#utility.yul\":1843:1850   */\n  dup7\n    /* \"#utility.yul\":1834:1840   */\n  dup3\n    /* \"#utility.yul\":1823:1832   */\n  dup8\n    /* \"#utility.yul\":1819:1841   */\n  add\n    /* \"#utility.yul\":1787:1851   */\n  tag_19\n  jump\t// in\ntag_44:\n    /* \"#utility.yul\":1777:1851   */\n  swap2\n  pop\n    /* \"#utility.yul\":1732:1861   */\n  pop\n    /* \"#utility.yul\":1205:1868   */\n  swap3\n  pop\n  swap3\n  pop\n  swap3\n  jump\t// out\n    /* \"#utility.yul\":1874:2054   */\ntag_20:\n    /* \"#utility.yul\":1922:1999   */\n  0x4e487b7100000000000000000000000000000000000000000000000000000000\n    /* \"#utility.yul\":1919:1920   */\n  0x00\n    /* \"#utility.yul\":1912:2000   */\n  mstore\n    /* \"#utility.yul\":2019:2023   */\n  0x11\n    /* \"#utility.yul\":2016:2017   */\n  0x04\n    /* \"#utility.yul\":2009:2024   */\n  mstore\n    /* \"#utility.yul\":2043:2047   */\n  0x24\n    /* \"#utility.yul\":2040:2041   */\n  0x00\n    /* \"#utility.yul\":2033:2048   */\n  revert\n    /* \"#utility.yul\":2060:2365   */\ntag_7:\n    /* \"#utility.yul\":2100:2103   */\n  0x00\n    /* \"#utility.yul\":2119:2139   */\n  tag_47\n    /* \"#utility.yul\":2137:2138   */\n  dup3\n    /* \"#utility.yul\":2119:2139   */\n  tag_17\n  jump\t// in\ntag_47:\n    /* \"#utility.yul\":2114:2139   */\n  swap2\n  pop\n    /* \"#utility.yul\":2153:2173   */\n  tag_48\n    /* \"#utility.yul\":2171:2172   */\n  dup4\n    /* \"#utility.yul\":2153:2173   */\n  tag_17\n  jump\t// in\ntag_48:\n    /* \"#utility.yul\":2148:2173   */\n  swap3\n  pop\n    /* \"#utility.yul\":2307:2308   */\n  dup3\n    /* \"#utility.yul\":2239:2305   */\n  0xffffffffffffffffffffffffffffffffffffffffffffffffffffffffffffffff\n    /* \"#utility.yul\":2235:2309   */\n  sub\n    /* \"#utility.yul\":2232:2233   */\n  dup3\n    /* \"#utility.yul\":2229:2310   */\n  gt\n    /* \"#utility.yul\":2226:2333   */\n  iszero\n  tag_49\n  jumpi\n    /* \"#utility.yul\":2313:2331   */\n  tag_50\n  tag_20\n  jump\t// in\ntag_50:\n    /* \"#utility.yul\":2226:2333   */\ntag_49:\n    /* \"#utility.yul\":2357:2358   */\n  dup3\n    /* \"#utility.yul\":2354:2355   */\n  dup3\n    /* \"#utility.yul\":2350:2359   */\n  add\n    /* \"#utility.yul\":2343:2359   */\n  swap1\n  pop\n    /* \"#utility.yul\":2060:2365   */\n  swap3\n  swap2\n  pop\n  pop\n  jump\t// out\n    /* \"contracts/test.sol\":70:2634  contract Test{... */\ntag_9:\n  dataSize(sub_0)\n  dup1\n  dataOffset(sub_0)\n  0x00\n  codecopy\n  0x00\n  return\nstop\n\nsub_0: assembly {\n        /* \"contracts/test.sol\":70:2634  contract Test{... */\n      mstore(0x40, 0x80)\n      jumpi(tag_1, lt(calldatasize, 0x04))\n      shr(0xe0, calldataload(0x00))\n      dup1\n      0x381d9787\n      gt\n      tag_9\n      jumpi\n      dup1\n      0x381d9787\n      eq\n      tag_5\n      jumpi\n      dup1\n      0x957bb1e0\n      eq\n      tag_6\n      jumpi\n      dup1\n      0xc0680113\n      eq\n      tag_7\n      jumpi\n      dup1\n      0xfe7fc8fd\n      eq\n      tag_8\n      jumpi\n      jump(tag_1)\n    tag_9:\n      dup1\n      0x0e8670e0\n      eq\n      tag_2\n      jumpi\n      dup1\n      0x0fdb1c10\n      eq\n      tag_3\n      jumpi\n      dup1\n      0x2a24f46c\n      eq\n      tag_4\n      jumpi\n    tag_1:\n      0x00\n      dup1\n      revert\n        /* \"contracts/test.sol\":253:277  uint public highestPrice */\n    tag_2:\n      callvalue\n      dup1\n      iszero\n      tag_10\n      jumpi\n      0x00\n      dup1\n      revert\n    tag_10:\n      pop\n      tag_11\n      tag_12\n      jump\t// in\n    tag_11:\n      mload(0x40)\n      tag_13\n      swap2\n      swap1\n      tag_14\n      jump\t// in\n    tag_13:\n      mload(0x40)\n      dup1\n      swap2\n      sub\n      swap1\n      return\n        /* \"contracts/test.sol\":2467:2632  function withDraw() public {... */\n    tag_3:\n      callvalue\n      dup1\n      iszero\n      tag_15\n      jumpi\n      0x00\n      dup1\n      revert\n    tag_15:\n      pop\n      tag_16\n      tag_17\n      jump\t// in\n    tag_16:\n      stop\n        /* \"contracts/test.sol\":162:184  uint public auctionEnd */\n    tag_4:\n      callvalue\n      dup1\n      iszero\n      tag_18\n      jumpi\n      0x00\n      dup1\n      revert\n    tag_18:\n      pop\n      tag_19\n      tag_20\n      jump\t// in\n    tag_19:\n      mload(0x40)\n      tag_21\n      swap2\n      swap1\n      tag_14\n      jump\t// in\n    tag_21:\n      mload(0x40)\n      dup1\n      swap2\n      sub\n      swap1\n      return\n        /* \"contracts/test.sol\":1043:2116  function disclose(uint[] memory _value, bool[] memory _fake, bytes32[] memory _secret) public onlyAfter(auctionEnd) onlyBefore(discloseEnd) {... */\n    tag_5:\n      callvalue\n      dup1\n      iszero\n      tag_22\n      jumpi\n      0x00\n      dup1\n      revert\n    tag_22:\n      pop\n      tag_23\n      0x04\n      dup1\n      calldatasize\n      sub\n      dup2\n      add\n      swap1\n      tag_24\n      swap2\n      swap1\n      tag_25\n      jump\t// in\n    tag_24:\n      tag_26\n      jump\t// in\n    tag_23:\n      stop\n        /* \"contracts/test.sol\":822:1037  function bid(bytes32 _secretBid) payable public onlyBefore(auctionEnd) {... */\n    tag_6:\n      tag_27\n      0x04\n      dup1\n      calldatasize\n      sub\n      dup2\n      add\n      swap1\n      tag_28\n      swap2\n      swap1\n      tag_29\n      jump\t// in\n    tag_28:\n      tag_30\n      jump\t// in\n    tag_27:\n      stop\n        /* \"contracts/test.sol\":283:307  address public highester */\n    tag_7:\n      callvalue\n      dup1\n      iszero\n      tag_31\n      jumpi\n      0x00\n      dup1\n      revert\n    tag_31:\n      pop\n      tag_32\n      tag_33\n      jump\t// in\n    tag_32:\n      mload(0x40)\n      tag_34\n      swap2\n      swap1\n      tag_35\n      jump\t// in\n    tag_34:\n      mload(0x40)\n      dup1\n      swap2\n      sub\n      swap1\n      return\n        /* \"contracts/test.sol\":190:213  uint public discloseEnd */\n    tag_8:\n      callvalue\n      dup1\n      iszero\n      tag_36\n      jumpi\n      0x00\n      dup1\n      revert\n    tag_36:\n      pop\n      tag_37\n      tag_38\n      jump\t// in\n    tag_37:\n      mload(0x40)\n      tag_39\n      swap2\n      swap1\n      tag_14\n      jump\t// in\n    tag_39:\n      mload(0x40)\n      dup1\n      swap2\n      sub\n      swap1\n      return\n        /* \"contracts/test.sol\":253:277  uint public highestPrice */\n    tag_12:\n      sload(0x03)\n      dup2\n      jump\t// out\n        /* \"contracts/test.sol\":2467:2632  function withDraw() public {... */\n    tag_17:\n        /* \"contracts/test.sol\":2504:2515  uint amount */\n      0x00\n        /* \"contracts/test.sol\":2518:2529  returnPrice */\n      0x05\n        /* \"contracts/test.sol\":2518:2541  returnPrice[msg.sender] */\n      0x00\n        /* \"contracts/test.sol\":2530:2540  msg.sender */\n      caller\n        /* \"contracts/test.sol\":2518:2541  returnPrice[msg.sender] */\n      0xffffffffffffffffffffffffffffffffffffffff\n      and\n      0xffffffffffffffffffffffffffffffffffffffff\n      and\n      dup2\n      mstore\n      0x20\n      add\n      swap1\n      dup2\n      mstore\n      0x20\n      add\n      0x00\n      keccak256\n      sload\n        /* \"contracts/test.sol\":2504:2541  uint amount = returnPrice[msg.sender] */\n      swap1\n      pop\n        /* \"contracts/test.sol\":2562:2563  0 */\n      0x00\n        /* \"contracts/test.sol\":2555:2561  amount */\n      dup2\n        /* \"contracts/test.sol\":2555:2563  amount>0 */\n      gt\n        /* \"contracts/test.sol\":2551:2626  if (amount>0) {... */\n      iszero\n      tag_41\n      jumpi\n        /* \"contracts/test.sol\":2587:2597  msg.sender */\n      caller\n        /* \"contracts/test.sol\":2579:2607  payable(msg.sender).transfer */\n      0xffffffffffffffffffffffffffffffffffffffff\n      and\n        /* \"contracts/test.sol\":2579:2615  payable(msg.sender).transfer(amount) */\n      0x08fc\n        /* \"contracts/test.sol\":2608:2614  amount */\n      dup3\n        /* \"contracts/test.sol\":2579:2615  payable(msg.sender).transfer(amount) */\n      swap1\n      dup2\n      iszero\n      mul\n      swap1\n      mload(0x40)\n      0x00\n      mload(0x40)\n      dup1\n      dup4\n      sub\n      dup2\n      dup6\n      dup9\n      dup9\n      call\n      swap4\n      pop\n      pop\n      pop\n      pop\n      iszero\n      dup1\n      iszero\n      tag_43\n      jumpi\n      returndatasize\n      0x00\n      dup1\n      returndatacopy\n      revert(0x00, returndatasize)\n    tag_43:\n      pop\n        /* \"contracts/test.sol\":2551:2626  if (amount>0) {... */\n    tag_41:\n        /* \"contracts/test.sol\":2494:2632  {... */\n      pop\n        /* \"contracts/test.sol\":2467:2632  function withDraw() public {... */\n      jump\t// out\n        /* \"contracts/test.sol\":162:184  uint public auctionEnd */\n    tag_20:\n      sload(0x00)\n      dup2\n      jump\t// out\n        /* \"contracts/test.sol\":1043:2116  function disclose(uint[] memory _value, bool[] memory _fake, bytes32[] memory _secret) public onlyAfter(auctionEnd) onlyBefore(discloseEnd) {... */\n    tag_26:\n        /* \"contracts/test.sol\":1147:1157  auctionEnd */\n      sload(0x00)\n        /* \"contracts/test.sol\":575:590  block.timestamp */\n      timestamp\n        /* \"contracts/test.sol\":565:572  timeEnd */\n      dup2\n        /* \"contracts/test.sol\":565:590  timeEnd > block.timestamp */\n      gt\n        /* \"contracts/test.sol\":557:591  require(timeEnd > block.timestamp) */\n      tag_45\n      jumpi\n      0x00\n      dup1\n      revert\n    tag_45:\n        /* \"contracts/test.sol\":1170:1181  discloseEnd */\n      sload(0x01)\n        /* \"contracts/test.sol\":499:514  block.timestamp */\n      timestamp\n        /* \"contracts/test.sol\":489:496  timeEnd */\n      dup2\n        /* \"contracts/test.sol\":489:514  timeEnd < block.timestamp */\n      lt\n        /* \"contracts/test.sol\":481:515  require(timeEnd < block.timestamp) */\n      tag_47\n      jumpi\n      0x00\n      dup1\n      revert\n    tag_47:\n        /* \"contracts/test.sol\":1193:1204  uint length */\n      0x00\n        /* \"contracts/test.sol\":1207:1211  bids */\n      0x06\n        /* \"contracts/test.sol\":1207:1223  bids[msg.sender] */\n      0x00\n        /* \"contracts/test.sol\":1212:1222  msg.sender */\n      caller\n        /* \"contracts/test.sol\":1207:1223  bids[msg.sender] */\n      0xffffffffffffffffffffffffffffffffffffffff\n      and\n      0xffffffffffffffffffffffffffffffffffffffff\n      and\n      dup2\n      mstore\n      0x20\n      add\n      swap1\n      dup2\n      mstore\n      0x20\n      add\n      0x00\n      keccak256\n        /* \"contracts/test.sol\":1207:1230  bids[msg.sender].length */\n      dup1\n      sload\n      swap1\n      pop\n        /* \"contracts/test.sol\":1193:1230  uint length = bids[msg.sender].length */\n      swap1\n      pop\n        /* \"contracts/test.sol\":1265:1271  length */\n      dup1\n        /* \"contracts/test.sol\":1248:1254  _value */\n      dup7\n        /* \"contracts/test.sol\":1248:1261  _value.length */\n      mload\n        /* \"contracts/test.sol\":1248:1271  _value.length == length */\n      eq\n        /* \"contracts/test.sol\":1240:1272  require(_value.length == length) */\n      tag_49\n      jumpi\n      0x00\n      dup1\n      revert\n    tag_49:\n        /* \"contracts/test.sol\":1306:1312  length */\n      dup1\n        /* \"contracts/test.sol\":1290:1295  _fake */\n      dup6\n        /* \"contracts/test.sol\":1290:1302  _fake.length */\n      mload\n        /* \"contracts/test.sol\":1290:1312  _fake.length == length */\n      eq\n        /* \"contracts/test.sol\":1282:1313  require(_fake.length == length) */\n      tag_50\n      jumpi\n      0x00\n      dup1\n      revert\n    tag_50:\n        /* \"contracts/test.sol\":1349:1355  length */\n      dup1\n        /* \"contracts/test.sol\":1331:1338  _secret */\n      dup5\n        /* \"contracts/test.sol\":1331:1345  _secret.length */\n      mload\n        /* \"contracts/test.sol\":1331:1355  _secret.length == length */\n      eq\n        /* \"contracts/test.sol\":1323:1356  require(_secret.length == length) */\n      tag_51\n      jumpi\n      0x00\n      dup1\n      revert\n    tag_51:\n        /* \"contracts/test.sol\":1366:1377  uint refund */\n      0x00\n        /* \"contracts/test.sol\":1396:1402  uint i */\n      dup1\n        /* \"contracts/test.sol\":1391:2064  for (uint i = 0; i < length; i++) {... */\n    tag_52:\n        /* \"contracts/test.sol\":1412:1418  length */\n      dup3\n        /* \"contracts/test.sol\":1408:1409  i */\n      dup2\n        /* \"contracts/test.sol\":1408:1418  i < length */\n      lt\n        /* \"contracts/test.sol\":1391:2064  for (uint i = 0; i < length; i++) {... */\n      iszero\n      tag_53\n      jumpi\n        /* \"contracts/test.sol\":1439:1457  Bid storage bidNew */\n      0x00\n        /* \"contracts/test.sol\":1460:1464  bids */\n      0x06\n        /* \"contracts/test.sol\":1460:1476  bids[msg.sender] */\n      0x00\n        /* \"contracts/test.sol\":1465:1475  msg.sender */\n      caller\n        /* \"contracts/test.sol\":1460:1476  bids[msg.sender] */\n      0xffffffffffffffffffffffffffffffffffffffff\n      and\n      0xffffffffffffffffffffffffffffffffffffffff\n      and\n      dup2\n      mstore\n      0x20\n      add\n      swap1\n      dup2\n      mstore\n      0x20\n      add\n      0x00\n      keccak256\n        /* \"contracts/test.sol\":1477:1478  i */\n      dup3\n        /* \"contracts/test.sol\":1460:1479  bids[msg.sender][i] */\n      dup2\n      sload\n      dup2\n      lt\n      tag_55\n      jumpi\n      tag_56\n      tag_57\n      jump\t// in\n    tag_56:\n    tag_55:\n      swap1\n      0x00\n      mstore\n      keccak256(0x00, 0x20)\n      swap1\n      0x02\n      mul\n      add\n        /* \"contracts/test.sol\":1439:1479  Bid storage bidNew = bids[msg.sender][i] */\n      swap1\n      pop\n        /* \"contracts/test.sol\":1494:1504  uint value */\n      0x00\n        /* \"contracts/test.sol\":1506:1515  bool fake */\n      dup1\n        /* \"contracts/test.sol\":1517:1531  bytes32 secret */\n      0x00\n        /* \"contracts/test.sol\":1536:1542  _value */\n      dup12\n        /* \"contracts/test.sol\":1543:1544  i */\n      dup6\n        /* \"contracts/test.sol\":1536:1545  _value[i] */\n      dup2\n      mload\n      dup2\n      lt\n      tag_59\n      jumpi\n      tag_60\n      tag_57\n      jump\t// in\n    tag_60:\n    tag_59:\n      0x20\n      mul\n      0x20\n      add\n      add\n      mload\n        /* \"contracts/test.sol\":1547:1552  _fake */\n      dup12\n        /* \"contracts/test.sol\":1553:1554  i */\n      dup7\n        /* \"contracts/test.sol\":1547:1555  _fake[i] */\n      dup2\n      mload\n      dup2\n      lt\n      tag_61\n      jumpi\n      tag_62\n      tag_57\n      jump\t// in\n    tag_62:\n    tag_61:\n      0x20\n      mul\n      0x20\n      add\n      add\n      mload\n        /* \"contracts/test.sol\":1557:1564  _secret */\n      dup12\n        /* \"contracts/test.sol\":1565:1566  i */\n      dup8\n        /* \"contracts/test.sol\":1557:1567  _secret[i] */\n      dup2\n      mload\n      dup2\n      lt\n      tag_63\n      jumpi\n      tag_64\n      tag_57\n      jump\t// in\n    tag_64:\n    tag_63:\n      0x20\n      mul\n      0x20\n      add\n      add\n      mload\n        /* \"contracts/test.sol\":1493:1568  (uint value, bool fake, bytes32 secret) = (_value[i], _fake[i], _secret[i]) */\n      swap3\n      pop\n      swap3\n      pop\n      swap3\n      pop\n        /* \"contracts/test.sol\":1582:1596  bytes memory v */\n      0x00\n        /* \"contracts/test.sol\":1616:1621  value */\n      dup4\n        /* \"contracts/test.sol\":1623:1627  fake */\n      dup4\n        /* \"contracts/test.sol\":1629:1635  secret */\n      dup4\n        /* \"contracts/test.sol\":1599:1636  abi.encodePacked(value, fake, secret) */\n      add(0x20, mload(0x40))\n      tag_65\n      swap4\n      swap3\n      swap2\n      swap1\n      tag_66\n      jump\t// in\n    tag_65:\n      mload(0x40)\n      0x20\n      dup2\n      dup4\n      sub\n      sub\n      dup2\n      mstore\n      swap1\n      0x40\n      mstore\n        /* \"contracts/test.sol\":1582:1636  bytes memory v = abi.encodePacked(value, fake, secret) */\n      swap1\n      pop\n        /* \"contracts/test.sol\":1684:1685  v */\n      dup1\n        /* \"contracts/test.sol\":1674:1686  keccak256(v) */\n      dup1\n      mload\n      swap1\n      0x20\n      add\n      keccak256\n        /* \"contracts/test.sol\":1654:1660  bidNew */\n      dup6\n        /* \"contracts/test.sol\":1654:1670  bidNew.secretBid */\n      0x01\n      add\n      sload\n        /* \"contracts/test.sol\":1654:1686  bidNew.secretBid != keccak256(v) */\n      eq\n        /* \"contracts/test.sol\":1650:1727  if (bidNew.secretBid != keccak256(v)){... */\n      tag_67\n      jumpi\n        /* \"contracts/test.sol\":1704:1712  continue */\n      pop\n      pop\n      pop\n      pop\n      pop\n      jump(tag_54)\n        /* \"contracts/test.sol\":1650:1727  if (bidNew.secretBid != keccak256(v)){... */\n    tag_67:\n        /* \"contracts/test.sol\":1750:1756  bidNew */\n      dup5\n        /* \"contracts/test.sol\":1750:1764  bidNew.deposit */\n      0x00\n      add\n      sload\n        /* \"contracts/test.sol\":1740:1764  refund += bidNew.deposit */\n      dup8\n      tag_68\n      swap2\n      swap1\n      tag_69\n      jump\t// in\n    tag_68:\n      swap7\n      pop\n        /* \"contracts/test.sol\":1783:1787  fake */\n      dup3\n        /* \"contracts/test.sol\":1782:1787  !fake */\n      iszero\n        /* \"contracts/test.sol\":1782:1812  !fake&&bidNew.deposit >= value */\n      dup1\n      iszero\n      tag_70\n      jumpi\n      pop\n        /* \"contracts/test.sol\":1807:1812  value */\n      dup4\n        /* \"contracts/test.sol\":1789:1795  bidNew */\n      dup6\n        /* \"contracts/test.sol\":1789:1803  bidNew.deposit */\n      0x00\n      add\n      sload\n        /* \"contracts/test.sol\":1789:1812  bidNew.deposit >= value */\n      lt\n      iszero\n        /* \"contracts/test.sol\":1782:1812  !fake&&bidNew.deposit >= value */\n    tag_70:\n        /* \"contracts/test.sol\":1778:1983  if (!fake&&bidNew.deposit >= value){... */\n      iszero\n      tag_71\n      jumpi\n        /* \"contracts/test.sol\":1885:1911  placeBid(value,msg.sender) */\n      tag_72\n        /* \"contracts/test.sol\":1894:1899  value */\n      dup5\n        /* \"contracts/test.sol\":1900:1910  msg.sender */\n      caller\n        /* \"contracts/test.sol\":1885:1893  placeBid */\n      tag_73\n        /* \"contracts/test.sol\":1885:1911  placeBid(value,msg.sender) */\n      jump\t// in\n    tag_72:\n        /* \"contracts/test.sol\":1881:1969  if (placeBid(value,msg.sender)) {... */\n      iszero\n      tag_74\n      jumpi\n        /* \"contracts/test.sol\":1945:1950  value */\n      dup4\n        /* \"contracts/test.sol\":1935:1950  refund -= value */\n      dup8\n      tag_75\n      swap2\n      swap1\n      tag_76\n      jump\t// in\n    tag_75:\n      swap7\n      pop\n        /* \"contracts/test.sol\":1881:1969  if (placeBid(value,msg.sender)) {... */\n    tag_74:\n        /* \"contracts/test.sol\":1778:1983  if (!fake&&bidNew.deposit >= value){... */\n    tag_71:\n        /* \"contracts/test.sol\":2023:2024  0 */\n      0x00\n        /* \"contracts/test.sol\":2015:2025  bytes32(0) */\n      dup1\n      shl\n        /* \"contracts/test.sol\":1996:2002  bidNew */\n      dup6\n        /* \"contracts/test.sol\":1996:2012  bidNew.secretBid */\n      0x01\n      add\n        /* \"contracts/test.sol\":1996:2025  bidNew.secretBid = bytes32(0) */\n      dup2\n      swap1\n      sstore\n      pop\n        /* \"contracts/test.sol\":1425:2064  {... */\n      pop\n      pop\n      pop\n      pop\n      pop\n        /* \"contracts/test.sol\":1391:2064  for (uint i = 0; i < length; i++) {... */\n    tag_54:\n        /* \"contracts/test.sol\":1420:1423  i++ */\n      dup1\n      dup1\n      tag_77\n      swap1\n      tag_78\n      jump\t// in\n    tag_77:\n      swap2\n      pop\n      pop\n        /* \"contracts/test.sol\":1391:2064  for (uint i = 0; i < length; i++) {... */\n      jump(tag_52)\n    tag_53:\n      pop\n        /* \"contracts/test.sol\":2081:2091  msg.sender */\n      caller\n        /* \"contracts/test.sol\":2073:2101  payable(msg.sender).transfer */\n      0xffffffffffffffffffffffffffffffffffffffff\n      and\n        /* \"contracts/test.sol\":2073:2109  payable(msg.sender).transfer(refund) */\n      0x08fc\n        /* \"contracts/test.sol\":2102:2108  refund */\n      dup3\n        /* \"contracts/test.sol\":2073:2109  payable(msg.sender).transfer(refund) */\n      swap1\n      dup2\n      iszero\n      mul\n      swap1\n      mload(0x40)\n      0x00\n      mload(0x40)\n      dup1\n      dup4\n      sub\n      dup2\n      dup6\n      dup9\n      dup9\n      call\n      swap4\n      pop\n      pop\n      pop\n      pop\n      iszero\n      dup1\n      iszero\n      tag_80\n      jumpi\n      returndatasize\n      0x00\n      dup1\n      returndatacopy\n      revert(0x00, returndatasize)\n    tag_80:\n      pop\n        /* \"contracts/test.sol\":1183:2116  {... */\n      pop\n      pop\n        /* \"contracts/test.sol\":592:593  _ */\n      pop\n        /* \"contracts/test.sol\":1043:2116  function disclose(uint[] memory _value, bool[] memory _fake, bytes32[] memory _secret) public onlyAfter(auctionEnd) onlyBefore(discloseEnd) {... */\n      pop\n      pop\n      pop\n      pop\n      jump\t// out\n        /* \"contracts/test.sol\":822:1037  function bid(bytes32 _secretBid) payable public onlyBefore(auctionEnd) {... */\n    tag_30:\n        /* \"contracts/test.sol\":881:891  auctionEnd */\n      sload(0x00)\n        /* \"contracts/test.sol\":499:514  block.timestamp */\n      timestamp\n        /* \"contracts/test.sol\":489:496  timeEnd */\n      dup2\n        /* \"contracts/test.sol\":489:514  timeEnd < block.timestamp */\n      lt\n        /* \"contracts/test.sol\":481:515  require(timeEnd < block.timestamp) */\n      tag_82\n      jumpi\n      0x00\n      dup1\n      revert\n    tag_82:\n        /* \"contracts/test.sol\":903:907  bids */\n      0x06\n        /* \"contracts/test.sol\":903:919  bids[msg.sender] */\n      0x00\n        /* \"contracts/test.sol\":908:918  msg.sender */\n      caller\n        /* \"contracts/test.sol\":903:919  bids[msg.sender] */\n      0xffffffffffffffffffffffffffffffffffffffff\n      and\n      0xffffffffffffffffffffffffffffffffffffffff\n      and\n      dup2\n      mstore\n      0x20\n      add\n      swap1\n      dup2\n      mstore\n      0x20\n      add\n      0x00\n      keccak256\n        /* \"contracts/test.sol\":938:1020  Bid({... */\n      mload(0x40)\n      dup1\n      0x40\n      add\n      0x40\n      mstore\n      dup1\n        /* \"contracts/test.sol\":965:974  msg.value */\n      callvalue\n        /* \"contracts/test.sol\":938:1020  Bid({... */\n      dup2\n      mstore\n      0x20\n      add\n        /* \"contracts/test.sol\":999:1009  _secretBid */\n      dup5\n        /* \"contracts/test.sol\":938:1020  Bid({... */\n      dup2\n      mstore\n      pop\n        /* \"contracts/test.sol\":903:1030  bids[msg.sender].push(... */\n      swap1\n      dup1\n      0x01\n      dup2\n      sload\n      add\n      dup1\n      dup3\n      sstore\n      dup1\n      swap2\n      pop\n      pop\n      0x01\n      swap1\n      sub\n      swap1\n      0x00\n      mstore\n      keccak256(0x00, 0x20)\n      swap1\n      0x02\n      mul\n      add\n      0x00\n      swap1\n      swap2\n      swap1\n      swap2\n      swap1\n      swap2\n      pop\n      0x00\n      dup3\n      add\n      mload\n      dup2\n      0x00\n      add\n      sstore\n      0x20\n      dup3\n      add\n      mload\n      dup2\n      0x01\n      add\n      sstore\n      pop\n      pop\n        /* \"contracts/test.sol\":822:1037  function bid(bytes32 _secretBid) payable public onlyBefore(auctionEnd) {... */\n      pop\n      pop\n      jump\t// out\n        /* \"contracts/test.sol\":283:307  address public highester */\n    tag_33:\n      0x04\n      0x00\n      swap1\n      sload\n      swap1\n      0x0100\n      exp\n      swap1\n      div\n      0xffffffffffffffffffffffffffffffffffffffff\n      and\n      dup2\n      jump\t// out\n        /* \"contracts/test.sol\":190:213  uint public discloseEnd */\n    tag_38:\n      sload(0x01)\n      dup2\n      jump\t// out\n        /* \"contracts/test.sol\":2122:2461  function placeBid(uint _amount, address _sender) internal returns(bool) {... */\n    tag_73:\n        /* \"contracts/test.sol\":2188:2192  bool */\n      0x00\n        /* \"contracts/test.sol\":2219:2231  highestPrice */\n      sload(0x03)\n        /* \"contracts/test.sol\":2208:2215  _amount */\n      dup4\n        /* \"contracts/test.sol\":2208:2231  _amount <= highestPrice */\n      gt\n        /* \"contracts/test.sol\":2204:2270  if (_amount <= highestPrice) {... */\n      tag_86\n      jumpi\n        /* \"contracts/test.sol\":2254:2259  false */\n      0x00\n        /* \"contracts/test.sol\":2247:2259  return false */\n      swap1\n      pop\n      jump(tag_85)\n        /* \"contracts/test.sol\":2204:2270  if (_amount <= highestPrice) {... */\n    tag_86:\n        /* \"contracts/test.sol\":2305:2306  0 */\n      0x00\n        /* \"contracts/test.sol\":2284:2307  highester != address(0) */\n      0xffffffffffffffffffffffffffffffffffffffff\n      and\n        /* \"contracts/test.sol\":2284:2293  highester */\n      0x04\n      0x00\n      swap1\n      sload\n      swap1\n      0x0100\n      exp\n      swap1\n      div\n      0xffffffffffffffffffffffffffffffffffffffff\n      and\n        /* \"contracts/test.sol\":2284:2307  highester != address(0) */\n      0xffffffffffffffffffffffffffffffffffffffff\n      and\n      eq\n        /* \"contracts/test.sol\":2280:2372  if (highester != address(0)) {... */\n      tag_87\n      jumpi\n        /* \"contracts/test.sol\":2349:2361  highestPrice */\n      sload(0x03)\n        /* \"contracts/test.sol\":2323:2334  returnPrice */\n      0x05\n        /* \"contracts/test.sol\":2323:2345  returnPrice[highester] */\n      0x00\n        /* \"contracts/test.sol\":2335:2344  highester */\n      0x04\n      0x00\n      swap1\n      sload\n      swap1\n      0x0100\n      exp\n      swap1\n      div\n      0xffffffffffffffffffffffffffffffffffffffff\n      and\n        /* \"contracts/test.sol\":2323:2345  returnPrice[highester] */\n      0xffffffffffffffffffffffffffffffffffffffff\n      and\n      0xffffffffffffffffffffffffffffffffffffffff\n      and\n      dup2\n      mstore\n      0x20\n      add\n      swap1\n      dup2\n      mstore\n      0x20\n      add\n      0x00\n      keccak256\n      0x00\n        /* \"contracts/test.sol\":2323:2361  returnPrice[highester] += highestPrice */\n      dup3\n      dup3\n      sload\n      tag_88\n      swap2\n      swap1\n      tag_69\n      jump\t// in\n    tag_88:\n      swap3\n      pop\n      pop\n      dup2\n      swap1\n      sstore\n      pop\n        /* \"contracts/test.sol\":2280:2372  if (highester != address(0)) {... */\n    tag_87:\n        /* \"contracts/test.sol\":2394:2401  _sender */\n      dup2\n        /* \"contracts/test.sol\":2382:2391  highester */\n      0x04\n      0x00\n        /* \"contracts/test.sol\":2382:2401  highester = _sender */\n      0x0100\n      exp\n      dup2\n      sload\n      dup2\n      0xffffffffffffffffffffffffffffffffffffffff\n      mul\n      not\n      and\n      swap1\n      dup4\n      0xffffffffffffffffffffffffffffffffffffffff\n      and\n      mul\n      or\n      swap1\n      sstore\n      pop\n        /* \"contracts/test.sol\":2426:2433  _amount */\n      dup3\n        /* \"contracts/test.sol\":2411:2423  highestPrice */\n      0x03\n        /* \"contracts/test.sol\":2411:2433  highestPrice = _amount */\n      dup2\n      swap1\n      sstore\n      pop\n        /* \"contracts/test.sol\":2450:2454  true */\n      0x01\n        /* \"contracts/test.sol\":2443:2454  return true */\n      swap1\n      pop\n        /* \"contracts/test.sol\":2122:2461  function placeBid(uint _amount, address _sender) internal returns(bool) {... */\n    tag_85:\n      swap3\n      swap2\n      pop\n      pop\n      jump\t// out\n        /* \"#utility.yul\":7:84   */\n    tag_89:\n        /* \"#utility.yul\":44:51   */\n      0x00\n        /* \"#utility.yul\":73:78   */\n      dup2\n        /* \"#utility.yul\":62:78   */\n      swap1\n      pop\n        /* \"#utility.yul\":7:84   */\n      swap2\n      swap1\n      pop\n      jump\t// out\n        /* \"#utility.yul\":90:208   */\n    tag_90:\n        /* \"#utility.yul\":177:201   */\n      tag_132\n        /* \"#utility.yul\":195:200   */\n      dup2\n        /* \"#utility.yul\":177:201   */\n      tag_89\n      jump\t// in\n    tag_132:\n        /* \"#utility.yul\":172:175   */\n      dup3\n        /* \"#utility.yul\":165:202   */\n      mstore\n        /* \"#utility.yul\":90:208   */\n      pop\n      pop\n      jump\t// out\n        /* \"#utility.yul\":214:436   */\n    tag_14:\n        /* \"#utility.yul\":307:311   */\n      0x00\n        /* \"#utility.yul\":345:347   */\n      0x20\n        /* \"#utility.yul\":334:343   */\n      dup3\n        /* \"#utility.yul\":330:348   */\n      add\n        /* \"#utility.yul\":322:348   */\n      swap1\n      pop\n        /* \"#utility.yul\":358:429   */\n      tag_134\n        /* \"#utility.yul\":426:427   */\n      0x00\n        /* \"#utility.yul\":415:424   */\n      dup4\n        /* \"#utility.yul\":411:428   */\n      add\n        /* \"#utility.yul\":402:408   */\n      dup5\n        /* \"#utility.yul\":358:429   */\n      tag_90\n      jump\t// in\n    tag_134:\n        /* \"#utility.yul\":214:436   */\n      swap3\n      swap2\n      pop\n      pop\n      jump\t// out\n        /* \"#utility.yul\":442:517   */\n    tag_91:\n        /* \"#utility.yul\":475:481   */\n      0x00\n        /* \"#utility.yul\":508:510   */\n      0x40\n        /* \"#utility.yul\":502:511   */\n      mload\n        /* \"#utility.yul\":492:511   */\n      swap1\n      pop\n        /* \"#utility.yul\":442:517   */\n      swap1\n      jump\t// out\n        /* \"#utility.yul\":523:640   */\n    tag_92:\n        /* \"#utility.yul\":632:633   */\n      0x00\n        /* \"#utility.yul\":629:630   */\n      dup1\n        /* \"#utility.yul\":622:634   */\n      revert\n        /* \"#utility.yul\":646:763   */\n    tag_93:\n        /* \"#utility.yul\":755:756   */\n      0x00\n        /* \"#utility.yul\":752:753   */\n      dup1\n        /* \"#utility.yul\":745:757   */\n      revert\n        /* \"#utility.yul\":769:886   */\n    tag_94:\n        /* \"#utility.yul\":878:879   */\n      0x00\n        /* \"#utility.yul\":875:876   */\n      dup1\n        /* \"#utility.yul\":868:880   */\n      revert\n        /* \"#utility.yul\":892:994   */\n    tag_95:\n        /* \"#utility.yul\":933:939   */\n      0x00\n        /* \"#utility.yul\":984:986   */\n      0x1f\n        /* \"#utility.yul\":980:987   */\n      not\n        /* \"#utility.yul\":975:977   */\n      0x1f\n        /* \"#utility.yul\":968:973   */\n      dup4\n        /* \"#utility.yul\":964:978   */\n      add\n        /* \"#utility.yul\":960:988   */\n      and\n        /* \"#utility.yul\":950:988   */\n      swap1\n      pop\n        /* \"#utility.yul\":892:994   */\n      swap2\n      swap1\n      pop\n      jump\t// out\n        /* \"#utility.yul\":1000:1180   */\n    tag_96:\n        /* \"#utility.yul\":1048:1125   */\n      0x4e487b7100000000000000000000000000000000000000000000000000000000\n        /* \"#utility.yul\":1045:1046   */\n      0x00\n        /* \"#utility.yul\":1038:1126   */\n      mstore\n        /* \"#utility.yul\":1145:1149   */\n      0x41\n        /* \"#utility.yul\":1142:1143   */\n      0x04\n        /* \"#utility.yul\":1135:1150   */\n      mstore\n        /* \"#utility.yul\":1169:1173   */\n      0x24\n        /* \"#utility.yul\":1166:1167   */\n      0x00\n        /* \"#utility.yul\":1159:1174   */\n      revert\n        /* \"#utility.yul\":1186:1467   */\n    tag_97:\n        /* \"#utility.yul\":1269:1296   */\n      tag_142\n        /* \"#utility.yul\":1291:1295   */\n      dup3\n        /* \"#utility.yul\":1269:1296   */\n      tag_95\n      jump\t// in\n    tag_142:\n        /* \"#utility.yul\":1261:1267   */\n      dup2\n        /* \"#utility.yul\":1257:1297   */\n      add\n        /* \"#utility.yul\":1399:1405   */\n      dup2\n        /* \"#utility.yul\":1387:1397   */\n      dup2\n        /* \"#utility.yul\":1384:1406   */\n      lt\n        /* \"#utility.yul\":1363:1381   */\n      0xffffffffffffffff\n        /* \"#utility.yul\":1351:1361   */\n      dup3\n        /* \"#utility.yul\":1348:1382   */\n      gt\n        /* \"#utility.yul\":1345:1407   */\n      or\n        /* \"#utility.yul\":1342:1430   */\n      iszero\n      tag_143\n      jumpi\n        /* \"#utility.yul\":1410:1428   */\n      tag_144\n      tag_96\n      jump\t// in\n    tag_144:\n        /* \"#utility.yul\":1342:1430   */\n    tag_143:\n        /* \"#utility.yul\":1450:1460   */\n      dup1\n        /* \"#utility.yul\":1446:1448   */\n      0x40\n        /* \"#utility.yul\":1439:1461   */\n      mstore\n        /* \"#utility.yul\":1229:1467   */\n      pop\n        /* \"#utility.yul\":1186:1467   */\n      pop\n      pop\n      jump\t// out\n        /* \"#utility.yul\":1473:1602   */\n    tag_98:\n        /* \"#utility.yul\":1507:1513   */\n      0x00\n        /* \"#utility.yul\":1534:1554   */\n      tag_146\n      tag_91\n      jump\t// in\n    tag_146:\n        /* \"#utility.yul\":1524:1554   */\n      swap1\n      pop\n        /* \"#utility.yul\":1563:1596   */\n      tag_147\n        /* \"#utility.yul\":1591:1595   */\n      dup3\n        /* \"#utility.yul\":1583:1589   */\n      dup3\n        /* \"#utility.yul\":1563:1596   */\n      tag_97\n      jump\t// in\n    tag_147:\n        /* \"#utility.yul\":1473:1602   */\n      swap2\n      swap1\n      pop\n      jump\t// out\n        /* \"#utility.yul\":1608:1919   */\n    tag_99:\n        /* \"#utility.yul\":1685:1689   */\n      0x00\n        /* \"#utility.yul\":1775:1793   */\n      0xffffffffffffffff\n        /* \"#utility.yul\":1767:1773   */\n      dup3\n        /* \"#utility.yul\":1764:1794   */\n      gt\n        /* \"#utility.yul\":1761:1817   */\n      iszero\n      tag_149\n      jumpi\n        /* \"#utility.yul\":1797:1815   */\n      tag_150\n      tag_96\n      jump\t// in\n    tag_150:\n        /* \"#utility.yul\":1761:1817   */\n    tag_149:\n        /* \"#utility.yul\":1847:1851   */\n      0x20\n        /* \"#utility.yul\":1839:1845   */\n      dup3\n        /* \"#utility.yul\":1835:1852   */\n      mul\n        /* \"#utility.yul\":1827:1852   */\n      swap1\n      pop\n        /* \"#utility.yul\":1907:1911   */\n      0x20\n        /* \"#utility.yul\":1901:1905   */\n      dup2\n        /* \"#utility.yul\":1897:1912   */\n      add\n        /* \"#utility.yul\":1889:1912   */\n      swap1\n      pop\n        /* \"#utility.yul\":1608:1919   */\n      swap2\n      swap1\n      pop\n      jump\t// out\n        /* \"#utility.yul\":1925:2042   */\n    tag_100:\n        /* \"#utility.yul\":2034:2035   */\n      0x00\n        /* \"#utility.yul\":2031:2032   */\n      dup1\n        /* \"#utility.yul\":2024:2036   */\n      revert\n        /* \"#utility.yul\":2048:2170   */\n    tag_101:\n        /* \"#utility.yul\":2121:2145   */\n      tag_153\n        /* \"#utility.yul\":2139:2144   */\n      dup2\n        /* \"#utility.yul\":2121:2145   */\n      tag_89\n      jump\t// in\n    tag_153:\n        /* \"#utility.yul\":2114:2119   */\n      dup2\n        /* \"#utility.yul\":2111:2146   */\n      eq\n        /* \"#utility.yul\":2101:2164   */\n      tag_154\n      jumpi\n        /* \"#utility.yul\":2160:2161   */\n      0x00\n        /* \"#utility.yul\":2157:2158   */\n      dup1\n        /* \"#utility.yul\":2150:2162   */\n      revert\n        /* \"#utility.yul\":2101:2164   */\n    tag_154:\n        /* \"#utility.yul\":2048:2170   */\n      pop\n      jump\t// out\n        /* \"#utility.yul\":2176:2315   */\n    tag_102:\n        /* \"#utility.yul\":2222:2227   */\n      0x00\n        /* \"#utility.yul\":2260:2266   */\n      dup2\n        /* \"#utility.yul\":2247:2267   */\n      calldataload\n        /* \"#utility.yul\":2238:2267   */\n      swap1\n      pop\n        /* \"#utility.yul\":2276:2309   */\n      tag_156\n        /* \"#utility.yul\":2303:2308   */\n      dup2\n        /* \"#utility.yul\":2276:2309   */\n      tag_101\n      jump\t// in\n    tag_156:\n        /* \"#utility.yul\":2176:2315   */\n      swap3\n      swap2\n      pop\n      pop\n      jump\t// out\n        /* \"#utility.yul\":2338:3048   */\n    tag_103:\n        /* \"#utility.yul\":2434:2439   */\n      0x00\n        /* \"#utility.yul\":2459:2540   */\n      tag_158\n        /* \"#utility.yul\":2475:2539   */\n      tag_159\n        /* \"#utility.yul\":2532:2538   */\n      dup5\n        /* \"#utility.yul\":2475:2539   */\n      tag_99\n      jump\t// in\n    tag_159:\n        /* \"#utility.yul\":2459:2540   */\n      tag_98\n      jump\t// in\n    tag_158:\n        /* \"#utility.yul\":2450:2540   */\n      swap1\n      pop\n        /* \"#utility.yul\":2560:2565   */\n      dup1\n        /* \"#utility.yul\":2589:2595   */\n      dup4\n        /* \"#utility.yul\":2582:2587   */\n      dup3\n        /* \"#utility.yul\":2575:2596   */\n      mstore\n        /* \"#utility.yul\":2623:2627   */\n      0x20\n        /* \"#utility.yul\":2616:2621   */\n      dup3\n        /* \"#utility.yul\":2612:2628   */\n      add\n        /* \"#utility.yul\":2605:2628   */\n      swap1\n      pop\n        /* \"#utility.yul\":2676:2680   */\n      0x20\n        /* \"#utility.yul\":2668:2674   */\n      dup5\n        /* \"#utility.yul\":2664:2681   */\n      mul\n        /* \"#utility.yul\":2656:2662   */\n      dup4\n        /* \"#utility.yul\":2652:2682   */\n      add\n        /* \"#utility.yul\":2705:2708   */\n      dup6\n        /* \"#utility.yul\":2697:2703   */\n      dup2\n        /* \"#utility.yul\":2694:2709   */\n      gt\n        /* \"#utility.yul\":2691:2813   */\n      iszero\n      tag_160\n      jumpi\n        /* \"#utility.yul\":2724:2803   */\n      tag_161\n      tag_100\n      jump\t// in\n    tag_161:\n        /* \"#utility.yul\":2691:2813   */\n    tag_160:\n        /* \"#utility.yul\":2839:2845   */\n      dup4\n        /* \"#utility.yul\":2822:3042   */\n    tag_162:\n        /* \"#utility.yul\":2856:2862   */\n      dup2\n        /* \"#utility.yul\":2851:2854   */\n      dup2\n        /* \"#utility.yul\":2848:2863   */\n      lt\n        /* \"#utility.yul\":2822:3042   */\n      iszero\n      tag_164\n      jumpi\n        /* \"#utility.yul\":2931:2934   */\n      dup1\n        /* \"#utility.yul\":2960:2997   */\n      tag_165\n        /* \"#utility.yul\":2993:2996   */\n      dup9\n        /* \"#utility.yul\":2981:2991   */\n      dup3\n        /* \"#utility.yul\":2960:2997   */\n      tag_102\n      jump\t// in\n    tag_165:\n        /* \"#utility.yul\":2955:2958   */\n      dup5\n        /* \"#utility.yul\":2948:2998   */\n      mstore\n        /* \"#utility.yul\":3027:3031   */\n      0x20\n        /* \"#utility.yul\":3022:3025   */\n      dup5\n        /* \"#utility.yul\":3018:3032   */\n      add\n        /* \"#utility.yul\":3011:3032   */\n      swap4\n      pop\n        /* \"#utility.yul\":2898:3042   */\n      pop\n        /* \"#utility.yul\":2882:2886   */\n      0x20\n        /* \"#utility.yul\":2877:2880   */\n      dup2\n        /* \"#utility.yul\":2873:2887   */\n      add\n        /* \"#utility.yul\":2866:2887   */\n      swap1\n      pop\n        /* \"#utility.yul\":2822:3042   */\n      jump(tag_162)\n    tag_164:\n        /* \"#utility.yul\":2826:2847   */\n      pop\n        /* \"#utility.yul\":2440:3048   */\n      pop\n      pop\n        /* \"#utility.yul\":2338:3048   */\n      swap4\n      swap3\n      pop\n      pop\n      pop\n      jump\t// out\n        /* \"#utility.yul\":3071:3441   */\n    tag_104:\n        /* \"#utility.yul\":3142:3147   */\n      0x00\n        /* \"#utility.yul\":3191:3194   */\n      dup3\n        /* \"#utility.yul\":3184:3188   */\n      0x1f\n        /* \"#utility.yul\":3176:3182   */\n      dup4\n        /* \"#utility.yul\":3172:3189   */\n      add\n        /* \"#utility.yul\":3168:3195   */\n      slt\n        /* \"#utility.yul\":3158:3280   */\n      tag_167\n      jumpi\n        /* \"#utility.yul\":3199:3278   */\n      tag_168\n      tag_94\n      jump\t// in\n    tag_168:\n        /* \"#utility.yul\":3158:3280   */\n    tag_167:\n        /* \"#utility.yul\":3316:3322   */\n      dup2\n        /* \"#utility.yul\":3303:3323   */\n      calldataload\n        /* \"#utility.yul\":3341:3435   */\n      tag_169\n        /* \"#utility.yul\":3431:3434   */\n      dup5\n        /* \"#utility.yul\":3423:3429   */\n      dup3\n        /* \"#utility.yul\":3416:3420   */\n      0x20\n        /* \"#utility.yul\":3408:3414   */\n      dup7\n        /* \"#utility.yul\":3404:3421   */\n      add\n        /* \"#utility.yul\":3341:3435   */\n      tag_103\n      jump\t// in\n    tag_169:\n        /* \"#utility.yul\":3332:3435   */\n      swap2\n      pop\n        /* \"#utility.yul\":3148:3441   */\n      pop\n        /* \"#utility.yul\":3071:3441   */\n      swap3\n      swap2\n      pop\n      pop\n      jump\t// out\n        /* \"#utility.yul\":3447:3755   */\n    tag_105:\n        /* \"#utility.yul\":3521:3525   */\n      0x00\n        /* \"#utility.yul\":3611:3629   */\n      0xffffffffffffffff\n        /* \"#utility.yul\":3603:3609   */\n      dup3\n        /* \"#utility.yul\":3600:3630   */\n      gt\n        /* \"#utility.yul\":3597:3653   */\n      iszero\n      tag_171\n      jumpi\n        /* \"#utility.yul\":3633:3651   */\n      tag_172\n      tag_96\n      jump\t// in\n    tag_172:\n        /* \"#utility.yul\":3597:3653   */\n    tag_171:\n        /* \"#utility.yul\":3683:3687   */\n      0x20\n        /* \"#utility.yul\":3675:3681   */\n      dup3\n        /* \"#utility.yul\":3671:3688   */\n      mul\n        /* \"#utility.yul\":3663:3688   */\n      swap1\n      pop\n        /* \"#utility.yul\":3743:3747   */\n      0x20\n        /* \"#utility.yul\":3737:3741   */\n      dup2\n        /* \"#utility.yul\":3733:3748   */\n      add\n        /* \"#utility.yul\":3725:3748   */\n      swap1\n      pop\n        /* \"#utility.yul\":3447:3755   */\n      swap2\n      swap1\n      pop\n      jump\t// out\n        /* \"#utility.yul\":3761:3851   */\n    tag_106:\n        /* \"#utility.yul\":3795:3802   */\n      0x00\n        /* \"#utility.yul\":3838:3843   */\n      dup2\n        /* \"#utility.yul\":3831:3844   */\n      iszero\n        /* \"#utility.yul\":3824:3845   */\n      iszero\n        /* \"#utility.yul\":3813:3845   */\n      swap1\n      pop\n        /* \"#utility.yul\":3761:3851   */\n      swap2\n      swap1\n      pop\n      jump\t// out\n        /* \"#utility.yul\":3857:3973   */\n    tag_107:\n        /* \"#utility.yul\":3927:3948   */\n      tag_175\n        /* \"#utility.yul\":3942:3947   */\n      dup2\n        /* \"#utility.yul\":3927:3948   */\n      tag_106\n      jump\t// in\n    tag_175:\n        /* \"#utility.yul\":3920:3925   */\n      dup2\n        /* \"#utility.yul\":3917:3949   */\n      eq\n        /* \"#utility.yul\":3907:3967   */\n      tag_176\n      jumpi\n        /* \"#utility.yul\":3963:3964   */\n      0x00\n        /* \"#utility.yul\":3960:3961   */\n      dup1\n        /* \"#utility.yul\":3953:3965   */\n      revert\n        /* \"#utility.yul\":3907:3967   */\n    tag_176:\n        /* \"#utility.yul\":3857:3973   */\n      pop\n      jump\t// out\n        /* \"#utility.yul\":3979:4112   */\n    tag_108:\n        /* \"#utility.yul\":4022:4027   */\n      0x00\n        /* \"#utility.yul\":4060:4066   */\n      dup2\n        /* \"#utility.yul\":4047:4067   */\n      calldataload\n        /* \"#utility.yul\":4038:4067   */\n      swap1\n      pop\n        /* \"#utility.yul\":4076:4106   */\n      tag_178\n        /* \"#utility.yul\":4100:4105   */\n      dup2\n        /* \"#utility.yul\":4076:4106   */\n      tag_107\n      jump\t// in\n    tag_178:\n        /* \"#utility.yul\":3979:4112   */\n      swap3\n      swap2\n      pop\n      pop\n      jump\t// out\n        /* \"#utility.yul\":4132:4833   */\n    tag_109:\n        /* \"#utility.yul\":4225:4230   */\n      0x00\n        /* \"#utility.yul\":4250:4328   */\n      tag_180\n        /* \"#utility.yul\":4266:4327   */\n      tag_181\n        /* \"#utility.yul\":4320:4326   */\n      dup5\n        /* \"#utility.yul\":4266:4327   */\n      tag_105\n      jump\t// in\n    tag_181:\n        /* \"#utility.yul\":4250:4328   */\n      tag_98\n      jump\t// in\n    tag_180:\n        /* \"#utility.yul\":4241:4328   */\n      swap1\n      pop\n        /* \"#utility.yul\":4348:4353   */\n      dup1\n        /* \"#utility.yul\":4377:4383   */\n      dup4\n        /* \"#utility.yul\":4370:4375   */\n      dup3\n        /* \"#utility.yul\":4363:4384   */\n      mstore\n        /* \"#utility.yul\":4411:4415   */\n      0x20\n        /* \"#utility.yul\":4404:4409   */\n      dup3\n        /* \"#utility.yul\":4400:4416   */\n      add\n        /* \"#utility.yul\":4393:4416   */\n      swap1\n      pop\n        /* \"#utility.yul\":4464:4468   */\n      0x20\n        /* \"#utility.yul\":4456:4462   */\n      dup5\n        /* \"#utility.yul\":4452:4469   */\n      mul\n        /* \"#utility.yul\":4444:4450   */\n      dup4\n        /* \"#utility.yul\":4440:4470   */\n      add\n        /* \"#utility.yul\":4493:4496   */\n      dup6\n        /* \"#utility.yul\":4485:4491   */\n      dup2\n        /* \"#utility.yul\":4482:4497   */\n      gt\n        /* \"#utility.yul\":4479:4601   */\n      iszero\n      tag_182\n      jumpi\n        /* \"#utility.yul\":4512:4591   */\n      tag_183\n      tag_100\n      jump\t// in\n    tag_183:\n        /* \"#utility.yul\":4479:4601   */\n    tag_182:\n        /* \"#utility.yul\":4627:4633   */\n      dup4\n        /* \"#utility.yul\":4610:4827   */\n    tag_184:\n        /* \"#utility.yul\":4644:4650   */\n      dup2\n        /* \"#utility.yul\":4639:4642   */\n      dup2\n        /* \"#utility.yul\":4636:4651   */\n      lt\n        /* \"#utility.yul\":4610:4827   */\n      iszero\n      tag_186\n      jumpi\n        /* \"#utility.yul\":4719:4722   */\n      dup1\n        /* \"#utility.yul\":4748:4782   */\n      tag_187\n        /* \"#utility.yul\":4778:4781   */\n      dup9\n        /* \"#utility.yul\":4766:4776   */\n      dup3\n        /* \"#utility.yul\":4748:4782   */\n      tag_108\n      jump\t// in\n    tag_187:\n        /* \"#utility.yul\":4743:4746   */\n      dup5\n        /* \"#utility.yul\":4736:4783   */\n      mstore\n        /* \"#utility.yul\":4812:4816   */\n      0x20\n        /* \"#utility.yul\":4807:4810   */\n      dup5\n        /* \"#utility.yul\":4803:4817   */\n      add\n        /* \"#utility.yul\":4796:4817   */\n      swap4\n      pop\n        /* \"#utility.yul\":4686:4827   */\n      pop\n        /* \"#utility.yul\":4670:4674   */\n      0x20\n        /* \"#utility.yul\":4665:4668   */\n      dup2\n        /* \"#utility.yul\":4661:4675   */\n      add\n        /* \"#utility.yul\":4654:4675   */\n      swap1\n      pop\n        /* \"#utility.yul\":4610:4827   */\n      jump(tag_184)\n    tag_186:\n        /* \"#utility.yul\":4614:4635   */\n      pop\n        /* \"#utility.yul\":4231:4833   */\n      pop\n      pop\n        /* \"#utility.yul\":4132:4833   */\n      swap4\n      swap3\n      pop\n      pop\n      pop\n      jump\t// out\n        /* \"#utility.yul\":4853:5217   */\n    tag_110:\n        /* \"#utility.yul\":4921:4926   */\n      0x00\n        /* \"#utility.yul\":4970:4973   */\n      dup3\n        /* \"#utility.yul\":4963:4967   */\n      0x1f\n        /* \"#utility.yul\":4955:4961   */\n      dup4\n        /* \"#utility.yul\":4951:4968   */\n      add\n        /* \"#utility.yul\":4947:4974   */\n      slt\n        /* \"#utility.yul\":4937:5059   */\n      tag_189\n      jumpi\n        /* \"#utility.yul\":4978:5057   */\n      tag_190\n      tag_94\n      jump\t// in\n    tag_190:\n        /* \"#utility.yul\":4937:5059   */\n    tag_189:\n        /* \"#utility.yul\":5095:5101   */\n      dup2\n        /* \"#utility.yul\":5082:5102   */\n      calldataload\n        /* \"#utility.yul\":5120:5211   */\n      tag_191\n        /* \"#utility.yul\":5207:5210   */\n      dup5\n        /* \"#utility.yul\":5199:5205   */\n      dup3\n        /* \"#utility.yul\":5192:5196   */\n      0x20\n        /* \"#utility.yul\":5184:5190   */\n      dup7\n        /* \"#utility.yul\":5180:5197   */\n      add\n        /* \"#utility.yul\":5120:5211   */\n      tag_109\n      jump\t// in\n    tag_191:\n        /* \"#utility.yul\":5111:5211   */\n      swap2\n      pop\n        /* \"#utility.yul\":4927:5217   */\n      pop\n        /* \"#utility.yul\":4853:5217   */\n      swap3\n      swap2\n      pop\n      pop\n      jump\t// out\n        /* \"#utility.yul\":5223:5534   */\n    tag_111:\n        /* \"#utility.yul\":5300:5304   */\n      0x00\n        /* \"#utility.yul\":5390:5408   */\n      0xffffffffffffffff\n        /* \"#utility.yul\":5382:5388   */\n      dup3\n        /* \"#utility.yul\":5379:5409   */\n      gt\n        /* \"#utility.yul\":5376:5432   */\n      iszero\n      tag_193\n      jumpi\n        /* \"#utility.yul\":5412:5430   */\n      tag_194\n      tag_96\n      jump\t// in\n    tag_194:\n        /* \"#utility.yul\":5376:5432   */\n    tag_193:\n        /* \"#utility.yul\":5462:5466   */\n      0x20\n        /* \"#utility.yul\":5454:5460   */\n      dup3\n        /* \"#utility.yul\":5450:5467   */\n      mul\n        /* \"#utility.yul\":5442:5467   */\n      swap1\n      pop\n        /* \"#utility.yul\":5522:5526   */\n      0x20\n        /* \"#utility.yul\":5516:5520   */\n      dup2\n        /* \"#utility.yul\":5512:5527   */\n      add\n        /* \"#utility.yul\":5504:5527   */\n      swap1\n      pop\n        /* \"#utility.yul\":5223:5534   */\n      swap2\n      swap1\n      pop\n      jump\t// out\n        /* \"#utility.yul\":5540:5617   */\n    tag_112:\n        /* \"#utility.yul\":5577:5584   */\n      0x00\n        /* \"#utility.yul\":5606:5611   */\n      dup2\n        /* \"#utility.yul\":5595:5611   */\n      swap1\n      pop\n        /* \"#utility.yul\":5540:5617   */\n      swap2\n      swap1\n      pop\n      jump\t// out\n        /* \"#utility.yul\":5623:5745   */\n    tag_113:\n        /* \"#utility.yul\":5696:5720   */\n      tag_197\n        /* \"#utility.yul\":5714:5719   */\n      dup2\n        /* \"#utility.yul\":5696:5720   */\n      tag_112\n      jump\t// in\n    tag_197:\n        /* \"#utility.yul\":5689:5694   */\n      dup2\n        /* \"#utility.yul\":5686:5721   */\n      eq\n        /* \"#utility.yul\":5676:5739   */\n      tag_198\n      jumpi\n        /* \"#utility.yul\":5735:5736   */\n      0x00\n        /* \"#utility.yul\":5732:5733   */\n      dup1\n        /* \"#utility.yul\":5725:5737   */\n      revert\n        /* \"#utility.yul\":5676:5739   */\n    tag_198:\n        /* \"#utility.yul\":5623:5745   */\n      pop\n      jump\t// out\n        /* \"#utility.yul\":5751:5890   */\n    tag_114:\n        /* \"#utility.yul\":5797:5802   */\n      0x00\n        /* \"#utility.yul\":5835:5841   */\n      dup2\n        /* \"#utility.yul\":5822:5842   */\n      calldataload\n        /* \"#utility.yul\":5813:5842   */\n      swap1\n      pop\n        /* \"#utility.yul\":5851:5884   */\n      tag_200\n        /* \"#utility.yul\":5878:5883   */\n      dup2\n        /* \"#utility.yul\":5851:5884   */\n      tag_113\n      jump\t// in\n    tag_200:\n        /* \"#utility.yul\":5751:5890   */\n      swap3\n      swap2\n      pop\n      pop\n      jump\t// out\n        /* \"#utility.yul\":5913:6623   */\n    tag_115:\n        /* \"#utility.yul\":6009:6014   */\n      0x00\n        /* \"#utility.yul\":6034:6115   */\n      tag_202\n        /* \"#utility.yul\":6050:6114   */\n      tag_203\n        /* \"#utility.yul\":6107:6113   */\n      dup5\n        /* \"#utility.yul\":6050:6114   */\n      tag_111\n      jump\t// in\n    tag_203:\n        /* \"#utility.yul\":6034:6115   */\n      tag_98\n      jump\t// in\n    tag_202:\n        /* \"#utility.yul\":6025:6115   */\n      swap1\n      pop\n        /* \"#utility.yul\":6135:6140   */\n      dup1\n        /* \"#utility.yul\":6164:6170   */\n      dup4\n        /* \"#utility.yul\":6157:6162   */\n      dup3\n        /* \"#utility.yul\":6150:6171   */\n      mstore\n        /* \"#utility.yul\":6198:6202   */\n      0x20\n        /* \"#utility.yul\":6191:6196   */\n      dup3\n        /* \"#utility.yul\":6187:6203   */\n      add\n        /* \"#utility.yul\":6180:6203   */\n      swap1\n      pop\n        /* \"#utility.yul\":6251:6255   */\n      0x20\n        /* \"#utility.yul\":6243:6249   */\n      dup5\n        /* \"#utility.yul\":6239:6256   */\n      mul\n        /* \"#utility.yul\":6231:6237   */\n      dup4\n        /* \"#utility.yul\":6227:6257   */\n      add\n        /* \"#utility.yul\":6280:6283   */\n      dup6\n        /* \"#utility.yul\":6272:6278   */\n      dup2\n        /* \"#utility.yul\":6269:6284   */\n      gt\n        /* \"#utility.yul\":6266:6388   */\n      iszero\n      tag_204\n      jumpi\n        /* \"#utility.yul\":6299:6378   */\n      tag_205\n      tag_100\n      jump\t// in\n    tag_205:\n        /* \"#utility.yul\":6266:6388   */\n    tag_204:\n        /* \"#utility.yul\":6414:6420   */\n      dup4\n        /* \"#utility.yul\":6397:6617   */\n    tag_206:\n        /* \"#utility.yul\":6431:6437   */\n      dup2\n        /* \"#utility.yul\":6426:6429   */\n      dup2\n        /* \"#utility.yul\":6423:6438   */\n      lt\n        /* \"#utility.yul\":6397:6617   */\n      iszero\n      tag_208\n      jumpi\n        /* \"#utility.yul\":6506:6509   */\n      dup1\n        /* \"#utility.yul\":6535:6572   */\n      tag_209\n        /* \"#utility.yul\":6568:6571   */\n      dup9\n        /* \"#utility.yul\":6556:6566   */\n      dup3\n        /* \"#utility.yul\":6535:6572   */\n      tag_114\n      jump\t// in\n    tag_209:\n        /* \"#utility.yul\":6530:6533   */\n      dup5\n        /* \"#utility.yul\":6523:6573   */\n      mstore\n        /* \"#utility.yul\":6602:6606   */\n      0x20\n        /* \"#utility.yul\":6597:6600   */\n      dup5\n        /* \"#utility.yul\":6593:6607   */\n      add\n        /* \"#utility.yul\":6586:6607   */\n      swap4\n      pop\n        /* \"#utility.yul\":6473:6617   */\n      pop\n        /* \"#utility.yul\":6457:6461   */\n      0x20\n        /* \"#utility.yul\":6452:6455   */\n      dup2\n        /* \"#utility.yul\":6448:6462   */\n      add\n        /* \"#utility.yul\":6441:6462   */\n      swap1\n      pop\n        /* \"#utility.yul\":6397:6617   */\n      jump(tag_206)\n    tag_208:\n        /* \"#utility.yul\":6401:6422   */\n      pop\n        /* \"#utility.yul\":6015:6623   */\n      pop\n      pop\n        /* \"#utility.yul\":5913:6623   */\n      swap4\n      swap3\n      pop\n      pop\n      pop\n      jump\t// out\n        /* \"#utility.yul\":6646:7016   */\n    tag_116:\n        /* \"#utility.yul\":6717:6722   */\n      0x00\n        /* \"#utility.yul\":6766:6769   */\n      dup3\n        /* \"#utility.yul\":6759:6763   */\n      0x1f\n        /* \"#utility.yul\":6751:6757   */\n      dup4\n        /* \"#utility.yul\":6747:6764   */\n      add\n        /* \"#utility.yul\":6743:6770   */\n      slt\n        /* \"#utility.yul\":6733:6855   */\n      tag_211\n      jumpi\n        /* \"#utility.yul\":6774:6853   */\n      tag_212\n      tag_94\n      jump\t// in\n    tag_212:\n        /* \"#utility.yul\":6733:6855   */\n    tag_211:\n        /* \"#utility.yul\":6891:6897   */\n      dup2\n        /* \"#utility.yul\":6878:6898   */\n      calldataload\n        /* \"#utility.yul\":6916:7010   */\n      tag_213\n        /* \"#utility.yul\":7006:7009   */\n      dup5\n        /* \"#utility.yul\":6998:7004   */\n      dup3\n        /* \"#utility.yul\":6991:6995   */\n      0x20\n        /* \"#utility.yul\":6983:6989   */\n      dup7\n        /* \"#utility.yul\":6979:6996   */\n      add\n        /* \"#utility.yul\":6916:7010   */\n      tag_115\n      jump\t// in\n    tag_213:\n        /* \"#utility.yul\":6907:7010   */\n      swap2\n      pop\n        /* \"#utility.yul\":6723:7016   */\n      pop\n        /* \"#utility.yul\":6646:7016   */\n      swap3\n      swap2\n      pop\n      pop\n      jump\t// out\n        /* \"#utility.yul\":7022:8265   */\n    tag_25:\n        /* \"#utility.yul\":7171:7177   */\n      0x00\n        /* \"#utility.yul\":7179:7185   */\n      dup1\n        /* \"#utility.yul\":7187:7193   */\n      0x00\n        /* \"#utility.yul\":7236:7238   */\n      0x60\n        /* \"#utility.yul\":7224:7233   */\n      dup5\n        /* \"#utility.yul\":7215:7222   */\n      dup7\n        /* \"#utility.yul\":7211:7234   */\n      sub\n        /* \"#utility.yul\":7207:7239   */\n      slt\n        /* \"#utility.yul\":7204:7323   */\n      iszero\n      tag_215\n      jumpi\n        /* \"#utility.yul\":7242:7321   */\n      tag_216\n      tag_92\n      jump\t// in\n    tag_216:\n        /* \"#utility.yul\":7204:7323   */\n    tag_215:\n        /* \"#utility.yul\":7390:7391   */\n      0x00\n        /* \"#utility.yul\":7379:7388   */\n      dup5\n        /* \"#utility.yul\":7375:7392   */\n      add\n        /* \"#utility.yul\":7362:7393   */\n      calldataload\n        /* \"#utility.yul\":7420:7438   */\n      0xffffffffffffffff\n        /* \"#utility.yul\":7412:7418   */\n      dup2\n        /* \"#utility.yul\":7409:7439   */\n      gt\n        /* \"#utility.yul\":7406:7523   */\n      iszero\n      tag_217\n      jumpi\n        /* \"#utility.yul\":7442:7521   */\n      tag_218\n      tag_93\n      jump\t// in\n    tag_218:\n        /* \"#utility.yul\":7406:7523   */\n    tag_217:\n        /* \"#utility.yul\":7547:7625   */\n      tag_219\n        /* \"#utility.yul\":7617:7624   */\n      dup7\n        /* \"#utility.yul\":7608:7614   */\n      dup3\n        /* \"#utility.yul\":7597:7606   */\n      dup8\n        /* \"#utility.yul\":7593:7615   */\n      add\n        /* \"#utility.yul\":7547:7625   */\n      tag_104\n      jump\t// in\n    tag_219:\n        /* \"#utility.yul\":7537:7625   */\n      swap4\n      pop\n        /* \"#utility.yul\":7333:7635   */\n      pop\n        /* \"#utility.yul\":7702:7704   */\n      0x20\n        /* \"#utility.yul\":7691:7700   */\n      dup5\n        /* \"#utility.yul\":7687:7705   */\n      add\n        /* \"#utility.yul\":7674:7706   */\n      calldataload\n        /* \"#utility.yul\":7733:7751   */\n      0xffffffffffffffff\n        /* \"#utility.yul\":7725:7731   */\n      dup2\n        /* \"#utility.yul\":7722:7752   */\n      gt\n        /* \"#utility.yul\":7719:7836   */\n      iszero\n      tag_220\n      jumpi\n        /* \"#utility.yul\":7755:7834   */\n      tag_221\n      tag_93\n      jump\t// in\n    tag_221:\n        /* \"#utility.yul\":7719:7836   */\n    tag_220:\n        /* \"#utility.yul\":7860:7935   */\n      tag_222\n        /* \"#utility.yul\":7927:7934   */\n      dup7\n        /* \"#utility.yul\":7918:7924   */\n      dup3\n        /* \"#utility.yul\":7907:7916   */\n      dup8\n        /* \"#utility.yul\":7903:7925   */\n      add\n        /* \"#utility.yul\":7860:7935   */\n      tag_110\n      jump\t// in\n    tag_222:\n        /* \"#utility.yul\":7850:7935   */\n      swap3\n      pop\n        /* \"#utility.yul\":7645:7945   */\n      pop\n        /* \"#utility.yul\":8012:8014   */\n      0x40\n        /* \"#utility.yul\":8001:8010   */\n      dup5\n        /* \"#utility.yul\":7997:8015   */\n      add\n        /* \"#utility.yul\":7984:8016   */\n      calldataload\n        /* \"#utility.yul\":8043:8061   */\n      0xffffffffffffffff\n        /* \"#utility.yul\":8035:8041   */\n      dup2\n        /* \"#utility.yul\":8032:8062   */\n      gt\n        /* \"#utility.yul\":8029:8146   */\n      iszero\n      tag_223\n      jumpi\n        /* \"#utility.yul\":8065:8144   */\n      tag_224\n      tag_93\n      jump\t// in\n    tag_224:\n        /* \"#utility.yul\":8029:8146   */\n    tag_223:\n        /* \"#utility.yul\":8170:8248   */\n      tag_225\n        /* \"#utility.yul\":8240:8247   */\n      dup7\n        /* \"#utility.yul\":8231:8237   */\n      dup3\n        /* \"#utility.yul\":8220:8229   */\n      dup8\n        /* \"#utility.yul\":8216:8238   */\n      add\n        /* \"#utility.yul\":8170:8248   */\n      tag_116\n      jump\t// in\n    tag_225:\n        /* \"#utility.yul\":8160:8248   */\n      swap2\n      pop\n        /* \"#utility.yul\":7955:8258   */\n      pop\n        /* \"#utility.yul\":7022:8265   */\n      swap3\n      pop\n      swap3\n      pop\n      swap3\n      jump\t// out\n        /* \"#utility.yul\":8271:8600   */\n    tag_29:\n        /* \"#utility.yul\":8330:8336   */\n      0x00\n        /* \"#utility.yul\":8379:8381   */\n      0x20\n        /* \"#utility.yul\":8367:8376   */\n      dup3\n        /* \"#utility.yul\":8358:8365   */\n      dup5\n        /* \"#utility.yul\":8354:8377   */\n      sub\n        /* \"#utility.yul\":8350:8382   */\n      slt\n        /* \"#utility.yul\":8347:8466   */\n      iszero\n      tag_227\n      jumpi\n        /* \"#utility.yul\":8385:8464   */\n      tag_228\n      tag_92\n      jump\t// in\n    tag_228:\n        /* \"#utility.yul\":8347:8466   */\n    tag_227:\n        /* \"#utility.yul\":8505:8506   */\n      0x00\n        /* \"#utility.yul\":8530:8583   */\n      tag_229\n        /* \"#utility.yul\":8575:8582   */\n      dup5\n        /* \"#utility.yul\":8566:8572   */\n      dup3\n        /* \"#utility.yul\":8555:8564   */\n      dup6\n        /* \"#utility.yul\":8551:8573   */\n      add\n        /* \"#utility.yul\":8530:8583   */\n      tag_114\n      jump\t// in\n    tag_229:\n        /* \"#utility.yul\":8520:8583   */\n      swap2\n      pop\n        /* \"#utility.yul\":8476:8593   */\n      pop\n        /* \"#utility.yul\":8271:8600   */\n      swap3\n      swap2\n      pop\n      pop\n      jump\t// out\n        /* \"#utility.yul\":8606:8732   */\n    tag_117:\n        /* \"#utility.yul\":8643:8650   */\n      0x00\n        /* \"#utility.yul\":8683:8725   */\n      0xffffffffffffffffffffffffffffffffffffffff\n        /* \"#utility.yul\":8676:8681   */\n      dup3\n        /* \"#utility.yul\":8672:8726   */\n      and\n        /* \"#utility.yul\":8661:8726   */\n      swap1\n      pop\n        /* \"#utility.yul\":8606:8732   */\n      swap2\n      swap1\n      pop\n      jump\t// out\n        /* \"#utility.yul\":8738:8834   */\n    tag_118:\n        /* \"#utility.yul\":8775:8782   */\n      0x00\n        /* \"#utility.yul\":8804:8828   */\n      tag_232\n        /* \"#utility.yul\":8822:8827   */\n      dup3\n        /* \"#utility.yul\":8804:8828   */\n      tag_117\n      jump\t// in\n    tag_232:\n        /* \"#utility.yul\":8793:8828   */\n      swap1\n      pop\n        /* \"#utility.yul\":8738:8834   */\n      swap2\n      swap1\n      pop\n      jump\t// out\n        /* \"#utility.yul\":8840:8958   */\n    tag_119:\n        /* \"#utility.yul\":8927:8951   */\n      tag_234\n        /* \"#utility.yul\":8945:8950   */\n      dup2\n        /* \"#utility.yul\":8927:8951   */\n      tag_118\n      jump\t// in\n    tag_234:\n        /* \"#utility.yul\":8922:8925   */\n      dup3\n        /* \"#utility.yul\":8915:8952   */\n      mstore\n        /* \"#utility.yul\":8840:8958   */\n      pop\n      pop\n      jump\t// out\n        /* \"#utility.yul\":8964:9186   */\n    tag_35:\n        /* \"#utility.yul\":9057:9061   */\n      0x00\n        /* \"#utility.yul\":9095:9097   */\n      0x20\n        /* \"#utility.yul\":9084:9093   */\n      dup3\n        /* \"#utility.yul\":9080:9098   */\n      add\n        /* \"#utility.yul\":9072:9098   */\n      swap1\n      pop\n        /* \"#utility.yul\":9108:9179   */\n      tag_236\n        /* \"#utility.yul\":9176:9177   */\n      0x00\n        /* \"#utility.yul\":9165:9174   */\n      dup4\n        /* \"#utility.yul\":9161:9178   */\n      add\n        /* \"#utility.yul\":9152:9158   */\n      dup5\n        /* \"#utility.yul\":9108:9179   */\n      tag_119\n      jump\t// in\n    tag_236:\n        /* \"#utility.yul\":8964:9186   */\n      swap3\n      swap2\n      pop\n      pop\n      jump\t// out\n        /* \"#utility.yul\":9192:9372   */\n    tag_57:\n        /* \"#utility.yul\":9240:9317   */\n      0x4e487b7100000000000000000000000000000000000000000000000000000000\n        /* \"#utility.yul\":9237:9238   */\n      0x00\n        /* \"#utility.yul\":9230:9318   */\n      mstore\n        /* \"#utility.yul\":9337:9341   */\n      0x32\n        /* \"#utility.yul\":9334:9335   */\n      0x04\n        /* \"#utility.yul\":9327:9342   */\n      mstore\n        /* \"#utility.yul\":9361:9365   */\n      0x24\n        /* \"#utility.yul\":9358:9359   */\n      0x00\n        /* \"#utility.yul\":9351:9366   */\n      revert\n        /* \"#utility.yul\":9378:9457   */\n    tag_120:\n        /* \"#utility.yul\":9417:9424   */\n      0x00\n        /* \"#utility.yul\":9446:9451   */\n      dup2\n        /* \"#utility.yul\":9435:9451   */\n      swap1\n      pop\n        /* \"#utility.yul\":9378:9457   */\n      swap2\n      swap1\n      pop\n      jump\t// out\n        /* \"#utility.yul\":9463:9620   */\n    tag_121:\n        /* \"#utility.yul\":9568:9613   */\n      tag_240\n        /* \"#utility.yul\":9588:9612   */\n      tag_241\n        /* \"#utility.yul\":9606:9611   */\n      dup3\n        /* \"#utility.yul\":9588:9612   */\n      tag_89\n      jump\t// in\n    tag_241:\n        /* \"#utility.yul\":9568:9613   */\n      tag_120\n      jump\t// in\n    tag_240:\n        /* \"#utility.yul\":9563:9566   */\n      dup3\n        /* \"#utility.yul\":9556:9614   */\n      mstore\n        /* \"#utility.yul\":9463:9620   */\n      pop\n      pop\n      jump\t// out\n        /* \"#utility.yul\":9626:9722   */\n    tag_122:\n        /* \"#utility.yul\":9660:9668   */\n      0x00\n        /* \"#utility.yul\":9709:9714   */\n      dup2\n        /* \"#utility.yul\":9704:9707   */\n      0xf8\n        /* \"#utility.yul\":9700:9715   */\n      shl\n        /* \"#utility.yul\":9679:9715   */\n      swap1\n      pop\n        /* \"#utility.yul\":9626:9722   */\n      swap2\n      swap1\n      pop\n      jump\t// out\n        /* \"#utility.yul\":9728:9821   */\n    tag_123:\n        /* \"#utility.yul\":9765:9772   */\n      0x00\n        /* \"#utility.yul\":9794:9815   */\n      tag_244\n        /* \"#utility.yul\":9809:9814   */\n      dup3\n        /* \"#utility.yul\":9794:9815   */\n      tag_122\n      jump\t// in\n    tag_244:\n        /* \"#utility.yul\":9783:9815   */\n      swap1\n      pop\n        /* \"#utility.yul\":9728:9821   */\n      swap2\n      swap1\n      pop\n      jump\t// out\n        /* \"#utility.yul\":9827:9922   */\n    tag_124:\n        /* \"#utility.yul\":9863:9870   */\n      0x00\n        /* \"#utility.yul\":9892:9916   */\n      tag_246\n        /* \"#utility.yul\":9910:9915   */\n      dup3\n        /* \"#utility.yul\":9892:9916   */\n      tag_123\n      jump\t// in\n    tag_246:\n        /* \"#utility.yul\":9881:9916   */\n      swap1\n      pop\n        /* \"#utility.yul\":9827:9922   */\n      swap2\n      swap1\n      pop\n      jump\t// out\n        /* \"#utility.yul\":9928:10073   */\n    tag_125:\n        /* \"#utility.yul\":10027:10066   */\n      tag_248\n        /* \"#utility.yul\":10044:10065   */\n      tag_249\n        /* \"#utility.yul\":10059:10064   */\n      dup3\n        /* \"#utility.yul\":10044:10065   */\n      tag_106\n      jump\t// in\n    tag_249:\n        /* \"#utility.yul\":10027:10066   */\n      tag_124\n      jump\t// in\n    tag_248:\n        /* \"#utility.yul\":10022:10025   */\n      dup3\n        /* \"#utility.yul\":10015:10067   */\n      mstore\n        /* \"#utility.yul\":9928:10073   */\n      pop\n      pop\n      jump\t// out\n        /* \"#utility.yul\":10079:10158   */\n    tag_126:\n        /* \"#utility.yul\":10118:10125   */\n      0x00\n        /* \"#utility.yul\":10147:10152   */\n      dup2\n        /* \"#utility.yul\":10136:10152   */\n      swap1\n      pop\n        /* \"#utility.yul\":10079:10158   */\n      swap2\n      swap1\n      pop\n      jump\t// out\n        /* \"#utility.yul\":10164:10321   */\n    tag_127:\n        /* \"#utility.yul\":10269:10314   */\n      tag_252\n        /* \"#utility.yul\":10289:10313   */\n      tag_253\n        /* \"#utility.yul\":10307:10312   */\n      dup3\n        /* \"#utility.yul\":10289:10313   */\n      tag_112\n      jump\t// in\n    tag_253:\n        /* \"#utility.yul\":10269:10314   */\n      tag_126\n      jump\t// in\n    tag_252:\n        /* \"#utility.yul\":10264:10267   */\n      dup3\n        /* \"#utility.yul\":10257:10315   */\n      mstore\n        /* \"#utility.yul\":10164:10321   */\n      pop\n      pop\n      jump\t// out\n        /* \"#utility.yul\":10327:10852   */\n    tag_66:\n        /* \"#utility.yul\":10489:10492   */\n      0x00\n        /* \"#utility.yul\":10504:10579   */\n      tag_255\n        /* \"#utility.yul\":10575:10578   */\n      dup3\n        /* \"#utility.yul\":10566:10572   */\n      dup7\n        /* \"#utility.yul\":10504:10579   */\n      tag_121\n      jump\t// in\n    tag_255:\n        /* \"#utility.yul\":10604:10606   */\n      0x20\n        /* \"#utility.yul\":10599:10602   */\n      dup3\n        /* \"#utility.yul\":10595:10607   */\n      add\n        /* \"#utility.yul\":10588:10607   */\n      swap2\n      pop\n        /* \"#utility.yul\":10617:10686   */\n      tag_256\n        /* \"#utility.yul\":10682:10685   */\n      dup3\n        /* \"#utility.yul\":10673:10679   */\n      dup6\n        /* \"#utility.yul\":10617:10686   */\n      tag_125\n      jump\t// in\n    tag_256:\n        /* \"#utility.yul\":10711:10712   */\n      0x01\n        /* \"#utility.yul\":10706:10709   */\n      dup3\n        /* \"#utility.yul\":10702:10713   */\n      add\n        /* \"#utility.yul\":10695:10713   */\n      swap2\n      pop\n        /* \"#utility.yul\":10723:10798   */\n      tag_257\n        /* \"#utility.yul\":10794:10797   */\n      dup3\n        /* \"#utility.yul\":10785:10791   */\n      dup5\n        /* \"#utility.yul\":10723:10798   */\n      tag_127\n      jump\t// in\n    tag_257:\n        /* \"#utility.yul\":10823:10825   */\n      0x20\n        /* \"#utility.yul\":10818:10821   */\n      dup3\n        /* \"#utility.yul\":10814:10826   */\n      add\n        /* \"#utility.yul\":10807:10826   */\n      swap2\n      pop\n        /* \"#utility.yul\":10843:10846   */\n      dup2\n        /* \"#utility.yul\":10836:10846   */\n      swap1\n      pop\n        /* \"#utility.yul\":10327:10852   */\n      swap5\n      swap4\n      pop\n      pop\n      pop\n      pop\n      jump\t// out\n        /* \"#utility.yul\":10858:11038   */\n    tag_128:\n        /* \"#utility.yul\":10906:10983   */\n      0x4e487b7100000000000000000000000000000000000000000000000000000000\n        /* \"#utility.yul\":10903:10904   */\n      0x00\n        /* \"#utility.yul\":10896:10984   */\n      mstore\n        /* \"#utility.yul\":11003:11007   */\n      0x11\n        /* \"#utility.yul\":11000:11001   */\n      0x04\n        /* \"#utility.yul\":10993:11008   */\n      mstore\n        /* \"#utility.yul\":11027:11031   */\n      0x24\n        /* \"#utility.yul\":11024:11025   */\n      0x00\n        /* \"#utility.yul\":11017:11032   */\n      revert\n        /* \"#utility.yul\":11044:11349   */\n    tag_69:\n        /* \"#utility.yul\":11084:11087   */\n      0x00\n        /* \"#utility.yul\":11103:11123   */\n      tag_260\n        /* \"#utility.yul\":11121:11122   */\n      dup3\n        /* \"#utility.yul\":11103:11123   */\n      tag_89\n      jump\t// in\n    tag_260:\n        /* \"#utility.yul\":11098:11123   */\n      swap2\n      pop\n        /* \"#utility.yul\":11137:11157   */\n      tag_261\n        /* \"#utility.yul\":11155:11156   */\n      dup4\n        /* \"#utility.yul\":11137:11157   */\n      tag_89\n      jump\t// in\n    tag_261:\n        /* \"#utility.yul\":11132:11157   */\n      swap3\n      pop\n        /* \"#utility.yul\":11291:11292   */\n      dup3\n        /* \"#utility.yul\":11223:11289   */\n      0xffffffffffffffffffffffffffffffffffffffffffffffffffffffffffffffff\n        /* \"#utility.yul\":11219:11293   */\n      sub\n        /* \"#utility.yul\":11216:11217   */\n      dup3\n        /* \"#utility.yul\":11213:11294   */\n      gt\n        /* \"#utility.yul\":11210:11317   */\n      iszero\n      tag_262\n      jumpi\n        /* \"#utility.yul\":11297:11315   */\n      tag_263\n      tag_128\n      jump\t// in\n    tag_263:\n        /* \"#utility.yul\":11210:11317   */\n    tag_262:\n        /* \"#utility.yul\":11341:11342   */\n      dup3\n        /* \"#utility.yul\":11338:11339   */\n      dup3\n        /* \"#utility.yul\":11334:11343   */\n      add\n        /* \"#utility.yul\":11327:11343   */\n      swap1\n      pop\n        /* \"#utility.yul\":11044:11349   */\n      swap3\n      swap2\n      pop\n      pop\n      jump\t// out\n        /* \"#utility.yul\":11355:11546   */\n    tag_76:\n        /* \"#utility.yul\":11395:11399   */\n      0x00\n        /* \"#utility.yul\":11415:11435   */\n      tag_265\n        /* \"#utility.yul\":11433:11434   */\n      dup3\n        /* \"#utility.yul\":11415:11435   */\n      tag_89\n      jump\t// in\n    tag_265:\n        /* \"#utility.yul\":11410:11435   */\n      swap2\n      pop\n        /* \"#utility.yul\":11449:11469   */\n      tag_266\n        /* \"#utility.yul\":11467:11468   */\n      dup4\n        /* \"#utility.yul\":11449:11469   */\n      tag_89\n      jump\t// in\n    tag_266:\n        /* \"#utility.yul\":11444:11469   */\n      swap3\n      pop\n        /* \"#utility.yul\":11488:11489   */\n      dup3\n        /* \"#utility.yul\":11485:11486   */\n      dup3\n        /* \"#utility.yul\":11482:11490   */\n      lt\n        /* \"#utility.yul\":11479:11513   */\n      iszero\n      tag_267\n      jumpi\n        /* \"#utility.yul\":11493:11511   */\n      tag_268\n      tag_128\n      jump\t// in\n    tag_268:\n        /* \"#utility.yul\":11479:11513   */\n    tag_267:\n        /* \"#utility.yul\":11538:11539   */\n      dup3\n        /* \"#utility.yul\":11535:11536   */\n      dup3\n        /* \"#utility.yul\":11531:11540   */\n      sub\n        /* \"#utility.yul\":11523:11540   */\n      swap1\n      pop\n        /* \"#utility.yul\":11355:11546   */\n      swap3\n      swap2\n      pop\n      pop\n      jump\t// out\n        /* \"#utility.yul\":11552:11785   */\n    tag_78:\n        /* \"#utility.yul\":11591:11594   */\n      0x00\n        /* \"#utility.yul\":11614:11638   */\n      tag_270\n        /* \"#utility.yul\":11632:11637   */\n      dup3\n        /* \"#utility.yul\":11614:11638   */\n      tag_89\n      jump\t// in\n    tag_270:\n        /* \"#utility.yul\":11605:11638   */\n      swap2\n      pop\n        /* \"#utility.yul\":11660:11726   */\n      0xffffffffffffffffffffffffffffffffffffffffffffffffffffffffffffffff\n        /* \"#utility.yul\":11653:11658   */\n      dup3\n        /* \"#utility.yul\":11650:11727   */\n      sub\n        /* \"#utility.yul\":11647:11750   */\n      tag_271\n      jumpi\n        /* \"#utility.yul\":11730:11748   */\n      tag_272\n      tag_128\n      jump\t// in\n    tag_272:\n        /* \"#utility.yul\":11647:11750   */\n    tag_271:\n        /* \"#utility.yul\":11777:11778   */\n      0x01\n        /* \"#utility.yul\":11770:11775   */\n      dup3\n        /* \"#utility.yul\":11766:11779   */\n      add\n        /* \"#utility.yul\":11759:11779   */\n      swap1\n      pop\n        /* \"#utility.yul\":11552:11785   */\n      swap2\n      swap1\n      pop\n      jump\t// out\n\n    auxdata: 0xa2646970667358221220425d37c5737cac12b85e92c361994ae4daf2126317dc918f7134a27e5dffbaae64736f6c634300080d0033\n}\n",
				"bytecode": {
					"linkReferences": {},
					"object": "60806040523480156200001157600080fd5b5060405162000fea38038062000fea833981810160405281019062000037919062000150565b82600260006101000a81548173ffffffffffffffffffffffffffffffffffffffff021916908373ffffffffffffffffffffffffffffffffffffffff1602179055508142620000869190620001db565b600081905550806000546200009c9190620001db565b60018190555050505062000238565b600080fd5b600073ffffffffffffffffffffffffffffffffffffffff82169050919050565b6000620000dd82620000b0565b9050919050565b620000ef81620000d0565b8114620000fb57600080fd5b50565b6000815190506200010f81620000e4565b92915050565b6000819050919050565b6200012a8162000115565b81146200013657600080fd5b50565b6000815190506200014a816200011f565b92915050565b6000806000606084860312156200016c576200016b620000ab565b5b60006200017c86828701620000fe565b93505060206200018f8682870162000139565b9250506040620001a28682870162000139565b9150509250925092565b7f4e487b7100000000000000000000000000000000000000000000000000000000600052601160045260246000fd5b6000620001e88262000115565b9150620001f58362000115565b9250827fffffffffffffffffffffffffffffffffffffffffffffffffffffffffffffffff038211156200022d576200022c620001ac565b5b828201905092915050565b610da280620002486000396000f3fe6080604052600436106100705760003560e01c8063381d97871161004e578063381d9787146100e2578063957bb1e01461010b578063c068011314610127578063fe7fc8fd1461015257610070565b80630e8670e0146100755780630fdb1c10146100a05780632a24f46c146100b7575b600080fd5b34801561008157600080fd5b5061008a61017d565b604051610097919061069d565b60405180910390f35b3480156100ac57600080fd5b506100b5610183565b005b3480156100c357600080fd5b506100cc61021b565b6040516100d9919061069d565b60405180910390f35b3480156100ee57600080fd5b5061010960048036038101906101049190610a45565b610221565b005b61012560048036038101906101209190610aec565b61047a565b005b34801561013357600080fd5b5061013c610520565b6040516101499190610b5a565b60405180910390f35b34801561015e57600080fd5b50610167610546565b604051610174919061069d565b60405180910390f35b60035481565b6000600560003373ffffffffffffffffffffffffffffffffffffffff1673ffffffffffffffffffffffffffffffffffffffff1681526020019081526020016000205490506000811115610218573373ffffffffffffffffffffffffffffffffffffffff166108fc829081150290604051600060405180830381858888f19350505050158015610216573d6000803e3d6000fd5b505b50565b60005481565b60005442811161023057600080fd5b60015442811061023f57600080fd5b6000600660003373ffffffffffffffffffffffffffffffffffffffff1673ffffffffffffffffffffffffffffffffffffffff1681526020019081526020016000208054905090508086511461029357600080fd5b808551146102a057600080fd5b808451146102ad57600080fd5b6000805b82811015610429576000600660003373ffffffffffffffffffffffffffffffffffffffff1673ffffffffffffffffffffffffffffffffffffffff168152602001908152602001600020828154811061030c5761030b610b75565b5b9060005260206000209060020201905060008060008b858151811061033457610333610b75565b5b60200260200101518b868151811061034f5761034e610b75565b5b60200260200101518b878151811061036a57610369610b75565b5b6020026020010151925092509250600083838360405160200161038f93929190610c2e565b604051602081830303815290604052905080805190602001208560010154146103bc575050505050610416565b8460000154876103cc9190610c9a565b9650821580156103e0575083856000015410155b15610404576103ef843361054c565b156104035783876104009190610cf0565b96505b5b6000801b856001018190555050505050505b808061042190610d24565b9150506102b1565b503373ffffffffffffffffffffffffffffffffffffffff166108fc829081150290604051600060405180830381858888f19350505050158015610470573d6000803e3d6000fd5b5050505050505050565b60005442811061048957600080fd5b600660003373ffffffffffffffffffffffffffffffffffffffff1673ffffffffffffffffffffffffffffffffffffffff1681526020019081526020016000206040518060400160405280348152602001848152509080600181540180825580915050600190039060005260206000209060020201600090919091909150600082015181600001556020820151816001015550505050565b600460009054906101000a900473ffffffffffffffffffffffffffffffffffffffff1681565b60015481565b60006003548311610560576000905061067e565b600073ffffffffffffffffffffffffffffffffffffffff16600460009054906101000a900473ffffffffffffffffffffffffffffffffffffffff1673ffffffffffffffffffffffffffffffffffffffff16146106315760035460056000600460009054906101000a900473ffffffffffffffffffffffffffffffffffffffff1673ffffffffffffffffffffffffffffffffffffffff1673ffffffffffffffffffffffffffffffffffffffff16815260200190815260200160002060008282546106299190610c9a565b925050819055505b81600460006101000a81548173ffffffffffffffffffffffffffffffffffffffff021916908373ffffffffffffffffffffffffffffffffffffffff16021790555082600381905550600190505b92915050565b6000819050919050565b61069781610684565b82525050565b60006020820190506106b2600083018461068e565b92915050565b6000604051905090565b600080fd5b600080fd5b600080fd5b6000601f19601f8301169050919050565b7f4e487b7100000000000000000000000000000000000000000000000000000000600052604160045260246000fd5b61071a826106d1565b810181811067ffffffffffffffff82111715610739576107386106e2565b5b80604052505050565b600061074c6106b8565b90506107588282610711565b919050565b600067ffffffffffffffff821115610778576107776106e2565b5b602082029050602081019050919050565b600080fd5b61079781610684565b81146107a257600080fd5b50565b6000813590506107b48161078e565b92915050565b60006107cd6107c88461075d565b610742565b905080838252602082019050602084028301858111156107f0576107ef610789565b5b835b81811015610819578061080588826107a5565b8452602084019350506020810190506107f2565b5050509392505050565b600082601f830112610838576108376106cc565b5b81356108488482602086016107ba565b91505092915050565b600067ffffffffffffffff82111561086c5761086b6106e2565b5b602082029050602081019050919050565b60008115159050919050565b6108928161087d565b811461089d57600080fd5b50565b6000813590506108af81610889565b92915050565b60006108c86108c384610851565b610742565b905080838252602082019050602084028301858111156108eb576108ea610789565b5b835b81811015610914578061090088826108a0565b8452602084019350506020810190506108ed565b5050509392505050565b600082601f830112610933576109326106cc565b5b81356109438482602086016108b5565b91505092915050565b600067ffffffffffffffff821115610967576109666106e2565b5b602082029050602081019050919050565b6000819050919050565b61098b81610978565b811461099657600080fd5b50565b6000813590506109a881610982565b92915050565b60006109c16109bc8461094c565b610742565b905080838252602082019050602084028301858111156109e4576109e3610789565b5b835b81811015610a0d57806109f98882610999565b8452602084019350506020810190506109e6565b5050509392505050565b600082601f830112610a2c57610a2b6106cc565b5b8135610a3c8482602086016109ae565b91505092915050565b600080600060608486031215610a5e57610a5d6106c2565b5b600084013567ffffffffffffffff811115610a7c57610a7b6106c7565b5b610a8886828701610823565b935050602084013567ffffffffffffffff811115610aa957610aa86106c7565b5b610ab58682870161091e565b925050604084013567ffffffffffffffff811115610ad657610ad56106c7565b5b610ae286828701610a17565b9150509250925092565b600060208284031215610b0257610b016106c2565b5b6000610b1084828501610999565b91505092915050565b600073ffffffffffffffffffffffffffffffffffffffff82169050919050565b6000610b4482610b19565b9050919050565b610b5481610b39565b82525050565b6000602082019050610b6f6000830184610b4b565b92915050565b7f4e487b7100000000000000000000000000000000000000000000000000000000600052603260045260246000fd5b6000819050919050565b610bbf610bba82610684565b610ba4565b82525050565b60008160f81b9050919050565b6000610bdd82610bc5565b9050919050565b6000610bef82610bd2565b9050919050565b610c07610c028261087d565b610be4565b82525050565b6000819050919050565b610c28610c2382610978565b610c0d565b82525050565b6000610c3a8286610bae565b602082019150610c4a8285610bf6565b600182019150610c5a8284610c17565b602082019150819050949350505050565b7f4e487b7100000000000000000000000000000000000000000000000000000000600052601160045260246000fd5b6000610ca582610684565b9150610cb083610684565b9250827fffffffffffffffffffffffffffffffffffffffffffffffffffffffffffffffff03821115610ce557610ce4610c6b565b5b828201905092915050565b6000610cfb82610684565b9150610d0683610684565b925082821015610d1957610d18610c6b565b5b828203905092915050565b6000610d2f82610684565b91507fffffffffffffffffffffffffffffffffffffffffffffffffffffffffffffffff8203610d6157610d60610c6b565b5b60018201905091905056fea2646970667358221220425d37c5737cac12b85e92c361994ae4daf2126317dc918f7134a27e5dffbaae64736f6c634300080d0033",
					"opcodes": "PUSH1 0x80 PUSH1 0x40 MSTORE CALLVALUE DUP1 ISZERO PUSH3 0x11 JUMPI PUSH1 0x0 DUP1 REVERT JUMPDEST POP PUSH1 0x40 MLOAD PUSH3 0xFEA CODESIZE SUB DUP1 PUSH3 0xFEA DUP4 CODECOPY DUP2 DUP2 ADD PUSH1 0x40 MSTORE DUP2 ADD SWAP1 PUSH3 0x37 SWAP2 SWAP1 PUSH3 0x150 JUMP JUMPDEST DUP3 PUSH1 0x2 PUSH1 0x0 PUSH2 0x100 EXP DUP2 SLOAD DUP2 PUSH20 0xFFFFFFFFFFFFFFFFFFFFFFFFFFFFFFFFFFFFFFFF MUL NOT AND SWAP1 DUP4 PUSH20 0xFFFFFFFFFFFFFFFFFFFFFFFFFFFFFFFFFFFFFFFF AND MUL OR SWAP1 SSTORE POP DUP2 TIMESTAMP PUSH3 0x86 SWAP2 SWAP1 PUSH3 0x1DB JUMP JUMPDEST PUSH1 0x0 DUP2 SWAP1 SSTORE POP DUP1 PUSH1 0x0 SLOAD PUSH3 0x9C SWAP2 SWAP1 PUSH3 0x1DB JUMP JUMPDEST PUSH1 0x1 DUP2 SWAP1 SSTORE POP POP POP POP PUSH3 0x238 JUMP JUMPDEST PUSH1 0x0 DUP1 REVERT JUMPDEST PUSH1 0x0 PUSH20 0xFFFFFFFFFFFFFFFFFFFFFFFFFFFFFFFFFFFFFFFF DUP3 AND SWAP1 POP SWAP2 SWAP1 POP JUMP JUMPDEST PUSH1 0x0 PUSH3 0xDD DUP3 PUSH3 0xB0 JUMP JUMPDEST SWAP1 POP SWAP2 SWAP1 POP JUMP JUMPDEST PUSH3 0xEF DUP2 PUSH3 0xD0 JUMP JUMPDEST DUP2 EQ PUSH3 0xFB JUMPI PUSH1 0x0 DUP1 REVERT JUMPDEST POP JUMP JUMPDEST PUSH1 0x0 DUP2 MLOAD SWAP1 POP PUSH3 0x10F DUP2 PUSH3 0xE4 JUMP JUMPDEST SWAP3 SWAP2 POP POP JUMP JUMPDEST PUSH1 0x0 DUP2 SWAP1 POP SWAP2 SWAP1 POP JUMP JUMPDEST PUSH3 0x12A DUP2 PUSH3 0x115 JUMP JUMPDEST DUP2 EQ PUSH3 0x136 JUMPI PUSH1 0x0 DUP1 REVERT JUMPDEST POP JUMP JUMPDEST PUSH1 0x0 DUP2 MLOAD SWAP1 POP PUSH3 0x14A DUP2 PUSH3 0x11F JUMP JUMPDEST SWAP3 SWAP2 POP POP JUMP JUMPDEST PUSH1 0x0 DUP1 PUSH1 0x0 PUSH1 0x60 DUP5 DUP7 SUB SLT ISZERO PUSH3 0x16C JUMPI PUSH3 0x16B PUSH3 0xAB JUMP JUMPDEST JUMPDEST PUSH1 0x0 PUSH3 0x17C DUP7 DUP3 DUP8 ADD PUSH3 0xFE JUMP JUMPDEST SWAP4 POP POP PUSH1 0x20 PUSH3 0x18F DUP7 DUP3 DUP8 ADD PUSH3 0x139 JUMP JUMPDEST SWAP3 POP POP PUSH1 0x40 PUSH3 0x1A2 DUP7 DUP3 DUP8 ADD PUSH3 0x139 JUMP JUMPDEST SWAP2 POP POP SWAP3 POP SWAP3 POP SWAP3 JUMP JUMPDEST PUSH32 0x4E487B7100000000000000000000000000000000000000000000000000000000 PUSH1 0x0 MSTORE PUSH1 0x11 PUSH1 0x4 MSTORE PUSH1 0x24 PUSH1 0x0 REVERT JUMPDEST PUSH1 0x0 PUSH3 0x1E8 DUP3 PUSH3 0x115 JUMP JUMPDEST SWAP2 POP PUSH3 0x1F5 DUP4 PUSH3 0x115 JUMP JUMPDEST SWAP3 POP DUP3 PUSH32 0xFFFFFFFFFFFFFFFFFFFFFFFFFFFFFFFFFFFFFFFFFFFFFFFFFFFFFFFFFFFFFFFF SUB DUP3 GT ISZERO PUSH3 0x22D JUMPI PUSH3 0x22C PUSH3 0x1AC JUMP JUMPDEST JUMPDEST DUP3 DUP3 ADD SWAP1 POP SWAP3 SWAP2 POP POP JUMP JUMPDEST PUSH2 0xDA2 DUP1 PUSH3 0x248 PUSH1 0x0 CODECOPY PUSH1 0x0 RETURN INVALID PUSH1 0x80 PUSH1 0x40 MSTORE PUSH1 0x4 CALLDATASIZE LT PUSH2 0x70 JUMPI PUSH1 0x0 CALLDATALOAD PUSH1 0xE0 SHR DUP1 PUSH4 0x381D9787 GT PUSH2 0x4E JUMPI DUP1 PUSH4 0x381D9787 EQ PUSH2 0xE2 JUMPI DUP1 PUSH4 0x957BB1E0 EQ PUSH2 0x10B JUMPI DUP1 PUSH4 0xC0680113 EQ PUSH2 0x127 JUMPI DUP1 PUSH4 0xFE7FC8FD EQ PUSH2 0x152 JUMPI PUSH2 0x70 JUMP JUMPDEST DUP1 PUSH4 0xE8670E0 EQ PUSH2 0x75 JUMPI DUP1 PUSH4 0xFDB1C10 EQ PUSH2 0xA0 JUMPI DUP1 PUSH4 0x2A24F46C EQ PUSH2 0xB7 JUMPI JUMPDEST PUSH1 0x0 DUP1 REVERT JUMPDEST CALLVALUE DUP1 ISZERO PUSH2 0x81 JUMPI PUSH1 0x0 DUP1 REVERT JUMPDEST POP PUSH2 0x8A PUSH2 0x17D JUMP JUMPDEST PUSH1 0x40 MLOAD PUSH2 0x97 SWAP2 SWAP1 PUSH2 0x69D JUMP JUMPDEST PUSH1 0x40 MLOAD DUP1 SWAP2 SUB SWAP1 RETURN JUMPDEST CALLVALUE DUP1 ISZERO PUSH2 0xAC JUMPI PUSH1 0x0 DUP1 REVERT JUMPDEST POP PUSH2 0xB5 PUSH2 0x183 JUMP JUMPDEST STOP JUMPDEST CALLVALUE DUP1 ISZERO PUSH2 0xC3 JUMPI PUSH1 0x0 DUP1 REVERT JUMPDEST POP PUSH2 0xCC PUSH2 0x21B JUMP JUMPDEST PUSH1 0x40 MLOAD PUSH2 0xD9 SWAP2 SWAP1 PUSH2 0x69D JUMP JUMPDEST PUSH1 0x40 MLOAD DUP1 SWAP2 SUB SWAP1 RETURN JUMPDEST CALLVALUE DUP1 ISZERO PUSH2 0xEE JUMPI PUSH1 0x0 DUP1 REVERT JUMPDEST POP PUSH2 0x109 PUSH1 0x4 DUP1 CALLDATASIZE SUB DUP2 ADD SWAP1 PUSH2 0x104 SWAP2 SWAP1 PUSH2 0xA45 JUMP JUMPDEST PUSH2 0x221 JUMP JUMPDEST STOP JUMPDEST PUSH2 0x125 PUSH1 0x4 DUP1 CALLDATASIZE SUB DUP2 ADD SWAP1 PUSH2 0x120 SWAP2 SWAP1 PUSH2 0xAEC JUMP JUMPDEST PUSH2 0x47A JUMP JUMPDEST STOP JUMPDEST CALLVALUE DUP1 ISZERO PUSH2 0x133 JUMPI PUSH1 0x0 DUP1 REVERT JUMPDEST POP PUSH2 0x13C PUSH2 0x520 JUMP JUMPDEST PUSH1 0x40 MLOAD PUSH2 0x149 SWAP2 SWAP1 PUSH2 0xB5A JUMP JUMPDEST PUSH1 0x40 MLOAD DUP1 SWAP2 SUB SWAP1 RETURN JUMPDEST CALLVALUE DUP1 ISZERO PUSH2 0x15E JUMPI PUSH1 0x0 DUP1 REVERT JUMPDEST POP PUSH2 0x167 PUSH2 0x546 JUMP JUMPDEST PUSH1 0x40 MLOAD PUSH2 0x174 SWAP2 SWAP1 PUSH2 0x69D JUMP JUMPDEST PUSH1 0x40 MLOAD DUP1 SWAP2 SUB SWAP1 RETURN JUMPDEST PUSH1 0x3 SLOAD DUP2 JUMP JUMPDEST PUSH1 0x0 PUSH1 0x5 PUSH1 0x0 CALLER PUSH20 0xFFFFFFFFFFFFFFFFFFFFFFFFFFFFFFFFFFFFFFFF AND PUSH20 0xFFFFFFFFFFFFFFFFFFFFFFFFFFFFFFFFFFFFFFFF AND DUP2 MSTORE PUSH1 0x20 ADD SWAP1 DUP2 MSTORE PUSH1 0x20 ADD PUSH1 0x0 KECCAK256 SLOAD SWAP1 POP PUSH1 0x0 DUP2 GT ISZERO PUSH2 0x218 JUMPI CALLER PUSH20 0xFFFFFFFFFFFFFFFFFFFFFFFFFFFFFFFFFFFFFFFF AND PUSH2 0x8FC DUP3 SWAP1 DUP2 ISZERO MUL SWAP1 PUSH1 0x40 MLOAD PUSH1 0x0 PUSH1 0x40 MLOAD DUP1 DUP4 SUB DUP2 DUP6 DUP9 DUP9 CALL SWAP4 POP POP POP POP ISZERO DUP1 ISZERO PUSH2 0x216 JUMPI RETURNDATASIZE PUSH1 0x0 DUP1 RETURNDATACOPY RETURNDATASIZE PUSH1 0x0 REVERT JUMPDEST POP JUMPDEST POP JUMP JUMPDEST PUSH1 0x0 SLOAD DUP2 JUMP JUMPDEST PUSH1 0x0 SLOAD TIMESTAMP DUP2 GT PUSH2 0x230 JUMPI PUSH1 0x0 DUP1 REVERT JUMPDEST PUSH1 0x1 SLOAD TIMESTAMP DUP2 LT PUSH2 0x23F JUMPI PUSH1 0x0 DUP1 REVERT JUMPDEST PUSH1 0x0 PUSH1 0x6 PUSH1 0x0 CALLER PUSH20 0xFFFFFFFFFFFFFFFFFFFFFFFFFFFFFFFFFFFFFFFF AND PUSH20 0xFFFFFFFFFFFFFFFFFFFFFFFFFFFFFFFFFFFFFFFF AND DUP2 MSTORE PUSH1 0x20 ADD SWAP1 DUP2 MSTORE PUSH1 0x20 ADD PUSH1 0x0 KECCAK256 DUP1 SLOAD SWAP1 POP SWAP1 POP DUP1 DUP7 MLOAD EQ PUSH2 0x293 JUMPI PUSH1 0x0 DUP1 REVERT JUMPDEST DUP1 DUP6 MLOAD EQ PUSH2 0x2A0 JUMPI PUSH1 0x0 DUP1 REVERT JUMPDEST DUP1 DUP5 MLOAD EQ PUSH2 0x2AD JUMPI PUSH1 0x0 DUP1 REVERT JUMPDEST PUSH1 0x0 DUP1 JUMPDEST DUP3 DUP2 LT ISZERO PUSH2 0x429 JUMPI PUSH1 0x0 PUSH1 0x6 PUSH1 0x0 CALLER PUSH20 0xFFFFFFFFFFFFFFFFFFFFFFFFFFFFFFFFFFFFFFFF AND PUSH20 0xFFFFFFFFFFFFFFFFFFFFFFFFFFFFFFFFFFFFFFFF AND DUP2 MSTORE PUSH1 0x20 ADD SWAP1 DUP2 MSTORE PUSH1 0x20 ADD PUSH1 0x0 KECCAK256 DUP3 DUP2 SLOAD DUP2 LT PUSH2 0x30C JUMPI PUSH2 0x30B PUSH2 0xB75 JUMP JUMPDEST JUMPDEST SWAP1 PUSH1 0x0 MSTORE PUSH1 0x20 PUSH1 0x0 KECCAK256 SWAP1 PUSH1 0x2 MUL ADD SWAP1 POP PUSH1 0x0 DUP1 PUSH1 0x0 DUP12 DUP6 DUP2 MLOAD DUP2 LT PUSH2 0x334 JUMPI PUSH2 0x333 PUSH2 0xB75 JUMP JUMPDEST JUMPDEST PUSH1 0x20 MUL PUSH1 0x20 ADD ADD MLOAD DUP12 DUP7 DUP2 MLOAD DUP2 LT PUSH2 0x34F JUMPI PUSH2 0x34E PUSH2 0xB75 JUMP JUMPDEST JUMPDEST PUSH1 0x20 MUL PUSH1 0x20 ADD ADD MLOAD DUP12 DUP8 DUP2 MLOAD DUP2 LT PUSH2 0x36A JUMPI PUSH2 0x369 PUSH2 0xB75 JUMP JUMPDEST JUMPDEST PUSH1 0x20 MUL PUSH1 0x20 ADD ADD MLOAD SWAP3 POP SWAP3 POP SWAP3 POP PUSH1 0x0 DUP4 DUP4 DUP4 PUSH1 0x40 MLOAD PUSH1 0x20 ADD PUSH2 0x38F SWAP4 SWAP3 SWAP2 SWAP1 PUSH2 0xC2E JUMP JUMPDEST PUSH1 0x40 MLOAD PUSH1 0x20 DUP2 DUP4 SUB SUB DUP2 MSTORE SWAP1 PUSH1 0x40 MSTORE SWAP1 POP DUP1 DUP1 MLOAD SWAP1 PUSH1 0x20 ADD KECCAK256 DUP6 PUSH1 0x1 ADD SLOAD EQ PUSH2 0x3BC JUMPI POP POP POP POP POP PUSH2 0x416 JUMP JUMPDEST DUP5 PUSH1 0x0 ADD SLOAD DUP8 PUSH2 0x3CC SWAP2 SWAP1 PUSH2 0xC9A JUMP JUMPDEST SWAP7 POP DUP3 ISZERO DUP1 ISZERO PUSH2 0x3E0 JUMPI POP DUP4 DUP6 PUSH1 0x0 ADD SLOAD LT ISZERO JUMPDEST ISZERO PUSH2 0x404 JUMPI PUSH2 0x3EF DUP5 CALLER PUSH2 0x54C JUMP JUMPDEST ISZERO PUSH2 0x403 JUMPI DUP4 DUP8 PUSH2 0x400 SWAP2 SWAP1 PUSH2 0xCF0 JUMP JUMPDEST SWAP7 POP JUMPDEST JUMPDEST PUSH1 0x0 DUP1 SHL DUP6 PUSH1 0x1 ADD DUP2 SWAP1 SSTORE POP POP POP POP POP POP JUMPDEST DUP1 DUP1 PUSH2 0x421 SWAP1 PUSH2 0xD24 JUMP JUMPDEST SWAP2 POP POP PUSH2 0x2B1 JUMP JUMPDEST POP CALLER PUSH20 0xFFFFFFFFFFFFFFFFFFFFFFFFFFFFFFFFFFFFFFFF AND PUSH2 0x8FC DUP3 SWAP1 DUP2 ISZERO MUL SWAP1 PUSH1 0x40 MLOAD PUSH1 0x0 PUSH1 0x40 MLOAD DUP1 DUP4 SUB DUP2 DUP6 DUP9 DUP9 CALL SWAP4 POP POP POP POP ISZERO DUP1 ISZERO PUSH2 0x470 JUMPI RETURNDATASIZE PUSH1 0x0 DUP1 RETURNDATACOPY RETURNDATASIZE PUSH1 0x0 REVERT JUMPDEST POP POP POP POP POP POP POP POP JUMP JUMPDEST PUSH1 0x0 SLOAD TIMESTAMP DUP2 LT PUSH2 0x489 JUMPI PUSH1 0x0 DUP1 REVERT JUMPDEST PUSH1 0x6 PUSH1 0x0 CALLER PUSH20 0xFFFFFFFFFFFFFFFFFFFFFFFFFFFFFFFFFFFFFFFF AND PUSH20 0xFFFFFFFFFFFFFFFFFFFFFFFFFFFFFFFFFFFFFFFF AND DUP2 MSTORE PUSH1 0x20 ADD SWAP1 DUP2 MSTORE PUSH1 0x20 ADD PUSH1 0x0 KECCAK256 PUSH1 0x40 MLOAD DUP1 PUSH1 0x40 ADD PUSH1 0x40 MSTORE DUP1 CALLVALUE DUP2 MSTORE PUSH1 0x20 ADD DUP5 DUP2 MSTORE POP SWAP1 DUP1 PUSH1 0x1 DUP2 SLOAD ADD DUP1 DUP3 SSTORE DUP1 SWAP2 POP POP PUSH1 0x1 SWAP1 SUB SWAP1 PUSH1 0x0 MSTORE PUSH1 0x20 PUSH1 0x0 KECCAK256 SWAP1 PUSH1 0x2 MUL ADD PUSH1 0x0 SWAP1 SWAP2 SWAP1 SWAP2 SWAP1 SWAP2 POP PUSH1 0x0 DUP3 ADD MLOAD DUP2 PUSH1 0x0 ADD SSTORE PUSH1 0x20 DUP3 ADD MLOAD DUP2 PUSH1 0x1 ADD SSTORE POP POP POP POP JUMP JUMPDEST PUSH1 0x4 PUSH1 0x0 SWAP1 SLOAD SWAP1 PUSH2 0x100 EXP SWAP1 DIV PUSH20 0xFFFFFFFFFFFFFFFFFFFFFFFFFFFFFFFFFFFFFFFF AND DUP2 JUMP JUMPDEST PUSH1 0x1 SLOAD DUP2 JUMP JUMPDEST PUSH1 0x0 PUSH1 0x3 SLOAD DUP4 GT PUSH2 0x560 JUMPI PUSH1 0x0 SWAP1 POP PUSH2 0x67E JUMP JUMPDEST PUSH1 0x0 PUSH20 0xFFFFFFFFFFFFFFFFFFFFFFFFFFFFFFFFFFFFFFFF AND PUSH1 0x4 PUSH1 0x0 SWAP1 SLOAD SWAP1 PUSH2 0x100 EXP SWAP1 DIV PUSH20 0xFFFFFFFFFFFFFFFFFFFFFFFFFFFFFFFFFFFFFFFF AND PUSH20 0xFFFFFFFFFFFFFFFFFFFFFFFFFFFFFFFFFFFFFFFF AND EQ PUSH2 0x631 JUMPI PUSH1 0x3 SLOAD PUSH1 0x5 PUSH1 0x0 PUSH1 0x4 PUSH1 0x0 SWAP1 SLOAD SWAP1 PUSH2 0x100 EXP SWAP1 DIV PUSH20 0xFFFFFFFFFFFFFFFFFFFFFFFFFFFFFFFFFFFFFFFF AND PUSH20 0xFFFFFFFFFFFFFFFFFFFFFFFFFFFFFFFFFFFFFFFF AND PUSH20 0xFFFFFFFFFFFFFFFFFFFFFFFFFFFFFFFFFFFFFFFF AND DUP2 MSTORE PUSH1 0x20 ADD SWAP1 DUP2 MSTORE PUSH1 0x20 ADD PUSH1 0x0 KECCAK256 PUSH1 0x0 DUP3 DUP3 SLOAD PUSH2 0x629 SWAP2 SWAP1 PUSH2 0xC9A JUMP JUMPDEST SWAP3 POP POP DUP2 SWAP1 SSTORE POP JUMPDEST DUP2 PUSH1 0x4 PUSH1 0x0 PUSH2 0x100 EXP DUP2 SLOAD DUP2 PUSH20 0xFFFFFFFFFFFFFFFFFFFFFFFFFFFFFFFFFFFFFFFF MUL NOT AND SWAP1 DUP4 PUSH20 0xFFFFFFFFFFFFFFFFFFFFFFFFFFFFFFFFFFFFFFFF AND MUL OR SWAP1 SSTORE POP DUP3 PUSH1 0x3 DUP2 SWAP1 SSTORE POP PUSH1 0x1 SWAP1 POP JUMPDEST SWAP3 SWAP2 POP POP JUMP JUMPDEST PUSH1 0x0 DUP2 SWAP1 POP SWAP2 SWAP1 POP JUMP JUMPDEST PUSH2 0x697 DUP2 PUSH2 0x684 JUMP JUMPDEST DUP3 MSTORE POP POP JUMP JUMPDEST PUSH1 0x0 PUSH1 0x20 DUP3 ADD SWAP1 POP PUSH2 0x6B2 PUSH1 0x0 DUP4 ADD DUP5 PUSH2 0x68E JUMP JUMPDEST SWAP3 SWAP2 POP POP JUMP JUMPDEST PUSH1 0x0 PUSH1 0x40 MLOAD SWAP1 POP SWAP1 JUMP JUMPDEST PUSH1 0x0 DUP1 REVERT JUMPDEST PUSH1 0x0 DUP1 REVERT JUMPDEST PUSH1 0x0 DUP1 REVERT JUMPDEST PUSH1 0x0 PUSH1 0x1F NOT PUSH1 0x1F DUP4 ADD AND SWAP1 POP SWAP2 SWAP1 POP JUMP JUMPDEST PUSH32 0x4E487B7100000000000000000000000000000000000000000000000000000000 PUSH1 0x0 MSTORE PUSH1 0x41 PUSH1 0x4 MSTORE PUSH1 0x24 PUSH1 0x0 REVERT JUMPDEST PUSH2 0x71A DUP3 PUSH2 0x6D1 JUMP JUMPDEST DUP2 ADD DUP2 DUP2 LT PUSH8 0xFFFFFFFFFFFFFFFF DUP3 GT OR ISZERO PUSH2 0x739 JUMPI PUSH2 0x738 PUSH2 0x6E2 JUMP JUMPDEST JUMPDEST DUP1 PUSH1 0x40 MSTORE POP POP POP JUMP JUMPDEST PUSH1 0x0 PUSH2 0x74C PUSH2 0x6B8 JUMP JUMPDEST SWAP1 POP PUSH2 0x758 DUP3 DUP3 PUSH2 0x711 JUMP JUMPDEST SWAP2 SWAP1 POP JUMP JUMPDEST PUSH1 0x0 PUSH8 0xFFFFFFFFFFFFFFFF DUP3 GT ISZERO PUSH2 0x778 JUMPI PUSH2 0x777 PUSH2 0x6E2 JUMP JUMPDEST JUMPDEST PUSH1 0x20 DUP3 MUL SWAP1 POP PUSH1 0x20 DUP2 ADD SWAP1 POP SWAP2 SWAP1 POP JUMP JUMPDEST PUSH1 0x0 DUP1 REVERT JUMPDEST PUSH2 0x797 DUP2 PUSH2 0x684 JUMP JUMPDEST DUP2 EQ PUSH2 0x7A2 JUMPI PUSH1 0x0 DUP1 REVERT JUMPDEST POP JUMP JUMPDEST PUSH1 0x0 DUP2 CALLDATALOAD SWAP1 POP PUSH2 0x7B4 DUP2 PUSH2 0x78E JUMP JUMPDEST SWAP3 SWAP2 POP POP JUMP JUMPDEST PUSH1 0x0 PUSH2 0x7CD PUSH2 0x7C8 DUP5 PUSH2 0x75D JUMP JUMPDEST PUSH2 0x742 JUMP JUMPDEST SWAP1 POP DUP1 DUP4 DUP3 MSTORE PUSH1 0x20 DUP3 ADD SWAP1 POP PUSH1 0x20 DUP5 MUL DUP4 ADD DUP6 DUP2 GT ISZERO PUSH2 0x7F0 JUMPI PUSH2 0x7EF PUSH2 0x789 JUMP JUMPDEST JUMPDEST DUP4 JUMPDEST DUP2 DUP2 LT ISZERO PUSH2 0x819 JUMPI DUP1 PUSH2 0x805 DUP9 DUP3 PUSH2 0x7A5 JUMP JUMPDEST DUP5 MSTORE PUSH1 0x20 DUP5 ADD SWAP4 POP POP PUSH1 0x20 DUP2 ADD SWAP1 POP PUSH2 0x7F2 JUMP JUMPDEST POP POP POP SWAP4 SWAP3 POP POP POP JUMP JUMPDEST PUSH1 0x0 DUP3 PUSH1 0x1F DUP4 ADD SLT PUSH2 0x838 JUMPI PUSH2 0x837 PUSH2 0x6CC JUMP JUMPDEST JUMPDEST DUP2 CALLDATALOAD PUSH2 0x848 DUP5 DUP3 PUSH1 0x20 DUP7 ADD PUSH2 0x7BA JUMP JUMPDEST SWAP2 POP POP SWAP3 SWAP2 POP POP JUMP JUMPDEST PUSH1 0x0 PUSH8 0xFFFFFFFFFFFFFFFF DUP3 GT ISZERO PUSH2 0x86C JUMPI PUSH2 0x86B PUSH2 0x6E2 JUMP JUMPDEST JUMPDEST PUSH1 0x20 DUP3 MUL SWAP1 POP PUSH1 0x20 DUP2 ADD SWAP1 POP SWAP2 SWAP1 POP JUMP JUMPDEST PUSH1 0x0 DUP2 ISZERO ISZERO SWAP1 POP SWAP2 SWAP1 POP JUMP JUMPDEST PUSH2 0x892 DUP2 PUSH2 0x87D JUMP JUMPDEST DUP2 EQ PUSH2 0x89D JUMPI PUSH1 0x0 DUP1 REVERT JUMPDEST POP JUMP JUMPDEST PUSH1 0x0 DUP2 CALLDATALOAD SWAP1 POP PUSH2 0x8AF DUP2 PUSH2 0x889 JUMP JUMPDEST SWAP3 SWAP2 POP POP JUMP JUMPDEST PUSH1 0x0 PUSH2 0x8C8 PUSH2 0x8C3 DUP5 PUSH2 0x851 JUMP JUMPDEST PUSH2 0x742 JUMP JUMPDEST SWAP1 POP DUP1 DUP4 DUP3 MSTORE PUSH1 0x20 DUP3 ADD SWAP1 POP PUSH1 0x20 DUP5 MUL DUP4 ADD DUP6 DUP2 GT ISZERO PUSH2 0x8EB JUMPI PUSH2 0x8EA PUSH2 0x789 JUMP JUMPDEST JUMPDEST DUP4 JUMPDEST DUP2 DUP2 LT ISZERO PUSH2 0x914 JUMPI DUP1 PUSH2 0x900 DUP9 DUP3 PUSH2 0x8A0 JUMP JUMPDEST DUP5 MSTORE PUSH1 0x20 DUP5 ADD SWAP4 POP POP PUSH1 0x20 DUP2 ADD SWAP1 POP PUSH2 0x8ED JUMP JUMPDEST POP POP POP SWAP4 SWAP3 POP POP POP JUMP JUMPDEST PUSH1 0x0 DUP3 PUSH1 0x1F DUP4 ADD SLT PUSH2 0x933 JUMPI PUSH2 0x932 PUSH2 0x6CC JUMP JUMPDEST JUMPDEST DUP2 CALLDATALOAD PUSH2 0x943 DUP5 DUP3 PUSH1 0x20 DUP7 ADD PUSH2 0x8B5 JUMP JUMPDEST SWAP2 POP POP SWAP3 SWAP2 POP POP JUMP JUMPDEST PUSH1 0x0 PUSH8 0xFFFFFFFFFFFFFFFF DUP3 GT ISZERO PUSH2 0x967 JUMPI PUSH2 0x966 PUSH2 0x6E2 JUMP JUMPDEST JUMPDEST PUSH1 0x20 DUP3 MUL SWAP1 POP PUSH1 0x20 DUP2 ADD SWAP1 POP SWAP2 SWAP1 POP JUMP JUMPDEST PUSH1 0x0 DUP2 SWAP1 POP SWAP2 SWAP1 POP JUMP JUMPDEST PUSH2 0x98B DUP2 PUSH2 0x978 JUMP JUMPDEST DUP2 EQ PUSH2 0x996 JUMPI PUSH1 0x0 DUP1 REVERT JUMPDEST POP JUMP JUMPDEST PUSH1 0x0 DUP2 CALLDATALOAD SWAP1 POP PUSH2 0x9A8 DUP2 PUSH2 0x982 JUMP JUMPDEST SWAP3 SWAP2 POP POP JUMP JUMPDEST PUSH1 0x0 PUSH2 0x9C1 PUSH2 0x9BC DUP5 PUSH2 0x94C JUMP JUMPDEST PUSH2 0x742 JUMP JUMPDEST SWAP1 POP DUP1 DUP4 DUP3 MSTORE PUSH1 0x20 DUP3 ADD SWAP1 POP PUSH1 0x20 DUP5 MUL DUP4 ADD DUP6 DUP2 GT ISZERO PUSH2 0x9E4 JUMPI PUSH2 0x9E3 PUSH2 0x789 JUMP JUMPDEST JUMPDEST DUP4 JUMPDEST DUP2 DUP2 LT ISZERO PUSH2 0xA0D JUMPI DUP1 PUSH2 0x9F9 DUP9 DUP3 PUSH2 0x999 JUMP JUMPDEST DUP5 MSTORE PUSH1 0x20 DUP5 ADD SWAP4 POP POP PUSH1 0x20 DUP2 ADD SWAP1 POP PUSH2 0x9E6 JUMP JUMPDEST POP POP POP SWAP4 SWAP3 POP POP POP JUMP JUMPDEST PUSH1 0x0 DUP3 PUSH1 0x1F DUP4 ADD SLT PUSH2 0xA2C JUMPI PUSH2 0xA2B PUSH2 0x6CC JUMP JUMPDEST JUMPDEST DUP2 CALLDATALOAD PUSH2 0xA3C DUP5 DUP3 PUSH1 0x20 DUP7 ADD PUSH2 0x9AE JUMP JUMPDEST SWAP2 POP POP SWAP3 SWAP2 POP POP JUMP JUMPDEST PUSH1 0x0 DUP1 PUSH1 0x0 PUSH1 0x60 DUP5 DUP7 SUB SLT ISZERO PUSH2 0xA5E JUMPI PUSH2 0xA5D PUSH2 0x6C2 JUMP JUMPDEST JUMPDEST PUSH1 0x0 DUP5 ADD CALLDATALOAD PUSH8 0xFFFFFFFFFFFFFFFF DUP2 GT ISZERO PUSH2 0xA7C JUMPI PUSH2 0xA7B PUSH2 0x6C7 JUMP JUMPDEST JUMPDEST PUSH2 0xA88 DUP7 DUP3 DUP8 ADD PUSH2 0x823 JUMP JUMPDEST SWAP4 POP POP PUSH1 0x20 DUP5 ADD CALLDATALOAD PUSH8 0xFFFFFFFFFFFFFFFF DUP2 GT ISZERO PUSH2 0xAA9 JUMPI PUSH2 0xAA8 PUSH2 0x6C7 JUMP JUMPDEST JUMPDEST PUSH2 0xAB5 DUP7 DUP3 DUP8 ADD PUSH2 0x91E JUMP JUMPDEST SWAP3 POP POP PUSH1 0x40 DUP5 ADD CALLDATALOAD PUSH8 0xFFFFFFFFFFFFFFFF DUP2 GT ISZERO PUSH2 0xAD6 JUMPI PUSH2 0xAD5 PUSH2 0x6C7 JUMP JUMPDEST JUMPDEST PUSH2 0xAE2 DUP7 DUP3 DUP8 ADD PUSH2 0xA17 JUMP JUMPDEST SWAP2 POP POP SWAP3 POP SWAP3 POP SWAP3 JUMP JUMPDEST PUSH1 0x0 PUSH1 0x20 DUP3 DUP5 SUB SLT ISZERO PUSH2 0xB02 JUMPI PUSH2 0xB01 PUSH2 0x6C2 JUMP JUMPDEST JUMPDEST PUSH1 0x0 PUSH2 0xB10 DUP5 DUP3 DUP6 ADD PUSH2 0x999 JUMP JUMPDEST SWAP2 POP POP SWAP3 SWAP2 POP POP JUMP JUMPDEST PUSH1 0x0 PUSH20 0xFFFFFFFFFFFFFFFFFFFFFFFFFFFFFFFFFFFFFFFF DUP3 AND SWAP1 POP SWAP2 SWAP1 POP JUMP JUMPDEST PUSH1 0x0 PUSH2 0xB44 DUP3 PUSH2 0xB19 JUMP JUMPDEST SWAP1 POP SWAP2 SWAP1 POP JUMP JUMPDEST PUSH2 0xB54 DUP2 PUSH2 0xB39 JUMP JUMPDEST DUP3 MSTORE POP POP JUMP JUMPDEST PUSH1 0x0 PUSH1 0x20 DUP3 ADD SWAP1 POP PUSH2 0xB6F PUSH1 0x0 DUP4 ADD DUP5 PUSH2 0xB4B JUMP JUMPDEST SWAP3 SWAP2 POP POP JUMP JUMPDEST PUSH32 0x4E487B7100000000000000000000000000000000000000000000000000000000 PUSH1 0x0 MSTORE PUSH1 0x32 PUSH1 0x4 MSTORE PUSH1 0x24 PUSH1 0x0 REVERT JUMPDEST PUSH1 0x0 DUP2 SWAP1 POP SWAP2 SWAP1 POP JUMP JUMPDEST PUSH2 0xBBF PUSH2 0xBBA DUP3 PUSH2 0x684 JUMP JUMPDEST PUSH2 0xBA4 JUMP JUMPDEST DUP3 MSTORE POP POP JUMP JUMPDEST PUSH1 0x0 DUP2 PUSH1 0xF8 SHL SWAP1 POP SWAP2 SWAP1 POP JUMP JUMPDEST PUSH1 0x0 PUSH2 0xBDD DUP3 PUSH2 0xBC5 JUMP JUMPDEST SWAP1 POP SWAP2 SWAP1 POP JUMP JUMPDEST PUSH1 0x0 PUSH2 0xBEF DUP3 PUSH2 0xBD2 JUMP JUMPDEST SWAP1 POP SWAP2 SWAP1 POP JUMP JUMPDEST PUSH2 0xC07 PUSH2 0xC02 DUP3 PUSH2 0x87D JUMP JUMPDEST PUSH2 0xBE4 JUMP JUMPDEST DUP3 MSTORE POP POP JUMP JUMPDEST PUSH1 0x0 DUP2 SWAP1 POP SWAP2 SWAP1 POP JUMP JUMPDEST PUSH2 0xC28 PUSH2 0xC23 DUP3 PUSH2 0x978 JUMP JUMPDEST PUSH2 0xC0D JUMP JUMPDEST DUP3 MSTORE POP POP JUMP JUMPDEST PUSH1 0x0 PUSH2 0xC3A DUP3 DUP7 PUSH2 0xBAE JUMP JUMPDEST PUSH1 0x20 DUP3 ADD SWAP2 POP PUSH2 0xC4A DUP3 DUP6 PUSH2 0xBF6 JUMP JUMPDEST PUSH1 0x1 DUP3 ADD SWAP2 POP PUSH2 0xC5A DUP3 DUP5 PUSH2 0xC17 JUMP JUMPDEST PUSH1 0x20 DUP3 ADD SWAP2 POP DUP2 SWAP1 POP SWAP5 SWAP4 POP POP POP POP JUMP JUMPDEST PUSH32 0x4E487B7100000000000000000000000000000000000000000000000000000000 PUSH1 0x0 MSTORE PUSH1 0x11 PUSH1 0x4 MSTORE PUSH1 0x24 PUSH1 0x0 REVERT JUMPDEST PUSH1 0x0 PUSH2 0xCA5 DUP3 PUSH2 0x684 JUMP JUMPDEST SWAP2 POP PUSH2 0xCB0 DUP4 PUSH2 0x684 JUMP JUMPDEST SWAP3 POP DUP3 PUSH32 0xFFFFFFFFFFFFFFFFFFFFFFFFFFFFFFFFFFFFFFFFFFFFFFFFFFFFFFFFFFFFFFFF SUB DUP3 GT ISZERO PUSH2 0xCE5 JUMPI PUSH2 0xCE4 PUSH2 0xC6B JUMP JUMPDEST JUMPDEST DUP3 DUP3 ADD SWAP1 POP SWAP3 SWAP2 POP POP JUMP JUMPDEST PUSH1 0x0 PUSH2 0xCFB DUP3 PUSH2 0x684 JUMP JUMPDEST SWAP2 POP PUSH2 0xD06 DUP4 PUSH2 0x684 JUMP JUMPDEST SWAP3 POP DUP3 DUP3 LT ISZERO PUSH2 0xD19 JUMPI PUSH2 0xD18 PUSH2 0xC6B JUMP JUMPDEST JUMPDEST DUP3 DUP3 SUB SWAP1 POP SWAP3 SWAP2 POP POP JUMP JUMPDEST PUSH1 0x0 PUSH2 0xD2F DUP3 PUSH2 0x684 JUMP JUMPDEST SWAP2 POP PUSH32 0xFFFFFFFFFFFFFFFFFFFFFFFFFFFFFFFFFFFFFFFFFFFFFFFFFFFFFFFFFFFFFFFF DUP3 SUB PUSH2 0xD61 JUMPI PUSH2 0xD60 PUSH2 0xC6B JUMP JUMPDEST JUMPDEST PUSH1 0x1 DUP3 ADD SWAP1 POP SWAP2 SWAP1 POP JUMP INVALID LOG2 PUSH5 0x6970667358 0x22 SLT KECCAK256 TIMESTAMP 0x5D CALLDATACOPY 0xC5 PUSH20 0x7CAC12B85E92C361994AE4DAF2126317DC918F71 CALLVALUE LOG2 PUSH31 0x5DFFBAAE64736F6C634300080D003300000000000000000000000000000000 "
				},
				"gasEstimates": {
					"creation": {
						"codeDepositCost": "698000",
						"executionCost": "infinite",
						"totalCost": "infinite"
					},
					"external": {
						"auctionEnd()": "2474",
						"bid(bytes32)": "71255",
						"disclose(uint256[],bool[],bytes32[])": "infinite",
						"discloseEnd()": "2495",
						"highestPrice()": "2430",
						"highester()": "2558",
						"withDraw()": "infinite"
					},
					"internal": {
						"placeBid(uint256,address)": "infinite"
					}
				},
				"methodIdentifiers": {
					"auctionEnd()": "2a24f46c",
					"bid(bytes32)": "957bb1e0",
					"disclose(uint256[],bool[],bytes32[])": "381d9787",
					"discloseEnd()": "fe7fc8fd",
					"highestPrice()": "0e8670e0",
					"highester()": "c0680113",
					"withDraw()": "0fdb1c10"
				}
			},
			"userdoc": {
				"kind": "user",
				"methods": {},
				"version": 1
			}
		}
	}
}