{
	"contracts/SecretAuctionSystem.sol": {
		"BlindAuction": {
			"abi": [
				{
					"inputs": [
						{
							"internalType": "uint256",
							"name": "_biddingTime",
							"type": "uint256"
						},
						{
							"internalType": "uint256",
							"name": "_revealTime",
							"type": "uint256"
						},
						{
							"internalType": "address payable",
							"name": "_beneficiary",
							"type": "address"
						}
					],
					"stateMutability": "nonpayable",
					"type": "constructor"
				},
				{
					"anonymous": false,
					"inputs": [
						{
							"indexed": false,
							"internalType": "address",
							"name": "winner",
							"type": "address"
						},
						{
							"indexed": false,
							"internalType": "uint256",
							"name": "highestBid",
							"type": "uint256"
						}
					],
					"name": "AuctionEnded",
					"type": "event"
				},
				{
					"inputs": [],
					"name": "beneficiary",
					"outputs": [
						{
							"internalType": "address payable",
							"name": "",
							"type": "address"
						}
					],
					"stateMutability": "view",
					"type": "function"
				},
				{
					"inputs": [
						{
							"internalType": "bytes32",
							"name": "_blindedBid",
							"type": "bytes32"
						}
					],
					"name": "bid",
					"outputs": [],
					"stateMutability": "payable",
					"type": "function"
				},
				{
					"inputs": [],
					"name": "biddingEnd",
					"outputs": [
						{
							"internalType": "uint256",
							"name": "",
							"type": "uint256"
						}
					],
					"stateMutability": "view",
					"type": "function"
				},
				{
					"inputs": [
						{
							"internalType": "address",
							"name": "",
							"type": "address"
						},
						{
							"internalType": "uint256",
							"name": "",
							"type": "uint256"
						}
					],
					"name": "bids",
					"outputs": [
						{
							"internalType": "bytes32",
							"name": "blindedBid",
							"type": "bytes32"
						},
						{
							"internalType": "uint256",
							"name": "deposit",
							"type": "uint256"
						}
					],
					"stateMutability": "view",
					"type": "function"
				},
				{
					"inputs": [],
					"name": "ended",
					"outputs": [
						{
							"internalType": "bool",
							"name": "",
							"type": "bool"
						}
					],
					"stateMutability": "view",
					"type": "function"
				},
				{
					"inputs": [],
					"name": "highestBid",
					"outputs": [
						{
							"internalType": "uint256",
							"name": "",
							"type": "uint256"
						}
					],
					"stateMutability": "view",
					"type": "function"
				},
				{
					"inputs": [],
					"name": "highestBidder",
					"outputs": [
						{
							"internalType": "address",
							"name": "",
							"type": "address"
						}
					],
					"stateMutability": "view",
					"type": "function"
				},
				{
					"inputs": [
						{
							"internalType": "uint256[]",
							"name": "_values",
							"type": "uint256[]"
						},
						{
							"internalType": "bool[]",
							"name": "_fake",
							"type": "bool[]"
						},
						{
							"internalType": "bytes32[]",
							"name": "_secret",
							"type": "bytes32[]"
						}
					],
					"name": "reveal",
					"outputs": [],
					"stateMutability": "nonpayable",
					"type": "function"
				},
				{
					"inputs": [],
					"name": "revealEnd",
					"outputs": [
						{
							"internalType": "uint256",
							"name": "",
							"type": "uint256"
						}
					],
					"stateMutability": "view",
					"type": "function"
				}
			],
			"devdoc": {
				"kind": "dev",
				"methods": {},
				"version": 1
			},
			"evm": {
				"assembly": "    /* \"contracts/SecretAuctionSystem.sol\":70:2996  contract BlindAuction{... */\n  mstore(0x40, 0x80)\n    /* \"contracts/SecretAuctionSystem.sol\":914:1260  constructor(uint _biddingTime, uint _revealTime, address payable _beneficiary) {... */\n  callvalue\n  dup1\n  iszero\n  tag_1\n  jumpi\n  0x00\n  dup1\n  revert\ntag_1:\n  pop\n  mload(0x40)\n  sub(codesize, bytecodeSize)\n  dup1\n  bytecodeSize\n  dup4\n  codecopy\n  dup2\n  dup2\n  add\n  0x40\n  mstore\n  dup2\n  add\n  swap1\n  tag_2\n  swap2\n  swap1\n  tag_3\n  jump\t// in\ntag_2:\n    /* \"contracts/SecretAuctionSystem.sol\":1017:1029  _beneficiary */\n  dup1\n    /* \"contracts/SecretAuctionSystem.sol\":1003:1014  beneficiary */\n  0x00\n  dup1\n    /* \"contracts/SecretAuctionSystem.sol\":1003:1029  beneficiary = _beneficiary */\n  0x0100\n  exp\n  dup2\n  sload\n  dup2\n  0xffffffffffffffffffffffffffffffffffffffff\n  mul\n  not\n  and\n  swap1\n  dup4\n  0xffffffffffffffffffffffffffffffffffffffff\n  and\n  mul\n  or\n  swap1\n  sstore\n  pop\n    /* \"contracts/SecretAuctionSystem.sol\":1083:1095  _biddingTime */\n  dup3\n    /* \"contracts/SecretAuctionSystem.sol\":1065:1080  block.timestamp */\n  timestamp\n    /* \"contracts/SecretAuctionSystem.sol\":1065:1095  block.timestamp + _biddingTime */\n  tag_6\n  swap2\n  swap1\n  tag_7\n  jump\t// in\ntag_6:\n    /* \"contracts/SecretAuctionSystem.sol\":1052:1062  biddingEnd */\n  0x01\n    /* \"contracts/SecretAuctionSystem.sol\":1052:1095  biddingEnd = block.timestamp + _biddingTime */\n  dup2\n  swap1\n  sstore\n  pop\n    /* \"contracts/SecretAuctionSystem.sol\":1190:1201  _revealTime */\n  dup2\n    /* \"contracts/SecretAuctionSystem.sol\":1177:1187  biddingEnd */\n  sload(0x01)\n    /* \"contracts/SecretAuctionSystem.sol\":1177:1201  biddingEnd + _revealTime */\n  tag_8\n  swap2\n  swap1\n  tag_7\n  jump\t// in\ntag_8:\n    /* \"contracts/SecretAuctionSystem.sol\":1165:1174  revealEnd */\n  0x02\n    /* \"contracts/SecretAuctionSystem.sol\":1165:1201  revealEnd = biddingEnd + _revealTime */\n  dup2\n  swap1\n  sstore\n  pop\n    /* \"contracts/SecretAuctionSystem.sol\":914:1260  constructor(uint _biddingTime, uint _revealTime, address payable _beneficiary) {... */\n  pop\n  pop\n  pop\n    /* \"contracts/SecretAuctionSystem.sol\":70:2996  contract BlindAuction{... */\n  jump(tag_9)\n    /* \"#utility.yul\":88:205   */\ntag_11:\n    /* \"#utility.yul\":197:198   */\n  0x00\n    /* \"#utility.yul\":194:195   */\n  dup1\n    /* \"#utility.yul\":187:199   */\n  revert\n    /* \"#utility.yul\":334:411   */\ntag_13:\n    /* \"#utility.yul\":371:378   */\n  0x00\n    /* \"#utility.yul\":400:405   */\n  dup2\n    /* \"#utility.yul\":389:405   */\n  swap1\n  pop\n    /* \"#utility.yul\":334:411   */\n  swap2\n  swap1\n  pop\n  jump\t// out\n    /* \"#utility.yul\":417:539   */\ntag_14:\n    /* \"#utility.yul\":490:514   */\n  tag_27\n    /* \"#utility.yul\":508:513   */\n  dup2\n    /* \"#utility.yul\":490:514   */\n  tag_13\n  jump\t// in\ntag_27:\n    /* \"#utility.yul\":483:488   */\n  dup2\n    /* \"#utility.yul\":480:515   */\n  eq\n    /* \"#utility.yul\":470:533   */\n  tag_28\n  jumpi\n    /* \"#utility.yul\":529:530   */\n  0x00\n    /* \"#utility.yul\":526:527   */\n  dup1\n    /* \"#utility.yul\":519:531   */\n  revert\n    /* \"#utility.yul\":470:533   */\ntag_28:\n    /* \"#utility.yul\":417:539   */\n  pop\n  jump\t// out\n    /* \"#utility.yul\":545:688   */\ntag_15:\n    /* \"#utility.yul\":602:607   */\n  0x00\n    /* \"#utility.yul\":633:639   */\n  dup2\n    /* \"#utility.yul\":627:640   */\n  mload\n    /* \"#utility.yul\":618:640   */\n  swap1\n  pop\n    /* \"#utility.yul\":649:682   */\n  tag_30\n    /* \"#utility.yul\":676:681   */\n  dup2\n    /* \"#utility.yul\":649:682   */\n  tag_14\n  jump\t// in\ntag_30:\n    /* \"#utility.yul\":545:688   */\n  swap3\n  swap2\n  pop\n  pop\n  jump\t// out\n    /* \"#utility.yul\":694:820   */\ntag_16:\n    /* \"#utility.yul\":731:738   */\n  0x00\n    /* \"#utility.yul\":771:813   */\n  0xffffffffffffffffffffffffffffffffffffffff\n    /* \"#utility.yul\":764:769   */\n  dup3\n    /* \"#utility.yul\":760:814   */\n  and\n    /* \"#utility.yul\":749:814   */\n  swap1\n  pop\n    /* \"#utility.yul\":694:820   */\n  swap2\n  swap1\n  pop\n  jump\t// out\n    /* \"#utility.yul\":826:930   */\ntag_17:\n    /* \"#utility.yul\":871:878   */\n  0x00\n    /* \"#utility.yul\":900:924   */\n  tag_33\n    /* \"#utility.yul\":918:923   */\n  dup3\n    /* \"#utility.yul\":900:924   */\n  tag_16\n  jump\t// in\ntag_33:\n    /* \"#utility.yul\":889:924   */\n  swap1\n  pop\n    /* \"#utility.yul\":826:930   */\n  swap2\n  swap1\n  pop\n  jump\t// out\n    /* \"#utility.yul\":936:1074   */\ntag_18:\n    /* \"#utility.yul\":1017:1049   */\n  tag_35\n    /* \"#utility.yul\":1043:1048   */\n  dup2\n    /* \"#utility.yul\":1017:1049   */\n  tag_17\n  jump\t// in\ntag_35:\n    /* \"#utility.yul\":1010:1015   */\n  dup2\n    /* \"#utility.yul\":1007:1050   */\n  eq\n    /* \"#utility.yul\":997:1068   */\n  tag_36\n  jumpi\n    /* \"#utility.yul\":1064:1065   */\n  0x00\n    /* \"#utility.yul\":1061:1062   */\n  dup1\n    /* \"#utility.yul\":1054:1066   */\n  revert\n    /* \"#utility.yul\":997:1068   */\ntag_36:\n    /* \"#utility.yul\":936:1074   */\n  pop\n  jump\t// out\n    /* \"#utility.yul\":1080:1239   */\ntag_19:\n    /* \"#utility.yul\":1145:1150   */\n  0x00\n    /* \"#utility.yul\":1176:1182   */\n  dup2\n    /* \"#utility.yul\":1170:1183   */\n  mload\n    /* \"#utility.yul\":1161:1183   */\n  swap1\n  pop\n    /* \"#utility.yul\":1192:1233   */\n  tag_38\n    /* \"#utility.yul\":1227:1232   */\n  dup2\n    /* \"#utility.yul\":1192:1233   */\n  tag_18\n  jump\t// in\ntag_38:\n    /* \"#utility.yul\":1080:1239   */\n  swap3\n  swap2\n  pop\n  pop\n  jump\t// out\n    /* \"#utility.yul\":1245:1924   */\ntag_3:\n    /* \"#utility.yul\":1341:1347   */\n  0x00\n    /* \"#utility.yul\":1349:1355   */\n  dup1\n    /* \"#utility.yul\":1357:1363   */\n  0x00\n    /* \"#utility.yul\":1406:1408   */\n  0x60\n    /* \"#utility.yul\":1394:1403   */\n  dup5\n    /* \"#utility.yul\":1385:1392   */\n  dup7\n    /* \"#utility.yul\":1381:1404   */\n  sub\n    /* \"#utility.yul\":1377:1409   */\n  slt\n    /* \"#utility.yul\":1374:1493   */\n  iszero\n  tag_40\n  jumpi\n    /* \"#utility.yul\":1412:1491   */\n  tag_41\n  tag_11\n  jump\t// in\ntag_41:\n    /* \"#utility.yul\":1374:1493   */\ntag_40:\n    /* \"#utility.yul\":1532:1533   */\n  0x00\n    /* \"#utility.yul\":1557:1621   */\n  tag_42\n    /* \"#utility.yul\":1613:1620   */\n  dup7\n    /* \"#utility.yul\":1604:1610   */\n  dup3\n    /* \"#utility.yul\":1593:1602   */\n  dup8\n    /* \"#utility.yul\":1589:1611   */\n  add\n    /* \"#utility.yul\":1557:1621   */\n  tag_15\n  jump\t// in\ntag_42:\n    /* \"#utility.yul\":1547:1621   */\n  swap4\n  pop\n    /* \"#utility.yul\":1503:1631   */\n  pop\n    /* \"#utility.yul\":1670:1672   */\n  0x20\n    /* \"#utility.yul\":1696:1760   */\n  tag_43\n    /* \"#utility.yul\":1752:1759   */\n  dup7\n    /* \"#utility.yul\":1743:1749   */\n  dup3\n    /* \"#utility.yul\":1732:1741   */\n  dup8\n    /* \"#utility.yul\":1728:1750   */\n  add\n    /* \"#utility.yul\":1696:1760   */\n  tag_15\n  jump\t// in\ntag_43:\n    /* \"#utility.yul\":1686:1760   */\n  swap3\n  pop\n    /* \"#utility.yul\":1641:1770   */\n  pop\n    /* \"#utility.yul\":1809:1811   */\n  0x40\n    /* \"#utility.yul\":1835:1907   */\n  tag_44\n    /* \"#utility.yul\":1899:1906   */\n  dup7\n    /* \"#utility.yul\":1890:1896   */\n  dup3\n    /* \"#utility.yul\":1879:1888   */\n  dup8\n    /* \"#utility.yul\":1875:1897   */\n  add\n    /* \"#utility.yul\":1835:1907   */\n  tag_19\n  jump\t// in\ntag_44:\n    /* \"#utility.yul\":1825:1907   */\n  swap2\n  pop\n    /* \"#utility.yul\":1780:1917   */\n  pop\n    /* \"#utility.yul\":1245:1924   */\n  swap3\n  pop\n  swap3\n  pop\n  swap3\n  jump\t// out\n    /* \"#utility.yul\":1930:2110   */\ntag_20:\n    /* \"#utility.yul\":1978:2055   */\n  0x4e487b7100000000000000000000000000000000000000000000000000000000\n    /* \"#utility.yul\":1975:1976   */\n  0x00\n    /* \"#utility.yul\":1968:2056   */\n  mstore\n    /* \"#utility.yul\":2075:2079   */\n  0x11\n    /* \"#utility.yul\":2072:2073   */\n  0x04\n    /* \"#utility.yul\":2065:2080   */\n  mstore\n    /* \"#utility.yul\":2099:2103   */\n  0x24\n    /* \"#utility.yul\":2096:2097   */\n  0x00\n    /* \"#utility.yul\":2089:2104   */\n  revert\n    /* \"#utility.yul\":2116:2421   */\ntag_7:\n    /* \"#utility.yul\":2156:2159   */\n  0x00\n    /* \"#utility.yul\":2175:2195   */\n  tag_47\n    /* \"#utility.yul\":2193:2194   */\n  dup3\n    /* \"#utility.yul\":2175:2195   */\n  tag_13\n  jump\t// in\ntag_47:\n    /* \"#utility.yul\":2170:2195   */\n  swap2\n  pop\n    /* \"#utility.yul\":2209:2229   */\n  tag_48\n    /* \"#utility.yul\":2227:2228   */\n  dup4\n    /* \"#utility.yul\":2209:2229   */\n  tag_13\n  jump\t// in\ntag_48:\n    /* \"#utility.yul\":2204:2229   */\n  swap3\n  pop\n    /* \"#utility.yul\":2363:2364   */\n  dup3\n    /* \"#utility.yul\":2295:2361   */\n  0xffffffffffffffffffffffffffffffffffffffffffffffffffffffffffffffff\n    /* \"#utility.yul\":2291:2365   */\n  sub\n    /* \"#utility.yul\":2288:2289   */\n  dup3\n    /* \"#utility.yul\":2285:2366   */\n  gt\n    /* \"#utility.yul\":2282:2389   */\n  iszero\n  tag_49\n  jumpi\n    /* \"#utility.yul\":2369:2387   */\n  tag_50\n  tag_20\n  jump\t// in\ntag_50:\n    /* \"#utility.yul\":2282:2389   */\ntag_49:\n    /* \"#utility.yul\":2413:2414   */\n  dup3\n    /* \"#utility.yul\":2410:2411   */\n  dup3\n    /* \"#utility.yul\":2406:2415   */\n  add\n    /* \"#utility.yul\":2399:2415   */\n  swap1\n  pop\n    /* \"#utility.yul\":2116:2421   */\n  swap3\n  swap2\n  pop\n  pop\n  jump\t// out\n    /* \"contracts/SecretAuctionSystem.sol\":70:2996  contract BlindAuction{... */\ntag_9:\n  dataSize(sub_0)\n  dup1\n  dataOffset(sub_0)\n  0x00\n  codecopy\n  0x00\n  return\nstop\n\nsub_0: assembly {\n        /* \"contracts/SecretAuctionSystem.sol\":70:2996  contract BlindAuction{... */\n      mstore(0x40, 0x80)\n      jumpi(tag_1, lt(calldatasize, 0x04))\n      shr(0xe0, calldataload(0x00))\n      dup1\n      0x900f080a\n      gt\n      tag_11\n      jumpi\n      dup1\n      0x900f080a\n      eq\n      tag_6\n      jumpi\n      dup1\n      0x91f90157\n      eq\n      tag_7\n      jumpi\n      dup1\n      0x957bb1e0\n      eq\n      tag_8\n      jumpi\n      dup1\n      0xa6e66477\n      eq\n      tag_9\n      jumpi\n      dup1\n      0xd57bde79\n      eq\n      tag_10\n      jumpi\n      jump(tag_1)\n    tag_11:\n      dup1\n      0x01495c1c\n      eq\n      tag_2\n      jumpi\n      dup1\n      0x12fa6feb\n      eq\n      tag_3\n      jumpi\n      dup1\n      0x38af3eed\n      eq\n      tag_4\n      jumpi\n      dup1\n      0x423b217f\n      eq\n      tag_5\n      jumpi\n    tag_1:\n      0x00\n      dup1\n      revert\n        /* \"contracts/SecretAuctionSystem.sol\":399:436  mapping(address => Bid[]) public bids */\n    tag_2:\n      callvalue\n      dup1\n      iszero\n      tag_12\n      jumpi\n      0x00\n      dup1\n      revert\n    tag_12:\n      pop\n      tag_13\n      0x04\n      dup1\n      calldatasize\n      sub\n      dup2\n      add\n      swap1\n      tag_14\n      swap2\n      swap1\n      tag_15\n      jump\t// in\n    tag_14:\n      tag_16\n      jump\t// in\n    tag_13:\n      mload(0x40)\n      tag_17\n      swap3\n      swap2\n      swap1\n      tag_18\n      jump\t// in\n    tag_17:\n      mload(0x40)\n      dup1\n      swap2\n      sub\n      swap1\n      return\n        /* \"contracts/SecretAuctionSystem.sol\":353:370  bool public ended */\n    tag_3:\n      callvalue\n      dup1\n      iszero\n      tag_19\n      jumpi\n      0x00\n      dup1\n      revert\n    tag_19:\n      pop\n      tag_20\n      tag_21\n      jump\t// in\n    tag_20:\n      mload(0x40)\n      tag_22\n      swap2\n      swap1\n      tag_23\n      jump\t// in\n    tag_22:\n      mload(0x40)\n      dup1\n      swap2\n      sub\n      swap1\n      return\n        /* \"contracts/SecretAuctionSystem.sol\":195:229  address payable public beneficiary */\n    tag_4:\n      callvalue\n      dup1\n      iszero\n      tag_24\n      jumpi\n      0x00\n      dup1\n      revert\n    tag_24:\n      pop\n      tag_25\n      tag_26\n      jump\t// in\n    tag_25:\n      mload(0x40)\n      tag_27\n      swap2\n      swap1\n      tag_28\n      jump\t// in\n    tag_27:\n      mload(0x40)\n      dup1\n      swap2\n      sub\n      swap1\n      return\n        /* \"contracts/SecretAuctionSystem.sol\":248:270  uint public biddingEnd */\n    tag_5:\n      callvalue\n      dup1\n      iszero\n      tag_29\n      jumpi\n      0x00\n      dup1\n      revert\n    tag_29:\n      pop\n      tag_30\n      tag_31\n      jump\t// in\n    tag_30:\n      mload(0x40)\n      tag_32\n      swap2\n      swap1\n      tag_33\n      jump\t// in\n    tag_32:\n      mload(0x40)\n      dup1\n      swap2\n      sub\n      swap1\n      return\n        /* \"contracts/SecretAuctionSystem.sol\":1585:2635  function reveal(uint[] memory _values, bool[] memory _fake, bytes32[] memory _secret) public onlyAfter(biddingEnd) onlyBefore(revealEnd){... */\n    tag_6:\n      callvalue\n      dup1\n      iszero\n      tag_34\n      jumpi\n      0x00\n      dup1\n      revert\n    tag_34:\n      pop\n      tag_35\n      0x04\n      dup1\n      calldatasize\n      sub\n      dup2\n      add\n      swap1\n      tag_36\n      swap2\n      swap1\n      tag_37\n      jump\t// in\n    tag_36:\n      tag_38\n      jump\t// in\n    tag_35:\n      stop\n        /* \"contracts/SecretAuctionSystem.sol\":483:511  address public highestBidder */\n    tag_7:\n      callvalue\n      dup1\n      iszero\n      tag_39\n      jumpi\n      0x00\n      dup1\n      revert\n    tag_39:\n      pop\n      tag_40\n      tag_41\n      jump\t// in\n    tag_40:\n      mload(0x40)\n      tag_42\n      swap2\n      swap1\n      tag_43\n      jump\t// in\n    tag_42:\n      mload(0x40)\n      dup1\n      swap2\n      sub\n      swap1\n      return\n        /* \"contracts/SecretAuctionSystem.sol\":1333:1565  function bid(bytes32 _blindedBid) public payable onlyBefore(biddingEnd){... */\n    tag_8:\n      tag_44\n      0x04\n      dup1\n      calldatasize\n      sub\n      dup2\n      add\n      swap1\n      tag_45\n      swap2\n      swap1\n      tag_46\n      jump\t// in\n    tag_45:\n      tag_47\n      jump\t// in\n    tag_44:\n      stop\n        /* \"contracts/SecretAuctionSystem.sol\":301:322  uint public revealEnd */\n    tag_9:\n      callvalue\n      dup1\n      iszero\n      tag_48\n      jumpi\n      0x00\n      dup1\n      revert\n    tag_48:\n      pop\n      tag_49\n      tag_50\n      jump\t// in\n    tag_49:\n      mload(0x40)\n      tag_51\n      swap2\n      swap1\n      tag_33\n      jump\t// in\n    tag_51:\n      mload(0x40)\n      dup1\n      swap2\n      sub\n      swap1\n      return\n        /* \"contracts/SecretAuctionSystem.sol\":539:561  uint public highestBid */\n    tag_10:\n      callvalue\n      dup1\n      iszero\n      tag_52\n      jumpi\n      0x00\n      dup1\n      revert\n    tag_52:\n      pop\n      tag_53\n      tag_54\n      jump\t// in\n    tag_53:\n      mload(0x40)\n      tag_55\n      swap2\n      swap1\n      tag_33\n      jump\t// in\n    tag_55:\n      mload(0x40)\n      dup1\n      swap2\n      sub\n      swap1\n      return\n        /* \"contracts/SecretAuctionSystem.sol\":399:436  mapping(address => Bid[]) public bids */\n    tag_16:\n      mstore(0x20, 0x04)\n      dup2\n      0x00\n      mstore\n      keccak256(0x00, 0x40)\n      dup2\n      dup2\n      sload\n      dup2\n      lt\n      tag_56\n      jumpi\n      0x00\n      dup1\n      revert\n    tag_56:\n      swap1\n      0x00\n      mstore\n      keccak256(0x00, 0x20)\n      swap1\n      0x02\n      mul\n      add\n      0x00\n      swap2\n      pop\n      swap2\n      pop\n      pop\n      dup1\n      0x00\n      add\n      sload\n      swap1\n      dup1\n      0x01\n      add\n      sload\n      swap1\n      pop\n      dup3\n      jump\t// out\n        /* \"contracts/SecretAuctionSystem.sol\":353:370  bool public ended */\n    tag_21:\n      0x03\n      0x00\n      swap1\n      sload\n      swap1\n      0x0100\n      exp\n      swap1\n      div\n      0xff\n      and\n      dup2\n      jump\t// out\n        /* \"contracts/SecretAuctionSystem.sol\":195:229  address payable public beneficiary */\n    tag_26:\n      0x00\n      dup1\n      sload\n      swap1\n      0x0100\n      exp\n      swap1\n      div\n      0xffffffffffffffffffffffffffffffffffffffff\n      and\n      dup2\n      jump\t// out\n        /* \"contracts/SecretAuctionSystem.sol\":248:270  uint public biddingEnd */\n    tag_31:\n      sload(0x01)\n      dup2\n      jump\t// out\n        /* \"contracts/SecretAuctionSystem.sol\":1585:2635  function reveal(uint[] memory _values, bool[] memory _fake, bytes32[] memory _secret) public onlyAfter(biddingEnd) onlyBefore(revealEnd){... */\n    tag_38:\n        /* \"contracts/SecretAuctionSystem.sol\":1688:1698  biddingEnd */\n      sload(0x01)\n        /* \"contracts/SecretAuctionSystem.sol\":896:901  _time */\n      dup1\n        /* \"contracts/SecretAuctionSystem.sol\":878:893  block.timestamp */\n      timestamp\n        /* \"contracts/SecretAuctionSystem.sol\":878:901  block.timestamp > _time */\n      gt\n        /* \"contracts/SecretAuctionSystem.sol\":870:902  require(block.timestamp > _time) */\n      tag_59\n      jumpi\n      0x00\n      dup1\n      revert\n    tag_59:\n        /* \"contracts/SecretAuctionSystem.sol\":1711:1720  revealEnd */\n      sload(0x02)\n        /* \"contracts/SecretAuctionSystem.sol\":820:825  _time */\n      dup1\n        /* \"contracts/SecretAuctionSystem.sol\":802:817  block.timestamp */\n      timestamp\n        /* \"contracts/SecretAuctionSystem.sol\":802:825  block.timestamp < _time */\n      lt\n        /* \"contracts/SecretAuctionSystem.sol\":794:826  require(block.timestamp < _time) */\n      tag_61\n      jumpi\n      0x00\n      dup1\n      revert\n    tag_61:\n        /* \"contracts/SecretAuctionSystem.sol\":1731:1742  uint length */\n      0x00\n        /* \"contracts/SecretAuctionSystem.sol\":1745:1749  bids */\n      0x04\n        /* \"contracts/SecretAuctionSystem.sol\":1745:1761  bids[msg.sender] */\n      0x00\n        /* \"contracts/SecretAuctionSystem.sol\":1750:1760  msg.sender */\n      caller\n        /* \"contracts/SecretAuctionSystem.sol\":1745:1761  bids[msg.sender] */\n      0xffffffffffffffffffffffffffffffffffffffff\n      and\n      0xffffffffffffffffffffffffffffffffffffffff\n      and\n      dup2\n      mstore\n      0x20\n      add\n      swap1\n      dup2\n      mstore\n      0x20\n      add\n      0x00\n      keccak256\n        /* \"contracts/SecretAuctionSystem.sol\":1745:1768  bids[msg.sender].length */\n      dup1\n      sload\n      swap1\n      pop\n        /* \"contracts/SecretAuctionSystem.sol\":1731:1768  uint length = bids[msg.sender].length */\n      swap1\n      pop\n        /* \"contracts/SecretAuctionSystem.sol\":1841:1847  length */\n      dup1\n        /* \"contracts/SecretAuctionSystem.sol\":1823:1830  _values */\n      dup7\n        /* \"contracts/SecretAuctionSystem.sol\":1823:1837  _values.length */\n      mload\n        /* \"contracts/SecretAuctionSystem.sol\":1823:1847  _values.length == length */\n      eq\n        /* \"contracts/SecretAuctionSystem.sol\":1815:1848  require(_values.length == length) */\n      tag_63\n      jumpi\n      0x00\n      dup1\n      revert\n    tag_63:\n        /* \"contracts/SecretAuctionSystem.sol\":1922:1928  length */\n      dup1\n        /* \"contracts/SecretAuctionSystem.sol\":1906:1911  _fake */\n      dup6\n        /* \"contracts/SecretAuctionSystem.sol\":1906:1918  _fake.length */\n      mload\n        /* \"contracts/SecretAuctionSystem.sol\":1906:1928  _fake.length == length */\n      eq\n        /* \"contracts/SecretAuctionSystem.sol\":1898:1929  require(_fake.length == length) */\n      tag_64\n      jumpi\n      0x00\n      dup1\n      revert\n    tag_64:\n        /* \"contracts/SecretAuctionSystem.sol\":1965:1971  length */\n      dup1\n        /* \"contracts/SecretAuctionSystem.sol\":1947:1954  _secret */\n      dup5\n        /* \"contracts/SecretAuctionSystem.sol\":1947:1961  _secret.length */\n      mload\n        /* \"contracts/SecretAuctionSystem.sol\":1947:1971  _secret.length == length */\n      eq\n        /* \"contracts/SecretAuctionSystem.sol\":1939:1972  require(_secret.length == length) */\n      tag_65\n      jumpi\n      0x00\n      dup1\n      revert\n    tag_65:\n        /* \"contracts/SecretAuctionSystem.sol\":1982:1993  uint refund */\n      0x00\n        /* \"contracts/SecretAuctionSystem.sol\":2008:2014  uint i */\n      dup1\n        /* \"contracts/SecretAuctionSystem.sol\":2017:2018  1 */\n      0x01\n        /* \"contracts/SecretAuctionSystem.sol\":2008:2018  uint i = 1 */\n      swap1\n      pop\n        /* \"contracts/SecretAuctionSystem.sol\":2003:2583  for (uint i = 1; i< length; i++) {... */\n    tag_66:\n        /* \"contracts/SecretAuctionSystem.sol\":2023:2029  length */\n      dup3\n        /* \"contracts/SecretAuctionSystem.sol\":2020:2021  i */\n      dup2\n        /* \"contracts/SecretAuctionSystem.sol\":2020:2029  i< length */\n      lt\n        /* \"contracts/SecretAuctionSystem.sol\":2003:2583  for (uint i = 1; i< length; i++) {... */\n      iszero\n      tag_67\n      jumpi\n        /* \"contracts/SecretAuctionSystem.sol\":2050:2068  Bid storage bidNew */\n      0x00\n        /* \"contracts/SecretAuctionSystem.sol\":2071:2075  bids */\n      0x04\n        /* \"contracts/SecretAuctionSystem.sol\":2071:2087  bids[msg.sender] */\n      0x00\n        /* \"contracts/SecretAuctionSystem.sol\":2076:2086  msg.sender */\n      caller\n        /* \"contracts/SecretAuctionSystem.sol\":2071:2087  bids[msg.sender] */\n      0xffffffffffffffffffffffffffffffffffffffff\n      and\n      0xffffffffffffffffffffffffffffffffffffffff\n      and\n      dup2\n      mstore\n      0x20\n      add\n      swap1\n      dup2\n      mstore\n      0x20\n      add\n      0x00\n      keccak256\n        /* \"contracts/SecretAuctionSystem.sol\":2088:2089  i */\n      dup3\n        /* \"contracts/SecretAuctionSystem.sol\":2071:2090  bids[msg.sender][i] */\n      dup2\n      sload\n      dup2\n      lt\n      tag_69\n      jumpi\n      tag_70\n      tag_71\n      jump\t// in\n    tag_70:\n    tag_69:\n      swap1\n      0x00\n      mstore\n      keccak256(0x00, 0x20)\n      swap1\n      0x02\n      mul\n      add\n        /* \"contracts/SecretAuctionSystem.sol\":2050:2090  Bid storage bidNew = bids[msg.sender][i] */\n      swap1\n      pop\n        /* \"contracts/SecretAuctionSystem.sol\":2105:2115  uint value */\n      0x00\n        /* \"contracts/SecretAuctionSystem.sol\":2117:2126  bool fake */\n      dup1\n        /* \"contracts/SecretAuctionSystem.sol\":2128:2142  bytes32 secret */\n      0x00\n        /* \"contracts/SecretAuctionSystem.sol\":2147:2154  _values */\n      dup12\n        /* \"contracts/SecretAuctionSystem.sol\":2155:2156  i */\n      dup6\n        /* \"contracts/SecretAuctionSystem.sol\":2147:2157  _values[i] */\n      dup2\n      mload\n      dup2\n      lt\n      tag_73\n      jumpi\n      tag_74\n      tag_71\n      jump\t// in\n    tag_74:\n    tag_73:\n      0x20\n      mul\n      0x20\n      add\n      add\n      mload\n        /* \"contracts/SecretAuctionSystem.sol\":2159:2164  _fake */\n      dup12\n        /* \"contracts/SecretAuctionSystem.sol\":2165:2166  i */\n      dup7\n        /* \"contracts/SecretAuctionSystem.sol\":2159:2167  _fake[i] */\n      dup2\n      mload\n      dup2\n      lt\n      tag_75\n      jumpi\n      tag_76\n      tag_71\n      jump\t// in\n    tag_76:\n    tag_75:\n      0x20\n      mul\n      0x20\n      add\n      add\n      mload\n        /* \"contracts/SecretAuctionSystem.sol\":2169:2176  _secret */\n      dup12\n        /* \"contracts/SecretAuctionSystem.sol\":2177:2178  i */\n      dup8\n        /* \"contracts/SecretAuctionSystem.sol\":2169:2179  _secret[i] */\n      dup2\n      mload\n      dup2\n      lt\n      tag_77\n      jumpi\n      tag_78\n      tag_71\n      jump\t// in\n    tag_78:\n    tag_77:\n      0x20\n      mul\n      0x20\n      add\n      add\n      mload\n        /* \"contracts/SecretAuctionSystem.sol\":2104:2180  (uint value, bool fake, bytes32 secret) = (_values[i], _fake[i], _secret[i]) */\n      swap3\n      pop\n      swap3\n      pop\n      swap3\n      pop\n        /* \"contracts/SecretAuctionSystem.sol\":2194:2209  bytes memory v1 */\n      0x00\n        /* \"contracts/SecretAuctionSystem.sol\":2229:2234  value */\n      dup4\n        /* \"contracts/SecretAuctionSystem.sol\":2235:2239  fake */\n      dup4\n        /* \"contracts/SecretAuctionSystem.sol\":2240:2246  secret */\n      dup4\n        /* \"contracts/SecretAuctionSystem.sol\":2212:2247  abi.encodePacked(value,fake,secret) */\n      add(0x20, mload(0x40))\n      tag_79\n      swap4\n      swap3\n      swap2\n      swap1\n      tag_80\n      jump\t// in\n    tag_79:\n      mload(0x40)\n      0x20\n      dup2\n      dup4\n      sub\n      sub\n      dup2\n      mstore\n      swap1\n      0x40\n      mstore\n        /* \"contracts/SecretAuctionSystem.sol\":2194:2247  bytes memory v1 = abi.encodePacked(value,fake,secret) */\n      swap1\n      pop\n        /* \"contracts/SecretAuctionSystem.sol\":2296:2298  v1 */\n      dup1\n        /* \"contracts/SecretAuctionSystem.sol\":2286:2299  keccak256(v1) */\n      dup1\n      mload\n      swap1\n      0x20\n      add\n      keccak256\n        /* \"contracts/SecretAuctionSystem.sol\":2265:2271  bidNew */\n      dup6\n        /* \"contracts/SecretAuctionSystem.sol\":2265:2282  bidNew.blindedBid */\n      0x00\n      add\n      sload\n        /* \"contracts/SecretAuctionSystem.sol\":2265:2299  bidNew.blindedBid != keccak256(v1) */\n      eq\n        /* \"contracts/SecretAuctionSystem.sol\":2261:2342  if (bidNew.blindedBid != keccak256(v1)) {... */\n      tag_81\n      jumpi\n        /* \"contracts/SecretAuctionSystem.sol\":2319:2327  continue */\n      pop\n      pop\n      pop\n      pop\n      pop\n      jump(tag_68)\n        /* \"contracts/SecretAuctionSystem.sol\":2261:2342  if (bidNew.blindedBid != keccak256(v1)) {... */\n    tag_81:\n        /* \"contracts/SecretAuctionSystem.sol\":2365:2371  bidNew */\n      dup5\n        /* \"contracts/SecretAuctionSystem.sol\":2365:2379  bidNew.deposit */\n      0x01\n      add\n      sload\n        /* \"contracts/SecretAuctionSystem.sol\":2355:2379  refund += bidNew.deposit */\n      dup8\n      tag_82\n      swap2\n      swap1\n      tag_83\n      jump\t// in\n    tag_82:\n      swap7\n      pop\n        /* \"contracts/SecretAuctionSystem.sol\":2398:2402  fake */\n      dup3\n        /* \"contracts/SecretAuctionSystem.sol\":2397:2402  !fake */\n      iszero\n        /* \"contracts/SecretAuctionSystem.sol\":2397:2427  !fake&&bidNew.deposit >= value */\n      dup1\n      iszero\n      tag_84\n      jumpi\n      pop\n        /* \"contracts/SecretAuctionSystem.sol\":2422:2427  value */\n      dup4\n        /* \"contracts/SecretAuctionSystem.sol\":2404:2410  bidNew */\n      dup6\n        /* \"contracts/SecretAuctionSystem.sol\":2404:2418  bidNew.deposit */\n      0x01\n      add\n      sload\n        /* \"contracts/SecretAuctionSystem.sol\":2404:2427  bidNew.deposit >= value */\n      lt\n      iszero\n        /* \"contracts/SecretAuctionSystem.sol\":2397:2427  !fake&&bidNew.deposit >= value */\n    tag_84:\n        /* \"contracts/SecretAuctionSystem.sol\":2393:2529  if (!fake&&bidNew.deposit >= value) {... */\n      iszero\n      tag_85\n      jumpi\n        /* \"contracts/SecretAuctionSystem.sol\":2451:2477  placeBid(msg.sender,value) */\n      tag_86\n        /* \"contracts/SecretAuctionSystem.sol\":2460:2470  msg.sender */\n      caller\n        /* \"contracts/SecretAuctionSystem.sol\":2471:2476  value */\n      dup6\n        /* \"contracts/SecretAuctionSystem.sol\":2451:2459  placeBid */\n      tag_87\n        /* \"contracts/SecretAuctionSystem.sol\":2451:2477  placeBid(msg.sender,value) */\n      jump\t// in\n    tag_86:\n        /* \"contracts/SecretAuctionSystem.sol\":2447:2514  if (placeBid(msg.sender,value))... */\n      iszero\n      tag_88\n      jumpi\n        /* \"contracts/SecretAuctionSystem.sol\":2509:2514  value */\n      dup4\n        /* \"contracts/SecretAuctionSystem.sol\":2499:2514  refund -= value */\n      dup8\n      tag_89\n      swap2\n      swap1\n      tag_90\n      jump\t// in\n    tag_89:\n      swap7\n      pop\n        /* \"contracts/SecretAuctionSystem.sol\":2447:2514  if (placeBid(msg.sender,value))... */\n    tag_88:\n        /* \"contracts/SecretAuctionSystem.sol\":2393:2529  if (!fake&&bidNew.deposit >= value) {... */\n    tag_85:\n        /* \"contracts/SecretAuctionSystem.sol\":2570:2571  0 */\n      0x00\n        /* \"contracts/SecretAuctionSystem.sol\":2562:2572  bytes32(0) */\n      dup1\n      shl\n        /* \"contracts/SecretAuctionSystem.sol\":2542:2548  bidNew */\n      dup6\n        /* \"contracts/SecretAuctionSystem.sol\":2542:2559  bidNew.blindedBid */\n      0x00\n      add\n        /* \"contracts/SecretAuctionSystem.sol\":2542:2572  bidNew.blindedBid = bytes32(0) */\n      dup2\n      swap1\n      sstore\n      pop\n        /* \"contracts/SecretAuctionSystem.sol\":2036:2583  {... */\n      pop\n      pop\n      pop\n      pop\n      pop\n        /* \"contracts/SecretAuctionSystem.sol\":2003:2583  for (uint i = 1; i< length; i++) {... */\n    tag_68:\n        /* \"contracts/SecretAuctionSystem.sol\":2031:2034  i++ */\n      dup1\n      dup1\n      tag_91\n      swap1\n      tag_92\n      jump\t// in\n    tag_91:\n      swap2\n      pop\n      pop\n        /* \"contracts/SecretAuctionSystem.sol\":2003:2583  for (uint i = 1; i< length; i++) {... */\n      jump(tag_66)\n    tag_67:\n      pop\n        /* \"contracts/SecretAuctionSystem.sol\":2600:2610  msg.sender */\n      caller\n        /* \"contracts/SecretAuctionSystem.sol\":2592:2620  payable(msg.sender).transfer */\n      0xffffffffffffffffffffffffffffffffffffffff\n      and\n        /* \"contracts/SecretAuctionSystem.sol\":2592:2628  payable(msg.sender).transfer(refund) */\n      0x08fc\n        /* \"contracts/SecretAuctionSystem.sol\":2621:2627  refund */\n      dup3\n        /* \"contracts/SecretAuctionSystem.sol\":2592:2628  payable(msg.sender).transfer(refund) */\n      swap1\n      dup2\n      iszero\n      mul\n      swap1\n      mload(0x40)\n      0x00\n      mload(0x40)\n      dup1\n      dup4\n      sub\n      dup2\n      dup6\n      dup9\n      dup9\n      call\n      swap4\n      pop\n      pop\n      pop\n      pop\n      iszero\n      dup1\n      iszero\n      tag_94\n      jumpi\n      returndatasize\n      0x00\n      dup1\n      returndatacopy\n      revert(0x00, returndatasize)\n    tag_94:\n      pop\n        /* \"contracts/SecretAuctionSystem.sol\":1721:2635  {... */\n      pop\n      pop\n        /* \"contracts/SecretAuctionSystem.sol\":904:905  _ */\n      pop\n        /* \"contracts/SecretAuctionSystem.sol\":1585:2635  function reveal(uint[] memory _values, bool[] memory _fake, bytes32[] memory _secret) public onlyAfter(biddingEnd) onlyBefore(revealEnd){... */\n      pop\n      pop\n      pop\n      pop\n      jump\t// out\n        /* \"contracts/SecretAuctionSystem.sol\":483:511  address public highestBidder */\n    tag_41:\n      0x05\n      0x00\n      swap1\n      sload\n      swap1\n      0x0100\n      exp\n      swap1\n      div\n      0xffffffffffffffffffffffffffffffffffffffff\n      and\n      dup2\n      jump\t// out\n        /* \"contracts/SecretAuctionSystem.sol\":1333:1565  function bid(bytes32 _blindedBid) public payable onlyBefore(biddingEnd){... */\n    tag_47:\n        /* \"contracts/SecretAuctionSystem.sol\":1393:1403  biddingEnd */\n      sload(0x01)\n        /* \"contracts/SecretAuctionSystem.sol\":820:825  _time */\n      dup1\n        /* \"contracts/SecretAuctionSystem.sol\":802:817  block.timestamp */\n      timestamp\n        /* \"contracts/SecretAuctionSystem.sol\":802:825  block.timestamp < _time */\n      lt\n        /* \"contracts/SecretAuctionSystem.sol\":794:826  require(block.timestamp < _time) */\n      tag_96\n      jumpi\n      0x00\n      dup1\n      revert\n    tag_96:\n        /* \"contracts/SecretAuctionSystem.sol\":1414:1418  bids */\n      0x04\n        /* \"contracts/SecretAuctionSystem.sol\":1414:1430  bids[msg.sender] */\n      0x00\n        /* \"contracts/SecretAuctionSystem.sol\":1419:1429  msg.sender */\n      caller\n        /* \"contracts/SecretAuctionSystem.sol\":1414:1430  bids[msg.sender] */\n      0xffffffffffffffffffffffffffffffffffffffff\n      and\n      0xffffffffffffffffffffffffffffffffffffffff\n      and\n      dup2\n      mstore\n      0x20\n      add\n      swap1\n      dup2\n      mstore\n      0x20\n      add\n      0x00\n      keccak256\n        /* \"contracts/SecretAuctionSystem.sol\":1449:1544  Bid({... */\n      mload(0x40)\n      dup1\n      0x40\n      add\n      0x40\n      mstore\n      dup1\n        /* \"contracts/SecretAuctionSystem.sol\":1482:1493  _blindedBid */\n      dup5\n        /* \"contracts/SecretAuctionSystem.sol\":1449:1544  Bid({... */\n      dup2\n      mstore\n      0x20\n      add\n        /* \"contracts/SecretAuctionSystem.sol\":1520:1529  msg.value */\n      callvalue\n        /* \"contracts/SecretAuctionSystem.sol\":1449:1544  Bid({... */\n      dup2\n      mstore\n      pop\n        /* \"contracts/SecretAuctionSystem.sol\":1414:1558  bids[msg.sender].push(... */\n      swap1\n      dup1\n      0x01\n      dup2\n      sload\n      add\n      dup1\n      dup3\n      sstore\n      dup1\n      swap2\n      pop\n      pop\n      0x01\n      swap1\n      sub\n      swap1\n      0x00\n      mstore\n      keccak256(0x00, 0x20)\n      swap1\n      0x02\n      mul\n      add\n      0x00\n      swap1\n      swap2\n      swap1\n      swap2\n      swap1\n      swap2\n      pop\n      0x00\n      dup3\n      add\n      mload\n      dup2\n      0x00\n      add\n      sstore\n      0x20\n      dup3\n      add\n      mload\n      dup2\n      0x01\n      add\n      sstore\n      pop\n      pop\n        /* \"contracts/SecretAuctionSystem.sol\":1333:1565  function bid(bytes32 _blindedBid) public payable onlyBefore(biddingEnd){... */\n      pop\n      pop\n      jump\t// out\n        /* \"contracts/SecretAuctionSystem.sol\":301:322  uint public revealEnd */\n    tag_50:\n      sload(0x02)\n      dup2\n      jump\t// out\n        /* \"contracts/SecretAuctionSystem.sol\":539:561  uint public highestBid */\n    tag_54:\n      sload(0x06)\n      dup2\n      jump\t// out\n        /* \"contracts/SecretAuctionSystem.sol\":2641:2994  function placeBid(address _bidder, uint _value) internal returns (bool success) {... */\n    tag_87:\n        /* \"contracts/SecretAuctionSystem.sol\":2707:2719  bool success */\n      0x00\n        /* \"contracts/SecretAuctionSystem.sol\":2745:2755  highestBid */\n      sload(0x06)\n        /* \"contracts/SecretAuctionSystem.sol\":2735:2741  _value */\n      dup3\n        /* \"contracts/SecretAuctionSystem.sol\":2735:2755  _value <= highestBid */\n      gt\n        /* \"contracts/SecretAuctionSystem.sol\":2731:2794  if (_value <= highestBid) {... */\n      tag_100\n      jumpi\n        /* \"contracts/SecretAuctionSystem.sol\":2778:2783  false */\n      0x00\n        /* \"contracts/SecretAuctionSystem.sol\":2771:2783  return false */\n      swap1\n      pop\n      jump(tag_99)\n        /* \"contracts/SecretAuctionSystem.sol\":2731:2794  if (_value <= highestBid) {... */\n    tag_100:\n        /* \"contracts/SecretAuctionSystem.sol\":2832:2833  0 */\n      0x00\n        /* \"contracts/SecretAuctionSystem.sol\":2807:2834  highestBidder != address(0) */\n      0xffffffffffffffffffffffffffffffffffffffff\n      and\n        /* \"contracts/SecretAuctionSystem.sol\":2807:2820  highestBidder */\n      0x05\n      0x00\n      swap1\n      sload\n      swap1\n      0x0100\n      exp\n      swap1\n      div\n      0xffffffffffffffffffffffffffffffffffffffff\n      and\n        /* \"contracts/SecretAuctionSystem.sol\":2807:2834  highestBidder != address(0) */\n      0xffffffffffffffffffffffffffffffffffffffff\n      and\n      eq\n        /* \"contracts/SecretAuctionSystem.sol\":2803:2904  if (highestBidder != address(0)) {... */\n      tag_101\n      jumpi\n        /* \"contracts/SecretAuctionSystem.sol\":2883:2893  highestBid */\n      sload(0x06)\n        /* \"contracts/SecretAuctionSystem.sol\":2850:2864  pendingReturns */\n      0x07\n        /* \"contracts/SecretAuctionSystem.sol\":2850:2879  pendingReturns[highestBidder] */\n      0x00\n        /* \"contracts/SecretAuctionSystem.sol\":2865:2878  highestBidder */\n      0x05\n      0x00\n      swap1\n      sload\n      swap1\n      0x0100\n      exp\n      swap1\n      div\n      0xffffffffffffffffffffffffffffffffffffffff\n      and\n        /* \"contracts/SecretAuctionSystem.sol\":2850:2879  pendingReturns[highestBidder] */\n      0xffffffffffffffffffffffffffffffffffffffff\n      and\n      0xffffffffffffffffffffffffffffffffffffffff\n      and\n      dup2\n      mstore\n      0x20\n      add\n      swap1\n      dup2\n      mstore\n      0x20\n      add\n      0x00\n      keccak256\n      0x00\n        /* \"contracts/SecretAuctionSystem.sol\":2850:2893  pendingReturns[highestBidder] += highestBid */\n      dup3\n      dup3\n      sload\n      tag_102\n      swap2\n      swap1\n      tag_83\n      jump\t// in\n    tag_102:\n      swap3\n      pop\n      pop\n      dup2\n      swap1\n      sstore\n      pop\n        /* \"contracts/SecretAuctionSystem.sol\":2803:2904  if (highestBidder != address(0)) {... */\n    tag_101:\n        /* \"contracts/SecretAuctionSystem.sol\":2927:2933  _value */\n      dup2\n        /* \"contracts/SecretAuctionSystem.sol\":2914:2924  highestBid */\n      0x06\n        /* \"contracts/SecretAuctionSystem.sol\":2914:2933  highestBid = _value */\n      dup2\n      swap1\n      sstore\n      pop\n        /* \"contracts/SecretAuctionSystem.sol\":2959:2966  _bidder */\n      dup3\n        /* \"contracts/SecretAuctionSystem.sol\":2943:2956  highestBidder */\n      0x05\n      0x00\n        /* \"contracts/SecretAuctionSystem.sol\":2943:2966  highestBidder = _bidder */\n      0x0100\n      exp\n      dup2\n      sload\n      dup2\n      0xffffffffffffffffffffffffffffffffffffffff\n      mul\n      not\n      and\n      swap1\n      dup4\n      0xffffffffffffffffffffffffffffffffffffffff\n      and\n      mul\n      or\n      swap1\n      sstore\n      pop\n        /* \"contracts/SecretAuctionSystem.sol\":2983:2987  true */\n      0x01\n        /* \"contracts/SecretAuctionSystem.sol\":2976:2987  return true */\n      swap1\n      pop\n        /* \"contracts/SecretAuctionSystem.sol\":2641:2994  function placeBid(address _bidder, uint _value) internal returns (bool success) {... */\n    tag_99:\n      swap3\n      swap2\n      pop\n      pop\n      jump\t// out\n        /* \"#utility.yul\":7:82   */\n    tag_103:\n        /* \"#utility.yul\":40:46   */\n      0x00\n        /* \"#utility.yul\":73:75   */\n      0x40\n        /* \"#utility.yul\":67:76   */\n      mload\n        /* \"#utility.yul\":57:76   */\n      swap1\n      pop\n        /* \"#utility.yul\":7:82   */\n      swap1\n      jump\t// out\n        /* \"#utility.yul\":88:205   */\n    tag_104:\n        /* \"#utility.yul\":197:198   */\n      0x00\n        /* \"#utility.yul\":194:195   */\n      dup1\n        /* \"#utility.yul\":187:199   */\n      revert\n        /* \"#utility.yul\":211:328   */\n    tag_105:\n        /* \"#utility.yul\":320:321   */\n      0x00\n        /* \"#utility.yul\":317:318   */\n      dup1\n        /* \"#utility.yul\":310:322   */\n      revert\n        /* \"#utility.yul\":334:460   */\n    tag_106:\n        /* \"#utility.yul\":371:378   */\n      0x00\n        /* \"#utility.yul\":411:453   */\n      0xffffffffffffffffffffffffffffffffffffffff\n        /* \"#utility.yul\":404:409   */\n      dup3\n        /* \"#utility.yul\":400:454   */\n      and\n        /* \"#utility.yul\":389:454   */\n      swap1\n      pop\n        /* \"#utility.yul\":334:460   */\n      swap2\n      swap1\n      pop\n      jump\t// out\n        /* \"#utility.yul\":466:562   */\n    tag_107:\n        /* \"#utility.yul\":503:510   */\n      0x00\n        /* \"#utility.yul\":532:556   */\n      tag_155\n        /* \"#utility.yul\":550:555   */\n      dup3\n        /* \"#utility.yul\":532:556   */\n      tag_106\n      jump\t// in\n    tag_155:\n        /* \"#utility.yul\":521:556   */\n      swap1\n      pop\n        /* \"#utility.yul\":466:562   */\n      swap2\n      swap1\n      pop\n      jump\t// out\n        /* \"#utility.yul\":568:690   */\n    tag_108:\n        /* \"#utility.yul\":641:665   */\n      tag_157\n        /* \"#utility.yul\":659:664   */\n      dup2\n        /* \"#utility.yul\":641:665   */\n      tag_107\n      jump\t// in\n    tag_157:\n        /* \"#utility.yul\":634:639   */\n      dup2\n        /* \"#utility.yul\":631:666   */\n      eq\n        /* \"#utility.yul\":621:684   */\n      tag_158\n      jumpi\n        /* \"#utility.yul\":680:681   */\n      0x00\n        /* \"#utility.yul\":677:678   */\n      dup1\n        /* \"#utility.yul\":670:682   */\n      revert\n        /* \"#utility.yul\":621:684   */\n    tag_158:\n        /* \"#utility.yul\":568:690   */\n      pop\n      jump\t// out\n        /* \"#utility.yul\":696:835   */\n    tag_109:\n        /* \"#utility.yul\":742:747   */\n      0x00\n        /* \"#utility.yul\":780:786   */\n      dup2\n        /* \"#utility.yul\":767:787   */\n      calldataload\n        /* \"#utility.yul\":758:787   */\n      swap1\n      pop\n        /* \"#utility.yul\":796:829   */\n      tag_160\n        /* \"#utility.yul\":823:828   */\n      dup2\n        /* \"#utility.yul\":796:829   */\n      tag_108\n      jump\t// in\n    tag_160:\n        /* \"#utility.yul\":696:835   */\n      swap3\n      swap2\n      pop\n      pop\n      jump\t// out\n        /* \"#utility.yul\":841:918   */\n    tag_110:\n        /* \"#utility.yul\":878:885   */\n      0x00\n        /* \"#utility.yul\":907:912   */\n      dup2\n        /* \"#utility.yul\":896:912   */\n      swap1\n      pop\n        /* \"#utility.yul\":841:918   */\n      swap2\n      swap1\n      pop\n      jump\t// out\n        /* \"#utility.yul\":924:1046   */\n    tag_111:\n        /* \"#utility.yul\":997:1021   */\n      tag_163\n        /* \"#utility.yul\":1015:1020   */\n      dup2\n        /* \"#utility.yul\":997:1021   */\n      tag_110\n      jump\t// in\n    tag_163:\n        /* \"#utility.yul\":990:995   */\n      dup2\n        /* \"#utility.yul\":987:1022   */\n      eq\n        /* \"#utility.yul\":977:1040   */\n      tag_164\n      jumpi\n        /* \"#utility.yul\":1036:1037   */\n      0x00\n        /* \"#utility.yul\":1033:1034   */\n      dup1\n        /* \"#utility.yul\":1026:1038   */\n      revert\n        /* \"#utility.yul\":977:1040   */\n    tag_164:\n        /* \"#utility.yul\":924:1046   */\n      pop\n      jump\t// out\n        /* \"#utility.yul\":1052:1191   */\n    tag_112:\n        /* \"#utility.yul\":1098:1103   */\n      0x00\n        /* \"#utility.yul\":1136:1142   */\n      dup2\n        /* \"#utility.yul\":1123:1143   */\n      calldataload\n        /* \"#utility.yul\":1114:1143   */\n      swap1\n      pop\n        /* \"#utility.yul\":1152:1185   */\n      tag_166\n        /* \"#utility.yul\":1179:1184   */\n      dup2\n        /* \"#utility.yul\":1152:1185   */\n      tag_111\n      jump\t// in\n    tag_166:\n        /* \"#utility.yul\":1052:1191   */\n      swap3\n      swap2\n      pop\n      pop\n      jump\t// out\n        /* \"#utility.yul\":1197:1671   */\n    tag_15:\n        /* \"#utility.yul\":1265:1271   */\n      0x00\n        /* \"#utility.yul\":1273:1279   */\n      dup1\n        /* \"#utility.yul\":1322:1324   */\n      0x40\n        /* \"#utility.yul\":1310:1319   */\n      dup4\n        /* \"#utility.yul\":1301:1308   */\n      dup6\n        /* \"#utility.yul\":1297:1320   */\n      sub\n        /* \"#utility.yul\":1293:1325   */\n      slt\n        /* \"#utility.yul\":1290:1409   */\n      iszero\n      tag_168\n      jumpi\n        /* \"#utility.yul\":1328:1407   */\n      tag_169\n      tag_104\n      jump\t// in\n    tag_169:\n        /* \"#utility.yul\":1290:1409   */\n    tag_168:\n        /* \"#utility.yul\":1448:1449   */\n      0x00\n        /* \"#utility.yul\":1473:1526   */\n      tag_170\n        /* \"#utility.yul\":1518:1525   */\n      dup6\n        /* \"#utility.yul\":1509:1515   */\n      dup3\n        /* \"#utility.yul\":1498:1507   */\n      dup7\n        /* \"#utility.yul\":1494:1516   */\n      add\n        /* \"#utility.yul\":1473:1526   */\n      tag_109\n      jump\t// in\n    tag_170:\n        /* \"#utility.yul\":1463:1526   */\n      swap3\n      pop\n        /* \"#utility.yul\":1419:1536   */\n      pop\n        /* \"#utility.yul\":1575:1577   */\n      0x20\n        /* \"#utility.yul\":1601:1654   */\n      tag_171\n        /* \"#utility.yul\":1646:1653   */\n      dup6\n        /* \"#utility.yul\":1637:1643   */\n      dup3\n        /* \"#utility.yul\":1626:1635   */\n      dup7\n        /* \"#utility.yul\":1622:1644   */\n      add\n        /* \"#utility.yul\":1601:1654   */\n      tag_112\n      jump\t// in\n    tag_171:\n        /* \"#utility.yul\":1591:1654   */\n      swap2\n      pop\n        /* \"#utility.yul\":1546:1664   */\n      pop\n        /* \"#utility.yul\":1197:1671   */\n      swap3\n      pop\n      swap3\n      swap1\n      pop\n      jump\t// out\n        /* \"#utility.yul\":1677:1754   */\n    tag_113:\n        /* \"#utility.yul\":1714:1721   */\n      0x00\n        /* \"#utility.yul\":1743:1748   */\n      dup2\n        /* \"#utility.yul\":1732:1748   */\n      swap1\n      pop\n        /* \"#utility.yul\":1677:1754   */\n      swap2\n      swap1\n      pop\n      jump\t// out\n        /* \"#utility.yul\":1760:1878   */\n    tag_114:\n        /* \"#utility.yul\":1847:1871   */\n      tag_174\n        /* \"#utility.yul\":1865:1870   */\n      dup2\n        /* \"#utility.yul\":1847:1871   */\n      tag_113\n      jump\t// in\n    tag_174:\n        /* \"#utility.yul\":1842:1845   */\n      dup3\n        /* \"#utility.yul\":1835:1872   */\n      mstore\n        /* \"#utility.yul\":1760:1878   */\n      pop\n      pop\n      jump\t// out\n        /* \"#utility.yul\":1884:2002   */\n    tag_115:\n        /* \"#utility.yul\":1971:1995   */\n      tag_176\n        /* \"#utility.yul\":1989:1994   */\n      dup2\n        /* \"#utility.yul\":1971:1995   */\n      tag_110\n      jump\t// in\n    tag_176:\n        /* \"#utility.yul\":1966:1969   */\n      dup3\n        /* \"#utility.yul\":1959:1996   */\n      mstore\n        /* \"#utility.yul\":1884:2002   */\n      pop\n      pop\n      jump\t// out\n        /* \"#utility.yul\":2008:2340   */\n    tag_18:\n        /* \"#utility.yul\":2129:2133   */\n      0x00\n        /* \"#utility.yul\":2167:2169   */\n      0x40\n        /* \"#utility.yul\":2156:2165   */\n      dup3\n        /* \"#utility.yul\":2152:2170   */\n      add\n        /* \"#utility.yul\":2144:2170   */\n      swap1\n      pop\n        /* \"#utility.yul\":2180:2251   */\n      tag_178\n        /* \"#utility.yul\":2248:2249   */\n      0x00\n        /* \"#utility.yul\":2237:2246   */\n      dup4\n        /* \"#utility.yul\":2233:2250   */\n      add\n        /* \"#utility.yul\":2224:2230   */\n      dup6\n        /* \"#utility.yul\":2180:2251   */\n      tag_114\n      jump\t// in\n    tag_178:\n        /* \"#utility.yul\":2261:2333   */\n      tag_179\n        /* \"#utility.yul\":2329:2331   */\n      0x20\n        /* \"#utility.yul\":2318:2327   */\n      dup4\n        /* \"#utility.yul\":2314:2332   */\n      add\n        /* \"#utility.yul\":2305:2311   */\n      dup5\n        /* \"#utility.yul\":2261:2333   */\n      tag_115\n      jump\t// in\n    tag_179:\n        /* \"#utility.yul\":2008:2340   */\n      swap4\n      swap3\n      pop\n      pop\n      pop\n      jump\t// out\n        /* \"#utility.yul\":2346:2436   */\n    tag_116:\n        /* \"#utility.yul\":2380:2387   */\n      0x00\n        /* \"#utility.yul\":2423:2428   */\n      dup2\n        /* \"#utility.yul\":2416:2429   */\n      iszero\n        /* \"#utility.yul\":2409:2430   */\n      iszero\n        /* \"#utility.yul\":2398:2430   */\n      swap1\n      pop\n        /* \"#utility.yul\":2346:2436   */\n      swap2\n      swap1\n      pop\n      jump\t// out\n        /* \"#utility.yul\":2442:2551   */\n    tag_117:\n        /* \"#utility.yul\":2523:2544   */\n      tag_182\n        /* \"#utility.yul\":2538:2543   */\n      dup2\n        /* \"#utility.yul\":2523:2544   */\n      tag_116\n      jump\t// in\n    tag_182:\n        /* \"#utility.yul\":2518:2521   */\n      dup3\n        /* \"#utility.yul\":2511:2545   */\n      mstore\n        /* \"#utility.yul\":2442:2551   */\n      pop\n      pop\n      jump\t// out\n        /* \"#utility.yul\":2557:2767   */\n    tag_23:\n        /* \"#utility.yul\":2644:2648   */\n      0x00\n        /* \"#utility.yul\":2682:2684   */\n      0x20\n        /* \"#utility.yul\":2671:2680   */\n      dup3\n        /* \"#utility.yul\":2667:2685   */\n      add\n        /* \"#utility.yul\":2659:2685   */\n      swap1\n      pop\n        /* \"#utility.yul\":2695:2760   */\n      tag_184\n        /* \"#utility.yul\":2757:2758   */\n      0x00\n        /* \"#utility.yul\":2746:2755   */\n      dup4\n        /* \"#utility.yul\":2742:2759   */\n      add\n        /* \"#utility.yul\":2733:2739   */\n      dup5\n        /* \"#utility.yul\":2695:2760   */\n      tag_117\n      jump\t// in\n    tag_184:\n        /* \"#utility.yul\":2557:2767   */\n      swap3\n      swap2\n      pop\n      pop\n      jump\t// out\n        /* \"#utility.yul\":2773:2877   */\n    tag_118:\n        /* \"#utility.yul\":2818:2825   */\n      0x00\n        /* \"#utility.yul\":2847:2871   */\n      tag_186\n        /* \"#utility.yul\":2865:2870   */\n      dup3\n        /* \"#utility.yul\":2847:2871   */\n      tag_106\n      jump\t// in\n    tag_186:\n        /* \"#utility.yul\":2836:2871   */\n      swap1\n      pop\n        /* \"#utility.yul\":2773:2877   */\n      swap2\n      swap1\n      pop\n      jump\t// out\n        /* \"#utility.yul\":2883:3025   */\n    tag_119:\n        /* \"#utility.yul\":2986:3018   */\n      tag_188\n        /* \"#utility.yul\":3012:3017   */\n      dup2\n        /* \"#utility.yul\":2986:3018   */\n      tag_118\n      jump\t// in\n    tag_188:\n        /* \"#utility.yul\":2981:2984   */\n      dup3\n        /* \"#utility.yul\":2974:3019   */\n      mstore\n        /* \"#utility.yul\":2883:3025   */\n      pop\n      pop\n      jump\t// out\n        /* \"#utility.yul\":3031:3285   */\n    tag_28:\n        /* \"#utility.yul\":3140:3144   */\n      0x00\n        /* \"#utility.yul\":3178:3180   */\n      0x20\n        /* \"#utility.yul\":3167:3176   */\n      dup3\n        /* \"#utility.yul\":3163:3181   */\n      add\n        /* \"#utility.yul\":3155:3181   */\n      swap1\n      pop\n        /* \"#utility.yul\":3191:3278   */\n      tag_190\n        /* \"#utility.yul\":3275:3276   */\n      0x00\n        /* \"#utility.yul\":3264:3273   */\n      dup4\n        /* \"#utility.yul\":3260:3277   */\n      add\n        /* \"#utility.yul\":3251:3257   */\n      dup5\n        /* \"#utility.yul\":3191:3278   */\n      tag_119\n      jump\t// in\n    tag_190:\n        /* \"#utility.yul\":3031:3285   */\n      swap3\n      swap2\n      pop\n      pop\n      jump\t// out\n        /* \"#utility.yul\":3291:3513   */\n    tag_33:\n        /* \"#utility.yul\":3384:3388   */\n      0x00\n        /* \"#utility.yul\":3422:3424   */\n      0x20\n        /* \"#utility.yul\":3411:3420   */\n      dup3\n        /* \"#utility.yul\":3407:3425   */\n      add\n        /* \"#utility.yul\":3399:3425   */\n      swap1\n      pop\n        /* \"#utility.yul\":3435:3506   */\n      tag_192\n        /* \"#utility.yul\":3503:3504   */\n      0x00\n        /* \"#utility.yul\":3492:3501   */\n      dup4\n        /* \"#utility.yul\":3488:3505   */\n      add\n        /* \"#utility.yul\":3479:3485   */\n      dup5\n        /* \"#utility.yul\":3435:3506   */\n      tag_115\n      jump\t// in\n    tag_192:\n        /* \"#utility.yul\":3291:3513   */\n      swap3\n      swap2\n      pop\n      pop\n      jump\t// out\n        /* \"#utility.yul\":3519:3636   */\n    tag_120:\n        /* \"#utility.yul\":3628:3629   */\n      0x00\n        /* \"#utility.yul\":3625:3626   */\n      dup1\n        /* \"#utility.yul\":3618:3630   */\n      revert\n        /* \"#utility.yul\":3642:3744   */\n    tag_121:\n        /* \"#utility.yul\":3683:3689   */\n      0x00\n        /* \"#utility.yul\":3734:3736   */\n      0x1f\n        /* \"#utility.yul\":3730:3737   */\n      not\n        /* \"#utility.yul\":3725:3727   */\n      0x1f\n        /* \"#utility.yul\":3718:3723   */\n      dup4\n        /* \"#utility.yul\":3714:3728   */\n      add\n        /* \"#utility.yul\":3710:3738   */\n      and\n        /* \"#utility.yul\":3700:3738   */\n      swap1\n      pop\n        /* \"#utility.yul\":3642:3744   */\n      swap2\n      swap1\n      pop\n      jump\t// out\n        /* \"#utility.yul\":3750:3930   */\n    tag_122:\n        /* \"#utility.yul\":3798:3875   */\n      0x4e487b7100000000000000000000000000000000000000000000000000000000\n        /* \"#utility.yul\":3795:3796   */\n      0x00\n        /* \"#utility.yul\":3788:3876   */\n      mstore\n        /* \"#utility.yul\":3895:3899   */\n      0x41\n        /* \"#utility.yul\":3892:3893   */\n      0x04\n        /* \"#utility.yul\":3885:3900   */\n      mstore\n        /* \"#utility.yul\":3919:3923   */\n      0x24\n        /* \"#utility.yul\":3916:3917   */\n      0x00\n        /* \"#utility.yul\":3909:3924   */\n      revert\n        /* \"#utility.yul\":3936:4217   */\n    tag_123:\n        /* \"#utility.yul\":4019:4046   */\n      tag_197\n        /* \"#utility.yul\":4041:4045   */\n      dup3\n        /* \"#utility.yul\":4019:4046   */\n      tag_121\n      jump\t// in\n    tag_197:\n        /* \"#utility.yul\":4011:4017   */\n      dup2\n        /* \"#utility.yul\":4007:4047   */\n      add\n        /* \"#utility.yul\":4149:4155   */\n      dup2\n        /* \"#utility.yul\":4137:4147   */\n      dup2\n        /* \"#utility.yul\":4134:4156   */\n      lt\n        /* \"#utility.yul\":4113:4131   */\n      0xffffffffffffffff\n        /* \"#utility.yul\":4101:4111   */\n      dup3\n        /* \"#utility.yul\":4098:4132   */\n      gt\n        /* \"#utility.yul\":4095:4157   */\n      or\n        /* \"#utility.yul\":4092:4180   */\n      iszero\n      tag_198\n      jumpi\n        /* \"#utility.yul\":4160:4178   */\n      tag_199\n      tag_122\n      jump\t// in\n    tag_199:\n        /* \"#utility.yul\":4092:4180   */\n    tag_198:\n        /* \"#utility.yul\":4200:4210   */\n      dup1\n        /* \"#utility.yul\":4196:4198   */\n      0x40\n        /* \"#utility.yul\":4189:4211   */\n      mstore\n        /* \"#utility.yul\":3979:4217   */\n      pop\n        /* \"#utility.yul\":3936:4217   */\n      pop\n      pop\n      jump\t// out\n        /* \"#utility.yul\":4223:4352   */\n    tag_124:\n        /* \"#utility.yul\":4257:4263   */\n      0x00\n        /* \"#utility.yul\":4284:4304   */\n      tag_201\n      tag_103\n      jump\t// in\n    tag_201:\n        /* \"#utility.yul\":4274:4304   */\n      swap1\n      pop\n        /* \"#utility.yul\":4313:4346   */\n      tag_202\n        /* \"#utility.yul\":4341:4345   */\n      dup3\n        /* \"#utility.yul\":4333:4339   */\n      dup3\n        /* \"#utility.yul\":4313:4346   */\n      tag_123\n      jump\t// in\n    tag_202:\n        /* \"#utility.yul\":4223:4352   */\n      swap2\n      swap1\n      pop\n      jump\t// out\n        /* \"#utility.yul\":4358:4669   */\n    tag_125:\n        /* \"#utility.yul\":4435:4439   */\n      0x00\n        /* \"#utility.yul\":4525:4543   */\n      0xffffffffffffffff\n        /* \"#utility.yul\":4517:4523   */\n      dup3\n        /* \"#utility.yul\":4514:4544   */\n      gt\n        /* \"#utility.yul\":4511:4567   */\n      iszero\n      tag_204\n      jumpi\n        /* \"#utility.yul\":4547:4565   */\n      tag_205\n      tag_122\n      jump\t// in\n    tag_205:\n        /* \"#utility.yul\":4511:4567   */\n    tag_204:\n        /* \"#utility.yul\":4597:4601   */\n      0x20\n        /* \"#utility.yul\":4589:4595   */\n      dup3\n        /* \"#utility.yul\":4585:4602   */\n      mul\n        /* \"#utility.yul\":4577:4602   */\n      swap1\n      pop\n        /* \"#utility.yul\":4657:4661   */\n      0x20\n        /* \"#utility.yul\":4651:4655   */\n      dup2\n        /* \"#utility.yul\":4647:4662   */\n      add\n        /* \"#utility.yul\":4639:4662   */\n      swap1\n      pop\n        /* \"#utility.yul\":4358:4669   */\n      swap2\n      swap1\n      pop\n      jump\t// out\n        /* \"#utility.yul\":4675:4792   */\n    tag_126:\n        /* \"#utility.yul\":4784:4785   */\n      0x00\n        /* \"#utility.yul\":4781:4782   */\n      dup1\n        /* \"#utility.yul\":4774:4786   */\n      revert\n        /* \"#utility.yul\":4815:5525   */\n    tag_127:\n        /* \"#utility.yul\":4911:4916   */\n      0x00\n        /* \"#utility.yul\":4936:5017   */\n      tag_208\n        /* \"#utility.yul\":4952:5016   */\n      tag_209\n        /* \"#utility.yul\":5009:5015   */\n      dup5\n        /* \"#utility.yul\":4952:5016   */\n      tag_125\n      jump\t// in\n    tag_209:\n        /* \"#utility.yul\":4936:5017   */\n      tag_124\n      jump\t// in\n    tag_208:\n        /* \"#utility.yul\":4927:5017   */\n      swap1\n      pop\n        /* \"#utility.yul\":5037:5042   */\n      dup1\n        /* \"#utility.yul\":5066:5072   */\n      dup4\n        /* \"#utility.yul\":5059:5064   */\n      dup3\n        /* \"#utility.yul\":5052:5073   */\n      mstore\n        /* \"#utility.yul\":5100:5104   */\n      0x20\n        /* \"#utility.yul\":5093:5098   */\n      dup3\n        /* \"#utility.yul\":5089:5105   */\n      add\n        /* \"#utility.yul\":5082:5105   */\n      swap1\n      pop\n        /* \"#utility.yul\":5153:5157   */\n      0x20\n        /* \"#utility.yul\":5145:5151   */\n      dup5\n        /* \"#utility.yul\":5141:5158   */\n      mul\n        /* \"#utility.yul\":5133:5139   */\n      dup4\n        /* \"#utility.yul\":5129:5159   */\n      add\n        /* \"#utility.yul\":5182:5185   */\n      dup6\n        /* \"#utility.yul\":5174:5180   */\n      dup2\n        /* \"#utility.yul\":5171:5186   */\n      gt\n        /* \"#utility.yul\":5168:5290   */\n      iszero\n      tag_210\n      jumpi\n        /* \"#utility.yul\":5201:5280   */\n      tag_211\n      tag_126\n      jump\t// in\n    tag_211:\n        /* \"#utility.yul\":5168:5290   */\n    tag_210:\n        /* \"#utility.yul\":5316:5322   */\n      dup4\n        /* \"#utility.yul\":5299:5519   */\n    tag_212:\n        /* \"#utility.yul\":5333:5339   */\n      dup2\n        /* \"#utility.yul\":5328:5331   */\n      dup2\n        /* \"#utility.yul\":5325:5340   */\n      lt\n        /* \"#utility.yul\":5299:5519   */\n      iszero\n      tag_214\n      jumpi\n        /* \"#utility.yul\":5408:5411   */\n      dup1\n        /* \"#utility.yul\":5437:5474   */\n      tag_215\n        /* \"#utility.yul\":5470:5473   */\n      dup9\n        /* \"#utility.yul\":5458:5468   */\n      dup3\n        /* \"#utility.yul\":5437:5474   */\n      tag_112\n      jump\t// in\n    tag_215:\n        /* \"#utility.yul\":5432:5435   */\n      dup5\n        /* \"#utility.yul\":5425:5475   */\n      mstore\n        /* \"#utility.yul\":5504:5508   */\n      0x20\n        /* \"#utility.yul\":5499:5502   */\n      dup5\n        /* \"#utility.yul\":5495:5509   */\n      add\n        /* \"#utility.yul\":5488:5509   */\n      swap4\n      pop\n        /* \"#utility.yul\":5375:5519   */\n      pop\n        /* \"#utility.yul\":5359:5363   */\n      0x20\n        /* \"#utility.yul\":5354:5357   */\n      dup2\n        /* \"#utility.yul\":5350:5364   */\n      add\n        /* \"#utility.yul\":5343:5364   */\n      swap1\n      pop\n        /* \"#utility.yul\":5299:5519   */\n      jump(tag_212)\n    tag_214:\n        /* \"#utility.yul\":5303:5324   */\n      pop\n        /* \"#utility.yul\":4917:5525   */\n      pop\n      pop\n        /* \"#utility.yul\":4815:5525   */\n      swap4\n      swap3\n      pop\n      pop\n      pop\n      jump\t// out\n        /* \"#utility.yul\":5548:5918   */\n    tag_128:\n        /* \"#utility.yul\":5619:5624   */\n      0x00\n        /* \"#utility.yul\":5668:5671   */\n      dup3\n        /* \"#utility.yul\":5661:5665   */\n      0x1f\n        /* \"#utility.yul\":5653:5659   */\n      dup4\n        /* \"#utility.yul\":5649:5666   */\n      add\n        /* \"#utility.yul\":5645:5672   */\n      slt\n        /* \"#utility.yul\":5635:5757   */\n      tag_217\n      jumpi\n        /* \"#utility.yul\":5676:5755   */\n      tag_218\n      tag_120\n      jump\t// in\n    tag_218:\n        /* \"#utility.yul\":5635:5757   */\n    tag_217:\n        /* \"#utility.yul\":5793:5799   */\n      dup2\n        /* \"#utility.yul\":5780:5800   */\n      calldataload\n        /* \"#utility.yul\":5818:5912   */\n      tag_219\n        /* \"#utility.yul\":5908:5911   */\n      dup5\n        /* \"#utility.yul\":5900:5906   */\n      dup3\n        /* \"#utility.yul\":5893:5897   */\n      0x20\n        /* \"#utility.yul\":5885:5891   */\n      dup7\n        /* \"#utility.yul\":5881:5898   */\n      add\n        /* \"#utility.yul\":5818:5912   */\n      tag_127\n      jump\t// in\n    tag_219:\n        /* \"#utility.yul\":5809:5912   */\n      swap2\n      pop\n        /* \"#utility.yul\":5625:5918   */\n      pop\n        /* \"#utility.yul\":5548:5918   */\n      swap3\n      swap2\n      pop\n      pop\n      jump\t// out\n        /* \"#utility.yul\":5924:6232   */\n    tag_129:\n        /* \"#utility.yul\":5998:6002   */\n      0x00\n        /* \"#utility.yul\":6088:6106   */\n      0xffffffffffffffff\n        /* \"#utility.yul\":6080:6086   */\n      dup3\n        /* \"#utility.yul\":6077:6107   */\n      gt\n        /* \"#utility.yul\":6074:6130   */\n      iszero\n      tag_221\n      jumpi\n        /* \"#utility.yul\":6110:6128   */\n      tag_222\n      tag_122\n      jump\t// in\n    tag_222:\n        /* \"#utility.yul\":6074:6130   */\n    tag_221:\n        /* \"#utility.yul\":6160:6164   */\n      0x20\n        /* \"#utility.yul\":6152:6158   */\n      dup3\n        /* \"#utility.yul\":6148:6165   */\n      mul\n        /* \"#utility.yul\":6140:6165   */\n      swap1\n      pop\n        /* \"#utility.yul\":6220:6224   */\n      0x20\n        /* \"#utility.yul\":6214:6218   */\n      dup2\n        /* \"#utility.yul\":6210:6225   */\n      add\n        /* \"#utility.yul\":6202:6225   */\n      swap1\n      pop\n        /* \"#utility.yul\":5924:6232   */\n      swap2\n      swap1\n      pop\n      jump\t// out\n        /* \"#utility.yul\":6238:6354   */\n    tag_130:\n        /* \"#utility.yul\":6308:6329   */\n      tag_224\n        /* \"#utility.yul\":6323:6328   */\n      dup2\n        /* \"#utility.yul\":6308:6329   */\n      tag_116\n      jump\t// in\n    tag_224:\n        /* \"#utility.yul\":6301:6306   */\n      dup2\n        /* \"#utility.yul\":6298:6330   */\n      eq\n        /* \"#utility.yul\":6288:6348   */\n      tag_225\n      jumpi\n        /* \"#utility.yul\":6344:6345   */\n      0x00\n        /* \"#utility.yul\":6341:6342   */\n      dup1\n        /* \"#utility.yul\":6334:6346   */\n      revert\n        /* \"#utility.yul\":6288:6348   */\n    tag_225:\n        /* \"#utility.yul\":6238:6354   */\n      pop\n      jump\t// out\n        /* \"#utility.yul\":6360:6493   */\n    tag_131:\n        /* \"#utility.yul\":6403:6408   */\n      0x00\n        /* \"#utility.yul\":6441:6447   */\n      dup2\n        /* \"#utility.yul\":6428:6448   */\n      calldataload\n        /* \"#utility.yul\":6419:6448   */\n      swap1\n      pop\n        /* \"#utility.yul\":6457:6487   */\n      tag_227\n        /* \"#utility.yul\":6481:6486   */\n      dup2\n        /* \"#utility.yul\":6457:6487   */\n      tag_130\n      jump\t// in\n    tag_227:\n        /* \"#utility.yul\":6360:6493   */\n      swap3\n      swap2\n      pop\n      pop\n      jump\t// out\n        /* \"#utility.yul\":6513:7214   */\n    tag_132:\n        /* \"#utility.yul\":6606:6611   */\n      0x00\n        /* \"#utility.yul\":6631:6709   */\n      tag_229\n        /* \"#utility.yul\":6647:6708   */\n      tag_230\n        /* \"#utility.yul\":6701:6707   */\n      dup5\n        /* \"#utility.yul\":6647:6708   */\n      tag_129\n      jump\t// in\n    tag_230:\n        /* \"#utility.yul\":6631:6709   */\n      tag_124\n      jump\t// in\n    tag_229:\n        /* \"#utility.yul\":6622:6709   */\n      swap1\n      pop\n        /* \"#utility.yul\":6729:6734   */\n      dup1\n        /* \"#utility.yul\":6758:6764   */\n      dup4\n        /* \"#utility.yul\":6751:6756   */\n      dup3\n        /* \"#utility.yul\":6744:6765   */\n      mstore\n        /* \"#utility.yul\":6792:6796   */\n      0x20\n        /* \"#utility.yul\":6785:6790   */\n      dup3\n        /* \"#utility.yul\":6781:6797   */\n      add\n        /* \"#utility.yul\":6774:6797   */\n      swap1\n      pop\n        /* \"#utility.yul\":6845:6849   */\n      0x20\n        /* \"#utility.yul\":6837:6843   */\n      dup5\n        /* \"#utility.yul\":6833:6850   */\n      mul\n        /* \"#utility.yul\":6825:6831   */\n      dup4\n        /* \"#utility.yul\":6821:6851   */\n      add\n        /* \"#utility.yul\":6874:6877   */\n      dup6\n        /* \"#utility.yul\":6866:6872   */\n      dup2\n        /* \"#utility.yul\":6863:6878   */\n      gt\n        /* \"#utility.yul\":6860:6982   */\n      iszero\n      tag_231\n      jumpi\n        /* \"#utility.yul\":6893:6972   */\n      tag_232\n      tag_126\n      jump\t// in\n    tag_232:\n        /* \"#utility.yul\":6860:6982   */\n    tag_231:\n        /* \"#utility.yul\":7008:7014   */\n      dup4\n        /* \"#utility.yul\":6991:7208   */\n    tag_233:\n        /* \"#utility.yul\":7025:7031   */\n      dup2\n        /* \"#utility.yul\":7020:7023   */\n      dup2\n        /* \"#utility.yul\":7017:7032   */\n      lt\n        /* \"#utility.yul\":6991:7208   */\n      iszero\n      tag_235\n      jumpi\n        /* \"#utility.yul\":7100:7103   */\n      dup1\n        /* \"#utility.yul\":7129:7163   */\n      tag_236\n        /* \"#utility.yul\":7159:7162   */\n      dup9\n        /* \"#utility.yul\":7147:7157   */\n      dup3\n        /* \"#utility.yul\":7129:7163   */\n      tag_131\n      jump\t// in\n    tag_236:\n        /* \"#utility.yul\":7124:7127   */\n      dup5\n        /* \"#utility.yul\":7117:7164   */\n      mstore\n        /* \"#utility.yul\":7193:7197   */\n      0x20\n        /* \"#utility.yul\":7188:7191   */\n      dup5\n        /* \"#utility.yul\":7184:7198   */\n      add\n        /* \"#utility.yul\":7177:7198   */\n      swap4\n      pop\n        /* \"#utility.yul\":7067:7208   */\n      pop\n        /* \"#utility.yul\":7051:7055   */\n      0x20\n        /* \"#utility.yul\":7046:7049   */\n      dup2\n        /* \"#utility.yul\":7042:7056   */\n      add\n        /* \"#utility.yul\":7035:7056   */\n      swap1\n      pop\n        /* \"#utility.yul\":6991:7208   */\n      jump(tag_233)\n    tag_235:\n        /* \"#utility.yul\":6995:7016   */\n      pop\n        /* \"#utility.yul\":6612:7214   */\n      pop\n      pop\n        /* \"#utility.yul\":6513:7214   */\n      swap4\n      swap3\n      pop\n      pop\n      pop\n      jump\t// out\n        /* \"#utility.yul\":7234:7598   */\n    tag_133:\n        /* \"#utility.yul\":7302:7307   */\n      0x00\n        /* \"#utility.yul\":7351:7354   */\n      dup3\n        /* \"#utility.yul\":7344:7348   */\n      0x1f\n        /* \"#utility.yul\":7336:7342   */\n      dup4\n        /* \"#utility.yul\":7332:7349   */\n      add\n        /* \"#utility.yul\":7328:7355   */\n      slt\n        /* \"#utility.yul\":7318:7440   */\n      tag_238\n      jumpi\n        /* \"#utility.yul\":7359:7438   */\n      tag_239\n      tag_120\n      jump\t// in\n    tag_239:\n        /* \"#utility.yul\":7318:7440   */\n    tag_238:\n        /* \"#utility.yul\":7476:7482   */\n      dup2\n        /* \"#utility.yul\":7463:7483   */\n      calldataload\n        /* \"#utility.yul\":7501:7592   */\n      tag_240\n        /* \"#utility.yul\":7588:7591   */\n      dup5\n        /* \"#utility.yul\":7580:7586   */\n      dup3\n        /* \"#utility.yul\":7573:7577   */\n      0x20\n        /* \"#utility.yul\":7565:7571   */\n      dup7\n        /* \"#utility.yul\":7561:7578   */\n      add\n        /* \"#utility.yul\":7501:7592   */\n      tag_132\n      jump\t// in\n    tag_240:\n        /* \"#utility.yul\":7492:7592   */\n      swap2\n      pop\n        /* \"#utility.yul\":7308:7598   */\n      pop\n        /* \"#utility.yul\":7234:7598   */\n      swap3\n      swap2\n      pop\n      pop\n      jump\t// out\n        /* \"#utility.yul\":7604:7915   */\n    tag_134:\n        /* \"#utility.yul\":7681:7685   */\n      0x00\n        /* \"#utility.yul\":7771:7789   */\n      0xffffffffffffffff\n        /* \"#utility.yul\":7763:7769   */\n      dup3\n        /* \"#utility.yul\":7760:7790   */\n      gt\n        /* \"#utility.yul\":7757:7813   */\n      iszero\n      tag_242\n      jumpi\n        /* \"#utility.yul\":7793:7811   */\n      tag_243\n      tag_122\n      jump\t// in\n    tag_243:\n        /* \"#utility.yul\":7757:7813   */\n    tag_242:\n        /* \"#utility.yul\":7843:7847   */\n      0x20\n        /* \"#utility.yul\":7835:7841   */\n      dup3\n        /* \"#utility.yul\":7831:7848   */\n      mul\n        /* \"#utility.yul\":7823:7848   */\n      swap1\n      pop\n        /* \"#utility.yul\":7903:7907   */\n      0x20\n        /* \"#utility.yul\":7897:7901   */\n      dup2\n        /* \"#utility.yul\":7893:7908   */\n      add\n        /* \"#utility.yul\":7885:7908   */\n      swap1\n      pop\n        /* \"#utility.yul\":7604:7915   */\n      swap2\n      swap1\n      pop\n      jump\t// out\n        /* \"#utility.yul\":7921:8043   */\n    tag_135:\n        /* \"#utility.yul\":7994:8018   */\n      tag_245\n        /* \"#utility.yul\":8012:8017   */\n      dup2\n        /* \"#utility.yul\":7994:8018   */\n      tag_113\n      jump\t// in\n    tag_245:\n        /* \"#utility.yul\":7987:7992   */\n      dup2\n        /* \"#utility.yul\":7984:8019   */\n      eq\n        /* \"#utility.yul\":7974:8037   */\n      tag_246\n      jumpi\n        /* \"#utility.yul\":8033:8034   */\n      0x00\n        /* \"#utility.yul\":8030:8031   */\n      dup1\n        /* \"#utility.yul\":8023:8035   */\n      revert\n        /* \"#utility.yul\":7974:8037   */\n    tag_246:\n        /* \"#utility.yul\":7921:8043   */\n      pop\n      jump\t// out\n        /* \"#utility.yul\":8049:8188   */\n    tag_136:\n        /* \"#utility.yul\":8095:8100   */\n      0x00\n        /* \"#utility.yul\":8133:8139   */\n      dup2\n        /* \"#utility.yul\":8120:8140   */\n      calldataload\n        /* \"#utility.yul\":8111:8140   */\n      swap1\n      pop\n        /* \"#utility.yul\":8149:8182   */\n      tag_248\n        /* \"#utility.yul\":8176:8181   */\n      dup2\n        /* \"#utility.yul\":8149:8182   */\n      tag_135\n      jump\t// in\n    tag_248:\n        /* \"#utility.yul\":8049:8188   */\n      swap3\n      swap2\n      pop\n      pop\n      jump\t// out\n        /* \"#utility.yul\":8211:8921   */\n    tag_137:\n        /* \"#utility.yul\":8307:8312   */\n      0x00\n        /* \"#utility.yul\":8332:8413   */\n      tag_250\n        /* \"#utility.yul\":8348:8412   */\n      tag_251\n        /* \"#utility.yul\":8405:8411   */\n      dup5\n        /* \"#utility.yul\":8348:8412   */\n      tag_134\n      jump\t// in\n    tag_251:\n        /* \"#utility.yul\":8332:8413   */\n      tag_124\n      jump\t// in\n    tag_250:\n        /* \"#utility.yul\":8323:8413   */\n      swap1\n      pop\n        /* \"#utility.yul\":8433:8438   */\n      dup1\n        /* \"#utility.yul\":8462:8468   */\n      dup4\n        /* \"#utility.yul\":8455:8460   */\n      dup3\n        /* \"#utility.yul\":8448:8469   */\n      mstore\n        /* \"#utility.yul\":8496:8500   */\n      0x20\n        /* \"#utility.yul\":8489:8494   */\n      dup3\n        /* \"#utility.yul\":8485:8501   */\n      add\n        /* \"#utility.yul\":8478:8501   */\n      swap1\n      pop\n        /* \"#utility.yul\":8549:8553   */\n      0x20\n        /* \"#utility.yul\":8541:8547   */\n      dup5\n        /* \"#utility.yul\":8537:8554   */\n      mul\n        /* \"#utility.yul\":8529:8535   */\n      dup4\n        /* \"#utility.yul\":8525:8555   */\n      add\n        /* \"#utility.yul\":8578:8581   */\n      dup6\n        /* \"#utility.yul\":8570:8576   */\n      dup2\n        /* \"#utility.yul\":8567:8582   */\n      gt\n        /* \"#utility.yul\":8564:8686   */\n      iszero\n      tag_252\n      jumpi\n        /* \"#utility.yul\":8597:8676   */\n      tag_253\n      tag_126\n      jump\t// in\n    tag_253:\n        /* \"#utility.yul\":8564:8686   */\n    tag_252:\n        /* \"#utility.yul\":8712:8718   */\n      dup4\n        /* \"#utility.yul\":8695:8915   */\n    tag_254:\n        /* \"#utility.yul\":8729:8735   */\n      dup2\n        /* \"#utility.yul\":8724:8727   */\n      dup2\n        /* \"#utility.yul\":8721:8736   */\n      lt\n        /* \"#utility.yul\":8695:8915   */\n      iszero\n      tag_256\n      jumpi\n        /* \"#utility.yul\":8804:8807   */\n      dup1\n        /* \"#utility.yul\":8833:8870   */\n      tag_257\n        /* \"#utility.yul\":8866:8869   */\n      dup9\n        /* \"#utility.yul\":8854:8864   */\n      dup3\n        /* \"#utility.yul\":8833:8870   */\n      tag_136\n      jump\t// in\n    tag_257:\n        /* \"#utility.yul\":8828:8831   */\n      dup5\n        /* \"#utility.yul\":8821:8871   */\n      mstore\n        /* \"#utility.yul\":8900:8904   */\n      0x20\n        /* \"#utility.yul\":8895:8898   */\n      dup5\n        /* \"#utility.yul\":8891:8905   */\n      add\n        /* \"#utility.yul\":8884:8905   */\n      swap4\n      pop\n        /* \"#utility.yul\":8771:8915   */\n      pop\n        /* \"#utility.yul\":8755:8759   */\n      0x20\n        /* \"#utility.yul\":8750:8753   */\n      dup2\n        /* \"#utility.yul\":8746:8760   */\n      add\n        /* \"#utility.yul\":8739:8760   */\n      swap1\n      pop\n        /* \"#utility.yul\":8695:8915   */\n      jump(tag_254)\n    tag_256:\n        /* \"#utility.yul\":8699:8720   */\n      pop\n        /* \"#utility.yul\":8313:8921   */\n      pop\n      pop\n        /* \"#utility.yul\":8211:8921   */\n      swap4\n      swap3\n      pop\n      pop\n      pop\n      jump\t// out\n        /* \"#utility.yul\":8944:9314   */\n    tag_138:\n        /* \"#utility.yul\":9015:9020   */\n      0x00\n        /* \"#utility.yul\":9064:9067   */\n      dup3\n        /* \"#utility.yul\":9057:9061   */\n      0x1f\n        /* \"#utility.yul\":9049:9055   */\n      dup4\n        /* \"#utility.yul\":9045:9062   */\n      add\n        /* \"#utility.yul\":9041:9068   */\n      slt\n        /* \"#utility.yul\":9031:9153   */\n      tag_259\n      jumpi\n        /* \"#utility.yul\":9072:9151   */\n      tag_260\n      tag_120\n      jump\t// in\n    tag_260:\n        /* \"#utility.yul\":9031:9153   */\n    tag_259:\n        /* \"#utility.yul\":9189:9195   */\n      dup2\n        /* \"#utility.yul\":9176:9196   */\n      calldataload\n        /* \"#utility.yul\":9214:9308   */\n      tag_261\n        /* \"#utility.yul\":9304:9307   */\n      dup5\n        /* \"#utility.yul\":9296:9302   */\n      dup3\n        /* \"#utility.yul\":9289:9293   */\n      0x20\n        /* \"#utility.yul\":9281:9287   */\n      dup7\n        /* \"#utility.yul\":9277:9294   */\n      add\n        /* \"#utility.yul\":9214:9308   */\n      tag_137\n      jump\t// in\n    tag_261:\n        /* \"#utility.yul\":9205:9308   */\n      swap2\n      pop\n        /* \"#utility.yul\":9021:9314   */\n      pop\n        /* \"#utility.yul\":8944:9314   */\n      swap3\n      swap2\n      pop\n      pop\n      jump\t// out\n        /* \"#utility.yul\":9320:10563   */\n    tag_37:\n        /* \"#utility.yul\":9469:9475   */\n      0x00\n        /* \"#utility.yul\":9477:9483   */\n      dup1\n        /* \"#utility.yul\":9485:9491   */\n      0x00\n        /* \"#utility.yul\":9534:9536   */\n      0x60\n        /* \"#utility.yul\":9522:9531   */\n      dup5\n        /* \"#utility.yul\":9513:9520   */\n      dup7\n        /* \"#utility.yul\":9509:9532   */\n      sub\n        /* \"#utility.yul\":9505:9537   */\n      slt\n        /* \"#utility.yul\":9502:9621   */\n      iszero\n      tag_263\n      jumpi\n        /* \"#utility.yul\":9540:9619   */\n      tag_264\n      tag_104\n      jump\t// in\n    tag_264:\n        /* \"#utility.yul\":9502:9621   */\n    tag_263:\n        /* \"#utility.yul\":9688:9689   */\n      0x00\n        /* \"#utility.yul\":9677:9686   */\n      dup5\n        /* \"#utility.yul\":9673:9690   */\n      add\n        /* \"#utility.yul\":9660:9691   */\n      calldataload\n        /* \"#utility.yul\":9718:9736   */\n      0xffffffffffffffff\n        /* \"#utility.yul\":9710:9716   */\n      dup2\n        /* \"#utility.yul\":9707:9737   */\n      gt\n        /* \"#utility.yul\":9704:9821   */\n      iszero\n      tag_265\n      jumpi\n        /* \"#utility.yul\":9740:9819   */\n      tag_266\n      tag_105\n      jump\t// in\n    tag_266:\n        /* \"#utility.yul\":9704:9821   */\n    tag_265:\n        /* \"#utility.yul\":9845:9923   */\n      tag_267\n        /* \"#utility.yul\":9915:9922   */\n      dup7\n        /* \"#utility.yul\":9906:9912   */\n      dup3\n        /* \"#utility.yul\":9895:9904   */\n      dup8\n        /* \"#utility.yul\":9891:9913   */\n      add\n        /* \"#utility.yul\":9845:9923   */\n      tag_128\n      jump\t// in\n    tag_267:\n        /* \"#utility.yul\":9835:9923   */\n      swap4\n      pop\n        /* \"#utility.yul\":9631:9933   */\n      pop\n        /* \"#utility.yul\":10000:10002   */\n      0x20\n        /* \"#utility.yul\":9989:9998   */\n      dup5\n        /* \"#utility.yul\":9985:10003   */\n      add\n        /* \"#utility.yul\":9972:10004   */\n      calldataload\n        /* \"#utility.yul\":10031:10049   */\n      0xffffffffffffffff\n        /* \"#utility.yul\":10023:10029   */\n      dup2\n        /* \"#utility.yul\":10020:10050   */\n      gt\n        /* \"#utility.yul\":10017:10134   */\n      iszero\n      tag_268\n      jumpi\n        /* \"#utility.yul\":10053:10132   */\n      tag_269\n      tag_105\n      jump\t// in\n    tag_269:\n        /* \"#utility.yul\":10017:10134   */\n    tag_268:\n        /* \"#utility.yul\":10158:10233   */\n      tag_270\n        /* \"#utility.yul\":10225:10232   */\n      dup7\n        /* \"#utility.yul\":10216:10222   */\n      dup3\n        /* \"#utility.yul\":10205:10214   */\n      dup8\n        /* \"#utility.yul\":10201:10223   */\n      add\n        /* \"#utility.yul\":10158:10233   */\n      tag_133\n      jump\t// in\n    tag_270:\n        /* \"#utility.yul\":10148:10233   */\n      swap3\n      pop\n        /* \"#utility.yul\":9943:10243   */\n      pop\n        /* \"#utility.yul\":10310:10312   */\n      0x40\n        /* \"#utility.yul\":10299:10308   */\n      dup5\n        /* \"#utility.yul\":10295:10313   */\n      add\n        /* \"#utility.yul\":10282:10314   */\n      calldataload\n        /* \"#utility.yul\":10341:10359   */\n      0xffffffffffffffff\n        /* \"#utility.yul\":10333:10339   */\n      dup2\n        /* \"#utility.yul\":10330:10360   */\n      gt\n        /* \"#utility.yul\":10327:10444   */\n      iszero\n      tag_271\n      jumpi\n        /* \"#utility.yul\":10363:10442   */\n      tag_272\n      tag_105\n      jump\t// in\n    tag_272:\n        /* \"#utility.yul\":10327:10444   */\n    tag_271:\n        /* \"#utility.yul\":10468:10546   */\n      tag_273\n        /* \"#utility.yul\":10538:10545   */\n      dup7\n        /* \"#utility.yul\":10529:10535   */\n      dup3\n        /* \"#utility.yul\":10518:10527   */\n      dup8\n        /* \"#utility.yul\":10514:10536   */\n      add\n        /* \"#utility.yul\":10468:10546   */\n      tag_138\n      jump\t// in\n    tag_273:\n        /* \"#utility.yul\":10458:10546   */\n      swap2\n      pop\n        /* \"#utility.yul\":10253:10556   */\n      pop\n        /* \"#utility.yul\":9320:10563   */\n      swap3\n      pop\n      swap3\n      pop\n      swap3\n      jump\t// out\n        /* \"#utility.yul\":10569:10687   */\n    tag_139:\n        /* \"#utility.yul\":10656:10680   */\n      tag_275\n        /* \"#utility.yul\":10674:10679   */\n      dup2\n        /* \"#utility.yul\":10656:10680   */\n      tag_107\n      jump\t// in\n    tag_275:\n        /* \"#utility.yul\":10651:10654   */\n      dup3\n        /* \"#utility.yul\":10644:10681   */\n      mstore\n        /* \"#utility.yul\":10569:10687   */\n      pop\n      pop\n      jump\t// out\n        /* \"#utility.yul\":10693:10915   */\n    tag_43:\n        /* \"#utility.yul\":10786:10790   */\n      0x00\n        /* \"#utility.yul\":10824:10826   */\n      0x20\n        /* \"#utility.yul\":10813:10822   */\n      dup3\n        /* \"#utility.yul\":10809:10827   */\n      add\n        /* \"#utility.yul\":10801:10827   */\n      swap1\n      pop\n        /* \"#utility.yul\":10837:10908   */\n      tag_277\n        /* \"#utility.yul\":10905:10906   */\n      0x00\n        /* \"#utility.yul\":10894:10903   */\n      dup4\n        /* \"#utility.yul\":10890:10907   */\n      add\n        /* \"#utility.yul\":10881:10887   */\n      dup5\n        /* \"#utility.yul\":10837:10908   */\n      tag_139\n      jump\t// in\n    tag_277:\n        /* \"#utility.yul\":10693:10915   */\n      swap3\n      swap2\n      pop\n      pop\n      jump\t// out\n        /* \"#utility.yul\":10921:11250   */\n    tag_46:\n        /* \"#utility.yul\":10980:10986   */\n      0x00\n        /* \"#utility.yul\":11029:11031   */\n      0x20\n        /* \"#utility.yul\":11017:11026   */\n      dup3\n        /* \"#utility.yul\":11008:11015   */\n      dup5\n        /* \"#utility.yul\":11004:11027   */\n      sub\n        /* \"#utility.yul\":11000:11032   */\n      slt\n        /* \"#utility.yul\":10997:11116   */\n      iszero\n      tag_279\n      jumpi\n        /* \"#utility.yul\":11035:11114   */\n      tag_280\n      tag_104\n      jump\t// in\n    tag_280:\n        /* \"#utility.yul\":10997:11116   */\n    tag_279:\n        /* \"#utility.yul\":11155:11156   */\n      0x00\n        /* \"#utility.yul\":11180:11233   */\n      tag_281\n        /* \"#utility.yul\":11225:11232   */\n      dup5\n        /* \"#utility.yul\":11216:11222   */\n      dup3\n        /* \"#utility.yul\":11205:11214   */\n      dup6\n        /* \"#utility.yul\":11201:11223   */\n      add\n        /* \"#utility.yul\":11180:11233   */\n      tag_136\n      jump\t// in\n    tag_281:\n        /* \"#utility.yul\":11170:11233   */\n      swap2\n      pop\n        /* \"#utility.yul\":11126:11243   */\n      pop\n        /* \"#utility.yul\":10921:11250   */\n      swap3\n      swap2\n      pop\n      pop\n      jump\t// out\n        /* \"#utility.yul\":11256:11436   */\n    tag_71:\n        /* \"#utility.yul\":11304:11381   */\n      0x4e487b7100000000000000000000000000000000000000000000000000000000\n        /* \"#utility.yul\":11301:11302   */\n      0x00\n        /* \"#utility.yul\":11294:11382   */\n      mstore\n        /* \"#utility.yul\":11401:11405   */\n      0x32\n        /* \"#utility.yul\":11398:11399   */\n      0x04\n        /* \"#utility.yul\":11391:11406   */\n      mstore\n        /* \"#utility.yul\":11425:11429   */\n      0x24\n        /* \"#utility.yul\":11422:11423   */\n      0x00\n        /* \"#utility.yul\":11415:11430   */\n      revert\n        /* \"#utility.yul\":11442:11521   */\n    tag_140:\n        /* \"#utility.yul\":11481:11488   */\n      0x00\n        /* \"#utility.yul\":11510:11515   */\n      dup2\n        /* \"#utility.yul\":11499:11515   */\n      swap1\n      pop\n        /* \"#utility.yul\":11442:11521   */\n      swap2\n      swap1\n      pop\n      jump\t// out\n        /* \"#utility.yul\":11527:11684   */\n    tag_141:\n        /* \"#utility.yul\":11632:11677   */\n      tag_285\n        /* \"#utility.yul\":11652:11676   */\n      tag_286\n        /* \"#utility.yul\":11670:11675   */\n      dup3\n        /* \"#utility.yul\":11652:11676   */\n      tag_110\n      jump\t// in\n    tag_286:\n        /* \"#utility.yul\":11632:11677   */\n      tag_140\n      jump\t// in\n    tag_285:\n        /* \"#utility.yul\":11627:11630   */\n      dup3\n        /* \"#utility.yul\":11620:11678   */\n      mstore\n        /* \"#utility.yul\":11527:11684   */\n      pop\n      pop\n      jump\t// out\n        /* \"#utility.yul\":11690:11786   */\n    tag_142:\n        /* \"#utility.yul\":11724:11732   */\n      0x00\n        /* \"#utility.yul\":11773:11778   */\n      dup2\n        /* \"#utility.yul\":11768:11771   */\n      0xf8\n        /* \"#utility.yul\":11764:11779   */\n      shl\n        /* \"#utility.yul\":11743:11779   */\n      swap1\n      pop\n        /* \"#utility.yul\":11690:11786   */\n      swap2\n      swap1\n      pop\n      jump\t// out\n        /* \"#utility.yul\":11792:11885   */\n    tag_143:\n        /* \"#utility.yul\":11829:11836   */\n      0x00\n        /* \"#utility.yul\":11858:11879   */\n      tag_289\n        /* \"#utility.yul\":11873:11878   */\n      dup3\n        /* \"#utility.yul\":11858:11879   */\n      tag_142\n      jump\t// in\n    tag_289:\n        /* \"#utility.yul\":11847:11879   */\n      swap1\n      pop\n        /* \"#utility.yul\":11792:11885   */\n      swap2\n      swap1\n      pop\n      jump\t// out\n        /* \"#utility.yul\":11891:11986   */\n    tag_144:\n        /* \"#utility.yul\":11927:11934   */\n      0x00\n        /* \"#utility.yul\":11956:11980   */\n      tag_291\n        /* \"#utility.yul\":11974:11979   */\n      dup3\n        /* \"#utility.yul\":11956:11980   */\n      tag_143\n      jump\t// in\n    tag_291:\n        /* \"#utility.yul\":11945:11980   */\n      swap1\n      pop\n        /* \"#utility.yul\":11891:11986   */\n      swap2\n      swap1\n      pop\n      jump\t// out\n        /* \"#utility.yul\":11992:12137   */\n    tag_145:\n        /* \"#utility.yul\":12091:12130   */\n      tag_293\n        /* \"#utility.yul\":12108:12129   */\n      tag_294\n        /* \"#utility.yul\":12123:12128   */\n      dup3\n        /* \"#utility.yul\":12108:12129   */\n      tag_116\n      jump\t// in\n    tag_294:\n        /* \"#utility.yul\":12091:12130   */\n      tag_144\n      jump\t// in\n    tag_293:\n        /* \"#utility.yul\":12086:12089   */\n      dup3\n        /* \"#utility.yul\":12079:12131   */\n      mstore\n        /* \"#utility.yul\":11992:12137   */\n      pop\n      pop\n      jump\t// out\n        /* \"#utility.yul\":12143:12222   */\n    tag_146:\n        /* \"#utility.yul\":12182:12189   */\n      0x00\n        /* \"#utility.yul\":12211:12216   */\n      dup2\n        /* \"#utility.yul\":12200:12216   */\n      swap1\n      pop\n        /* \"#utility.yul\":12143:12222   */\n      swap2\n      swap1\n      pop\n      jump\t// out\n        /* \"#utility.yul\":12228:12385   */\n    tag_147:\n        /* \"#utility.yul\":12333:12378   */\n      tag_297\n        /* \"#utility.yul\":12353:12377   */\n      tag_298\n        /* \"#utility.yul\":12371:12376   */\n      dup3\n        /* \"#utility.yul\":12353:12377   */\n      tag_113\n      jump\t// in\n    tag_298:\n        /* \"#utility.yul\":12333:12378   */\n      tag_146\n      jump\t// in\n    tag_297:\n        /* \"#utility.yul\":12328:12331   */\n      dup3\n        /* \"#utility.yul\":12321:12379   */\n      mstore\n        /* \"#utility.yul\":12228:12385   */\n      pop\n      pop\n      jump\t// out\n        /* \"#utility.yul\":12391:12916   */\n    tag_80:\n        /* \"#utility.yul\":12553:12556   */\n      0x00\n        /* \"#utility.yul\":12568:12643   */\n      tag_300\n        /* \"#utility.yul\":12639:12642   */\n      dup3\n        /* \"#utility.yul\":12630:12636   */\n      dup7\n        /* \"#utility.yul\":12568:12643   */\n      tag_141\n      jump\t// in\n    tag_300:\n        /* \"#utility.yul\":12668:12670   */\n      0x20\n        /* \"#utility.yul\":12663:12666   */\n      dup3\n        /* \"#utility.yul\":12659:12671   */\n      add\n        /* \"#utility.yul\":12652:12671   */\n      swap2\n      pop\n        /* \"#utility.yul\":12681:12750   */\n      tag_301\n        /* \"#utility.yul\":12746:12749   */\n      dup3\n        /* \"#utility.yul\":12737:12743   */\n      dup6\n        /* \"#utility.yul\":12681:12750   */\n      tag_145\n      jump\t// in\n    tag_301:\n        /* \"#utility.yul\":12775:12776   */\n      0x01\n        /* \"#utility.yul\":12770:12773   */\n      dup3\n        /* \"#utility.yul\":12766:12777   */\n      add\n        /* \"#utility.yul\":12759:12777   */\n      swap2\n      pop\n        /* \"#utility.yul\":12787:12862   */\n      tag_302\n        /* \"#utility.yul\":12858:12861   */\n      dup3\n        /* \"#utility.yul\":12849:12855   */\n      dup5\n        /* \"#utility.yul\":12787:12862   */\n      tag_147\n      jump\t// in\n    tag_302:\n        /* \"#utility.yul\":12887:12889   */\n      0x20\n        /* \"#utility.yul\":12882:12885   */\n      dup3\n        /* \"#utility.yul\":12878:12890   */\n      add\n        /* \"#utility.yul\":12871:12890   */\n      swap2\n      pop\n        /* \"#utility.yul\":12907:12910   */\n      dup2\n        /* \"#utility.yul\":12900:12910   */\n      swap1\n      pop\n        /* \"#utility.yul\":12391:12916   */\n      swap5\n      swap4\n      pop\n      pop\n      pop\n      pop\n      jump\t// out\n        /* \"#utility.yul\":12922:13102   */\n    tag_148:\n        /* \"#utility.yul\":12970:13047   */\n      0x4e487b7100000000000000000000000000000000000000000000000000000000\n        /* \"#utility.yul\":12967:12968   */\n      0x00\n        /* \"#utility.yul\":12960:13048   */\n      mstore\n        /* \"#utility.yul\":13067:13071   */\n      0x11\n        /* \"#utility.yul\":13064:13065   */\n      0x04\n        /* \"#utility.yul\":13057:13072   */\n      mstore\n        /* \"#utility.yul\":13091:13095   */\n      0x24\n        /* \"#utility.yul\":13088:13089   */\n      0x00\n        /* \"#utility.yul\":13081:13096   */\n      revert\n        /* \"#utility.yul\":13108:13413   */\n    tag_83:\n        /* \"#utility.yul\":13148:13151   */\n      0x00\n        /* \"#utility.yul\":13167:13187   */\n      tag_305\n        /* \"#utility.yul\":13185:13186   */\n      dup3\n        /* \"#utility.yul\":13167:13187   */\n      tag_110\n      jump\t// in\n    tag_305:\n        /* \"#utility.yul\":13162:13187   */\n      swap2\n      pop\n        /* \"#utility.yul\":13201:13221   */\n      tag_306\n        /* \"#utility.yul\":13219:13220   */\n      dup4\n        /* \"#utility.yul\":13201:13221   */\n      tag_110\n      jump\t// in\n    tag_306:\n        /* \"#utility.yul\":13196:13221   */\n      swap3\n      pop\n        /* \"#utility.yul\":13355:13356   */\n      dup3\n        /* \"#utility.yul\":13287:13353   */\n      0xffffffffffffffffffffffffffffffffffffffffffffffffffffffffffffffff\n        /* \"#utility.yul\":13283:13357   */\n      sub\n        /* \"#utility.yul\":13280:13281   */\n      dup3\n        /* \"#utility.yul\":13277:13358   */\n      gt\n        /* \"#utility.yul\":13274:13381   */\n      iszero\n      tag_307\n      jumpi\n        /* \"#utility.yul\":13361:13379   */\n      tag_308\n      tag_148\n      jump\t// in\n    tag_308:\n        /* \"#utility.yul\":13274:13381   */\n    tag_307:\n        /* \"#utility.yul\":13405:13406   */\n      dup3\n        /* \"#utility.yul\":13402:13403   */\n      dup3\n        /* \"#utility.yul\":13398:13407   */\n      add\n        /* \"#utility.yul\":13391:13407   */\n      swap1\n      pop\n        /* \"#utility.yul\":13108:13413   */\n      swap3\n      swap2\n      pop\n      pop\n      jump\t// out\n        /* \"#utility.yul\":13419:13610   */\n    tag_90:\n        /* \"#utility.yul\":13459:13463   */\n      0x00\n        /* \"#utility.yul\":13479:13499   */\n      tag_310\n        /* \"#utility.yul\":13497:13498   */\n      dup3\n        /* \"#utility.yul\":13479:13499   */\n      tag_110\n      jump\t// in\n    tag_310:\n        /* \"#utility.yul\":13474:13499   */\n      swap2\n      pop\n        /* \"#utility.yul\":13513:13533   */\n      tag_311\n        /* \"#utility.yul\":13531:13532   */\n      dup4\n        /* \"#utility.yul\":13513:13533   */\n      tag_110\n      jump\t// in\n    tag_311:\n        /* \"#utility.yul\":13508:13533   */\n      swap3\n      pop\n        /* \"#utility.yul\":13552:13553   */\n      dup3\n        /* \"#utility.yul\":13549:13550   */\n      dup3\n        /* \"#utility.yul\":13546:13554   */\n      lt\n        /* \"#utility.yul\":13543:13577   */\n      iszero\n      tag_312\n      jumpi\n        /* \"#utility.yul\":13557:13575   */\n      tag_313\n      tag_148\n      jump\t// in\n    tag_313:\n        /* \"#utility.yul\":13543:13577   */\n    tag_312:\n        /* \"#utility.yul\":13602:13603   */\n      dup3\n        /* \"#utility.yul\":13599:13600   */\n      dup3\n        /* \"#utility.yul\":13595:13604   */\n      sub\n        /* \"#utility.yul\":13587:13604   */\n      swap1\n      pop\n        /* \"#utility.yul\":13419:13610   */\n      swap3\n      swap2\n      pop\n      pop\n      jump\t// out\n        /* \"#utility.yul\":13616:13849   */\n    tag_92:\n        /* \"#utility.yul\":13655:13658   */\n      0x00\n        /* \"#utility.yul\":13678:13702   */\n      tag_315\n        /* \"#utility.yul\":13696:13701   */\n      dup3\n        /* \"#utility.yul\":13678:13702   */\n      tag_110\n      jump\t// in\n    tag_315:\n        /* \"#utility.yul\":13669:13702   */\n      swap2\n      pop\n        /* \"#utility.yul\":13724:13790   */\n      0xffffffffffffffffffffffffffffffffffffffffffffffffffffffffffffffff\n        /* \"#utility.yul\":13717:13722   */\n      dup3\n        /* \"#utility.yul\":13714:13791   */\n      sub\n        /* \"#utility.yul\":13711:13814   */\n      tag_316\n      jumpi\n        /* \"#utility.yul\":13794:13812   */\n      tag_317\n      tag_148\n      jump\t// in\n    tag_317:\n        /* \"#utility.yul\":13711:13814   */\n    tag_316:\n        /* \"#utility.yul\":13841:13842   */\n      0x01\n        /* \"#utility.yul\":13834:13839   */\n      dup3\n        /* \"#utility.yul\":13830:13843   */\n      add\n        /* \"#utility.yul\":13823:13843   */\n      swap1\n      pop\n        /* \"#utility.yul\":13616:13849   */\n      swap2\n      swap1\n      pop\n      jump\t// out\n\n    auxdata: 0xa2646970667358221220e39656594b2a95c72152e1676887e715086130e005d3356d5b72d27bdc3130c364736f6c634300080d0033\n}\n",
				"bytecode": {
					"linkReferences": {},
					"object": "60806040523480156200001157600080fd5b506040516200116a3803806200116a83398181016040528101906200003791906200014f565b806000806101000a81548173ffffffffffffffffffffffffffffffffffffffff021916908373ffffffffffffffffffffffffffffffffffffffff1602179055508242620000859190620001da565b600181905550816001546200009b9190620001da565b60028190555050505062000237565b600080fd5b6000819050919050565b620000c481620000af565b8114620000d057600080fd5b50565b600081519050620000e481620000b9565b92915050565b600073ffffffffffffffffffffffffffffffffffffffff82169050919050565b60006200011782620000ea565b9050919050565b62000129816200010a565b81146200013557600080fd5b50565b60008151905062000149816200011e565b92915050565b6000806000606084860312156200016b576200016a620000aa565b5b60006200017b86828701620000d3565b93505060206200018e86828701620000d3565b9250506040620001a18682870162000138565b9150509250925092565b7f4e487b7100000000000000000000000000000000000000000000000000000000600052601160045260246000fd5b6000620001e782620000af565b9150620001f483620000af565b9250827fffffffffffffffffffffffffffffffffffffffffffffffffffffffffffffffff038211156200022c576200022b620001ab565b5b828201905092915050565b610f2380620002476000396000f3fe6080604052600436106100865760003560e01c8063900f080a11610059578063900f080a1461014a57806391f9015714610173578063957bb1e01461019e578063a6e66477146101ba578063d57bde79146101e557610086565b806301495c1c1461008b57806312fa6feb146100c957806338af3eed146100f4578063423b217f1461011f575b600080fd5b34801561009757600080fd5b506100b260048036038101906100ad91906107a3565b610210565b6040516100c092919061080b565b60405180910390f35b3480156100d557600080fd5b506100de610251565b6040516100eb919061084f565b60405180910390f35b34801561010057600080fd5b50610109610264565b604051610116919061088b565b60405180910390f35b34801561012b57600080fd5b50610134610288565b60405161014191906108a6565b60405180910390f35b34801561015657600080fd5b50610171600480360381019061016c9190610bf8565b61028e565b005b34801561017f57600080fd5b506101886104eb565b6040516101959190610cae565b60405180910390f35b6101b860048036038101906101b39190610cc9565b610511565b005b3480156101c657600080fd5b506101cf6105b7565b6040516101dc91906108a6565b60405180910390f35b3480156101f157600080fd5b506101fa6105bd565b60405161020791906108a6565b60405180910390f35b6004602052816000526040600020818154811061022c57600080fd5b9060005260206000209060020201600091509150508060000154908060010154905082565b600360009054906101000a900460ff1681565b60008054906101000a900473ffffffffffffffffffffffffffffffffffffffff1681565b60015481565b60015480421161029d57600080fd5b6002548042106102ac57600080fd5b6000600460003373ffffffffffffffffffffffffffffffffffffffff1673ffffffffffffffffffffffffffffffffffffffff1681526020019081526020016000208054905090508086511461030057600080fd5b8085511461030d57600080fd5b8084511461031a57600080fd5b600080600190505b8281101561049a576000600460003373ffffffffffffffffffffffffffffffffffffffff1673ffffffffffffffffffffffffffffffffffffffff168152602001908152602001600020828154811061037d5761037c610cf6565b5b9060005260206000209060020201905060008060008b85815181106103a5576103a4610cf6565b5b60200260200101518b86815181106103c0576103bf610cf6565b5b60200260200101518b87815181106103db576103da610cf6565b5b6020026020010151925092509250600083838360405160200161040093929190610daf565b6040516020818303038152906040529050808051906020012085600001541461042d575050505050610487565b84600101548761043d9190610e1b565b965082158015610451575083856001015410155b156104755761046033856105c3565b156104745783876104719190610e71565b96505b5b6000801b856000018190555050505050505b808061049290610ea5565b915050610322565b503373ffffffffffffffffffffffffffffffffffffffff166108fc829081150290604051600060405180830381858888f193505050501580156104e1573d6000803e3d6000fd5b5050505050505050565b600560009054906101000a900473ffffffffffffffffffffffffffffffffffffffff1681565b60015480421061052057600080fd5b600460003373ffffffffffffffffffffffffffffffffffffffff1673ffffffffffffffffffffffffffffffffffffffff1681526020019081526020016000206040518060400160405280848152602001348152509080600181540180825580915050600190039060005260206000209060020201600090919091909150600082015181600001556020820151816001015550505050565b60025481565b60065481565b600060065482116105d757600090506106f5565b600073ffffffffffffffffffffffffffffffffffffffff16600560009054906101000a900473ffffffffffffffffffffffffffffffffffffffff1673ffffffffffffffffffffffffffffffffffffffff16146106a85760065460076000600560009054906101000a900473ffffffffffffffffffffffffffffffffffffffff1673ffffffffffffffffffffffffffffffffffffffff1673ffffffffffffffffffffffffffffffffffffffff16815260200190815260200160002060008282546106a09190610e1b565b925050819055505b8160068190555082600560006101000a81548173ffffffffffffffffffffffffffffffffffffffff021916908373ffffffffffffffffffffffffffffffffffffffff160217905550600190505b92915050565b6000604051905090565b600080fd5b600080fd5b600073ffffffffffffffffffffffffffffffffffffffff82169050919050565b600061073a8261070f565b9050919050565b61074a8161072f565b811461075557600080fd5b50565b60008135905061076781610741565b92915050565b6000819050919050565b6107808161076d565b811461078b57600080fd5b50565b60008135905061079d81610777565b92915050565b600080604083850312156107ba576107b9610705565b5b60006107c885828601610758565b92505060206107d98582860161078e565b9150509250929050565b6000819050919050565b6107f6816107e3565b82525050565b6108058161076d565b82525050565b600060408201905061082060008301856107ed565b61082d60208301846107fc565b9392505050565b60008115159050919050565b61084981610834565b82525050565b60006020820190506108646000830184610840565b92915050565b60006108758261070f565b9050919050565b6108858161086a565b82525050565b60006020820190506108a0600083018461087c565b92915050565b60006020820190506108bb60008301846107fc565b92915050565b600080fd5b6000601f19601f8301169050919050565b7f4e487b7100000000000000000000000000000000000000000000000000000000600052604160045260246000fd5b61090f826108c6565b810181811067ffffffffffffffff8211171561092e5761092d6108d7565b5b80604052505050565b60006109416106fb565b905061094d8282610906565b919050565b600067ffffffffffffffff82111561096d5761096c6108d7565b5b602082029050602081019050919050565b600080fd5b600061099661099184610952565b610937565b905080838252602082019050602084028301858111156109b9576109b861097e565b5b835b818110156109e257806109ce888261078e565b8452602084019350506020810190506109bb565b5050509392505050565b600082601f830112610a0157610a006108c1565b5b8135610a11848260208601610983565b91505092915050565b600067ffffffffffffffff821115610a3557610a346108d7565b5b602082029050602081019050919050565b610a4f81610834565b8114610a5a57600080fd5b50565b600081359050610a6c81610a46565b92915050565b6000610a85610a8084610a1a565b610937565b90508083825260208201905060208402830185811115610aa857610aa761097e565b5b835b81811015610ad15780610abd8882610a5d565b845260208401935050602081019050610aaa565b5050509392505050565b600082601f830112610af057610aef6108c1565b5b8135610b00848260208601610a72565b91505092915050565b600067ffffffffffffffff821115610b2457610b236108d7565b5b602082029050602081019050919050565b610b3e816107e3565b8114610b4957600080fd5b50565b600081359050610b5b81610b35565b92915050565b6000610b74610b6f84610b09565b610937565b90508083825260208201905060208402830185811115610b9757610b9661097e565b5b835b81811015610bc05780610bac8882610b4c565b845260208401935050602081019050610b99565b5050509392505050565b600082601f830112610bdf57610bde6108c1565b5b8135610bef848260208601610b61565b91505092915050565b600080600060608486031215610c1157610c10610705565b5b600084013567ffffffffffffffff811115610c2f57610c2e61070a565b5b610c3b868287016109ec565b935050602084013567ffffffffffffffff811115610c5c57610c5b61070a565b5b610c6886828701610adb565b925050604084013567ffffffffffffffff811115610c8957610c8861070a565b5b610c9586828701610bca565b9150509250925092565b610ca88161072f565b82525050565b6000602082019050610cc36000830184610c9f565b92915050565b600060208284031215610cdf57610cde610705565b5b6000610ced84828501610b4c565b91505092915050565b7f4e487b7100000000000000000000000000000000000000000000000000000000600052603260045260246000fd5b6000819050919050565b610d40610d3b8261076d565b610d25565b82525050565b60008160f81b9050919050565b6000610d5e82610d46565b9050919050565b6000610d7082610d53565b9050919050565b610d88610d8382610834565b610d65565b82525050565b6000819050919050565b610da9610da4826107e3565b610d8e565b82525050565b6000610dbb8286610d2f565b602082019150610dcb8285610d77565b600182019150610ddb8284610d98565b602082019150819050949350505050565b7f4e487b7100000000000000000000000000000000000000000000000000000000600052601160045260246000fd5b6000610e268261076d565b9150610e318361076d565b9250827fffffffffffffffffffffffffffffffffffffffffffffffffffffffffffffffff03821115610e6657610e65610dec565b5b828201905092915050565b6000610e7c8261076d565b9150610e878361076d565b925082821015610e9a57610e99610dec565b5b828203905092915050565b6000610eb08261076d565b91507fffffffffffffffffffffffffffffffffffffffffffffffffffffffffffffffff8203610ee257610ee1610dec565b5b60018201905091905056fea2646970667358221220e39656594b2a95c72152e1676887e715086130e005d3356d5b72d27bdc3130c364736f6c634300080d0033",
					"opcodes": "PUSH1 0x80 PUSH1 0x40 MSTORE CALLVALUE DUP1 ISZERO PUSH3 0x11 JUMPI PUSH1 0x0 DUP1 REVERT JUMPDEST POP PUSH1 0x40 MLOAD PUSH3 0x116A CODESIZE SUB DUP1 PUSH3 0x116A DUP4 CODECOPY DUP2 DUP2 ADD PUSH1 0x40 MSTORE DUP2 ADD SWAP1 PUSH3 0x37 SWAP2 SWAP1 PUSH3 0x14F JUMP JUMPDEST DUP1 PUSH1 0x0 DUP1 PUSH2 0x100 EXP DUP2 SLOAD DUP2 PUSH20 0xFFFFFFFFFFFFFFFFFFFFFFFFFFFFFFFFFFFFFFFF MUL NOT AND SWAP1 DUP4 PUSH20 0xFFFFFFFFFFFFFFFFFFFFFFFFFFFFFFFFFFFFFFFF AND MUL OR SWAP1 SSTORE POP DUP3 TIMESTAMP PUSH3 0x85 SWAP2 SWAP1 PUSH3 0x1DA JUMP JUMPDEST PUSH1 0x1 DUP2 SWAP1 SSTORE POP DUP2 PUSH1 0x1 SLOAD PUSH3 0x9B SWAP2 SWAP1 PUSH3 0x1DA JUMP JUMPDEST PUSH1 0x2 DUP2 SWAP1 SSTORE POP POP POP POP PUSH3 0x237 JUMP JUMPDEST PUSH1 0x0 DUP1 REVERT JUMPDEST PUSH1 0x0 DUP2 SWAP1 POP SWAP2 SWAP1 POP JUMP JUMPDEST PUSH3 0xC4 DUP2 PUSH3 0xAF JUMP JUMPDEST DUP2 EQ PUSH3 0xD0 JUMPI PUSH1 0x0 DUP1 REVERT JUMPDEST POP JUMP JUMPDEST PUSH1 0x0 DUP2 MLOAD SWAP1 POP PUSH3 0xE4 DUP2 PUSH3 0xB9 JUMP JUMPDEST SWAP3 SWAP2 POP POP JUMP JUMPDEST PUSH1 0x0 PUSH20 0xFFFFFFFFFFFFFFFFFFFFFFFFFFFFFFFFFFFFFFFF DUP3 AND SWAP1 POP SWAP2 SWAP1 POP JUMP JUMPDEST PUSH1 0x0 PUSH3 0x117 DUP3 PUSH3 0xEA JUMP JUMPDEST SWAP1 POP SWAP2 SWAP1 POP JUMP JUMPDEST PUSH3 0x129 DUP2 PUSH3 0x10A JUMP JUMPDEST DUP2 EQ PUSH3 0x135 JUMPI PUSH1 0x0 DUP1 REVERT JUMPDEST POP JUMP JUMPDEST PUSH1 0x0 DUP2 MLOAD SWAP1 POP PUSH3 0x149 DUP2 PUSH3 0x11E JUMP JUMPDEST SWAP3 SWAP2 POP POP JUMP JUMPDEST PUSH1 0x0 DUP1 PUSH1 0x0 PUSH1 0x60 DUP5 DUP7 SUB SLT ISZERO PUSH3 0x16B JUMPI PUSH3 0x16A PUSH3 0xAA JUMP JUMPDEST JUMPDEST PUSH1 0x0 PUSH3 0x17B DUP7 DUP3 DUP8 ADD PUSH3 0xD3 JUMP JUMPDEST SWAP4 POP POP PUSH1 0x20 PUSH3 0x18E DUP7 DUP3 DUP8 ADD PUSH3 0xD3 JUMP JUMPDEST SWAP3 POP POP PUSH1 0x40 PUSH3 0x1A1 DUP7 DUP3 DUP8 ADD PUSH3 0x138 JUMP JUMPDEST SWAP2 POP POP SWAP3 POP SWAP3 POP SWAP3 JUMP JUMPDEST PUSH32 0x4E487B7100000000000000000000000000000000000000000000000000000000 PUSH1 0x0 MSTORE PUSH1 0x11 PUSH1 0x4 MSTORE PUSH1 0x24 PUSH1 0x0 REVERT JUMPDEST PUSH1 0x0 PUSH3 0x1E7 DUP3 PUSH3 0xAF JUMP JUMPDEST SWAP2 POP PUSH3 0x1F4 DUP4 PUSH3 0xAF JUMP JUMPDEST SWAP3 POP DUP3 PUSH32 0xFFFFFFFFFFFFFFFFFFFFFFFFFFFFFFFFFFFFFFFFFFFFFFFFFFFFFFFFFFFFFFFF SUB DUP3 GT ISZERO PUSH3 0x22C JUMPI PUSH3 0x22B PUSH3 0x1AB JUMP JUMPDEST JUMPDEST DUP3 DUP3 ADD SWAP1 POP SWAP3 SWAP2 POP POP JUMP JUMPDEST PUSH2 0xF23 DUP1 PUSH3 0x247 PUSH1 0x0 CODECOPY PUSH1 0x0 RETURN INVALID PUSH1 0x80 PUSH1 0x40 MSTORE PUSH1 0x4 CALLDATASIZE LT PUSH2 0x86 JUMPI PUSH1 0x0 CALLDATALOAD PUSH1 0xE0 SHR DUP1 PUSH4 0x900F080A GT PUSH2 0x59 JUMPI DUP1 PUSH4 0x900F080A EQ PUSH2 0x14A JUMPI DUP1 PUSH4 0x91F90157 EQ PUSH2 0x173 JUMPI DUP1 PUSH4 0x957BB1E0 EQ PUSH2 0x19E JUMPI DUP1 PUSH4 0xA6E66477 EQ PUSH2 0x1BA JUMPI DUP1 PUSH4 0xD57BDE79 EQ PUSH2 0x1E5 JUMPI PUSH2 0x86 JUMP JUMPDEST DUP1 PUSH4 0x1495C1C EQ PUSH2 0x8B JUMPI DUP1 PUSH4 0x12FA6FEB EQ PUSH2 0xC9 JUMPI DUP1 PUSH4 0x38AF3EED EQ PUSH2 0xF4 JUMPI DUP1 PUSH4 0x423B217F EQ PUSH2 0x11F JUMPI JUMPDEST PUSH1 0x0 DUP1 REVERT JUMPDEST CALLVALUE DUP1 ISZERO PUSH2 0x97 JUMPI PUSH1 0x0 DUP1 REVERT JUMPDEST POP PUSH2 0xB2 PUSH1 0x4 DUP1 CALLDATASIZE SUB DUP2 ADD SWAP1 PUSH2 0xAD SWAP2 SWAP1 PUSH2 0x7A3 JUMP JUMPDEST PUSH2 0x210 JUMP JUMPDEST PUSH1 0x40 MLOAD PUSH2 0xC0 SWAP3 SWAP2 SWAP1 PUSH2 0x80B JUMP JUMPDEST PUSH1 0x40 MLOAD DUP1 SWAP2 SUB SWAP1 RETURN JUMPDEST CALLVALUE DUP1 ISZERO PUSH2 0xD5 JUMPI PUSH1 0x0 DUP1 REVERT JUMPDEST POP PUSH2 0xDE PUSH2 0x251 JUMP JUMPDEST PUSH1 0x40 MLOAD PUSH2 0xEB SWAP2 SWAP1 PUSH2 0x84F JUMP JUMPDEST PUSH1 0x40 MLOAD DUP1 SWAP2 SUB SWAP1 RETURN JUMPDEST CALLVALUE DUP1 ISZERO PUSH2 0x100 JUMPI PUSH1 0x0 DUP1 REVERT JUMPDEST POP PUSH2 0x109 PUSH2 0x264 JUMP JUMPDEST PUSH1 0x40 MLOAD PUSH2 0x116 SWAP2 SWAP1 PUSH2 0x88B JUMP JUMPDEST PUSH1 0x40 MLOAD DUP1 SWAP2 SUB SWAP1 RETURN JUMPDEST CALLVALUE DUP1 ISZERO PUSH2 0x12B JUMPI PUSH1 0x0 DUP1 REVERT JUMPDEST POP PUSH2 0x134 PUSH2 0x288 JUMP JUMPDEST PUSH1 0x40 MLOAD PUSH2 0x141 SWAP2 SWAP1 PUSH2 0x8A6 JUMP JUMPDEST PUSH1 0x40 MLOAD DUP1 SWAP2 SUB SWAP1 RETURN JUMPDEST CALLVALUE DUP1 ISZERO PUSH2 0x156 JUMPI PUSH1 0x0 DUP1 REVERT JUMPDEST POP PUSH2 0x171 PUSH1 0x4 DUP1 CALLDATASIZE SUB DUP2 ADD SWAP1 PUSH2 0x16C SWAP2 SWAP1 PUSH2 0xBF8 JUMP JUMPDEST PUSH2 0x28E JUMP JUMPDEST STOP JUMPDEST CALLVALUE DUP1 ISZERO PUSH2 0x17F JUMPI PUSH1 0x0 DUP1 REVERT JUMPDEST POP PUSH2 0x188 PUSH2 0x4EB JUMP JUMPDEST PUSH1 0x40 MLOAD PUSH2 0x195 SWAP2 SWAP1 PUSH2 0xCAE JUMP JUMPDEST PUSH1 0x40 MLOAD DUP1 SWAP2 SUB SWAP1 RETURN JUMPDEST PUSH2 0x1B8 PUSH1 0x4 DUP1 CALLDATASIZE SUB DUP2 ADD SWAP1 PUSH2 0x1B3 SWAP2 SWAP1 PUSH2 0xCC9 JUMP JUMPDEST PUSH2 0x511 JUMP JUMPDEST STOP JUMPDEST CALLVALUE DUP1 ISZERO PUSH2 0x1C6 JUMPI PUSH1 0x0 DUP1 REVERT JUMPDEST POP PUSH2 0x1CF PUSH2 0x5B7 JUMP JUMPDEST PUSH1 0x40 MLOAD PUSH2 0x1DC SWAP2 SWAP1 PUSH2 0x8A6 JUMP JUMPDEST PUSH1 0x40 MLOAD DUP1 SWAP2 SUB SWAP1 RETURN JUMPDEST CALLVALUE DUP1 ISZERO PUSH2 0x1F1 JUMPI PUSH1 0x0 DUP1 REVERT JUMPDEST POP PUSH2 0x1FA PUSH2 0x5BD JUMP JUMPDEST PUSH1 0x40 MLOAD PUSH2 0x207 SWAP2 SWAP1 PUSH2 0x8A6 JUMP JUMPDEST PUSH1 0x40 MLOAD DUP1 SWAP2 SUB SWAP1 RETURN JUMPDEST PUSH1 0x4 PUSH1 0x20 MSTORE DUP2 PUSH1 0x0 MSTORE PUSH1 0x40 PUSH1 0x0 KECCAK256 DUP2 DUP2 SLOAD DUP2 LT PUSH2 0x22C JUMPI PUSH1 0x0 DUP1 REVERT JUMPDEST SWAP1 PUSH1 0x0 MSTORE PUSH1 0x20 PUSH1 0x0 KECCAK256 SWAP1 PUSH1 0x2 MUL ADD PUSH1 0x0 SWAP2 POP SWAP2 POP POP DUP1 PUSH1 0x0 ADD SLOAD SWAP1 DUP1 PUSH1 0x1 ADD SLOAD SWAP1 POP DUP3 JUMP JUMPDEST PUSH1 0x3 PUSH1 0x0 SWAP1 SLOAD SWAP1 PUSH2 0x100 EXP SWAP1 DIV PUSH1 0xFF AND DUP2 JUMP JUMPDEST PUSH1 0x0 DUP1 SLOAD SWAP1 PUSH2 0x100 EXP SWAP1 DIV PUSH20 0xFFFFFFFFFFFFFFFFFFFFFFFFFFFFFFFFFFFFFFFF AND DUP2 JUMP JUMPDEST PUSH1 0x1 SLOAD DUP2 JUMP JUMPDEST PUSH1 0x1 SLOAD DUP1 TIMESTAMP GT PUSH2 0x29D JUMPI PUSH1 0x0 DUP1 REVERT JUMPDEST PUSH1 0x2 SLOAD DUP1 TIMESTAMP LT PUSH2 0x2AC JUMPI PUSH1 0x0 DUP1 REVERT JUMPDEST PUSH1 0x0 PUSH1 0x4 PUSH1 0x0 CALLER PUSH20 0xFFFFFFFFFFFFFFFFFFFFFFFFFFFFFFFFFFFFFFFF AND PUSH20 0xFFFFFFFFFFFFFFFFFFFFFFFFFFFFFFFFFFFFFFFF AND DUP2 MSTORE PUSH1 0x20 ADD SWAP1 DUP2 MSTORE PUSH1 0x20 ADD PUSH1 0x0 KECCAK256 DUP1 SLOAD SWAP1 POP SWAP1 POP DUP1 DUP7 MLOAD EQ PUSH2 0x300 JUMPI PUSH1 0x0 DUP1 REVERT JUMPDEST DUP1 DUP6 MLOAD EQ PUSH2 0x30D JUMPI PUSH1 0x0 DUP1 REVERT JUMPDEST DUP1 DUP5 MLOAD EQ PUSH2 0x31A JUMPI PUSH1 0x0 DUP1 REVERT JUMPDEST PUSH1 0x0 DUP1 PUSH1 0x1 SWAP1 POP JUMPDEST DUP3 DUP2 LT ISZERO PUSH2 0x49A JUMPI PUSH1 0x0 PUSH1 0x4 PUSH1 0x0 CALLER PUSH20 0xFFFFFFFFFFFFFFFFFFFFFFFFFFFFFFFFFFFFFFFF AND PUSH20 0xFFFFFFFFFFFFFFFFFFFFFFFFFFFFFFFFFFFFFFFF AND DUP2 MSTORE PUSH1 0x20 ADD SWAP1 DUP2 MSTORE PUSH1 0x20 ADD PUSH1 0x0 KECCAK256 DUP3 DUP2 SLOAD DUP2 LT PUSH2 0x37D JUMPI PUSH2 0x37C PUSH2 0xCF6 JUMP JUMPDEST JUMPDEST SWAP1 PUSH1 0x0 MSTORE PUSH1 0x20 PUSH1 0x0 KECCAK256 SWAP1 PUSH1 0x2 MUL ADD SWAP1 POP PUSH1 0x0 DUP1 PUSH1 0x0 DUP12 DUP6 DUP2 MLOAD DUP2 LT PUSH2 0x3A5 JUMPI PUSH2 0x3A4 PUSH2 0xCF6 JUMP JUMPDEST JUMPDEST PUSH1 0x20 MUL PUSH1 0x20 ADD ADD MLOAD DUP12 DUP7 DUP2 MLOAD DUP2 LT PUSH2 0x3C0 JUMPI PUSH2 0x3BF PUSH2 0xCF6 JUMP JUMPDEST JUMPDEST PUSH1 0x20 MUL PUSH1 0x20 ADD ADD MLOAD DUP12 DUP8 DUP2 MLOAD DUP2 LT PUSH2 0x3DB JUMPI PUSH2 0x3DA PUSH2 0xCF6 JUMP JUMPDEST JUMPDEST PUSH1 0x20 MUL PUSH1 0x20 ADD ADD MLOAD SWAP3 POP SWAP3 POP SWAP3 POP PUSH1 0x0 DUP4 DUP4 DUP4 PUSH1 0x40 MLOAD PUSH1 0x20 ADD PUSH2 0x400 SWAP4 SWAP3 SWAP2 SWAP1 PUSH2 0xDAF JUMP JUMPDEST PUSH1 0x40 MLOAD PUSH1 0x20 DUP2 DUP4 SUB SUB DUP2 MSTORE SWAP1 PUSH1 0x40 MSTORE SWAP1 POP DUP1 DUP1 MLOAD SWAP1 PUSH1 0x20 ADD KECCAK256 DUP6 PUSH1 0x0 ADD SLOAD EQ PUSH2 0x42D JUMPI POP POP POP POP POP PUSH2 0x487 JUMP JUMPDEST DUP5 PUSH1 0x1 ADD SLOAD DUP8 PUSH2 0x43D SWAP2 SWAP1 PUSH2 0xE1B JUMP JUMPDEST SWAP7 POP DUP3 ISZERO DUP1 ISZERO PUSH2 0x451 JUMPI POP DUP4 DUP6 PUSH1 0x1 ADD SLOAD LT ISZERO JUMPDEST ISZERO PUSH2 0x475 JUMPI PUSH2 0x460 CALLER DUP6 PUSH2 0x5C3 JUMP JUMPDEST ISZERO PUSH2 0x474 JUMPI DUP4 DUP8 PUSH2 0x471 SWAP2 SWAP1 PUSH2 0xE71 JUMP JUMPDEST SWAP7 POP JUMPDEST JUMPDEST PUSH1 0x0 DUP1 SHL DUP6 PUSH1 0x0 ADD DUP2 SWAP1 SSTORE POP POP POP POP POP POP JUMPDEST DUP1 DUP1 PUSH2 0x492 SWAP1 PUSH2 0xEA5 JUMP JUMPDEST SWAP2 POP POP PUSH2 0x322 JUMP JUMPDEST POP CALLER PUSH20 0xFFFFFFFFFFFFFFFFFFFFFFFFFFFFFFFFFFFFFFFF AND PUSH2 0x8FC DUP3 SWAP1 DUP2 ISZERO MUL SWAP1 PUSH1 0x40 MLOAD PUSH1 0x0 PUSH1 0x40 MLOAD DUP1 DUP4 SUB DUP2 DUP6 DUP9 DUP9 CALL SWAP4 POP POP POP POP ISZERO DUP1 ISZERO PUSH2 0x4E1 JUMPI RETURNDATASIZE PUSH1 0x0 DUP1 RETURNDATACOPY RETURNDATASIZE PUSH1 0x0 REVERT JUMPDEST POP POP POP POP POP POP POP POP JUMP JUMPDEST PUSH1 0x5 PUSH1 0x0 SWAP1 SLOAD SWAP1 PUSH2 0x100 EXP SWAP1 DIV PUSH20 0xFFFFFFFFFFFFFFFFFFFFFFFFFFFFFFFFFFFFFFFF AND DUP2 JUMP JUMPDEST PUSH1 0x1 SLOAD DUP1 TIMESTAMP LT PUSH2 0x520 JUMPI PUSH1 0x0 DUP1 REVERT JUMPDEST PUSH1 0x4 PUSH1 0x0 CALLER PUSH20 0xFFFFFFFFFFFFFFFFFFFFFFFFFFFFFFFFFFFFFFFF AND PUSH20 0xFFFFFFFFFFFFFFFFFFFFFFFFFFFFFFFFFFFFFFFF AND DUP2 MSTORE PUSH1 0x20 ADD SWAP1 DUP2 MSTORE PUSH1 0x20 ADD PUSH1 0x0 KECCAK256 PUSH1 0x40 MLOAD DUP1 PUSH1 0x40 ADD PUSH1 0x40 MSTORE DUP1 DUP5 DUP2 MSTORE PUSH1 0x20 ADD CALLVALUE DUP2 MSTORE POP SWAP1 DUP1 PUSH1 0x1 DUP2 SLOAD ADD DUP1 DUP3 SSTORE DUP1 SWAP2 POP POP PUSH1 0x1 SWAP1 SUB SWAP1 PUSH1 0x0 MSTORE PUSH1 0x20 PUSH1 0x0 KECCAK256 SWAP1 PUSH1 0x2 MUL ADD PUSH1 0x0 SWAP1 SWAP2 SWAP1 SWAP2 SWAP1 SWAP2 POP PUSH1 0x0 DUP3 ADD MLOAD DUP2 PUSH1 0x0 ADD SSTORE PUSH1 0x20 DUP3 ADD MLOAD DUP2 PUSH1 0x1 ADD SSTORE POP POP POP POP JUMP JUMPDEST PUSH1 0x2 SLOAD DUP2 JUMP JUMPDEST PUSH1 0x6 SLOAD DUP2 JUMP JUMPDEST PUSH1 0x0 PUSH1 0x6 SLOAD DUP3 GT PUSH2 0x5D7 JUMPI PUSH1 0x0 SWAP1 POP PUSH2 0x6F5 JUMP JUMPDEST PUSH1 0x0 PUSH20 0xFFFFFFFFFFFFFFFFFFFFFFFFFFFFFFFFFFFFFFFF AND PUSH1 0x5 PUSH1 0x0 SWAP1 SLOAD SWAP1 PUSH2 0x100 EXP SWAP1 DIV PUSH20 0xFFFFFFFFFFFFFFFFFFFFFFFFFFFFFFFFFFFFFFFF AND PUSH20 0xFFFFFFFFFFFFFFFFFFFFFFFFFFFFFFFFFFFFFFFF AND EQ PUSH2 0x6A8 JUMPI PUSH1 0x6 SLOAD PUSH1 0x7 PUSH1 0x0 PUSH1 0x5 PUSH1 0x0 SWAP1 SLOAD SWAP1 PUSH2 0x100 EXP SWAP1 DIV PUSH20 0xFFFFFFFFFFFFFFFFFFFFFFFFFFFFFFFFFFFFFFFF AND PUSH20 0xFFFFFFFFFFFFFFFFFFFFFFFFFFFFFFFFFFFFFFFF AND PUSH20 0xFFFFFFFFFFFFFFFFFFFFFFFFFFFFFFFFFFFFFFFF AND DUP2 MSTORE PUSH1 0x20 ADD SWAP1 DUP2 MSTORE PUSH1 0x20 ADD PUSH1 0x0 KECCAK256 PUSH1 0x0 DUP3 DUP3 SLOAD PUSH2 0x6A0 SWAP2 SWAP1 PUSH2 0xE1B JUMP JUMPDEST SWAP3 POP POP DUP2 SWAP1 SSTORE POP JUMPDEST DUP2 PUSH1 0x6 DUP2 SWAP1 SSTORE POP DUP3 PUSH1 0x5 PUSH1 0x0 PUSH2 0x100 EXP DUP2 SLOAD DUP2 PUSH20 0xFFFFFFFFFFFFFFFFFFFFFFFFFFFFFFFFFFFFFFFF MUL NOT AND SWAP1 DUP4 PUSH20 0xFFFFFFFFFFFFFFFFFFFFFFFFFFFFFFFFFFFFFFFF AND MUL OR SWAP1 SSTORE POP PUSH1 0x1 SWAP1 POP JUMPDEST SWAP3 SWAP2 POP POP JUMP JUMPDEST PUSH1 0x0 PUSH1 0x40 MLOAD SWAP1 POP SWAP1 JUMP JUMPDEST PUSH1 0x0 DUP1 REVERT JUMPDEST PUSH1 0x0 DUP1 REVERT JUMPDEST PUSH1 0x0 PUSH20 0xFFFFFFFFFFFFFFFFFFFFFFFFFFFFFFFFFFFFFFFF DUP3 AND SWAP1 POP SWAP2 SWAP1 POP JUMP JUMPDEST PUSH1 0x0 PUSH2 0x73A DUP3 PUSH2 0x70F JUMP JUMPDEST SWAP1 POP SWAP2 SWAP1 POP JUMP JUMPDEST PUSH2 0x74A DUP2 PUSH2 0x72F JUMP JUMPDEST DUP2 EQ PUSH2 0x755 JUMPI PUSH1 0x0 DUP1 REVERT JUMPDEST POP JUMP JUMPDEST PUSH1 0x0 DUP2 CALLDATALOAD SWAP1 POP PUSH2 0x767 DUP2 PUSH2 0x741 JUMP JUMPDEST SWAP3 SWAP2 POP POP JUMP JUMPDEST PUSH1 0x0 DUP2 SWAP1 POP SWAP2 SWAP1 POP JUMP JUMPDEST PUSH2 0x780 DUP2 PUSH2 0x76D JUMP JUMPDEST DUP2 EQ PUSH2 0x78B JUMPI PUSH1 0x0 DUP1 REVERT JUMPDEST POP JUMP JUMPDEST PUSH1 0x0 DUP2 CALLDATALOAD SWAP1 POP PUSH2 0x79D DUP2 PUSH2 0x777 JUMP JUMPDEST SWAP3 SWAP2 POP POP JUMP JUMPDEST PUSH1 0x0 DUP1 PUSH1 0x40 DUP4 DUP6 SUB SLT ISZERO PUSH2 0x7BA JUMPI PUSH2 0x7B9 PUSH2 0x705 JUMP JUMPDEST JUMPDEST PUSH1 0x0 PUSH2 0x7C8 DUP6 DUP3 DUP7 ADD PUSH2 0x758 JUMP JUMPDEST SWAP3 POP POP PUSH1 0x20 PUSH2 0x7D9 DUP6 DUP3 DUP7 ADD PUSH2 0x78E JUMP JUMPDEST SWAP2 POP POP SWAP3 POP SWAP3 SWAP1 POP JUMP JUMPDEST PUSH1 0x0 DUP2 SWAP1 POP SWAP2 SWAP1 POP JUMP JUMPDEST PUSH2 0x7F6 DUP2 PUSH2 0x7E3 JUMP JUMPDEST DUP3 MSTORE POP POP JUMP JUMPDEST PUSH2 0x805 DUP2 PUSH2 0x76D JUMP JUMPDEST DUP3 MSTORE POP POP JUMP JUMPDEST PUSH1 0x0 PUSH1 0x40 DUP3 ADD SWAP1 POP PUSH2 0x820 PUSH1 0x0 DUP4 ADD DUP6 PUSH2 0x7ED JUMP JUMPDEST PUSH2 0x82D PUSH1 0x20 DUP4 ADD DUP5 PUSH2 0x7FC JUMP JUMPDEST SWAP4 SWAP3 POP POP POP JUMP JUMPDEST PUSH1 0x0 DUP2 ISZERO ISZERO SWAP1 POP SWAP2 SWAP1 POP JUMP JUMPDEST PUSH2 0x849 DUP2 PUSH2 0x834 JUMP JUMPDEST DUP3 MSTORE POP POP JUMP JUMPDEST PUSH1 0x0 PUSH1 0x20 DUP3 ADD SWAP1 POP PUSH2 0x864 PUSH1 0x0 DUP4 ADD DUP5 PUSH2 0x840 JUMP JUMPDEST SWAP3 SWAP2 POP POP JUMP JUMPDEST PUSH1 0x0 PUSH2 0x875 DUP3 PUSH2 0x70F JUMP JUMPDEST SWAP1 POP SWAP2 SWAP1 POP JUMP JUMPDEST PUSH2 0x885 DUP2 PUSH2 0x86A JUMP JUMPDEST DUP3 MSTORE POP POP JUMP JUMPDEST PUSH1 0x0 PUSH1 0x20 DUP3 ADD SWAP1 POP PUSH2 0x8A0 PUSH1 0x0 DUP4 ADD DUP5 PUSH2 0x87C JUMP JUMPDEST SWAP3 SWAP2 POP POP JUMP JUMPDEST PUSH1 0x0 PUSH1 0x20 DUP3 ADD SWAP1 POP PUSH2 0x8BB PUSH1 0x0 DUP4 ADD DUP5 PUSH2 0x7FC JUMP JUMPDEST SWAP3 SWAP2 POP POP JUMP JUMPDEST PUSH1 0x0 DUP1 REVERT JUMPDEST PUSH1 0x0 PUSH1 0x1F NOT PUSH1 0x1F DUP4 ADD AND SWAP1 POP SWAP2 SWAP1 POP JUMP JUMPDEST PUSH32 0x4E487B7100000000000000000000000000000000000000000000000000000000 PUSH1 0x0 MSTORE PUSH1 0x41 PUSH1 0x4 MSTORE PUSH1 0x24 PUSH1 0x0 REVERT JUMPDEST PUSH2 0x90F DUP3 PUSH2 0x8C6 JUMP JUMPDEST DUP2 ADD DUP2 DUP2 LT PUSH8 0xFFFFFFFFFFFFFFFF DUP3 GT OR ISZERO PUSH2 0x92E JUMPI PUSH2 0x92D PUSH2 0x8D7 JUMP JUMPDEST JUMPDEST DUP1 PUSH1 0x40 MSTORE POP POP POP JUMP JUMPDEST PUSH1 0x0 PUSH2 0x941 PUSH2 0x6FB JUMP JUMPDEST SWAP1 POP PUSH2 0x94D DUP3 DUP3 PUSH2 0x906 JUMP JUMPDEST SWAP2 SWAP1 POP JUMP JUMPDEST PUSH1 0x0 PUSH8 0xFFFFFFFFFFFFFFFF DUP3 GT ISZERO PUSH2 0x96D JUMPI PUSH2 0x96C PUSH2 0x8D7 JUMP JUMPDEST JUMPDEST PUSH1 0x20 DUP3 MUL SWAP1 POP PUSH1 0x20 DUP2 ADD SWAP1 POP SWAP2 SWAP1 POP JUMP JUMPDEST PUSH1 0x0 DUP1 REVERT JUMPDEST PUSH1 0x0 PUSH2 0x996 PUSH2 0x991 DUP5 PUSH2 0x952 JUMP JUMPDEST PUSH2 0x937 JUMP JUMPDEST SWAP1 POP DUP1 DUP4 DUP3 MSTORE PUSH1 0x20 DUP3 ADD SWAP1 POP PUSH1 0x20 DUP5 MUL DUP4 ADD DUP6 DUP2 GT ISZERO PUSH2 0x9B9 JUMPI PUSH2 0x9B8 PUSH2 0x97E JUMP JUMPDEST JUMPDEST DUP4 JUMPDEST DUP2 DUP2 LT ISZERO PUSH2 0x9E2 JUMPI DUP1 PUSH2 0x9CE DUP9 DUP3 PUSH2 0x78E JUMP JUMPDEST DUP5 MSTORE PUSH1 0x20 DUP5 ADD SWAP4 POP POP PUSH1 0x20 DUP2 ADD SWAP1 POP PUSH2 0x9BB JUMP JUMPDEST POP POP POP SWAP4 SWAP3 POP POP POP JUMP JUMPDEST PUSH1 0x0 DUP3 PUSH1 0x1F DUP4 ADD SLT PUSH2 0xA01 JUMPI PUSH2 0xA00 PUSH2 0x8C1 JUMP JUMPDEST JUMPDEST DUP2 CALLDATALOAD PUSH2 0xA11 DUP5 DUP3 PUSH1 0x20 DUP7 ADD PUSH2 0x983 JUMP JUMPDEST SWAP2 POP POP SWAP3 SWAP2 POP POP JUMP JUMPDEST PUSH1 0x0 PUSH8 0xFFFFFFFFFFFFFFFF DUP3 GT ISZERO PUSH2 0xA35 JUMPI PUSH2 0xA34 PUSH2 0x8D7 JUMP JUMPDEST JUMPDEST PUSH1 0x20 DUP3 MUL SWAP1 POP PUSH1 0x20 DUP2 ADD SWAP1 POP SWAP2 SWAP1 POP JUMP JUMPDEST PUSH2 0xA4F DUP2 PUSH2 0x834 JUMP JUMPDEST DUP2 EQ PUSH2 0xA5A JUMPI PUSH1 0x0 DUP1 REVERT JUMPDEST POP JUMP JUMPDEST PUSH1 0x0 DUP2 CALLDATALOAD SWAP1 POP PUSH2 0xA6C DUP2 PUSH2 0xA46 JUMP JUMPDEST SWAP3 SWAP2 POP POP JUMP JUMPDEST PUSH1 0x0 PUSH2 0xA85 PUSH2 0xA80 DUP5 PUSH2 0xA1A JUMP JUMPDEST PUSH2 0x937 JUMP JUMPDEST SWAP1 POP DUP1 DUP4 DUP3 MSTORE PUSH1 0x20 DUP3 ADD SWAP1 POP PUSH1 0x20 DUP5 MUL DUP4 ADD DUP6 DUP2 GT ISZERO PUSH2 0xAA8 JUMPI PUSH2 0xAA7 PUSH2 0x97E JUMP JUMPDEST JUMPDEST DUP4 JUMPDEST DUP2 DUP2 LT ISZERO PUSH2 0xAD1 JUMPI DUP1 PUSH2 0xABD DUP9 DUP3 PUSH2 0xA5D JUMP JUMPDEST DUP5 MSTORE PUSH1 0x20 DUP5 ADD SWAP4 POP POP PUSH1 0x20 DUP2 ADD SWAP1 POP PUSH2 0xAAA JUMP JUMPDEST POP POP POP SWAP4 SWAP3 POP POP POP JUMP JUMPDEST PUSH1 0x0 DUP3 PUSH1 0x1F DUP4 ADD SLT PUSH2 0xAF0 JUMPI PUSH2 0xAEF PUSH2 0x8C1 JUMP JUMPDEST JUMPDEST DUP2 CALLDATALOAD PUSH2 0xB00 DUP5 DUP3 PUSH1 0x20 DUP7 ADD PUSH2 0xA72 JUMP JUMPDEST SWAP2 POP POP SWAP3 SWAP2 POP POP JUMP JUMPDEST PUSH1 0x0 PUSH8 0xFFFFFFFFFFFFFFFF DUP3 GT ISZERO PUSH2 0xB24 JUMPI PUSH2 0xB23 PUSH2 0x8D7 JUMP JUMPDEST JUMPDEST PUSH1 0x20 DUP3 MUL SWAP1 POP PUSH1 0x20 DUP2 ADD SWAP1 POP SWAP2 SWAP1 POP JUMP JUMPDEST PUSH2 0xB3E DUP2 PUSH2 0x7E3 JUMP JUMPDEST DUP2 EQ PUSH2 0xB49 JUMPI PUSH1 0x0 DUP1 REVERT JUMPDEST POP JUMP JUMPDEST PUSH1 0x0 DUP2 CALLDATALOAD SWAP1 POP PUSH2 0xB5B DUP2 PUSH2 0xB35 JUMP JUMPDEST SWAP3 SWAP2 POP POP JUMP JUMPDEST PUSH1 0x0 PUSH2 0xB74 PUSH2 0xB6F DUP5 PUSH2 0xB09 JUMP JUMPDEST PUSH2 0x937 JUMP JUMPDEST SWAP1 POP DUP1 DUP4 DUP3 MSTORE PUSH1 0x20 DUP3 ADD SWAP1 POP PUSH1 0x20 DUP5 MUL DUP4 ADD DUP6 DUP2 GT ISZERO PUSH2 0xB97 JUMPI PUSH2 0xB96 PUSH2 0x97E JUMP JUMPDEST JUMPDEST DUP4 JUMPDEST DUP2 DUP2 LT ISZERO PUSH2 0xBC0 JUMPI DUP1 PUSH2 0xBAC DUP9 DUP3 PUSH2 0xB4C JUMP JUMPDEST DUP5 MSTORE PUSH1 0x20 DUP5 ADD SWAP4 POP POP PUSH1 0x20 DUP2 ADD SWAP1 POP PUSH2 0xB99 JUMP JUMPDEST POP POP POP SWAP4 SWAP3 POP POP POP JUMP JUMPDEST PUSH1 0x0 DUP3 PUSH1 0x1F DUP4 ADD SLT PUSH2 0xBDF JUMPI PUSH2 0xBDE PUSH2 0x8C1 JUMP JUMPDEST JUMPDEST DUP2 CALLDATALOAD PUSH2 0xBEF DUP5 DUP3 PUSH1 0x20 DUP7 ADD PUSH2 0xB61 JUMP JUMPDEST SWAP2 POP POP SWAP3 SWAP2 POP POP JUMP JUMPDEST PUSH1 0x0 DUP1 PUSH1 0x0 PUSH1 0x60 DUP5 DUP7 SUB SLT ISZERO PUSH2 0xC11 JUMPI PUSH2 0xC10 PUSH2 0x705 JUMP JUMPDEST JUMPDEST PUSH1 0x0 DUP5 ADD CALLDATALOAD PUSH8 0xFFFFFFFFFFFFFFFF DUP2 GT ISZERO PUSH2 0xC2F JUMPI PUSH2 0xC2E PUSH2 0x70A JUMP JUMPDEST JUMPDEST PUSH2 0xC3B DUP7 DUP3 DUP8 ADD PUSH2 0x9EC JUMP JUMPDEST SWAP4 POP POP PUSH1 0x20 DUP5 ADD CALLDATALOAD PUSH8 0xFFFFFFFFFFFFFFFF DUP2 GT ISZERO PUSH2 0xC5C JUMPI PUSH2 0xC5B PUSH2 0x70A JUMP JUMPDEST JUMPDEST PUSH2 0xC68 DUP7 DUP3 DUP8 ADD PUSH2 0xADB JUMP JUMPDEST SWAP3 POP POP PUSH1 0x40 DUP5 ADD CALLDATALOAD PUSH8 0xFFFFFFFFFFFFFFFF DUP2 GT ISZERO PUSH2 0xC89 JUMPI PUSH2 0xC88 PUSH2 0x70A JUMP JUMPDEST JUMPDEST PUSH2 0xC95 DUP7 DUP3 DUP8 ADD PUSH2 0xBCA JUMP JUMPDEST SWAP2 POP POP SWAP3 POP SWAP3 POP SWAP3 JUMP JUMPDEST PUSH2 0xCA8 DUP2 PUSH2 0x72F JUMP JUMPDEST DUP3 MSTORE POP POP JUMP JUMPDEST PUSH1 0x0 PUSH1 0x20 DUP3 ADD SWAP1 POP PUSH2 0xCC3 PUSH1 0x0 DUP4 ADD DUP5 PUSH2 0xC9F JUMP JUMPDEST SWAP3 SWAP2 POP POP JUMP JUMPDEST PUSH1 0x0 PUSH1 0x20 DUP3 DUP5 SUB SLT ISZERO PUSH2 0xCDF JUMPI PUSH2 0xCDE PUSH2 0x705 JUMP JUMPDEST JUMPDEST PUSH1 0x0 PUSH2 0xCED DUP5 DUP3 DUP6 ADD PUSH2 0xB4C JUMP JUMPDEST SWAP2 POP POP SWAP3 SWAP2 POP POP JUMP JUMPDEST PUSH32 0x4E487B7100000000000000000000000000000000000000000000000000000000 PUSH1 0x0 MSTORE PUSH1 0x32 PUSH1 0x4 MSTORE PUSH1 0x24 PUSH1 0x0 REVERT JUMPDEST PUSH1 0x0 DUP2 SWAP1 POP SWAP2 SWAP1 POP JUMP JUMPDEST PUSH2 0xD40 PUSH2 0xD3B DUP3 PUSH2 0x76D JUMP JUMPDEST PUSH2 0xD25 JUMP JUMPDEST DUP3 MSTORE POP POP JUMP JUMPDEST PUSH1 0x0 DUP2 PUSH1 0xF8 SHL SWAP1 POP SWAP2 SWAP1 POP JUMP JUMPDEST PUSH1 0x0 PUSH2 0xD5E DUP3 PUSH2 0xD46 JUMP JUMPDEST SWAP1 POP SWAP2 SWAP1 POP JUMP JUMPDEST PUSH1 0x0 PUSH2 0xD70 DUP3 PUSH2 0xD53 JUMP JUMPDEST SWAP1 POP SWAP2 SWAP1 POP JUMP JUMPDEST PUSH2 0xD88 PUSH2 0xD83 DUP3 PUSH2 0x834 JUMP JUMPDEST PUSH2 0xD65 JUMP JUMPDEST DUP3 MSTORE POP POP JUMP JUMPDEST PUSH1 0x0 DUP2 SWAP1 POP SWAP2 SWAP1 POP JUMP JUMPDEST PUSH2 0xDA9 PUSH2 0xDA4 DUP3 PUSH2 0x7E3 JUMP JUMPDEST PUSH2 0xD8E JUMP JUMPDEST DUP3 MSTORE POP POP JUMP JUMPDEST PUSH1 0x0 PUSH2 0xDBB DUP3 DUP7 PUSH2 0xD2F JUMP JUMPDEST PUSH1 0x20 DUP3 ADD SWAP2 POP PUSH2 0xDCB DUP3 DUP6 PUSH2 0xD77 JUMP JUMPDEST PUSH1 0x1 DUP3 ADD SWAP2 POP PUSH2 0xDDB DUP3 DUP5 PUSH2 0xD98 JUMP JUMPDEST PUSH1 0x20 DUP3 ADD SWAP2 POP DUP2 SWAP1 POP SWAP5 SWAP4 POP POP POP POP JUMP JUMPDEST PUSH32 0x4E487B7100000000000000000000000000000000000000000000000000000000 PUSH1 0x0 MSTORE PUSH1 0x11 PUSH1 0x4 MSTORE PUSH1 0x24 PUSH1 0x0 REVERT JUMPDEST PUSH1 0x0 PUSH2 0xE26 DUP3 PUSH2 0x76D JUMP JUMPDEST SWAP2 POP PUSH2 0xE31 DUP4 PUSH2 0x76D JUMP JUMPDEST SWAP3 POP DUP3 PUSH32 0xFFFFFFFFFFFFFFFFFFFFFFFFFFFFFFFFFFFFFFFFFFFFFFFFFFFFFFFFFFFFFFFF SUB DUP3 GT ISZERO PUSH2 0xE66 JUMPI PUSH2 0xE65 PUSH2 0xDEC JUMP JUMPDEST JUMPDEST DUP3 DUP3 ADD SWAP1 POP SWAP3 SWAP2 POP POP JUMP JUMPDEST PUSH1 0x0 PUSH2 0xE7C DUP3 PUSH2 0x76D JUMP JUMPDEST SWAP2 POP PUSH2 0xE87 DUP4 PUSH2 0x76D JUMP JUMPDEST SWAP3 POP DUP3 DUP3 LT ISZERO PUSH2 0xE9A JUMPI PUSH2 0xE99 PUSH2 0xDEC JUMP JUMPDEST JUMPDEST DUP3 DUP3 SUB SWAP1 POP SWAP3 SWAP2 POP POP JUMP JUMPDEST PUSH1 0x0 PUSH2 0xEB0 DUP3 PUSH2 0x76D JUMP JUMPDEST SWAP2 POP PUSH32 0xFFFFFFFFFFFFFFFFFFFFFFFFFFFFFFFFFFFFFFFFFFFFFFFFFFFFFFFFFFFFFFFF DUP3 SUB PUSH2 0xEE2 JUMPI PUSH2 0xEE1 PUSH2 0xDEC JUMP JUMPDEST JUMPDEST PUSH1 0x1 DUP3 ADD SWAP1 POP SWAP2 SWAP1 POP JUMP INVALID LOG2 PUSH5 0x6970667358 0x22 SLT KECCAK256 0xE3 SWAP7 JUMP MSIZE 0x4B 0x2A SWAP6 0xC7 0x21 MSTORE 0xE1 PUSH8 0x6887E715086130E0 SDIV 0xD3 CALLDATALOAD PUSH14 0x5B72D27BDC3130C364736F6C6343 STOP ADDMOD 0xD STOP CALLER "
				},
				"gasEstimates": {
					"creation": {
						"codeDepositCost": "775000",
						"executionCost": "infinite",
						"totalCost": "infinite"
					},
					"external": {
						"beneficiary()": "2556",
						"bid(bytes32)": "71277",
						"biddingEnd()": "2496",
						"bids(address,uint256)": "infinite",
						"ended()": "2494",
						"highestBid()": "2517",
						"highestBidder()": "2536",
						"reveal(uint256[],bool[],bytes32[])": "infinite",
						"revealEnd()": "2495"
					},
					"internal": {
						"placeBid(address,uint256)": "infinite"
					}
				},
				"methodIdentifiers": {
					"beneficiary()": "38af3eed",
					"bid(bytes32)": "957bb1e0",
					"biddingEnd()": "423b217f",
					"bids(address,uint256)": "01495c1c",
					"ended()": "12fa6feb",
					"highestBid()": "d57bde79",
					"highestBidder()": "91f90157",
					"reveal(uint256[],bool[],bytes32[])": "900f080a",
					"revealEnd()": "a6e66477"
				}
			},
			"userdoc": {
				"kind": "user",
				"methods": {},
				"version": 1
			}
		}
	}
}