{
	"contracts/test.sol": {
		"Test": {
			"abi": [
				{
					"inputs": [
						{
							"internalType": "address",
							"name": "_beneficiary",
							"type": "address"
						},
						{
							"internalType": "uint256",
							"name": "_auctionEnd",
							"type": "uint256"
						},
						{
							"internalType": "uint256",
							"name": "_discloseEnd",
							"type": "uint256"
						}
					],
					"stateMutability": "nonpayable",
					"type": "constructor"
				},
				{
					"anonymous": false,
					"inputs": [
						{
							"indexed": false,
							"internalType": "address",
							"name": "_s",
							"type": "address"
						},
						{
							"indexed": false,
							"internalType": "uint256",
							"name": "amount",
							"type": "uint256"
						}
					],
					"name": "auctionEndEvent",
					"type": "event"
				},
				{
					"inputs": [],
					"name": "auctionEnd",
					"outputs": [
						{
							"internalType": "uint256",
							"name": "",
							"type": "uint256"
						}
					],
					"stateMutability": "view",
					"type": "function"
				},
				{
					"inputs": [
						{
							"internalType": "bytes32",
							"name": "_secretBid",
							"type": "bytes32"
						}
					],
					"name": "bid",
					"outputs": [],
					"stateMutability": "payable",
					"type": "function"
				},
				{
					"inputs": [
						{
							"internalType": "uint256[]",
							"name": "_value",
							"type": "uint256[]"
						},
						{
							"internalType": "bool[]",
							"name": "_fake",
							"type": "bool[]"
						},
						{
							"internalType": "bytes32[]",
							"name": "_secret",
							"type": "bytes32[]"
						}
					],
					"name": "disclose",
					"outputs": [],
					"stateMutability": "nonpayable",
					"type": "function"
				},
				{
					"inputs": [],
					"name": "discloseEnd",
					"outputs": [
						{
							"internalType": "uint256",
							"name": "",
							"type": "uint256"
						}
					],
					"stateMutability": "view",
					"type": "function"
				},
				{
					"inputs": [],
					"name": "endauction",
					"outputs": [],
					"stateMutability": "nonpayable",
					"type": "function"
				},
				{
					"inputs": [],
					"name": "ended",
					"outputs": [
						{
							"internalType": "bool",
							"name": "",
							"type": "bool"
						}
					],
					"stateMutability": "view",
					"type": "function"
				},
				{
					"inputs": [],
					"name": "highestPrice",
					"outputs": [
						{
							"internalType": "uint256",
							"name": "",
							"type": "uint256"
						}
					],
					"stateMutability": "view",
					"type": "function"
				},
				{
					"inputs": [],
					"name": "highester",
					"outputs": [
						{
							"internalType": "address payable",
							"name": "",
							"type": "address"
						}
					],
					"stateMutability": "view",
					"type": "function"
				},
				{
					"inputs": [],
					"name": "withDraw",
					"outputs": [],
					"stateMutability": "nonpayable",
					"type": "function"
				}
			],
			"devdoc": {
				"kind": "dev",
				"methods": {},
				"version": 1
			},
			"evm": {
				"assembly": "    /* \"contracts/test.sol\":70:2868  contract Test{... */\n  mstore(0x40, 0x80)\n    /* \"contracts/test.sol\":631:846  constructor(address _beneficiary, uint _auctionEnd, uint _discloseEnd) {... */\n  callvalue\n  dup1\n  iszero\n  tag_1\n  jumpi\n  0x00\n  dup1\n  revert\ntag_1:\n  pop\n  mload(0x40)\n  sub(codesize, bytecodeSize)\n  dup1\n  bytecodeSize\n  dup4\n  codecopy\n  dup2\n  dup2\n  add\n  0x40\n  mstore\n  dup2\n  add\n  swap1\n  tag_2\n  swap2\n  swap1\n  tag_3\n  jump\t// in\ntag_2:\n    /* \"contracts/test.sol\":726:738  _beneficiary */\n  dup3\n    /* \"contracts/test.sol\":712:723  beneficiary */\n  0x02\n  0x00\n    /* \"contracts/test.sol\":712:738  beneficiary = _beneficiary */\n  0x0100\n  exp\n  dup2\n  sload\n  dup2\n  0xffffffffffffffffffffffffffffffffffffffff\n  mul\n  not\n  and\n  swap1\n  dup4\n  0xffffffffffffffffffffffffffffffffffffffff\n  and\n  mul\n  or\n  swap1\n  sstore\n  pop\n    /* \"contracts/test.sol\":779:790  _auctionEnd */\n  dup2\n    /* \"contracts/test.sol\":761:776  block.timestamp */\n  timestamp\n    /* \"contracts/test.sol\":761:790  block.timestamp + _auctionEnd */\n  tag_6\n  swap2\n  swap1\n  tag_7\n  jump\t// in\ntag_6:\n    /* \"contracts/test.sol\":748:758  auctionEnd */\n  0x00\n    /* \"contracts/test.sol\":748:790  auctionEnd = block.timestamp + _auctionEnd */\n  dup2\n  swap1\n  sstore\n  pop\n    /* \"contracts/test.sol\":827:839  _discloseEnd */\n  dup1\n    /* \"contracts/test.sol\":814:824  auctionEnd */\n  sload(0x00)\n    /* \"contracts/test.sol\":814:839  auctionEnd + _discloseEnd */\n  tag_8\n  swap2\n  swap1\n  tag_7\n  jump\t// in\ntag_8:\n    /* \"contracts/test.sol\":800:811  discloseEnd */\n  0x01\n    /* \"contracts/test.sol\":800:839  discloseEnd = auctionEnd + _discloseEnd */\n  dup2\n  swap1\n  sstore\n  pop\n    /* \"contracts/test.sol\":631:846  constructor(address _beneficiary, uint _auctionEnd, uint _discloseEnd) {... */\n  pop\n  pop\n  pop\n    /* \"contracts/test.sol\":70:2868  contract Test{... */\n  jump(tag_9)\n    /* \"#utility.yul\":88:205   */\ntag_11:\n    /* \"#utility.yul\":197:198   */\n  0x00\n    /* \"#utility.yul\":194:195   */\n  dup1\n    /* \"#utility.yul\":187:199   */\n  revert\n    /* \"#utility.yul\":334:460   */\ntag_13:\n    /* \"#utility.yul\":371:378   */\n  0x00\n    /* \"#utility.yul\":411:453   */\n  0xffffffffffffffffffffffffffffffffffffffff\n    /* \"#utility.yul\":404:409   */\n  dup3\n    /* \"#utility.yul\":400:454   */\n  and\n    /* \"#utility.yul\":389:454   */\n  swap1\n  pop\n    /* \"#utility.yul\":334:460   */\n  swap2\n  swap1\n  pop\n  jump\t// out\n    /* \"#utility.yul\":466:562   */\ntag_14:\n    /* \"#utility.yul\":503:510   */\n  0x00\n    /* \"#utility.yul\":532:556   */\n  tag_27\n    /* \"#utility.yul\":550:555   */\n  dup3\n    /* \"#utility.yul\":532:556   */\n  tag_13\n  jump\t// in\ntag_27:\n    /* \"#utility.yul\":521:556   */\n  swap1\n  pop\n    /* \"#utility.yul\":466:562   */\n  swap2\n  swap1\n  pop\n  jump\t// out\n    /* \"#utility.yul\":568:690   */\ntag_15:\n    /* \"#utility.yul\":641:665   */\n  tag_29\n    /* \"#utility.yul\":659:664   */\n  dup2\n    /* \"#utility.yul\":641:665   */\n  tag_14\n  jump\t// in\ntag_29:\n    /* \"#utility.yul\":634:639   */\n  dup2\n    /* \"#utility.yul\":631:666   */\n  eq\n    /* \"#utility.yul\":621:684   */\n  tag_30\n  jumpi\n    /* \"#utility.yul\":680:681   */\n  0x00\n    /* \"#utility.yul\":677:678   */\n  dup1\n    /* \"#utility.yul\":670:682   */\n  revert\n    /* \"#utility.yul\":621:684   */\ntag_30:\n    /* \"#utility.yul\":568:690   */\n  pop\n  jump\t// out\n    /* \"#utility.yul\":696:839   */\ntag_16:\n    /* \"#utility.yul\":753:758   */\n  0x00\n    /* \"#utility.yul\":784:790   */\n  dup2\n    /* \"#utility.yul\":778:791   */\n  mload\n    /* \"#utility.yul\":769:791   */\n  swap1\n  pop\n    /* \"#utility.yul\":800:833   */\n  tag_32\n    /* \"#utility.yul\":827:832   */\n  dup2\n    /* \"#utility.yul\":800:833   */\n  tag_15\n  jump\t// in\ntag_32:\n    /* \"#utility.yul\":696:839   */\n  swap3\n  swap2\n  pop\n  pop\n  jump\t// out\n    /* \"#utility.yul\":845:922   */\ntag_17:\n    /* \"#utility.yul\":882:889   */\n  0x00\n    /* \"#utility.yul\":911:916   */\n  dup2\n    /* \"#utility.yul\":900:916   */\n  swap1\n  pop\n    /* \"#utility.yul\":845:922   */\n  swap2\n  swap1\n  pop\n  jump\t// out\n    /* \"#utility.yul\":928:1050   */\ntag_18:\n    /* \"#utility.yul\":1001:1025   */\n  tag_35\n    /* \"#utility.yul\":1019:1024   */\n  dup2\n    /* \"#utility.yul\":1001:1025   */\n  tag_17\n  jump\t// in\ntag_35:\n    /* \"#utility.yul\":994:999   */\n  dup2\n    /* \"#utility.yul\":991:1026   */\n  eq\n    /* \"#utility.yul\":981:1044   */\n  tag_36\n  jumpi\n    /* \"#utility.yul\":1040:1041   */\n  0x00\n    /* \"#utility.yul\":1037:1038   */\n  dup1\n    /* \"#utility.yul\":1030:1042   */\n  revert\n    /* \"#utility.yul\":981:1044   */\ntag_36:\n    /* \"#utility.yul\":928:1050   */\n  pop\n  jump\t// out\n    /* \"#utility.yul\":1056:1199   */\ntag_19:\n    /* \"#utility.yul\":1113:1118   */\n  0x00\n    /* \"#utility.yul\":1144:1150   */\n  dup2\n    /* \"#utility.yul\":1138:1151   */\n  mload\n    /* \"#utility.yul\":1129:1151   */\n  swap1\n  pop\n    /* \"#utility.yul\":1160:1193   */\n  tag_38\n    /* \"#utility.yul\":1187:1192   */\n  dup2\n    /* \"#utility.yul\":1160:1193   */\n  tag_18\n  jump\t// in\ntag_38:\n    /* \"#utility.yul\":1056:1199   */\n  swap3\n  swap2\n  pop\n  pop\n  jump\t// out\n    /* \"#utility.yul\":1205:1868   */\ntag_3:\n    /* \"#utility.yul\":1293:1299   */\n  0x00\n    /* \"#utility.yul\":1301:1307   */\n  dup1\n    /* \"#utility.yul\":1309:1315   */\n  0x00\n    /* \"#utility.yul\":1358:1360   */\n  0x60\n    /* \"#utility.yul\":1346:1355   */\n  dup5\n    /* \"#utility.yul\":1337:1344   */\n  dup7\n    /* \"#utility.yul\":1333:1356   */\n  sub\n    /* \"#utility.yul\":1329:1361   */\n  slt\n    /* \"#utility.yul\":1326:1445   */\n  iszero\n  tag_40\n  jumpi\n    /* \"#utility.yul\":1364:1443   */\n  tag_41\n  tag_11\n  jump\t// in\ntag_41:\n    /* \"#utility.yul\":1326:1445   */\ntag_40:\n    /* \"#utility.yul\":1484:1485   */\n  0x00\n    /* \"#utility.yul\":1509:1573   */\n  tag_42\n    /* \"#utility.yul\":1565:1572   */\n  dup7\n    /* \"#utility.yul\":1556:1562   */\n  dup3\n    /* \"#utility.yul\":1545:1554   */\n  dup8\n    /* \"#utility.yul\":1541:1563   */\n  add\n    /* \"#utility.yul\":1509:1573   */\n  tag_16\n  jump\t// in\ntag_42:\n    /* \"#utility.yul\":1499:1573   */\n  swap4\n  pop\n    /* \"#utility.yul\":1455:1583   */\n  pop\n    /* \"#utility.yul\":1622:1624   */\n  0x20\n    /* \"#utility.yul\":1648:1712   */\n  tag_43\n    /* \"#utility.yul\":1704:1711   */\n  dup7\n    /* \"#utility.yul\":1695:1701   */\n  dup3\n    /* \"#utility.yul\":1684:1693   */\n  dup8\n    /* \"#utility.yul\":1680:1702   */\n  add\n    /* \"#utility.yul\":1648:1712   */\n  tag_19\n  jump\t// in\ntag_43:\n    /* \"#utility.yul\":1638:1712   */\n  swap3\n  pop\n    /* \"#utility.yul\":1593:1722   */\n  pop\n    /* \"#utility.yul\":1761:1763   */\n  0x40\n    /* \"#utility.yul\":1787:1851   */\n  tag_44\n    /* \"#utility.yul\":1843:1850   */\n  dup7\n    /* \"#utility.yul\":1834:1840   */\n  dup3\n    /* \"#utility.yul\":1823:1832   */\n  dup8\n    /* \"#utility.yul\":1819:1841   */\n  add\n    /* \"#utility.yul\":1787:1851   */\n  tag_19\n  jump\t// in\ntag_44:\n    /* \"#utility.yul\":1777:1851   */\n  swap2\n  pop\n    /* \"#utility.yul\":1732:1861   */\n  pop\n    /* \"#utility.yul\":1205:1868   */\n  swap3\n  pop\n  swap3\n  pop\n  swap3\n  jump\t// out\n    /* \"#utility.yul\":1874:2054   */\ntag_20:\n    /* \"#utility.yul\":1922:1999   */\n  0x4e487b7100000000000000000000000000000000000000000000000000000000\n    /* \"#utility.yul\":1919:1920   */\n  0x00\n    /* \"#utility.yul\":1912:2000   */\n  mstore\n    /* \"#utility.yul\":2019:2023   */\n  0x11\n    /* \"#utility.yul\":2016:2017   */\n  0x04\n    /* \"#utility.yul\":2009:2024   */\n  mstore\n    /* \"#utility.yul\":2043:2047   */\n  0x24\n    /* \"#utility.yul\":2040:2041   */\n  0x00\n    /* \"#utility.yul\":2033:2048   */\n  revert\n    /* \"#utility.yul\":2060:2365   */\ntag_7:\n    /* \"#utility.yul\":2100:2103   */\n  0x00\n    /* \"#utility.yul\":2119:2139   */\n  tag_47\n    /* \"#utility.yul\":2137:2138   */\n  dup3\n    /* \"#utility.yul\":2119:2139   */\n  tag_17\n  jump\t// in\ntag_47:\n    /* \"#utility.yul\":2114:2139   */\n  swap2\n  pop\n    /* \"#utility.yul\":2153:2173   */\n  tag_48\n    /* \"#utility.yul\":2171:2172   */\n  dup4\n    /* \"#utility.yul\":2153:2173   */\n  tag_17\n  jump\t// in\ntag_48:\n    /* \"#utility.yul\":2148:2173   */\n  swap3\n  pop\n    /* \"#utility.yul\":2307:2308   */\n  dup3\n    /* \"#utility.yul\":2239:2305   */\n  0xffffffffffffffffffffffffffffffffffffffffffffffffffffffffffffffff\n    /* \"#utility.yul\":2235:2309   */\n  sub\n    /* \"#utility.yul\":2232:2233   */\n  dup3\n    /* \"#utility.yul\":2229:2310   */\n  gt\n    /* \"#utility.yul\":2226:2333   */\n  iszero\n  tag_49\n  jumpi\n    /* \"#utility.yul\":2313:2331   */\n  tag_50\n  tag_20\n  jump\t// in\ntag_50:\n    /* \"#utility.yul\":2226:2333   */\ntag_49:\n    /* \"#utility.yul\":2357:2358   */\n  dup3\n    /* \"#utility.yul\":2354:2355   */\n  dup3\n    /* \"#utility.yul\":2350:2359   */\n  add\n    /* \"#utility.yul\":2343:2359   */\n  swap1\n  pop\n    /* \"#utility.yul\":2060:2365   */\n  swap3\n  swap2\n  pop\n  pop\n  jump\t// out\n    /* \"contracts/test.sol\":70:2868  contract Test{... */\ntag_9:\n  dataSize(sub_0)\n  dup1\n  dataOffset(sub_0)\n  0x00\n  codecopy\n  0x00\n  return\nstop\n\nsub_0: assembly {\n        /* \"contracts/test.sol\":70:2868  contract Test{... */\n      mstore(0x40, 0x80)\n      jumpi(tag_1, lt(calldatasize, 0x04))\n      shr(0xe0, calldataload(0x00))\n      dup1\n      0x381d9787\n      gt\n      tag_11\n      jumpi\n      dup1\n      0x381d9787\n      eq\n      tag_6\n      jumpi\n      dup1\n      0x8b8ebcbc\n      eq\n      tag_7\n      jumpi\n      dup1\n      0x957bb1e0\n      eq\n      tag_8\n      jumpi\n      dup1\n      0xc0680113\n      eq\n      tag_9\n      jumpi\n      dup1\n      0xfe7fc8fd\n      eq\n      tag_10\n      jumpi\n      jump(tag_1)\n    tag_11:\n      dup1\n      0x0e8670e0\n      eq\n      tag_2\n      jumpi\n      dup1\n      0x0fdb1c10\n      eq\n      tag_3\n      jumpi\n      dup1\n      0x12fa6feb\n      eq\n      tag_4\n      jumpi\n      dup1\n      0x2a24f46c\n      eq\n      tag_5\n      jumpi\n    tag_1:\n      0x00\n      dup1\n      revert\n        /* \"contracts/test.sol\":253:277  uint public highestPrice */\n    tag_2:\n      callvalue\n      dup1\n      iszero\n      tag_12\n      jumpi\n      0x00\n      dup1\n      revert\n    tag_12:\n      pop\n      tag_13\n      tag_14\n      jump\t// in\n    tag_13:\n      mload(0x40)\n      tag_15\n      swap2\n      swap1\n      tag_16\n      jump\t// in\n    tag_15:\n      mload(0x40)\n      dup1\n      swap2\n      sub\n      swap1\n      return\n        /* \"contracts/test.sol\":2506:2712  function withDraw() public {... */\n    tag_3:\n      callvalue\n      dup1\n      iszero\n      tag_17\n      jumpi\n      0x00\n      dup1\n      revert\n    tag_17:\n      pop\n      tag_18\n      tag_19\n      jump\t// in\n    tag_18:\n      stop\n        /* \"contracts/test.sol\":321:338  bool public ended */\n    tag_4:\n      callvalue\n      dup1\n      iszero\n      tag_20\n      jumpi\n      0x00\n      dup1\n      revert\n    tag_20:\n      pop\n      tag_21\n      tag_22\n      jump\t// in\n    tag_21:\n      mload(0x40)\n      tag_23\n      swap2\n      swap1\n      tag_24\n      jump\t// in\n    tag_23:\n      mload(0x40)\n      dup1\n      swap2\n      sub\n      swap1\n      return\n        /* \"contracts/test.sol\":162:184  uint public auctionEnd */\n    tag_5:\n      callvalue\n      dup1\n      iszero\n      tag_25\n      jumpi\n      0x00\n      dup1\n      revert\n    tag_25:\n      pop\n      tag_26\n      tag_27\n      jump\t// in\n    tag_26:\n      mload(0x40)\n      tag_28\n      swap2\n      swap1\n      tag_16\n      jump\t// in\n    tag_28:\n      mload(0x40)\n      dup1\n      swap2\n      sub\n      swap1\n      return\n        /* \"contracts/test.sol\":1073:2146  function disclose(uint[] memory _value, bool[] memory _fake, bytes32[] memory _secret) public onlyAfter(auctionEnd) onlyBefore(discloseEnd) {... */\n    tag_6:\n      callvalue\n      dup1\n      iszero\n      tag_29\n      jumpi\n      0x00\n      dup1\n      revert\n    tag_29:\n      pop\n      tag_30\n      0x04\n      dup1\n      calldatasize\n      sub\n      dup2\n      add\n      swap1\n      tag_31\n      swap2\n      swap1\n      tag_32\n      jump\t// in\n    tag_31:\n      tag_33\n      jump\t// in\n    tag_30:\n      stop\n        /* \"contracts/test.sol\":2718:2866  function endauction() public onlyAfter(discloseEnd) {... */\n    tag_7:\n      callvalue\n      dup1\n      iszero\n      tag_34\n      jumpi\n      0x00\n      dup1\n      revert\n    tag_34:\n      pop\n      tag_35\n      tag_36\n      jump\t// in\n    tag_35:\n      stop\n        /* \"contracts/test.sol\":852:1067  function bid(bytes32 _secretBid) payable public onlyBefore(auctionEnd) {... */\n    tag_8:\n      tag_37\n      0x04\n      dup1\n      calldatasize\n      sub\n      dup2\n      add\n      swap1\n      tag_38\n      swap2\n      swap1\n      tag_39\n      jump\t// in\n    tag_38:\n      tag_40\n      jump\t// in\n    tag_37:\n      stop\n        /* \"contracts/test.sol\":283:315  address payable public highester */\n    tag_9:\n      callvalue\n      dup1\n      iszero\n      tag_41\n      jumpi\n      0x00\n      dup1\n      revert\n    tag_41:\n      pop\n      tag_42\n      tag_43\n      jump\t// in\n    tag_42:\n      mload(0x40)\n      tag_44\n      swap2\n      swap1\n      tag_45\n      jump\t// in\n    tag_44:\n      mload(0x40)\n      dup1\n      swap2\n      sub\n      swap1\n      return\n        /* \"contracts/test.sol\":190:213  uint public discloseEnd */\n    tag_10:\n      callvalue\n      dup1\n      iszero\n      tag_46\n      jumpi\n      0x00\n      dup1\n      revert\n    tag_46:\n      pop\n      tag_47\n      tag_48\n      jump\t// in\n    tag_47:\n      mload(0x40)\n      tag_49\n      swap2\n      swap1\n      tag_16\n      jump\t// in\n    tag_49:\n      mload(0x40)\n      dup1\n      swap2\n      sub\n      swap1\n      return\n        /* \"contracts/test.sol\":253:277  uint public highestPrice */\n    tag_14:\n      sload(0x03)\n      dup2\n      jump\t// out\n        /* \"contracts/test.sol\":2506:2712  function withDraw() public {... */\n    tag_19:\n        /* \"contracts/test.sol\":2543:2554  uint amount */\n      0x00\n        /* \"contracts/test.sol\":2557:2568  returnPrice */\n      0x05\n        /* \"contracts/test.sol\":2557:2580  returnPrice[msg.sender] */\n      0x00\n        /* \"contracts/test.sol\":2569:2579  msg.sender */\n      caller\n        /* \"contracts/test.sol\":2557:2580  returnPrice[msg.sender] */\n      0xffffffffffffffffffffffffffffffffffffffff\n      and\n      0xffffffffffffffffffffffffffffffffffffffff\n      and\n      dup2\n      mstore\n      0x20\n      add\n      swap1\n      dup2\n      mstore\n      0x20\n      add\n      0x00\n      keccak256\n      sload\n        /* \"contracts/test.sol\":2543:2580  uint amount = returnPrice[msg.sender] */\n      swap1\n      pop\n        /* \"contracts/test.sol\":2601:2602  0 */\n      0x00\n        /* \"contracts/test.sol\":2594:2600  amount */\n      dup2\n        /* \"contracts/test.sol\":2594:2602  amount>0 */\n      gt\n        /* \"contracts/test.sol\":2590:2706  if (amount>0) {... */\n      iszero\n      tag_51\n      jumpi\n        /* \"contracts/test.sol\":2626:2636  msg.sender */\n      caller\n        /* \"contracts/test.sol\":2618:2646  payable(msg.sender).transfer */\n      0xffffffffffffffffffffffffffffffffffffffff\n      and\n        /* \"contracts/test.sol\":2618:2654  payable(msg.sender).transfer(amount) */\n      0x08fc\n        /* \"contracts/test.sol\":2647:2653  amount */\n      dup3\n        /* \"contracts/test.sol\":2618:2654  payable(msg.sender).transfer(amount) */\n      swap1\n      dup2\n      iszero\n      mul\n      swap1\n      mload(0x40)\n      0x00\n      mload(0x40)\n      dup1\n      dup4\n      sub\n      dup2\n      dup6\n      dup9\n      dup9\n      call\n      swap4\n      pop\n      pop\n      pop\n      pop\n      iszero\n      dup1\n      iszero\n      tag_53\n      jumpi\n      returndatasize\n      0x00\n      dup1\n      returndatacopy\n      revert(0x00, returndatasize)\n    tag_53:\n      pop\n        /* \"contracts/test.sol\":2694:2695  0 */\n      0x00\n        /* \"contracts/test.sol\":2668:2679  returnPrice */\n      0x05\n        /* \"contracts/test.sol\":2668:2691  returnPrice[msg.sender] */\n      0x00\n        /* \"contracts/test.sol\":2680:2690  msg.sender */\n      caller\n        /* \"contracts/test.sol\":2668:2691  returnPrice[msg.sender] */\n      0xffffffffffffffffffffffffffffffffffffffff\n      and\n      0xffffffffffffffffffffffffffffffffffffffff\n      and\n      dup2\n      mstore\n      0x20\n      add\n      swap1\n      dup2\n      mstore\n      0x20\n      add\n      0x00\n      keccak256\n        /* \"contracts/test.sol\":2668:2695  returnPrice[msg.sender] = 0 */\n      dup2\n      swap1\n      sstore\n      pop\n        /* \"contracts/test.sol\":2590:2706  if (amount>0) {... */\n    tag_51:\n        /* \"contracts/test.sol\":2533:2712  {... */\n      pop\n        /* \"contracts/test.sol\":2506:2712  function withDraw() public {... */\n      jump\t// out\n        /* \"contracts/test.sol\":321:338  bool public ended */\n    tag_22:\n      0x04\n      0x14\n      swap1\n      sload\n      swap1\n      0x0100\n      exp\n      swap1\n      div\n      0xff\n      and\n      dup2\n      jump\t// out\n        /* \"contracts/test.sol\":162:184  uint public auctionEnd */\n    tag_27:\n      sload(0x00)\n      dup2\n      jump\t// out\n        /* \"contracts/test.sol\":1073:2146  function disclose(uint[] memory _value, bool[] memory _fake, bytes32[] memory _secret) public onlyAfter(auctionEnd) onlyBefore(discloseEnd) {... */\n    tag_33:\n        /* \"contracts/test.sol\":1177:1187  auctionEnd */\n      sload(0x00)\n        /* \"contracts/test.sol\":605:620  block.timestamp */\n      timestamp\n        /* \"contracts/test.sol\":595:602  timeEnd */\n      dup2\n        /* \"contracts/test.sol\":595:620  timeEnd > block.timestamp */\n      gt\n        /* \"contracts/test.sol\":587:621  require(timeEnd > block.timestamp) */\n      tag_55\n      jumpi\n      0x00\n      dup1\n      revert\n    tag_55:\n        /* \"contracts/test.sol\":1200:1211  discloseEnd */\n      sload(0x01)\n        /* \"contracts/test.sol\":529:544  block.timestamp */\n      timestamp\n        /* \"contracts/test.sol\":519:526  timeEnd */\n      dup2\n        /* \"contracts/test.sol\":519:544  timeEnd < block.timestamp */\n      lt\n        /* \"contracts/test.sol\":511:545  require(timeEnd < block.timestamp) */\n      tag_57\n      jumpi\n      0x00\n      dup1\n      revert\n    tag_57:\n        /* \"contracts/test.sol\":1223:1234  uint length */\n      0x00\n        /* \"contracts/test.sol\":1237:1241  bids */\n      0x06\n        /* \"contracts/test.sol\":1237:1253  bids[msg.sender] */\n      0x00\n        /* \"contracts/test.sol\":1242:1252  msg.sender */\n      caller\n        /* \"contracts/test.sol\":1237:1253  bids[msg.sender] */\n      0xffffffffffffffffffffffffffffffffffffffff\n      and\n      0xffffffffffffffffffffffffffffffffffffffff\n      and\n      dup2\n      mstore\n      0x20\n      add\n      swap1\n      dup2\n      mstore\n      0x20\n      add\n      0x00\n      keccak256\n        /* \"contracts/test.sol\":1237:1260  bids[msg.sender].length */\n      dup1\n      sload\n      swap1\n      pop\n        /* \"contracts/test.sol\":1223:1260  uint length = bids[msg.sender].length */\n      swap1\n      pop\n        /* \"contracts/test.sol\":1295:1301  length */\n      dup1\n        /* \"contracts/test.sol\":1278:1284  _value */\n      dup7\n        /* \"contracts/test.sol\":1278:1291  _value.length */\n      mload\n        /* \"contracts/test.sol\":1278:1301  _value.length == length */\n      eq\n        /* \"contracts/test.sol\":1270:1302  require(_value.length == length) */\n      tag_59\n      jumpi\n      0x00\n      dup1\n      revert\n    tag_59:\n        /* \"contracts/test.sol\":1336:1342  length */\n      dup1\n        /* \"contracts/test.sol\":1320:1325  _fake */\n      dup6\n        /* \"contracts/test.sol\":1320:1332  _fake.length */\n      mload\n        /* \"contracts/test.sol\":1320:1342  _fake.length == length */\n      eq\n        /* \"contracts/test.sol\":1312:1343  require(_fake.length == length) */\n      tag_60\n      jumpi\n      0x00\n      dup1\n      revert\n    tag_60:\n        /* \"contracts/test.sol\":1379:1385  length */\n      dup1\n        /* \"contracts/test.sol\":1361:1368  _secret */\n      dup5\n        /* \"contracts/test.sol\":1361:1375  _secret.length */\n      mload\n        /* \"contracts/test.sol\":1361:1385  _secret.length == length */\n      eq\n        /* \"contracts/test.sol\":1353:1386  require(_secret.length == length) */\n      tag_61\n      jumpi\n      0x00\n      dup1\n      revert\n    tag_61:\n        /* \"contracts/test.sol\":1396:1407  uint refund */\n      0x00\n        /* \"contracts/test.sol\":1426:1432  uint i */\n      dup1\n        /* \"contracts/test.sol\":1421:2094  for (uint i = 0; i < length; i++) {... */\n    tag_62:\n        /* \"contracts/test.sol\":1442:1448  length */\n      dup3\n        /* \"contracts/test.sol\":1438:1439  i */\n      dup2\n        /* \"contracts/test.sol\":1438:1448  i < length */\n      lt\n        /* \"contracts/test.sol\":1421:2094  for (uint i = 0; i < length; i++) {... */\n      iszero\n      tag_63\n      jumpi\n        /* \"contracts/test.sol\":1469:1487  Bid storage bidNew */\n      0x00\n        /* \"contracts/test.sol\":1490:1494  bids */\n      0x06\n        /* \"contracts/test.sol\":1490:1506  bids[msg.sender] */\n      0x00\n        /* \"contracts/test.sol\":1495:1505  msg.sender */\n      caller\n        /* \"contracts/test.sol\":1490:1506  bids[msg.sender] */\n      0xffffffffffffffffffffffffffffffffffffffff\n      and\n      0xffffffffffffffffffffffffffffffffffffffff\n      and\n      dup2\n      mstore\n      0x20\n      add\n      swap1\n      dup2\n      mstore\n      0x20\n      add\n      0x00\n      keccak256\n        /* \"contracts/test.sol\":1507:1508  i */\n      dup3\n        /* \"contracts/test.sol\":1490:1509  bids[msg.sender][i] */\n      dup2\n      sload\n      dup2\n      lt\n      tag_65\n      jumpi\n      tag_66\n      tag_67\n      jump\t// in\n    tag_66:\n    tag_65:\n      swap1\n      0x00\n      mstore\n      keccak256(0x00, 0x20)\n      swap1\n      0x02\n      mul\n      add\n        /* \"contracts/test.sol\":1469:1509  Bid storage bidNew = bids[msg.sender][i] */\n      swap1\n      pop\n        /* \"contracts/test.sol\":1524:1534  uint value */\n      0x00\n        /* \"contracts/test.sol\":1536:1545  bool fake */\n      dup1\n        /* \"contracts/test.sol\":1547:1561  bytes32 secret */\n      0x00\n        /* \"contracts/test.sol\":1566:1572  _value */\n      dup12\n        /* \"contracts/test.sol\":1573:1574  i */\n      dup6\n        /* \"contracts/test.sol\":1566:1575  _value[i] */\n      dup2\n      mload\n      dup2\n      lt\n      tag_69\n      jumpi\n      tag_70\n      tag_67\n      jump\t// in\n    tag_70:\n    tag_69:\n      0x20\n      mul\n      0x20\n      add\n      add\n      mload\n        /* \"contracts/test.sol\":1577:1582  _fake */\n      dup12\n        /* \"contracts/test.sol\":1583:1584  i */\n      dup7\n        /* \"contracts/test.sol\":1577:1585  _fake[i] */\n      dup2\n      mload\n      dup2\n      lt\n      tag_71\n      jumpi\n      tag_72\n      tag_67\n      jump\t// in\n    tag_72:\n    tag_71:\n      0x20\n      mul\n      0x20\n      add\n      add\n      mload\n        /* \"contracts/test.sol\":1587:1594  _secret */\n      dup12\n        /* \"contracts/test.sol\":1595:1596  i */\n      dup8\n        /* \"contracts/test.sol\":1587:1597  _secret[i] */\n      dup2\n      mload\n      dup2\n      lt\n      tag_73\n      jumpi\n      tag_74\n      tag_67\n      jump\t// in\n    tag_74:\n    tag_73:\n      0x20\n      mul\n      0x20\n      add\n      add\n      mload\n        /* \"contracts/test.sol\":1523:1598  (uint value, bool fake, bytes32 secret) = (_value[i], _fake[i], _secret[i]) */\n      swap3\n      pop\n      swap3\n      pop\n      swap3\n      pop\n        /* \"contracts/test.sol\":1612:1626  bytes memory v */\n      0x00\n        /* \"contracts/test.sol\":1646:1651  value */\n      dup4\n        /* \"contracts/test.sol\":1653:1657  fake */\n      dup4\n        /* \"contracts/test.sol\":1659:1665  secret */\n      dup4\n        /* \"contracts/test.sol\":1629:1666  abi.encodePacked(value, fake, secret) */\n      add(0x20, mload(0x40))\n      tag_75\n      swap4\n      swap3\n      swap2\n      swap1\n      tag_76\n      jump\t// in\n    tag_75:\n      mload(0x40)\n      0x20\n      dup2\n      dup4\n      sub\n      sub\n      dup2\n      mstore\n      swap1\n      0x40\n      mstore\n        /* \"contracts/test.sol\":1612:1666  bytes memory v = abi.encodePacked(value, fake, secret) */\n      swap1\n      pop\n        /* \"contracts/test.sol\":1714:1715  v */\n      dup1\n        /* \"contracts/test.sol\":1704:1716  keccak256(v) */\n      dup1\n      mload\n      swap1\n      0x20\n      add\n      keccak256\n        /* \"contracts/test.sol\":1684:1690  bidNew */\n      dup6\n        /* \"contracts/test.sol\":1684:1700  bidNew.secretBid */\n      0x01\n      add\n      sload\n        /* \"contracts/test.sol\":1684:1716  bidNew.secretBid != keccak256(v) */\n      eq\n        /* \"contracts/test.sol\":1680:1757  if (bidNew.secretBid != keccak256(v)){... */\n      tag_77\n      jumpi\n        /* \"contracts/test.sol\":1734:1742  continue */\n      pop\n      pop\n      pop\n      pop\n      pop\n      jump(tag_64)\n        /* \"contracts/test.sol\":1680:1757  if (bidNew.secretBid != keccak256(v)){... */\n    tag_77:\n        /* \"contracts/test.sol\":1780:1786  bidNew */\n      dup5\n        /* \"contracts/test.sol\":1780:1794  bidNew.deposit */\n      0x00\n      add\n      sload\n        /* \"contracts/test.sol\":1770:1794  refund += bidNew.deposit */\n      dup8\n      tag_78\n      swap2\n      swap1\n      tag_79\n      jump\t// in\n    tag_78:\n      swap7\n      pop\n        /* \"contracts/test.sol\":1813:1817  fake */\n      dup3\n        /* \"contracts/test.sol\":1812:1817  !fake */\n      iszero\n        /* \"contracts/test.sol\":1812:1842  !fake&&bidNew.deposit >= value */\n      dup1\n      iszero\n      tag_80\n      jumpi\n      pop\n        /* \"contracts/test.sol\":1837:1842  value */\n      dup4\n        /* \"contracts/test.sol\":1819:1825  bidNew */\n      dup6\n        /* \"contracts/test.sol\":1819:1833  bidNew.deposit */\n      0x00\n      add\n      sload\n        /* \"contracts/test.sol\":1819:1842  bidNew.deposit >= value */\n      lt\n      iszero\n        /* \"contracts/test.sol\":1812:1842  !fake&&bidNew.deposit >= value */\n    tag_80:\n        /* \"contracts/test.sol\":1808:2013  if (!fake&&bidNew.deposit >= value){... */\n      iszero\n      tag_81\n      jumpi\n        /* \"contracts/test.sol\":1915:1941  placeBid(value,msg.sender) */\n      tag_82\n        /* \"contracts/test.sol\":1924:1929  value */\n      dup5\n        /* \"contracts/test.sol\":1930:1940  msg.sender */\n      caller\n        /* \"contracts/test.sol\":1915:1923  placeBid */\n      tag_83\n        /* \"contracts/test.sol\":1915:1941  placeBid(value,msg.sender) */\n      jump\t// in\n    tag_82:\n        /* \"contracts/test.sol\":1911:1999  if (placeBid(value,msg.sender)) {... */\n      iszero\n      tag_84\n      jumpi\n        /* \"contracts/test.sol\":1975:1980  value */\n      dup4\n        /* \"contracts/test.sol\":1965:1980  refund -= value */\n      dup8\n      tag_85\n      swap2\n      swap1\n      tag_86\n      jump\t// in\n    tag_85:\n      swap7\n      pop\n        /* \"contracts/test.sol\":1911:1999  if (placeBid(value,msg.sender)) {... */\n    tag_84:\n        /* \"contracts/test.sol\":1808:2013  if (!fake&&bidNew.deposit >= value){... */\n    tag_81:\n        /* \"contracts/test.sol\":2053:2054  0 */\n      0x00\n        /* \"contracts/test.sol\":2045:2055  bytes32(0) */\n      dup1\n      shl\n        /* \"contracts/test.sol\":2026:2032  bidNew */\n      dup6\n        /* \"contracts/test.sol\":2026:2042  bidNew.secretBid */\n      0x01\n      add\n        /* \"contracts/test.sol\":2026:2055  bidNew.secretBid = bytes32(0) */\n      dup2\n      swap1\n      sstore\n      pop\n        /* \"contracts/test.sol\":1455:2094  {... */\n      pop\n      pop\n      pop\n      pop\n      pop\n        /* \"contracts/test.sol\":1421:2094  for (uint i = 0; i < length; i++) {... */\n    tag_64:\n        /* \"contracts/test.sol\":1450:1453  i++ */\n      dup1\n      dup1\n      tag_87\n      swap1\n      tag_88\n      jump\t// in\n    tag_87:\n      swap2\n      pop\n      pop\n        /* \"contracts/test.sol\":1421:2094  for (uint i = 0; i < length; i++) {... */\n      jump(tag_62)\n    tag_63:\n      pop\n        /* \"contracts/test.sol\":2111:2121  msg.sender */\n      caller\n        /* \"contracts/test.sol\":2103:2131  payable(msg.sender).transfer */\n      0xffffffffffffffffffffffffffffffffffffffff\n      and\n        /* \"contracts/test.sol\":2103:2139  payable(msg.sender).transfer(refund) */\n      0x08fc\n        /* \"contracts/test.sol\":2132:2138  refund */\n      dup3\n        /* \"contracts/test.sol\":2103:2139  payable(msg.sender).transfer(refund) */\n      swap1\n      dup2\n      iszero\n      mul\n      swap1\n      mload(0x40)\n      0x00\n      mload(0x40)\n      dup1\n      dup4\n      sub\n      dup2\n      dup6\n      dup9\n      dup9\n      call\n      swap4\n      pop\n      pop\n      pop\n      pop\n      iszero\n      dup1\n      iszero\n      tag_90\n      jumpi\n      returndatasize\n      0x00\n      dup1\n      returndatacopy\n      revert(0x00, returndatasize)\n    tag_90:\n      pop\n        /* \"contracts/test.sol\":1213:2146  {... */\n      pop\n      pop\n        /* \"contracts/test.sol\":622:623  _ */\n      pop\n        /* \"contracts/test.sol\":1073:2146  function disclose(uint[] memory _value, bool[] memory _fake, bytes32[] memory _secret) public onlyAfter(auctionEnd) onlyBefore(discloseEnd) {... */\n      pop\n      pop\n      pop\n      pop\n      jump\t// out\n        /* \"contracts/test.sol\":2718:2866  function endauction() public onlyAfter(discloseEnd) {... */\n    tag_36:\n        /* \"contracts/test.sol\":2757:2768  discloseEnd */\n      sload(0x01)\n        /* \"contracts/test.sol\":605:620  block.timestamp */\n      timestamp\n        /* \"contracts/test.sol\":595:602  timeEnd */\n      dup2\n        /* \"contracts/test.sol\":595:620  timeEnd > block.timestamp */\n      gt\n        /* \"contracts/test.sol\":587:621  require(timeEnd > block.timestamp) */\n      tag_92\n      jumpi\n      0x00\n      dup1\n      revert\n    tag_92:\n        /* \"contracts/test.sol\":2789:2794  ended */\n      0x04\n      0x14\n      swap1\n      sload\n      swap1\n      0x0100\n      exp\n      swap1\n      div\n      0xff\n      and\n        /* \"contracts/test.sol\":2788:2794  !ended */\n      iszero\n        /* \"contracts/test.sol\":2780:2795  require(!ended) */\n      tag_94\n      jumpi\n      0x00\n      dup1\n      revert\n    tag_94:\n        /* \"contracts/test.sol\":2813:2817  true */\n      0x01\n        /* \"contracts/test.sol\":2805:2810  ended */\n      0x04\n      0x14\n        /* \"contracts/test.sol\":2805:2817  ended = true */\n      0x0100\n      exp\n      dup2\n      sload\n      dup2\n      0xff\n      mul\n      not\n      and\n      swap1\n      dup4\n      iszero\n      iszero\n      mul\n      or\n      swap1\n      sstore\n      pop\n        /* \"contracts/test.sol\":2827:2836  highester */\n      0x04\n      0x00\n      swap1\n      sload\n      swap1\n      0x0100\n      exp\n      swap1\n      div\n      0xffffffffffffffffffffffffffffffffffffffff\n      and\n        /* \"contracts/test.sol\":2827:2845  highester.transfer */\n      0xffffffffffffffffffffffffffffffffffffffff\n      and\n        /* \"contracts/test.sol\":2827:2859  highester.transfer(highestPrice) */\n      0x08fc\n        /* \"contracts/test.sol\":2846:2858  highestPrice */\n      sload(0x03)\n        /* \"contracts/test.sol\":2827:2859  highester.transfer(highestPrice) */\n      swap1\n      dup2\n      iszero\n      mul\n      swap1\n      mload(0x40)\n      0x00\n      mload(0x40)\n      dup1\n      dup4\n      sub\n      dup2\n      dup6\n      dup9\n      dup9\n      call\n      swap4\n      pop\n      pop\n      pop\n      pop\n      iszero\n      dup1\n      iszero\n      tag_96\n      jumpi\n      returndatasize\n      0x00\n      dup1\n      returndatacopy\n      revert(0x00, returndatasize)\n    tag_96:\n      pop\n        /* \"contracts/test.sol\":2718:2866  function endauction() public onlyAfter(discloseEnd) {... */\n      pop\n      jump\t// out\n        /* \"contracts/test.sol\":852:1067  function bid(bytes32 _secretBid) payable public onlyBefore(auctionEnd) {... */\n    tag_40:\n        /* \"contracts/test.sol\":911:921  auctionEnd */\n      sload(0x00)\n        /* \"contracts/test.sol\":529:544  block.timestamp */\n      timestamp\n        /* \"contracts/test.sol\":519:526  timeEnd */\n      dup2\n        /* \"contracts/test.sol\":519:544  timeEnd < block.timestamp */\n      lt\n        /* \"contracts/test.sol\":511:545  require(timeEnd < block.timestamp) */\n      tag_98\n      jumpi\n      0x00\n      dup1\n      revert\n    tag_98:\n        /* \"contracts/test.sol\":933:937  bids */\n      0x06\n        /* \"contracts/test.sol\":933:949  bids[msg.sender] */\n      0x00\n        /* \"contracts/test.sol\":938:948  msg.sender */\n      caller\n        /* \"contracts/test.sol\":933:949  bids[msg.sender] */\n      0xffffffffffffffffffffffffffffffffffffffff\n      and\n      0xffffffffffffffffffffffffffffffffffffffff\n      and\n      dup2\n      mstore\n      0x20\n      add\n      swap1\n      dup2\n      mstore\n      0x20\n      add\n      0x00\n      keccak256\n        /* \"contracts/test.sol\":968:1050  Bid({... */\n      mload(0x40)\n      dup1\n      0x40\n      add\n      0x40\n      mstore\n      dup1\n        /* \"contracts/test.sol\":995:1004  msg.value */\n      callvalue\n        /* \"contracts/test.sol\":968:1050  Bid({... */\n      dup2\n      mstore\n      0x20\n      add\n        /* \"contracts/test.sol\":1029:1039  _secretBid */\n      dup5\n        /* \"contracts/test.sol\":968:1050  Bid({... */\n      dup2\n      mstore\n      pop\n        /* \"contracts/test.sol\":933:1060  bids[msg.sender].push(... */\n      swap1\n      dup1\n      0x01\n      dup2\n      sload\n      add\n      dup1\n      dup3\n      sstore\n      dup1\n      swap2\n      pop\n      pop\n      0x01\n      swap1\n      sub\n      swap1\n      0x00\n      mstore\n      keccak256(0x00, 0x20)\n      swap1\n      0x02\n      mul\n      add\n      0x00\n      swap1\n      swap2\n      swap1\n      swap2\n      swap1\n      swap2\n      pop\n      0x00\n      dup3\n      add\n      mload\n      dup2\n      0x00\n      add\n      sstore\n      0x20\n      dup3\n      add\n      mload\n      dup2\n      0x01\n      add\n      sstore\n      pop\n      pop\n        /* \"contracts/test.sol\":852:1067  function bid(bytes32 _secretBid) payable public onlyBefore(auctionEnd) {... */\n      pop\n      pop\n      jump\t// out\n        /* \"contracts/test.sol\":283:315  address payable public highester */\n    tag_43:\n      0x04\n      0x00\n      swap1\n      sload\n      swap1\n      0x0100\n      exp\n      swap1\n      div\n      0xffffffffffffffffffffffffffffffffffffffff\n      and\n      dup2\n      jump\t// out\n        /* \"contracts/test.sol\":190:213  uint public discloseEnd */\n    tag_48:\n      sload(0x01)\n      dup2\n      jump\t// out\n        /* \"contracts/test.sol\":2152:2500  function placeBid(uint _amount, address _sender) internal returns(bool) {... */\n    tag_83:\n        /* \"contracts/test.sol\":2218:2222  bool */\n      0x00\n        /* \"contracts/test.sol\":2249:2261  highestPrice */\n      sload(0x03)\n        /* \"contracts/test.sol\":2238:2245  _amount */\n      dup4\n        /* \"contracts/test.sol\":2238:2261  _amount <= highestPrice */\n      gt\n        /* \"contracts/test.sol\":2234:2300  if (_amount <= highestPrice) {... */\n      tag_102\n      jumpi\n        /* \"contracts/test.sol\":2284:2289  false */\n      0x00\n        /* \"contracts/test.sol\":2277:2289  return false */\n      swap1\n      pop\n      jump(tag_101)\n        /* \"contracts/test.sol\":2234:2300  if (_amount <= highestPrice) {... */\n    tag_102:\n        /* \"contracts/test.sol\":2335:2336  0 */\n      0x00\n        /* \"contracts/test.sol\":2314:2337  highester != address(0) */\n      0xffffffffffffffffffffffffffffffffffffffff\n      and\n        /* \"contracts/test.sol\":2314:2323  highester */\n      0x04\n      0x00\n      swap1\n      sload\n      swap1\n      0x0100\n      exp\n      swap1\n      div\n      0xffffffffffffffffffffffffffffffffffffffff\n      and\n        /* \"contracts/test.sol\":2314:2337  highester != address(0) */\n      0xffffffffffffffffffffffffffffffffffffffff\n      and\n      eq\n        /* \"contracts/test.sol\":2310:2402  if (highester != address(0)) {... */\n      tag_103\n      jumpi\n        /* \"contracts/test.sol\":2379:2391  highestPrice */\n      sload(0x03)\n        /* \"contracts/test.sol\":2353:2364  returnPrice */\n      0x05\n        /* \"contracts/test.sol\":2353:2375  returnPrice[highester] */\n      0x00\n        /* \"contracts/test.sol\":2365:2374  highester */\n      0x04\n      0x00\n      swap1\n      sload\n      swap1\n      0x0100\n      exp\n      swap1\n      div\n      0xffffffffffffffffffffffffffffffffffffffff\n      and\n        /* \"contracts/test.sol\":2353:2375  returnPrice[highester] */\n      0xffffffffffffffffffffffffffffffffffffffff\n      and\n      0xffffffffffffffffffffffffffffffffffffffff\n      and\n      dup2\n      mstore\n      0x20\n      add\n      swap1\n      dup2\n      mstore\n      0x20\n      add\n      0x00\n      keccak256\n      0x00\n        /* \"contracts/test.sol\":2353:2391  returnPrice[highester] += highestPrice */\n      dup3\n      dup3\n      sload\n      tag_104\n      swap2\n      swap1\n      tag_79\n      jump\t// in\n    tag_104:\n      swap3\n      pop\n      pop\n      dup2\n      swap1\n      sstore\n      pop\n        /* \"contracts/test.sol\":2310:2402  if (highester != address(0)) {... */\n    tag_103:\n        /* \"contracts/test.sol\":2432:2439  _sender */\n      dup2\n        /* \"contracts/test.sol\":2412:2421  highester */\n      0x04\n      0x00\n        /* \"contracts/test.sol\":2412:2440  highester = payable(_sender) */\n      0x0100\n      exp\n      dup2\n      sload\n      dup2\n      0xffffffffffffffffffffffffffffffffffffffff\n      mul\n      not\n      and\n      swap1\n      dup4\n      0xffffffffffffffffffffffffffffffffffffffff\n      and\n      mul\n      or\n      swap1\n      sstore\n      pop\n        /* \"contracts/test.sol\":2465:2472  _amount */\n      dup3\n        /* \"contracts/test.sol\":2450:2462  highestPrice */\n      0x03\n        /* \"contracts/test.sol\":2450:2472  highestPrice = _amount */\n      dup2\n      swap1\n      sstore\n      pop\n        /* \"contracts/test.sol\":2489:2493  true */\n      0x01\n        /* \"contracts/test.sol\":2482:2493  return true */\n      swap1\n      pop\n        /* \"contracts/test.sol\":2152:2500  function placeBid(uint _amount, address _sender) internal returns(bool) {... */\n    tag_101:\n      swap3\n      swap2\n      pop\n      pop\n      jump\t// out\n        /* \"#utility.yul\":7:84   */\n    tag_105:\n        /* \"#utility.yul\":44:51   */\n      0x00\n        /* \"#utility.yul\":73:78   */\n      dup2\n        /* \"#utility.yul\":62:78   */\n      swap1\n      pop\n        /* \"#utility.yul\":7:84   */\n      swap2\n      swap1\n      pop\n      jump\t// out\n        /* \"#utility.yul\":90:208   */\n    tag_106:\n        /* \"#utility.yul\":177:201   */\n      tag_149\n        /* \"#utility.yul\":195:200   */\n      dup2\n        /* \"#utility.yul\":177:201   */\n      tag_105\n      jump\t// in\n    tag_149:\n        /* \"#utility.yul\":172:175   */\n      dup3\n        /* \"#utility.yul\":165:202   */\n      mstore\n        /* \"#utility.yul\":90:208   */\n      pop\n      pop\n      jump\t// out\n        /* \"#utility.yul\":214:436   */\n    tag_16:\n        /* \"#utility.yul\":307:311   */\n      0x00\n        /* \"#utility.yul\":345:347   */\n      0x20\n        /* \"#utility.yul\":334:343   */\n      dup3\n        /* \"#utility.yul\":330:348   */\n      add\n        /* \"#utility.yul\":322:348   */\n      swap1\n      pop\n        /* \"#utility.yul\":358:429   */\n      tag_151\n        /* \"#utility.yul\":426:427   */\n      0x00\n        /* \"#utility.yul\":415:424   */\n      dup4\n        /* \"#utility.yul\":411:428   */\n      add\n        /* \"#utility.yul\":402:408   */\n      dup5\n        /* \"#utility.yul\":358:429   */\n      tag_106\n      jump\t// in\n    tag_151:\n        /* \"#utility.yul\":214:436   */\n      swap3\n      swap2\n      pop\n      pop\n      jump\t// out\n        /* \"#utility.yul\":442:532   */\n    tag_107:\n        /* \"#utility.yul\":476:483   */\n      0x00\n        /* \"#utility.yul\":519:524   */\n      dup2\n        /* \"#utility.yul\":512:525   */\n      iszero\n        /* \"#utility.yul\":505:526   */\n      iszero\n        /* \"#utility.yul\":494:526   */\n      swap1\n      pop\n        /* \"#utility.yul\":442:532   */\n      swap2\n      swap1\n      pop\n      jump\t// out\n        /* \"#utility.yul\":538:647   */\n    tag_108:\n        /* \"#utility.yul\":619:640   */\n      tag_154\n        /* \"#utility.yul\":634:639   */\n      dup2\n        /* \"#utility.yul\":619:640   */\n      tag_107\n      jump\t// in\n    tag_154:\n        /* \"#utility.yul\":614:617   */\n      dup3\n        /* \"#utility.yul\":607:641   */\n      mstore\n        /* \"#utility.yul\":538:647   */\n      pop\n      pop\n      jump\t// out\n        /* \"#utility.yul\":653:863   */\n    tag_24:\n        /* \"#utility.yul\":740:744   */\n      0x00\n        /* \"#utility.yul\":778:780   */\n      0x20\n        /* \"#utility.yul\":767:776   */\n      dup3\n        /* \"#utility.yul\":763:781   */\n      add\n        /* \"#utility.yul\":755:781   */\n      swap1\n      pop\n        /* \"#utility.yul\":791:856   */\n      tag_156\n        /* \"#utility.yul\":853:854   */\n      0x00\n        /* \"#utility.yul\":842:851   */\n      dup4\n        /* \"#utility.yul\":838:855   */\n      add\n        /* \"#utility.yul\":829:835   */\n      dup5\n        /* \"#utility.yul\":791:856   */\n      tag_108\n      jump\t// in\n    tag_156:\n        /* \"#utility.yul\":653:863   */\n      swap3\n      swap2\n      pop\n      pop\n      jump\t// out\n        /* \"#utility.yul\":869:944   */\n    tag_109:\n        /* \"#utility.yul\":902:908   */\n      0x00\n        /* \"#utility.yul\":935:937   */\n      0x40\n        /* \"#utility.yul\":929:938   */\n      mload\n        /* \"#utility.yul\":919:938   */\n      swap1\n      pop\n        /* \"#utility.yul\":869:944   */\n      swap1\n      jump\t// out\n        /* \"#utility.yul\":950:1067   */\n    tag_110:\n        /* \"#utility.yul\":1059:1060   */\n      0x00\n        /* \"#utility.yul\":1056:1057   */\n      dup1\n        /* \"#utility.yul\":1049:1061   */\n      revert\n        /* \"#utility.yul\":1073:1190   */\n    tag_111:\n        /* \"#utility.yul\":1182:1183   */\n      0x00\n        /* \"#utility.yul\":1179:1180   */\n      dup1\n        /* \"#utility.yul\":1172:1184   */\n      revert\n        /* \"#utility.yul\":1196:1313   */\n    tag_112:\n        /* \"#utility.yul\":1305:1306   */\n      0x00\n        /* \"#utility.yul\":1302:1303   */\n      dup1\n        /* \"#utility.yul\":1295:1307   */\n      revert\n        /* \"#utility.yul\":1319:1421   */\n    tag_113:\n        /* \"#utility.yul\":1360:1366   */\n      0x00\n        /* \"#utility.yul\":1411:1413   */\n      0x1f\n        /* \"#utility.yul\":1407:1414   */\n      not\n        /* \"#utility.yul\":1402:1404   */\n      0x1f\n        /* \"#utility.yul\":1395:1400   */\n      dup4\n        /* \"#utility.yul\":1391:1405   */\n      add\n        /* \"#utility.yul\":1387:1415   */\n      and\n        /* \"#utility.yul\":1377:1415   */\n      swap1\n      pop\n        /* \"#utility.yul\":1319:1421   */\n      swap2\n      swap1\n      pop\n      jump\t// out\n        /* \"#utility.yul\":1427:1607   */\n    tag_114:\n        /* \"#utility.yul\":1475:1552   */\n      0x4e487b7100000000000000000000000000000000000000000000000000000000\n        /* \"#utility.yul\":1472:1473   */\n      0x00\n        /* \"#utility.yul\":1465:1553   */\n      mstore\n        /* \"#utility.yul\":1572:1576   */\n      0x41\n        /* \"#utility.yul\":1569:1570   */\n      0x04\n        /* \"#utility.yul\":1562:1577   */\n      mstore\n        /* \"#utility.yul\":1596:1600   */\n      0x24\n        /* \"#utility.yul\":1593:1594   */\n      0x00\n        /* \"#utility.yul\":1586:1601   */\n      revert\n        /* \"#utility.yul\":1613:1894   */\n    tag_115:\n        /* \"#utility.yul\":1696:1723   */\n      tag_164\n        /* \"#utility.yul\":1718:1722   */\n      dup3\n        /* \"#utility.yul\":1696:1723   */\n      tag_113\n      jump\t// in\n    tag_164:\n        /* \"#utility.yul\":1688:1694   */\n      dup2\n        /* \"#utility.yul\":1684:1724   */\n      add\n        /* \"#utility.yul\":1826:1832   */\n      dup2\n        /* \"#utility.yul\":1814:1824   */\n      dup2\n        /* \"#utility.yul\":1811:1833   */\n      lt\n        /* \"#utility.yul\":1790:1808   */\n      0xffffffffffffffff\n        /* \"#utility.yul\":1778:1788   */\n      dup3\n        /* \"#utility.yul\":1775:1809   */\n      gt\n        /* \"#utility.yul\":1772:1834   */\n      or\n        /* \"#utility.yul\":1769:1857   */\n      iszero\n      tag_165\n      jumpi\n        /* \"#utility.yul\":1837:1855   */\n      tag_166\n      tag_114\n      jump\t// in\n    tag_166:\n        /* \"#utility.yul\":1769:1857   */\n    tag_165:\n        /* \"#utility.yul\":1877:1887   */\n      dup1\n        /* \"#utility.yul\":1873:1875   */\n      0x40\n        /* \"#utility.yul\":1866:1888   */\n      mstore\n        /* \"#utility.yul\":1656:1894   */\n      pop\n        /* \"#utility.yul\":1613:1894   */\n      pop\n      pop\n      jump\t// out\n        /* \"#utility.yul\":1900:2029   */\n    tag_116:\n        /* \"#utility.yul\":1934:1940   */\n      0x00\n        /* \"#utility.yul\":1961:1981   */\n      tag_168\n      tag_109\n      jump\t// in\n    tag_168:\n        /* \"#utility.yul\":1951:1981   */\n      swap1\n      pop\n        /* \"#utility.yul\":1990:2023   */\n      tag_169\n        /* \"#utility.yul\":2018:2022   */\n      dup3\n        /* \"#utility.yul\":2010:2016   */\n      dup3\n        /* \"#utility.yul\":1990:2023   */\n      tag_115\n      jump\t// in\n    tag_169:\n        /* \"#utility.yul\":1900:2029   */\n      swap2\n      swap1\n      pop\n      jump\t// out\n        /* \"#utility.yul\":2035:2346   */\n    tag_117:\n        /* \"#utility.yul\":2112:2116   */\n      0x00\n        /* \"#utility.yul\":2202:2220   */\n      0xffffffffffffffff\n        /* \"#utility.yul\":2194:2200   */\n      dup3\n        /* \"#utility.yul\":2191:2221   */\n      gt\n        /* \"#utility.yul\":2188:2244   */\n      iszero\n      tag_171\n      jumpi\n        /* \"#utility.yul\":2224:2242   */\n      tag_172\n      tag_114\n      jump\t// in\n    tag_172:\n        /* \"#utility.yul\":2188:2244   */\n    tag_171:\n        /* \"#utility.yul\":2274:2278   */\n      0x20\n        /* \"#utility.yul\":2266:2272   */\n      dup3\n        /* \"#utility.yul\":2262:2279   */\n      mul\n        /* \"#utility.yul\":2254:2279   */\n      swap1\n      pop\n        /* \"#utility.yul\":2334:2338   */\n      0x20\n        /* \"#utility.yul\":2328:2332   */\n      dup2\n        /* \"#utility.yul\":2324:2339   */\n      add\n        /* \"#utility.yul\":2316:2339   */\n      swap1\n      pop\n        /* \"#utility.yul\":2035:2346   */\n      swap2\n      swap1\n      pop\n      jump\t// out\n        /* \"#utility.yul\":2352:2469   */\n    tag_118:\n        /* \"#utility.yul\":2461:2462   */\n      0x00\n        /* \"#utility.yul\":2458:2459   */\n      dup1\n        /* \"#utility.yul\":2451:2463   */\n      revert\n        /* \"#utility.yul\":2475:2597   */\n    tag_119:\n        /* \"#utility.yul\":2548:2572   */\n      tag_175\n        /* \"#utility.yul\":2566:2571   */\n      dup2\n        /* \"#utility.yul\":2548:2572   */\n      tag_105\n      jump\t// in\n    tag_175:\n        /* \"#utility.yul\":2541:2546   */\n      dup2\n        /* \"#utility.yul\":2538:2573   */\n      eq\n        /* \"#utility.yul\":2528:2591   */\n      tag_176\n      jumpi\n        /* \"#utility.yul\":2587:2588   */\n      0x00\n        /* \"#utility.yul\":2584:2585   */\n      dup1\n        /* \"#utility.yul\":2577:2589   */\n      revert\n        /* \"#utility.yul\":2528:2591   */\n    tag_176:\n        /* \"#utility.yul\":2475:2597   */\n      pop\n      jump\t// out\n        /* \"#utility.yul\":2603:2742   */\n    tag_120:\n        /* \"#utility.yul\":2649:2654   */\n      0x00\n        /* \"#utility.yul\":2687:2693   */\n      dup2\n        /* \"#utility.yul\":2674:2694   */\n      calldataload\n        /* \"#utility.yul\":2665:2694   */\n      swap1\n      pop\n        /* \"#utility.yul\":2703:2736   */\n      tag_178\n        /* \"#utility.yul\":2730:2735   */\n      dup2\n        /* \"#utility.yul\":2703:2736   */\n      tag_119\n      jump\t// in\n    tag_178:\n        /* \"#utility.yul\":2603:2742   */\n      swap3\n      swap2\n      pop\n      pop\n      jump\t// out\n        /* \"#utility.yul\":2765:3475   */\n    tag_121:\n        /* \"#utility.yul\":2861:2866   */\n      0x00\n        /* \"#utility.yul\":2886:2967   */\n      tag_180\n        /* \"#utility.yul\":2902:2966   */\n      tag_181\n        /* \"#utility.yul\":2959:2965   */\n      dup5\n        /* \"#utility.yul\":2902:2966   */\n      tag_117\n      jump\t// in\n    tag_181:\n        /* \"#utility.yul\":2886:2967   */\n      tag_116\n      jump\t// in\n    tag_180:\n        /* \"#utility.yul\":2877:2967   */\n      swap1\n      pop\n        /* \"#utility.yul\":2987:2992   */\n      dup1\n        /* \"#utility.yul\":3016:3022   */\n      dup4\n        /* \"#utility.yul\":3009:3014   */\n      dup3\n        /* \"#utility.yul\":3002:3023   */\n      mstore\n        /* \"#utility.yul\":3050:3054   */\n      0x20\n        /* \"#utility.yul\":3043:3048   */\n      dup3\n        /* \"#utility.yul\":3039:3055   */\n      add\n        /* \"#utility.yul\":3032:3055   */\n      swap1\n      pop\n        /* \"#utility.yul\":3103:3107   */\n      0x20\n        /* \"#utility.yul\":3095:3101   */\n      dup5\n        /* \"#utility.yul\":3091:3108   */\n      mul\n        /* \"#utility.yul\":3083:3089   */\n      dup4\n        /* \"#utility.yul\":3079:3109   */\n      add\n        /* \"#utility.yul\":3132:3135   */\n      dup6\n        /* \"#utility.yul\":3124:3130   */\n      dup2\n        /* \"#utility.yul\":3121:3136   */\n      gt\n        /* \"#utility.yul\":3118:3240   */\n      iszero\n      tag_182\n      jumpi\n        /* \"#utility.yul\":3151:3230   */\n      tag_183\n      tag_118\n      jump\t// in\n    tag_183:\n        /* \"#utility.yul\":3118:3240   */\n    tag_182:\n        /* \"#utility.yul\":3266:3272   */\n      dup4\n        /* \"#utility.yul\":3249:3469   */\n    tag_184:\n        /* \"#utility.yul\":3283:3289   */\n      dup2\n        /* \"#utility.yul\":3278:3281   */\n      dup2\n        /* \"#utility.yul\":3275:3290   */\n      lt\n        /* \"#utility.yul\":3249:3469   */\n      iszero\n      tag_186\n      jumpi\n        /* \"#utility.yul\":3358:3361   */\n      dup1\n        /* \"#utility.yul\":3387:3424   */\n      tag_187\n        /* \"#utility.yul\":3420:3423   */\n      dup9\n        /* \"#utility.yul\":3408:3418   */\n      dup3\n        /* \"#utility.yul\":3387:3424   */\n      tag_120\n      jump\t// in\n    tag_187:\n        /* \"#utility.yul\":3382:3385   */\n      dup5\n        /* \"#utility.yul\":3375:3425   */\n      mstore\n        /* \"#utility.yul\":3454:3458   */\n      0x20\n        /* \"#utility.yul\":3449:3452   */\n      dup5\n        /* \"#utility.yul\":3445:3459   */\n      add\n        /* \"#utility.yul\":3438:3459   */\n      swap4\n      pop\n        /* \"#utility.yul\":3325:3469   */\n      pop\n        /* \"#utility.yul\":3309:3313   */\n      0x20\n        /* \"#utility.yul\":3304:3307   */\n      dup2\n        /* \"#utility.yul\":3300:3314   */\n      add\n        /* \"#utility.yul\":3293:3314   */\n      swap1\n      pop\n        /* \"#utility.yul\":3249:3469   */\n      jump(tag_184)\n    tag_186:\n        /* \"#utility.yul\":3253:3274   */\n      pop\n        /* \"#utility.yul\":2867:3475   */\n      pop\n      pop\n        /* \"#utility.yul\":2765:3475   */\n      swap4\n      swap3\n      pop\n      pop\n      pop\n      jump\t// out\n        /* \"#utility.yul\":3498:3868   */\n    tag_122:\n        /* \"#utility.yul\":3569:3574   */\n      0x00\n        /* \"#utility.yul\":3618:3621   */\n      dup3\n        /* \"#utility.yul\":3611:3615   */\n      0x1f\n        /* \"#utility.yul\":3603:3609   */\n      dup4\n        /* \"#utility.yul\":3599:3616   */\n      add\n        /* \"#utility.yul\":3595:3622   */\n      slt\n        /* \"#utility.yul\":3585:3707   */\n      tag_189\n      jumpi\n        /* \"#utility.yul\":3626:3705   */\n      tag_190\n      tag_112\n      jump\t// in\n    tag_190:\n        /* \"#utility.yul\":3585:3707   */\n    tag_189:\n        /* \"#utility.yul\":3743:3749   */\n      dup2\n        /* \"#utility.yul\":3730:3750   */\n      calldataload\n        /* \"#utility.yul\":3768:3862   */\n      tag_191\n        /* \"#utility.yul\":3858:3861   */\n      dup5\n        /* \"#utility.yul\":3850:3856   */\n      dup3\n        /* \"#utility.yul\":3843:3847   */\n      0x20\n        /* \"#utility.yul\":3835:3841   */\n      dup7\n        /* \"#utility.yul\":3831:3848   */\n      add\n        /* \"#utility.yul\":3768:3862   */\n      tag_121\n      jump\t// in\n    tag_191:\n        /* \"#utility.yul\":3759:3862   */\n      swap2\n      pop\n        /* \"#utility.yul\":3575:3868   */\n      pop\n        /* \"#utility.yul\":3498:3868   */\n      swap3\n      swap2\n      pop\n      pop\n      jump\t// out\n        /* \"#utility.yul\":3874:4182   */\n    tag_123:\n        /* \"#utility.yul\":3948:3952   */\n      0x00\n        /* \"#utility.yul\":4038:4056   */\n      0xffffffffffffffff\n        /* \"#utility.yul\":4030:4036   */\n      dup3\n        /* \"#utility.yul\":4027:4057   */\n      gt\n        /* \"#utility.yul\":4024:4080   */\n      iszero\n      tag_193\n      jumpi\n        /* \"#utility.yul\":4060:4078   */\n      tag_194\n      tag_114\n      jump\t// in\n    tag_194:\n        /* \"#utility.yul\":4024:4080   */\n    tag_193:\n        /* \"#utility.yul\":4110:4114   */\n      0x20\n        /* \"#utility.yul\":4102:4108   */\n      dup3\n        /* \"#utility.yul\":4098:4115   */\n      mul\n        /* \"#utility.yul\":4090:4115   */\n      swap1\n      pop\n        /* \"#utility.yul\":4170:4174   */\n      0x20\n        /* \"#utility.yul\":4164:4168   */\n      dup2\n        /* \"#utility.yul\":4160:4175   */\n      add\n        /* \"#utility.yul\":4152:4175   */\n      swap1\n      pop\n        /* \"#utility.yul\":3874:4182   */\n      swap2\n      swap1\n      pop\n      jump\t// out\n        /* \"#utility.yul\":4188:4304   */\n    tag_124:\n        /* \"#utility.yul\":4258:4279   */\n      tag_196\n        /* \"#utility.yul\":4273:4278   */\n      dup2\n        /* \"#utility.yul\":4258:4279   */\n      tag_107\n      jump\t// in\n    tag_196:\n        /* \"#utility.yul\":4251:4256   */\n      dup2\n        /* \"#utility.yul\":4248:4280   */\n      eq\n        /* \"#utility.yul\":4238:4298   */\n      tag_197\n      jumpi\n        /* \"#utility.yul\":4294:4295   */\n      0x00\n        /* \"#utility.yul\":4291:4292   */\n      dup1\n        /* \"#utility.yul\":4284:4296   */\n      revert\n        /* \"#utility.yul\":4238:4298   */\n    tag_197:\n        /* \"#utility.yul\":4188:4304   */\n      pop\n      jump\t// out\n        /* \"#utility.yul\":4310:4443   */\n    tag_125:\n        /* \"#utility.yul\":4353:4358   */\n      0x00\n        /* \"#utility.yul\":4391:4397   */\n      dup2\n        /* \"#utility.yul\":4378:4398   */\n      calldataload\n        /* \"#utility.yul\":4369:4398   */\n      swap1\n      pop\n        /* \"#utility.yul\":4407:4437   */\n      tag_199\n        /* \"#utility.yul\":4431:4436   */\n      dup2\n        /* \"#utility.yul\":4407:4437   */\n      tag_124\n      jump\t// in\n    tag_199:\n        /* \"#utility.yul\":4310:4443   */\n      swap3\n      swap2\n      pop\n      pop\n      jump\t// out\n        /* \"#utility.yul\":4463:5164   */\n    tag_126:\n        /* \"#utility.yul\":4556:4561   */\n      0x00\n        /* \"#utility.yul\":4581:4659   */\n      tag_201\n        /* \"#utility.yul\":4597:4658   */\n      tag_202\n        /* \"#utility.yul\":4651:4657   */\n      dup5\n        /* \"#utility.yul\":4597:4658   */\n      tag_123\n      jump\t// in\n    tag_202:\n        /* \"#utility.yul\":4581:4659   */\n      tag_116\n      jump\t// in\n    tag_201:\n        /* \"#utility.yul\":4572:4659   */\n      swap1\n      pop\n        /* \"#utility.yul\":4679:4684   */\n      dup1\n        /* \"#utility.yul\":4708:4714   */\n      dup4\n        /* \"#utility.yul\":4701:4706   */\n      dup3\n        /* \"#utility.yul\":4694:4715   */\n      mstore\n        /* \"#utility.yul\":4742:4746   */\n      0x20\n        /* \"#utility.yul\":4735:4740   */\n      dup3\n        /* \"#utility.yul\":4731:4747   */\n      add\n        /* \"#utility.yul\":4724:4747   */\n      swap1\n      pop\n        /* \"#utility.yul\":4795:4799   */\n      0x20\n        /* \"#utility.yul\":4787:4793   */\n      dup5\n        /* \"#utility.yul\":4783:4800   */\n      mul\n        /* \"#utility.yul\":4775:4781   */\n      dup4\n        /* \"#utility.yul\":4771:4801   */\n      add\n        /* \"#utility.yul\":4824:4827   */\n      dup6\n        /* \"#utility.yul\":4816:4822   */\n      dup2\n        /* \"#utility.yul\":4813:4828   */\n      gt\n        /* \"#utility.yul\":4810:4932   */\n      iszero\n      tag_203\n      jumpi\n        /* \"#utility.yul\":4843:4922   */\n      tag_204\n      tag_118\n      jump\t// in\n    tag_204:\n        /* \"#utility.yul\":4810:4932   */\n    tag_203:\n        /* \"#utility.yul\":4958:4964   */\n      dup4\n        /* \"#utility.yul\":4941:5158   */\n    tag_205:\n        /* \"#utility.yul\":4975:4981   */\n      dup2\n        /* \"#utility.yul\":4970:4973   */\n      dup2\n        /* \"#utility.yul\":4967:4982   */\n      lt\n        /* \"#utility.yul\":4941:5158   */\n      iszero\n      tag_207\n      jumpi\n        /* \"#utility.yul\":5050:5053   */\n      dup1\n        /* \"#utility.yul\":5079:5113   */\n      tag_208\n        /* \"#utility.yul\":5109:5112   */\n      dup9\n        /* \"#utility.yul\":5097:5107   */\n      dup3\n        /* \"#utility.yul\":5079:5113   */\n      tag_125\n      jump\t// in\n    tag_208:\n        /* \"#utility.yul\":5074:5077   */\n      dup5\n        /* \"#utility.yul\":5067:5114   */\n      mstore\n        /* \"#utility.yul\":5143:5147   */\n      0x20\n        /* \"#utility.yul\":5138:5141   */\n      dup5\n        /* \"#utility.yul\":5134:5148   */\n      add\n        /* \"#utility.yul\":5127:5148   */\n      swap4\n      pop\n        /* \"#utility.yul\":5017:5158   */\n      pop\n        /* \"#utility.yul\":5001:5005   */\n      0x20\n        /* \"#utility.yul\":4996:4999   */\n      dup2\n        /* \"#utility.yul\":4992:5006   */\n      add\n        /* \"#utility.yul\":4985:5006   */\n      swap1\n      pop\n        /* \"#utility.yul\":4941:5158   */\n      jump(tag_205)\n    tag_207:\n        /* \"#utility.yul\":4945:4966   */\n      pop\n        /* \"#utility.yul\":4562:5164   */\n      pop\n      pop\n        /* \"#utility.yul\":4463:5164   */\n      swap4\n      swap3\n      pop\n      pop\n      pop\n      jump\t// out\n        /* \"#utility.yul\":5184:5548   */\n    tag_127:\n        /* \"#utility.yul\":5252:5257   */\n      0x00\n        /* \"#utility.yul\":5301:5304   */\n      dup3\n        /* \"#utility.yul\":5294:5298   */\n      0x1f\n        /* \"#utility.yul\":5286:5292   */\n      dup4\n        /* \"#utility.yul\":5282:5299   */\n      add\n        /* \"#utility.yul\":5278:5305   */\n      slt\n        /* \"#utility.yul\":5268:5390   */\n      tag_210\n      jumpi\n        /* \"#utility.yul\":5309:5388   */\n      tag_211\n      tag_112\n      jump\t// in\n    tag_211:\n        /* \"#utility.yul\":5268:5390   */\n    tag_210:\n        /* \"#utility.yul\":5426:5432   */\n      dup2\n        /* \"#utility.yul\":5413:5433   */\n      calldataload\n        /* \"#utility.yul\":5451:5542   */\n      tag_212\n        /* \"#utility.yul\":5538:5541   */\n      dup5\n        /* \"#utility.yul\":5530:5536   */\n      dup3\n        /* \"#utility.yul\":5523:5527   */\n      0x20\n        /* \"#utility.yul\":5515:5521   */\n      dup7\n        /* \"#utility.yul\":5511:5528   */\n      add\n        /* \"#utility.yul\":5451:5542   */\n      tag_126\n      jump\t// in\n    tag_212:\n        /* \"#utility.yul\":5442:5542   */\n      swap2\n      pop\n        /* \"#utility.yul\":5258:5548   */\n      pop\n        /* \"#utility.yul\":5184:5548   */\n      swap3\n      swap2\n      pop\n      pop\n      jump\t// out\n        /* \"#utility.yul\":5554:5865   */\n    tag_128:\n        /* \"#utility.yul\":5631:5635   */\n      0x00\n        /* \"#utility.yul\":5721:5739   */\n      0xffffffffffffffff\n        /* \"#utility.yul\":5713:5719   */\n      dup3\n        /* \"#utility.yul\":5710:5740   */\n      gt\n        /* \"#utility.yul\":5707:5763   */\n      iszero\n      tag_214\n      jumpi\n        /* \"#utility.yul\":5743:5761   */\n      tag_215\n      tag_114\n      jump\t// in\n    tag_215:\n        /* \"#utility.yul\":5707:5763   */\n    tag_214:\n        /* \"#utility.yul\":5793:5797   */\n      0x20\n        /* \"#utility.yul\":5785:5791   */\n      dup3\n        /* \"#utility.yul\":5781:5798   */\n      mul\n        /* \"#utility.yul\":5773:5798   */\n      swap1\n      pop\n        /* \"#utility.yul\":5853:5857   */\n      0x20\n        /* \"#utility.yul\":5847:5851   */\n      dup2\n        /* \"#utility.yul\":5843:5858   */\n      add\n        /* \"#utility.yul\":5835:5858   */\n      swap1\n      pop\n        /* \"#utility.yul\":5554:5865   */\n      swap2\n      swap1\n      pop\n      jump\t// out\n        /* \"#utility.yul\":5871:5948   */\n    tag_129:\n        /* \"#utility.yul\":5908:5915   */\n      0x00\n        /* \"#utility.yul\":5937:5942   */\n      dup2\n        /* \"#utility.yul\":5926:5942   */\n      swap1\n      pop\n        /* \"#utility.yul\":5871:5948   */\n      swap2\n      swap1\n      pop\n      jump\t// out\n        /* \"#utility.yul\":5954:6076   */\n    tag_130:\n        /* \"#utility.yul\":6027:6051   */\n      tag_218\n        /* \"#utility.yul\":6045:6050   */\n      dup2\n        /* \"#utility.yul\":6027:6051   */\n      tag_129\n      jump\t// in\n    tag_218:\n        /* \"#utility.yul\":6020:6025   */\n      dup2\n        /* \"#utility.yul\":6017:6052   */\n      eq\n        /* \"#utility.yul\":6007:6070   */\n      tag_219\n      jumpi\n        /* \"#utility.yul\":6066:6067   */\n      0x00\n        /* \"#utility.yul\":6063:6064   */\n      dup1\n        /* \"#utility.yul\":6056:6068   */\n      revert\n        /* \"#utility.yul\":6007:6070   */\n    tag_219:\n        /* \"#utility.yul\":5954:6076   */\n      pop\n      jump\t// out\n        /* \"#utility.yul\":6082:6221   */\n    tag_131:\n        /* \"#utility.yul\":6128:6133   */\n      0x00\n        /* \"#utility.yul\":6166:6172   */\n      dup2\n        /* \"#utility.yul\":6153:6173   */\n      calldataload\n        /* \"#utility.yul\":6144:6173   */\n      swap1\n      pop\n        /* \"#utility.yul\":6182:6215   */\n      tag_221\n        /* \"#utility.yul\":6209:6214   */\n      dup2\n        /* \"#utility.yul\":6182:6215   */\n      tag_130\n      jump\t// in\n    tag_221:\n        /* \"#utility.yul\":6082:6221   */\n      swap3\n      swap2\n      pop\n      pop\n      jump\t// out\n        /* \"#utility.yul\":6244:6954   */\n    tag_132:\n        /* \"#utility.yul\":6340:6345   */\n      0x00\n        /* \"#utility.yul\":6365:6446   */\n      tag_223\n        /* \"#utility.yul\":6381:6445   */\n      tag_224\n        /* \"#utility.yul\":6438:6444   */\n      dup5\n        /* \"#utility.yul\":6381:6445   */\n      tag_128\n      jump\t// in\n    tag_224:\n        /* \"#utility.yul\":6365:6446   */\n      tag_116\n      jump\t// in\n    tag_223:\n        /* \"#utility.yul\":6356:6446   */\n      swap1\n      pop\n        /* \"#utility.yul\":6466:6471   */\n      dup1\n        /* \"#utility.yul\":6495:6501   */\n      dup4\n        /* \"#utility.yul\":6488:6493   */\n      dup3\n        /* \"#utility.yul\":6481:6502   */\n      mstore\n        /* \"#utility.yul\":6529:6533   */\n      0x20\n        /* \"#utility.yul\":6522:6527   */\n      dup3\n        /* \"#utility.yul\":6518:6534   */\n      add\n        /* \"#utility.yul\":6511:6534   */\n      swap1\n      pop\n        /* \"#utility.yul\":6582:6586   */\n      0x20\n        /* \"#utility.yul\":6574:6580   */\n      dup5\n        /* \"#utility.yul\":6570:6587   */\n      mul\n        /* \"#utility.yul\":6562:6568   */\n      dup4\n        /* \"#utility.yul\":6558:6588   */\n      add\n        /* \"#utility.yul\":6611:6614   */\n      dup6\n        /* \"#utility.yul\":6603:6609   */\n      dup2\n        /* \"#utility.yul\":6600:6615   */\n      gt\n        /* \"#utility.yul\":6597:6719   */\n      iszero\n      tag_225\n      jumpi\n        /* \"#utility.yul\":6630:6709   */\n      tag_226\n      tag_118\n      jump\t// in\n    tag_226:\n        /* \"#utility.yul\":6597:6719   */\n    tag_225:\n        /* \"#utility.yul\":6745:6751   */\n      dup4\n        /* \"#utility.yul\":6728:6948   */\n    tag_227:\n        /* \"#utility.yul\":6762:6768   */\n      dup2\n        /* \"#utility.yul\":6757:6760   */\n      dup2\n        /* \"#utility.yul\":6754:6769   */\n      lt\n        /* \"#utility.yul\":6728:6948   */\n      iszero\n      tag_229\n      jumpi\n        /* \"#utility.yul\":6837:6840   */\n      dup1\n        /* \"#utility.yul\":6866:6903   */\n      tag_230\n        /* \"#utility.yul\":6899:6902   */\n      dup9\n        /* \"#utility.yul\":6887:6897   */\n      dup3\n        /* \"#utility.yul\":6866:6903   */\n      tag_131\n      jump\t// in\n    tag_230:\n        /* \"#utility.yul\":6861:6864   */\n      dup5\n        /* \"#utility.yul\":6854:6904   */\n      mstore\n        /* \"#utility.yul\":6933:6937   */\n      0x20\n        /* \"#utility.yul\":6928:6931   */\n      dup5\n        /* \"#utility.yul\":6924:6938   */\n      add\n        /* \"#utility.yul\":6917:6938   */\n      swap4\n      pop\n        /* \"#utility.yul\":6804:6948   */\n      pop\n        /* \"#utility.yul\":6788:6792   */\n      0x20\n        /* \"#utility.yul\":6783:6786   */\n      dup2\n        /* \"#utility.yul\":6779:6793   */\n      add\n        /* \"#utility.yul\":6772:6793   */\n      swap1\n      pop\n        /* \"#utility.yul\":6728:6948   */\n      jump(tag_227)\n    tag_229:\n        /* \"#utility.yul\":6732:6753   */\n      pop\n        /* \"#utility.yul\":6346:6954   */\n      pop\n      pop\n        /* \"#utility.yul\":6244:6954   */\n      swap4\n      swap3\n      pop\n      pop\n      pop\n      jump\t// out\n        /* \"#utility.yul\":6977:7347   */\n    tag_133:\n        /* \"#utility.yul\":7048:7053   */\n      0x00\n        /* \"#utility.yul\":7097:7100   */\n      dup3\n        /* \"#utility.yul\":7090:7094   */\n      0x1f\n        /* \"#utility.yul\":7082:7088   */\n      dup4\n        /* \"#utility.yul\":7078:7095   */\n      add\n        /* \"#utility.yul\":7074:7101   */\n      slt\n        /* \"#utility.yul\":7064:7186   */\n      tag_232\n      jumpi\n        /* \"#utility.yul\":7105:7184   */\n      tag_233\n      tag_112\n      jump\t// in\n    tag_233:\n        /* \"#utility.yul\":7064:7186   */\n    tag_232:\n        /* \"#utility.yul\":7222:7228   */\n      dup2\n        /* \"#utility.yul\":7209:7229   */\n      calldataload\n        /* \"#utility.yul\":7247:7341   */\n      tag_234\n        /* \"#utility.yul\":7337:7340   */\n      dup5\n        /* \"#utility.yul\":7329:7335   */\n      dup3\n        /* \"#utility.yul\":7322:7326   */\n      0x20\n        /* \"#utility.yul\":7314:7320   */\n      dup7\n        /* \"#utility.yul\":7310:7327   */\n      add\n        /* \"#utility.yul\":7247:7341   */\n      tag_132\n      jump\t// in\n    tag_234:\n        /* \"#utility.yul\":7238:7341   */\n      swap2\n      pop\n        /* \"#utility.yul\":7054:7347   */\n      pop\n        /* \"#utility.yul\":6977:7347   */\n      swap3\n      swap2\n      pop\n      pop\n      jump\t// out\n        /* \"#utility.yul\":7353:8596   */\n    tag_32:\n        /* \"#utility.yul\":7502:7508   */\n      0x00\n        /* \"#utility.yul\":7510:7516   */\n      dup1\n        /* \"#utility.yul\":7518:7524   */\n      0x00\n        /* \"#utility.yul\":7567:7569   */\n      0x60\n        /* \"#utility.yul\":7555:7564   */\n      dup5\n        /* \"#utility.yul\":7546:7553   */\n      dup7\n        /* \"#utility.yul\":7542:7565   */\n      sub\n        /* \"#utility.yul\":7538:7570   */\n      slt\n        /* \"#utility.yul\":7535:7654   */\n      iszero\n      tag_236\n      jumpi\n        /* \"#utility.yul\":7573:7652   */\n      tag_237\n      tag_110\n      jump\t// in\n    tag_237:\n        /* \"#utility.yul\":7535:7654   */\n    tag_236:\n        /* \"#utility.yul\":7721:7722   */\n      0x00\n        /* \"#utility.yul\":7710:7719   */\n      dup5\n        /* \"#utility.yul\":7706:7723   */\n      add\n        /* \"#utility.yul\":7693:7724   */\n      calldataload\n        /* \"#utility.yul\":7751:7769   */\n      0xffffffffffffffff\n        /* \"#utility.yul\":7743:7749   */\n      dup2\n        /* \"#utility.yul\":7740:7770   */\n      gt\n        /* \"#utility.yul\":7737:7854   */\n      iszero\n      tag_238\n      jumpi\n        /* \"#utility.yul\":7773:7852   */\n      tag_239\n      tag_111\n      jump\t// in\n    tag_239:\n        /* \"#utility.yul\":7737:7854   */\n    tag_238:\n        /* \"#utility.yul\":7878:7956   */\n      tag_240\n        /* \"#utility.yul\":7948:7955   */\n      dup7\n        /* \"#utility.yul\":7939:7945   */\n      dup3\n        /* \"#utility.yul\":7928:7937   */\n      dup8\n        /* \"#utility.yul\":7924:7946   */\n      add\n        /* \"#utility.yul\":7878:7956   */\n      tag_122\n      jump\t// in\n    tag_240:\n        /* \"#utility.yul\":7868:7956   */\n      swap4\n      pop\n        /* \"#utility.yul\":7664:7966   */\n      pop\n        /* \"#utility.yul\":8033:8035   */\n      0x20\n        /* \"#utility.yul\":8022:8031   */\n      dup5\n        /* \"#utility.yul\":8018:8036   */\n      add\n        /* \"#utility.yul\":8005:8037   */\n      calldataload\n        /* \"#utility.yul\":8064:8082   */\n      0xffffffffffffffff\n        /* \"#utility.yul\":8056:8062   */\n      dup2\n        /* \"#utility.yul\":8053:8083   */\n      gt\n        /* \"#utility.yul\":8050:8167   */\n      iszero\n      tag_241\n      jumpi\n        /* \"#utility.yul\":8086:8165   */\n      tag_242\n      tag_111\n      jump\t// in\n    tag_242:\n        /* \"#utility.yul\":8050:8167   */\n    tag_241:\n        /* \"#utility.yul\":8191:8266   */\n      tag_243\n        /* \"#utility.yul\":8258:8265   */\n      dup7\n        /* \"#utility.yul\":8249:8255   */\n      dup3\n        /* \"#utility.yul\":8238:8247   */\n      dup8\n        /* \"#utility.yul\":8234:8256   */\n      add\n        /* \"#utility.yul\":8191:8266   */\n      tag_127\n      jump\t// in\n    tag_243:\n        /* \"#utility.yul\":8181:8266   */\n      swap3\n      pop\n        /* \"#utility.yul\":7976:8276   */\n      pop\n        /* \"#utility.yul\":8343:8345   */\n      0x40\n        /* \"#utility.yul\":8332:8341   */\n      dup5\n        /* \"#utility.yul\":8328:8346   */\n      add\n        /* \"#utility.yul\":8315:8347   */\n      calldataload\n        /* \"#utility.yul\":8374:8392   */\n      0xffffffffffffffff\n        /* \"#utility.yul\":8366:8372   */\n      dup2\n        /* \"#utility.yul\":8363:8393   */\n      gt\n        /* \"#utility.yul\":8360:8477   */\n      iszero\n      tag_244\n      jumpi\n        /* \"#utility.yul\":8396:8475   */\n      tag_245\n      tag_111\n      jump\t// in\n    tag_245:\n        /* \"#utility.yul\":8360:8477   */\n    tag_244:\n        /* \"#utility.yul\":8501:8579   */\n      tag_246\n        /* \"#utility.yul\":8571:8578   */\n      dup7\n        /* \"#utility.yul\":8562:8568   */\n      dup3\n        /* \"#utility.yul\":8551:8560   */\n      dup8\n        /* \"#utility.yul\":8547:8569   */\n      add\n        /* \"#utility.yul\":8501:8579   */\n      tag_133\n      jump\t// in\n    tag_246:\n        /* \"#utility.yul\":8491:8579   */\n      swap2\n      pop\n        /* \"#utility.yul\":8286:8589   */\n      pop\n        /* \"#utility.yul\":7353:8596   */\n      swap3\n      pop\n      swap3\n      pop\n      swap3\n      jump\t// out\n        /* \"#utility.yul\":8602:8931   */\n    tag_39:\n        /* \"#utility.yul\":8661:8667   */\n      0x00\n        /* \"#utility.yul\":8710:8712   */\n      0x20\n        /* \"#utility.yul\":8698:8707   */\n      dup3\n        /* \"#utility.yul\":8689:8696   */\n      dup5\n        /* \"#utility.yul\":8685:8708   */\n      sub\n        /* \"#utility.yul\":8681:8713   */\n      slt\n        /* \"#utility.yul\":8678:8797   */\n      iszero\n      tag_248\n      jumpi\n        /* \"#utility.yul\":8716:8795   */\n      tag_249\n      tag_110\n      jump\t// in\n    tag_249:\n        /* \"#utility.yul\":8678:8797   */\n    tag_248:\n        /* \"#utility.yul\":8836:8837   */\n      0x00\n        /* \"#utility.yul\":8861:8914   */\n      tag_250\n        /* \"#utility.yul\":8906:8913   */\n      dup5\n        /* \"#utility.yul\":8897:8903   */\n      dup3\n        /* \"#utility.yul\":8886:8895   */\n      dup6\n        /* \"#utility.yul\":8882:8904   */\n      add\n        /* \"#utility.yul\":8861:8914   */\n      tag_131\n      jump\t// in\n    tag_250:\n        /* \"#utility.yul\":8851:8914   */\n      swap2\n      pop\n        /* \"#utility.yul\":8807:8924   */\n      pop\n        /* \"#utility.yul\":8602:8931   */\n      swap3\n      swap2\n      pop\n      pop\n      jump\t// out\n        /* \"#utility.yul\":8937:9063   */\n    tag_134:\n        /* \"#utility.yul\":8974:8981   */\n      0x00\n        /* \"#utility.yul\":9014:9056   */\n      0xffffffffffffffffffffffffffffffffffffffff\n        /* \"#utility.yul\":9007:9012   */\n      dup3\n        /* \"#utility.yul\":9003:9057   */\n      and\n        /* \"#utility.yul\":8992:9057   */\n      swap1\n      pop\n        /* \"#utility.yul\":8937:9063   */\n      swap2\n      swap1\n      pop\n      jump\t// out\n        /* \"#utility.yul\":9069:9173   */\n    tag_135:\n        /* \"#utility.yul\":9114:9121   */\n      0x00\n        /* \"#utility.yul\":9143:9167   */\n      tag_253\n        /* \"#utility.yul\":9161:9166   */\n      dup3\n        /* \"#utility.yul\":9143:9167   */\n      tag_134\n      jump\t// in\n    tag_253:\n        /* \"#utility.yul\":9132:9167   */\n      swap1\n      pop\n        /* \"#utility.yul\":9069:9173   */\n      swap2\n      swap1\n      pop\n      jump\t// out\n        /* \"#utility.yul\":9179:9321   */\n    tag_136:\n        /* \"#utility.yul\":9282:9314   */\n      tag_255\n        /* \"#utility.yul\":9308:9313   */\n      dup2\n        /* \"#utility.yul\":9282:9314   */\n      tag_135\n      jump\t// in\n    tag_255:\n        /* \"#utility.yul\":9277:9280   */\n      dup3\n        /* \"#utility.yul\":9270:9315   */\n      mstore\n        /* \"#utility.yul\":9179:9321   */\n      pop\n      pop\n      jump\t// out\n        /* \"#utility.yul\":9327:9581   */\n    tag_45:\n        /* \"#utility.yul\":9436:9440   */\n      0x00\n        /* \"#utility.yul\":9474:9476   */\n      0x20\n        /* \"#utility.yul\":9463:9472   */\n      dup3\n        /* \"#utility.yul\":9459:9477   */\n      add\n        /* \"#utility.yul\":9451:9477   */\n      swap1\n      pop\n        /* \"#utility.yul\":9487:9574   */\n      tag_257\n        /* \"#utility.yul\":9571:9572   */\n      0x00\n        /* \"#utility.yul\":9560:9569   */\n      dup4\n        /* \"#utility.yul\":9556:9573   */\n      add\n        /* \"#utility.yul\":9547:9553   */\n      dup5\n        /* \"#utility.yul\":9487:9574   */\n      tag_136\n      jump\t// in\n    tag_257:\n        /* \"#utility.yul\":9327:9581   */\n      swap3\n      swap2\n      pop\n      pop\n      jump\t// out\n        /* \"#utility.yul\":9587:9767   */\n    tag_67:\n        /* \"#utility.yul\":9635:9712   */\n      0x4e487b7100000000000000000000000000000000000000000000000000000000\n        /* \"#utility.yul\":9632:9633   */\n      0x00\n        /* \"#utility.yul\":9625:9713   */\n      mstore\n        /* \"#utility.yul\":9732:9736   */\n      0x32\n        /* \"#utility.yul\":9729:9730   */\n      0x04\n        /* \"#utility.yul\":9722:9737   */\n      mstore\n        /* \"#utility.yul\":9756:9760   */\n      0x24\n        /* \"#utility.yul\":9753:9754   */\n      0x00\n        /* \"#utility.yul\":9746:9761   */\n      revert\n        /* \"#utility.yul\":9773:9852   */\n    tag_137:\n        /* \"#utility.yul\":9812:9819   */\n      0x00\n        /* \"#utility.yul\":9841:9846   */\n      dup2\n        /* \"#utility.yul\":9830:9846   */\n      swap1\n      pop\n        /* \"#utility.yul\":9773:9852   */\n      swap2\n      swap1\n      pop\n      jump\t// out\n        /* \"#utility.yul\":9858:10015   */\n    tag_138:\n        /* \"#utility.yul\":9963:10008   */\n      tag_261\n        /* \"#utility.yul\":9983:10007   */\n      tag_262\n        /* \"#utility.yul\":10001:10006   */\n      dup3\n        /* \"#utility.yul\":9983:10007   */\n      tag_105\n      jump\t// in\n    tag_262:\n        /* \"#utility.yul\":9963:10008   */\n      tag_137\n      jump\t// in\n    tag_261:\n        /* \"#utility.yul\":9958:9961   */\n      dup3\n        /* \"#utility.yul\":9951:10009   */\n      mstore\n        /* \"#utility.yul\":9858:10015   */\n      pop\n      pop\n      jump\t// out\n        /* \"#utility.yul\":10021:10117   */\n    tag_139:\n        /* \"#utility.yul\":10055:10063   */\n      0x00\n        /* \"#utility.yul\":10104:10109   */\n      dup2\n        /* \"#utility.yul\":10099:10102   */\n      0xf8\n        /* \"#utility.yul\":10095:10110   */\n      shl\n        /* \"#utility.yul\":10074:10110   */\n      swap1\n      pop\n        /* \"#utility.yul\":10021:10117   */\n      swap2\n      swap1\n      pop\n      jump\t// out\n        /* \"#utility.yul\":10123:10216   */\n    tag_140:\n        /* \"#utility.yul\":10160:10167   */\n      0x00\n        /* \"#utility.yul\":10189:10210   */\n      tag_265\n        /* \"#utility.yul\":10204:10209   */\n      dup3\n        /* \"#utility.yul\":10189:10210   */\n      tag_139\n      jump\t// in\n    tag_265:\n        /* \"#utility.yul\":10178:10210   */\n      swap1\n      pop\n        /* \"#utility.yul\":10123:10216   */\n      swap2\n      swap1\n      pop\n      jump\t// out\n        /* \"#utility.yul\":10222:10317   */\n    tag_141:\n        /* \"#utility.yul\":10258:10265   */\n      0x00\n        /* \"#utility.yul\":10287:10311   */\n      tag_267\n        /* \"#utility.yul\":10305:10310   */\n      dup3\n        /* \"#utility.yul\":10287:10311   */\n      tag_140\n      jump\t// in\n    tag_267:\n        /* \"#utility.yul\":10276:10311   */\n      swap1\n      pop\n        /* \"#utility.yul\":10222:10317   */\n      swap2\n      swap1\n      pop\n      jump\t// out\n        /* \"#utility.yul\":10323:10468   */\n    tag_142:\n        /* \"#utility.yul\":10422:10461   */\n      tag_269\n        /* \"#utility.yul\":10439:10460   */\n      tag_270\n        /* \"#utility.yul\":10454:10459   */\n      dup3\n        /* \"#utility.yul\":10439:10460   */\n      tag_107\n      jump\t// in\n    tag_270:\n        /* \"#utility.yul\":10422:10461   */\n      tag_141\n      jump\t// in\n    tag_269:\n        /* \"#utility.yul\":10417:10420   */\n      dup3\n        /* \"#utility.yul\":10410:10462   */\n      mstore\n        /* \"#utility.yul\":10323:10468   */\n      pop\n      pop\n      jump\t// out\n        /* \"#utility.yul\":10474:10553   */\n    tag_143:\n        /* \"#utility.yul\":10513:10520   */\n      0x00\n        /* \"#utility.yul\":10542:10547   */\n      dup2\n        /* \"#utility.yul\":10531:10547   */\n      swap1\n      pop\n        /* \"#utility.yul\":10474:10553   */\n      swap2\n      swap1\n      pop\n      jump\t// out\n        /* \"#utility.yul\":10559:10716   */\n    tag_144:\n        /* \"#utility.yul\":10664:10709   */\n      tag_273\n        /* \"#utility.yul\":10684:10708   */\n      tag_274\n        /* \"#utility.yul\":10702:10707   */\n      dup3\n        /* \"#utility.yul\":10684:10708   */\n      tag_129\n      jump\t// in\n    tag_274:\n        /* \"#utility.yul\":10664:10709   */\n      tag_143\n      jump\t// in\n    tag_273:\n        /* \"#utility.yul\":10659:10662   */\n      dup3\n        /* \"#utility.yul\":10652:10710   */\n      mstore\n        /* \"#utility.yul\":10559:10716   */\n      pop\n      pop\n      jump\t// out\n        /* \"#utility.yul\":10722:11247   */\n    tag_76:\n        /* \"#utility.yul\":10884:10887   */\n      0x00\n        /* \"#utility.yul\":10899:10974   */\n      tag_276\n        /* \"#utility.yul\":10970:10973   */\n      dup3\n        /* \"#utility.yul\":10961:10967   */\n      dup7\n        /* \"#utility.yul\":10899:10974   */\n      tag_138\n      jump\t// in\n    tag_276:\n        /* \"#utility.yul\":10999:11001   */\n      0x20\n        /* \"#utility.yul\":10994:10997   */\n      dup3\n        /* \"#utility.yul\":10990:11002   */\n      add\n        /* \"#utility.yul\":10983:11002   */\n      swap2\n      pop\n        /* \"#utility.yul\":11012:11081   */\n      tag_277\n        /* \"#utility.yul\":11077:11080   */\n      dup3\n        /* \"#utility.yul\":11068:11074   */\n      dup6\n        /* \"#utility.yul\":11012:11081   */\n      tag_142\n      jump\t// in\n    tag_277:\n        /* \"#utility.yul\":11106:11107   */\n      0x01\n        /* \"#utility.yul\":11101:11104   */\n      dup3\n        /* \"#utility.yul\":11097:11108   */\n      add\n        /* \"#utility.yul\":11090:11108   */\n      swap2\n      pop\n        /* \"#utility.yul\":11118:11193   */\n      tag_278\n        /* \"#utility.yul\":11189:11192   */\n      dup3\n        /* \"#utility.yul\":11180:11186   */\n      dup5\n        /* \"#utility.yul\":11118:11193   */\n      tag_144\n      jump\t// in\n    tag_278:\n        /* \"#utility.yul\":11218:11220   */\n      0x20\n        /* \"#utility.yul\":11213:11216   */\n      dup3\n        /* \"#utility.yul\":11209:11221   */\n      add\n        /* \"#utility.yul\":11202:11221   */\n      swap2\n      pop\n        /* \"#utility.yul\":11238:11241   */\n      dup2\n        /* \"#utility.yul\":11231:11241   */\n      swap1\n      pop\n        /* \"#utility.yul\":10722:11247   */\n      swap5\n      swap4\n      pop\n      pop\n      pop\n      pop\n      jump\t// out\n        /* \"#utility.yul\":11253:11433   */\n    tag_145:\n        /* \"#utility.yul\":11301:11378   */\n      0x4e487b7100000000000000000000000000000000000000000000000000000000\n        /* \"#utility.yul\":11298:11299   */\n      0x00\n        /* \"#utility.yul\":11291:11379   */\n      mstore\n        /* \"#utility.yul\":11398:11402   */\n      0x11\n        /* \"#utility.yul\":11395:11396   */\n      0x04\n        /* \"#utility.yul\":11388:11403   */\n      mstore\n        /* \"#utility.yul\":11422:11426   */\n      0x24\n        /* \"#utility.yul\":11419:11420   */\n      0x00\n        /* \"#utility.yul\":11412:11427   */\n      revert\n        /* \"#utility.yul\":11439:11744   */\n    tag_79:\n        /* \"#utility.yul\":11479:11482   */\n      0x00\n        /* \"#utility.yul\":11498:11518   */\n      tag_281\n        /* \"#utility.yul\":11516:11517   */\n      dup3\n        /* \"#utility.yul\":11498:11518   */\n      tag_105\n      jump\t// in\n    tag_281:\n        /* \"#utility.yul\":11493:11518   */\n      swap2\n      pop\n        /* \"#utility.yul\":11532:11552   */\n      tag_282\n        /* \"#utility.yul\":11550:11551   */\n      dup4\n        /* \"#utility.yul\":11532:11552   */\n      tag_105\n      jump\t// in\n    tag_282:\n        /* \"#utility.yul\":11527:11552   */\n      swap3\n      pop\n        /* \"#utility.yul\":11686:11687   */\n      dup3\n        /* \"#utility.yul\":11618:11684   */\n      0xffffffffffffffffffffffffffffffffffffffffffffffffffffffffffffffff\n        /* \"#utility.yul\":11614:11688   */\n      sub\n        /* \"#utility.yul\":11611:11612   */\n      dup3\n        /* \"#utility.yul\":11608:11689   */\n      gt\n        /* \"#utility.yul\":11605:11712   */\n      iszero\n      tag_283\n      jumpi\n        /* \"#utility.yul\":11692:11710   */\n      tag_284\n      tag_145\n      jump\t// in\n    tag_284:\n        /* \"#utility.yul\":11605:11712   */\n    tag_283:\n        /* \"#utility.yul\":11736:11737   */\n      dup3\n        /* \"#utility.yul\":11733:11734   */\n      dup3\n        /* \"#utility.yul\":11729:11738   */\n      add\n        /* \"#utility.yul\":11722:11738   */\n      swap1\n      pop\n        /* \"#utility.yul\":11439:11744   */\n      swap3\n      swap2\n      pop\n      pop\n      jump\t// out\n        /* \"#utility.yul\":11750:11941   */\n    tag_86:\n        /* \"#utility.yul\":11790:11794   */\n      0x00\n        /* \"#utility.yul\":11810:11830   */\n      tag_286\n        /* \"#utility.yul\":11828:11829   */\n      dup3\n        /* \"#utility.yul\":11810:11830   */\n      tag_105\n      jump\t// in\n    tag_286:\n        /* \"#utility.yul\":11805:11830   */\n      swap2\n      pop\n        /* \"#utility.yul\":11844:11864   */\n      tag_287\n        /* \"#utility.yul\":11862:11863   */\n      dup4\n        /* \"#utility.yul\":11844:11864   */\n      tag_105\n      jump\t// in\n    tag_287:\n        /* \"#utility.yul\":11839:11864   */\n      swap3\n      pop\n        /* \"#utility.yul\":11883:11884   */\n      dup3\n        /* \"#utility.yul\":11880:11881   */\n      dup3\n        /* \"#utility.yul\":11877:11885   */\n      lt\n        /* \"#utility.yul\":11874:11908   */\n      iszero\n      tag_288\n      jumpi\n        /* \"#utility.yul\":11888:11906   */\n      tag_289\n      tag_145\n      jump\t// in\n    tag_289:\n        /* \"#utility.yul\":11874:11908   */\n    tag_288:\n        /* \"#utility.yul\":11933:11934   */\n      dup3\n        /* \"#utility.yul\":11930:11931   */\n      dup3\n        /* \"#utility.yul\":11926:11935   */\n      sub\n        /* \"#utility.yul\":11918:11935   */\n      swap1\n      pop\n        /* \"#utility.yul\":11750:11941   */\n      swap3\n      swap2\n      pop\n      pop\n      jump\t// out\n        /* \"#utility.yul\":11947:12180   */\n    tag_88:\n        /* \"#utility.yul\":11986:11989   */\n      0x00\n        /* \"#utility.yul\":12009:12033   */\n      tag_291\n        /* \"#utility.yul\":12027:12032   */\n      dup3\n        /* \"#utility.yul\":12009:12033   */\n      tag_105\n      jump\t// in\n    tag_291:\n        /* \"#utility.yul\":12000:12033   */\n      swap2\n      pop\n        /* \"#utility.yul\":12055:12121   */\n      0xffffffffffffffffffffffffffffffffffffffffffffffffffffffffffffffff\n        /* \"#utility.yul\":12048:12053   */\n      dup3\n        /* \"#utility.yul\":12045:12122   */\n      sub\n        /* \"#utility.yul\":12042:12145   */\n      tag_292\n      jumpi\n        /* \"#utility.yul\":12125:12143   */\n      tag_293\n      tag_145\n      jump\t// in\n    tag_293:\n        /* \"#utility.yul\":12042:12145   */\n    tag_292:\n        /* \"#utility.yul\":12172:12173   */\n      0x01\n        /* \"#utility.yul\":12165:12170   */\n      dup3\n        /* \"#utility.yul\":12161:12174   */\n      add\n        /* \"#utility.yul\":12154:12174   */\n      swap1\n      pop\n        /* \"#utility.yul\":11947:12180   */\n      swap2\n      swap1\n      pop\n      jump\t// out\n\n    auxdata: 0xa2646970667358221220024b1d16368cae1f93d092e99798743ed1d2c1b48529c9f4d3a9718ba3b1002464736f6c634300080d0033\n}\n",
				"bytecode": {
					"linkReferences": {},
					"object": "60806040523480156200001157600080fd5b506040516200117638038062001176833981810160405281019062000037919062000150565b82600260006101000a81548173ffffffffffffffffffffffffffffffffffffffff021916908373ffffffffffffffffffffffffffffffffffffffff1602179055508142620000869190620001db565b600081905550806000546200009c9190620001db565b60018190555050505062000238565b600080fd5b600073ffffffffffffffffffffffffffffffffffffffff82169050919050565b6000620000dd82620000b0565b9050919050565b620000ef81620000d0565b8114620000fb57600080fd5b50565b6000815190506200010f81620000e4565b92915050565b6000819050919050565b6200012a8162000115565b81146200013657600080fd5b50565b6000815190506200014a816200011f565b92915050565b6000806000606084860312156200016c576200016b620000ab565b5b60006200017c86828701620000fe565b93505060206200018f8682870162000139565b9250506040620001a28682870162000139565b9150509250925092565b7f4e487b7100000000000000000000000000000000000000000000000000000000600052601160045260246000fd5b6000620001e88262000115565b9150620001f58362000115565b9250827fffffffffffffffffffffffffffffffffffffffffffffffffffffffffffffffff038211156200022d576200022c620001ac565b5b828201905092915050565b610f2e80620002486000396000f3fe6080604052600436106100865760003560e01c8063381d978711610059578063381d9787146101235780638b8ebcbc1461014c578063957bb1e014610163578063c06801131461017f578063fe7fc8fd146101aa57610086565b80630e8670e01461008b5780630fdb1c10146100b657806312fa6feb146100cd5780632a24f46c146100f8575b600080fd5b34801561009757600080fd5b506100a06101d5565b6040516100ad91906107ff565b60405180910390f35b3480156100c257600080fd5b506100cb6101db565b005b3480156100d957600080fd5b506100e26102b8565b6040516100ef9190610835565b60405180910390f35b34801561010457600080fd5b5061010d6102cb565b60405161011a91906107ff565b60405180910390f35b34801561012f57600080fd5b5061014a60048036038101906101459190610bd1565b6102d1565b005b34801561015857600080fd5b5061016161052a565b005b61017d60048036038101906101789190610c78565b6105dc565b005b34801561018b57600080fd5b50610194610682565b6040516101a19190610ce6565b60405180910390f35b3480156101b657600080fd5b506101bf6106a8565b6040516101cc91906107ff565b60405180910390f35b60035481565b6000600560003373ffffffffffffffffffffffffffffffffffffffff1673ffffffffffffffffffffffffffffffffffffffff16815260200190815260200160002054905060008111156102b5573373ffffffffffffffffffffffffffffffffffffffff166108fc829081150290604051600060405180830381858888f1935050505015801561026e573d6000803e3d6000fd5b506000600560003373ffffffffffffffffffffffffffffffffffffffff1673ffffffffffffffffffffffffffffffffffffffff168152602001908152602001600020819055505b50565b600460149054906101000a900460ff1681565b60005481565b6000544281116102e057600080fd5b6001544281106102ef57600080fd5b6000600660003373ffffffffffffffffffffffffffffffffffffffff1673ffffffffffffffffffffffffffffffffffffffff1681526020019081526020016000208054905090508086511461034357600080fd5b8085511461035057600080fd5b8084511461035d57600080fd5b6000805b828110156104d9576000600660003373ffffffffffffffffffffffffffffffffffffffff1673ffffffffffffffffffffffffffffffffffffffff16815260200190815260200160002082815481106103bc576103bb610d01565b5b9060005260206000209060020201905060008060008b85815181106103e4576103e3610d01565b5b60200260200101518b86815181106103ff576103fe610d01565b5b60200260200101518b878151811061041a57610419610d01565b5b6020026020010151925092509250600083838360405160200161043f93929190610dba565b6040516020818303038152906040529050808051906020012085600101541461046c5750505050506104c6565b84600001548761047c9190610e26565b965082158015610490575083856000015410155b156104b45761049f84336106ae565b156104b35783876104b09190610e7c565b96505b5b6000801b856001018190555050505050505b80806104d190610eb0565b915050610361565b503373ffffffffffffffffffffffffffffffffffffffff166108fc829081150290604051600060405180830381858888f19350505050158015610520573d6000803e3d6000fd5b5050505050505050565b60015442811161053957600080fd5b600460149054906101000a900460ff161561055357600080fd5b6001600460146101000a81548160ff021916908315150217905550600460009054906101000a900473ffffffffffffffffffffffffffffffffffffffff1673ffffffffffffffffffffffffffffffffffffffff166108fc6003549081150290604051600060405180830381858888f193505050501580156105d8573d6000803e3d6000fd5b5050565b6000544281106105eb57600080fd5b600660003373ffffffffffffffffffffffffffffffffffffffff1673ffffffffffffffffffffffffffffffffffffffff1681526020019081526020016000206040518060400160405280348152602001848152509080600181540180825580915050600190039060005260206000209060020201600090919091909150600082015181600001556020820151816001015550505050565b600460009054906101000a900473ffffffffffffffffffffffffffffffffffffffff1681565b60015481565b600060035483116106c257600090506107e0565b600073ffffffffffffffffffffffffffffffffffffffff16600460009054906101000a900473ffffffffffffffffffffffffffffffffffffffff1673ffffffffffffffffffffffffffffffffffffffff16146107935760035460056000600460009054906101000a900473ffffffffffffffffffffffffffffffffffffffff1673ffffffffffffffffffffffffffffffffffffffff1673ffffffffffffffffffffffffffffffffffffffff168152602001908152602001600020600082825461078b9190610e26565b925050819055505b81600460006101000a81548173ffffffffffffffffffffffffffffffffffffffff021916908373ffffffffffffffffffffffffffffffffffffffff16021790555082600381905550600190505b92915050565b6000819050919050565b6107f9816107e6565b82525050565b600060208201905061081460008301846107f0565b92915050565b60008115159050919050565b61082f8161081a565b82525050565b600060208201905061084a6000830184610826565b92915050565b6000604051905090565b600080fd5b600080fd5b600080fd5b6000601f19601f8301169050919050565b7f4e487b7100000000000000000000000000000000000000000000000000000000600052604160045260246000fd5b6108b282610869565b810181811067ffffffffffffffff821117156108d1576108d061087a565b5b80604052505050565b60006108e4610850565b90506108f082826108a9565b919050565b600067ffffffffffffffff8211156109105761090f61087a565b5b602082029050602081019050919050565b600080fd5b61092f816107e6565b811461093a57600080fd5b50565b60008135905061094c81610926565b92915050565b6000610965610960846108f5565b6108da565b9050808382526020820190506020840283018581111561098857610987610921565b5b835b818110156109b1578061099d888261093d565b84526020840193505060208101905061098a565b5050509392505050565b600082601f8301126109d0576109cf610864565b5b81356109e0848260208601610952565b91505092915050565b600067ffffffffffffffff821115610a0457610a0361087a565b5b602082029050602081019050919050565b610a1e8161081a565b8114610a2957600080fd5b50565b600081359050610a3b81610a15565b92915050565b6000610a54610a4f846109e9565b6108da565b90508083825260208201905060208402830185811115610a7757610a76610921565b5b835b81811015610aa05780610a8c8882610a2c565b845260208401935050602081019050610a79565b5050509392505050565b600082601f830112610abf57610abe610864565b5b8135610acf848260208601610a41565b91505092915050565b600067ffffffffffffffff821115610af357610af261087a565b5b602082029050602081019050919050565b6000819050919050565b610b1781610b04565b8114610b2257600080fd5b50565b600081359050610b3481610b0e565b92915050565b6000610b4d610b4884610ad8565b6108da565b90508083825260208201905060208402830185811115610b7057610b6f610921565b5b835b81811015610b995780610b858882610b25565b845260208401935050602081019050610b72565b5050509392505050565b600082601f830112610bb857610bb7610864565b5b8135610bc8848260208601610b3a565b91505092915050565b600080600060608486031215610bea57610be961085a565b5b600084013567ffffffffffffffff811115610c0857610c0761085f565b5b610c14868287016109bb565b935050602084013567ffffffffffffffff811115610c3557610c3461085f565b5b610c4186828701610aaa565b925050604084013567ffffffffffffffff811115610c6257610c6161085f565b5b610c6e86828701610ba3565b9150509250925092565b600060208284031215610c8e57610c8d61085a565b5b6000610c9c84828501610b25565b91505092915050565b600073ffffffffffffffffffffffffffffffffffffffff82169050919050565b6000610cd082610ca5565b9050919050565b610ce081610cc5565b82525050565b6000602082019050610cfb6000830184610cd7565b92915050565b7f4e487b7100000000000000000000000000000000000000000000000000000000600052603260045260246000fd5b6000819050919050565b610d4b610d46826107e6565b610d30565b82525050565b60008160f81b9050919050565b6000610d6982610d51565b9050919050565b6000610d7b82610d5e565b9050919050565b610d93610d8e8261081a565b610d70565b82525050565b6000819050919050565b610db4610daf82610b04565b610d99565b82525050565b6000610dc68286610d3a565b602082019150610dd68285610d82565b600182019150610de68284610da3565b602082019150819050949350505050565b7f4e487b7100000000000000000000000000000000000000000000000000000000600052601160045260246000fd5b6000610e31826107e6565b9150610e3c836107e6565b9250827fffffffffffffffffffffffffffffffffffffffffffffffffffffffffffffffff03821115610e7157610e70610df7565b5b828201905092915050565b6000610e87826107e6565b9150610e92836107e6565b925082821015610ea557610ea4610df7565b5b828203905092915050565b6000610ebb826107e6565b91507fffffffffffffffffffffffffffffffffffffffffffffffffffffffffffffffff8203610eed57610eec610df7565b5b60018201905091905056fea2646970667358221220024b1d16368cae1f93d092e99798743ed1d2c1b48529c9f4d3a9718ba3b1002464736f6c634300080d0033",
					"opcodes": "PUSH1 0x80 PUSH1 0x40 MSTORE CALLVALUE DUP1 ISZERO PUSH3 0x11 JUMPI PUSH1 0x0 DUP1 REVERT JUMPDEST POP PUSH1 0x40 MLOAD PUSH3 0x1176 CODESIZE SUB DUP1 PUSH3 0x1176 DUP4 CODECOPY DUP2 DUP2 ADD PUSH1 0x40 MSTORE DUP2 ADD SWAP1 PUSH3 0x37 SWAP2 SWAP1 PUSH3 0x150 JUMP JUMPDEST DUP3 PUSH1 0x2 PUSH1 0x0 PUSH2 0x100 EXP DUP2 SLOAD DUP2 PUSH20 0xFFFFFFFFFFFFFFFFFFFFFFFFFFFFFFFFFFFFFFFF MUL NOT AND SWAP1 DUP4 PUSH20 0xFFFFFFFFFFFFFFFFFFFFFFFFFFFFFFFFFFFFFFFF AND MUL OR SWAP1 SSTORE POP DUP2 TIMESTAMP PUSH3 0x86 SWAP2 SWAP1 PUSH3 0x1DB JUMP JUMPDEST PUSH1 0x0 DUP2 SWAP1 SSTORE POP DUP1 PUSH1 0x0 SLOAD PUSH3 0x9C SWAP2 SWAP1 PUSH3 0x1DB JUMP JUMPDEST PUSH1 0x1 DUP2 SWAP1 SSTORE POP POP POP POP PUSH3 0x238 JUMP JUMPDEST PUSH1 0x0 DUP1 REVERT JUMPDEST PUSH1 0x0 PUSH20 0xFFFFFFFFFFFFFFFFFFFFFFFFFFFFFFFFFFFFFFFF DUP3 AND SWAP1 POP SWAP2 SWAP1 POP JUMP JUMPDEST PUSH1 0x0 PUSH3 0xDD DUP3 PUSH3 0xB0 JUMP JUMPDEST SWAP1 POP SWAP2 SWAP1 POP JUMP JUMPDEST PUSH3 0xEF DUP2 PUSH3 0xD0 JUMP JUMPDEST DUP2 EQ PUSH3 0xFB JUMPI PUSH1 0x0 DUP1 REVERT JUMPDEST POP JUMP JUMPDEST PUSH1 0x0 DUP2 MLOAD SWAP1 POP PUSH3 0x10F DUP2 PUSH3 0xE4 JUMP JUMPDEST SWAP3 SWAP2 POP POP JUMP JUMPDEST PUSH1 0x0 DUP2 SWAP1 POP SWAP2 SWAP1 POP JUMP JUMPDEST PUSH3 0x12A DUP2 PUSH3 0x115 JUMP JUMPDEST DUP2 EQ PUSH3 0x136 JUMPI PUSH1 0x0 DUP1 REVERT JUMPDEST POP JUMP JUMPDEST PUSH1 0x0 DUP2 MLOAD SWAP1 POP PUSH3 0x14A DUP2 PUSH3 0x11F JUMP JUMPDEST SWAP3 SWAP2 POP POP JUMP JUMPDEST PUSH1 0x0 DUP1 PUSH1 0x0 PUSH1 0x60 DUP5 DUP7 SUB SLT ISZERO PUSH3 0x16C JUMPI PUSH3 0x16B PUSH3 0xAB JUMP JUMPDEST JUMPDEST PUSH1 0x0 PUSH3 0x17C DUP7 DUP3 DUP8 ADD PUSH3 0xFE JUMP JUMPDEST SWAP4 POP POP PUSH1 0x20 PUSH3 0x18F DUP7 DUP3 DUP8 ADD PUSH3 0x139 JUMP JUMPDEST SWAP3 POP POP PUSH1 0x40 PUSH3 0x1A2 DUP7 DUP3 DUP8 ADD PUSH3 0x139 JUMP JUMPDEST SWAP2 POP POP SWAP3 POP SWAP3 POP SWAP3 JUMP JUMPDEST PUSH32 0x4E487B7100000000000000000000000000000000000000000000000000000000 PUSH1 0x0 MSTORE PUSH1 0x11 PUSH1 0x4 MSTORE PUSH1 0x24 PUSH1 0x0 REVERT JUMPDEST PUSH1 0x0 PUSH3 0x1E8 DUP3 PUSH3 0x115 JUMP JUMPDEST SWAP2 POP PUSH3 0x1F5 DUP4 PUSH3 0x115 JUMP JUMPDEST SWAP3 POP DUP3 PUSH32 0xFFFFFFFFFFFFFFFFFFFFFFFFFFFFFFFFFFFFFFFFFFFFFFFFFFFFFFFFFFFFFFFF SUB DUP3 GT ISZERO PUSH3 0x22D JUMPI PUSH3 0x22C PUSH3 0x1AC JUMP JUMPDEST JUMPDEST DUP3 DUP3 ADD SWAP1 POP SWAP3 SWAP2 POP POP JUMP JUMPDEST PUSH2 0xF2E DUP1 PUSH3 0x248 PUSH1 0x0 CODECOPY PUSH1 0x0 RETURN INVALID PUSH1 0x80 PUSH1 0x40 MSTORE PUSH1 0x4 CALLDATASIZE LT PUSH2 0x86 JUMPI PUSH1 0x0 CALLDATALOAD PUSH1 0xE0 SHR DUP1 PUSH4 0x381D9787 GT PUSH2 0x59 JUMPI DUP1 PUSH4 0x381D9787 EQ PUSH2 0x123 JUMPI DUP1 PUSH4 0x8B8EBCBC EQ PUSH2 0x14C JUMPI DUP1 PUSH4 0x957BB1E0 EQ PUSH2 0x163 JUMPI DUP1 PUSH4 0xC0680113 EQ PUSH2 0x17F JUMPI DUP1 PUSH4 0xFE7FC8FD EQ PUSH2 0x1AA JUMPI PUSH2 0x86 JUMP JUMPDEST DUP1 PUSH4 0xE8670E0 EQ PUSH2 0x8B JUMPI DUP1 PUSH4 0xFDB1C10 EQ PUSH2 0xB6 JUMPI DUP1 PUSH4 0x12FA6FEB EQ PUSH2 0xCD JUMPI DUP1 PUSH4 0x2A24F46C EQ PUSH2 0xF8 JUMPI JUMPDEST PUSH1 0x0 DUP1 REVERT JUMPDEST CALLVALUE DUP1 ISZERO PUSH2 0x97 JUMPI PUSH1 0x0 DUP1 REVERT JUMPDEST POP PUSH2 0xA0 PUSH2 0x1D5 JUMP JUMPDEST PUSH1 0x40 MLOAD PUSH2 0xAD SWAP2 SWAP1 PUSH2 0x7FF JUMP JUMPDEST PUSH1 0x40 MLOAD DUP1 SWAP2 SUB SWAP1 RETURN JUMPDEST CALLVALUE DUP1 ISZERO PUSH2 0xC2 JUMPI PUSH1 0x0 DUP1 REVERT JUMPDEST POP PUSH2 0xCB PUSH2 0x1DB JUMP JUMPDEST STOP JUMPDEST CALLVALUE DUP1 ISZERO PUSH2 0xD9 JUMPI PUSH1 0x0 DUP1 REVERT JUMPDEST POP PUSH2 0xE2 PUSH2 0x2B8 JUMP JUMPDEST PUSH1 0x40 MLOAD PUSH2 0xEF SWAP2 SWAP1 PUSH2 0x835 JUMP JUMPDEST PUSH1 0x40 MLOAD DUP1 SWAP2 SUB SWAP1 RETURN JUMPDEST CALLVALUE DUP1 ISZERO PUSH2 0x104 JUMPI PUSH1 0x0 DUP1 REVERT JUMPDEST POP PUSH2 0x10D PUSH2 0x2CB JUMP JUMPDEST PUSH1 0x40 MLOAD PUSH2 0x11A SWAP2 SWAP1 PUSH2 0x7FF JUMP JUMPDEST PUSH1 0x40 MLOAD DUP1 SWAP2 SUB SWAP1 RETURN JUMPDEST CALLVALUE DUP1 ISZERO PUSH2 0x12F JUMPI PUSH1 0x0 DUP1 REVERT JUMPDEST POP PUSH2 0x14A PUSH1 0x4 DUP1 CALLDATASIZE SUB DUP2 ADD SWAP1 PUSH2 0x145 SWAP2 SWAP1 PUSH2 0xBD1 JUMP JUMPDEST PUSH2 0x2D1 JUMP JUMPDEST STOP JUMPDEST CALLVALUE DUP1 ISZERO PUSH2 0x158 JUMPI PUSH1 0x0 DUP1 REVERT JUMPDEST POP PUSH2 0x161 PUSH2 0x52A JUMP JUMPDEST STOP JUMPDEST PUSH2 0x17D PUSH1 0x4 DUP1 CALLDATASIZE SUB DUP2 ADD SWAP1 PUSH2 0x178 SWAP2 SWAP1 PUSH2 0xC78 JUMP JUMPDEST PUSH2 0x5DC JUMP JUMPDEST STOP JUMPDEST CALLVALUE DUP1 ISZERO PUSH2 0x18B JUMPI PUSH1 0x0 DUP1 REVERT JUMPDEST POP PUSH2 0x194 PUSH2 0x682 JUMP JUMPDEST PUSH1 0x40 MLOAD PUSH2 0x1A1 SWAP2 SWAP1 PUSH2 0xCE6 JUMP JUMPDEST PUSH1 0x40 MLOAD DUP1 SWAP2 SUB SWAP1 RETURN JUMPDEST CALLVALUE DUP1 ISZERO PUSH2 0x1B6 JUMPI PUSH1 0x0 DUP1 REVERT JUMPDEST POP PUSH2 0x1BF PUSH2 0x6A8 JUMP JUMPDEST PUSH1 0x40 MLOAD PUSH2 0x1CC SWAP2 SWAP1 PUSH2 0x7FF JUMP JUMPDEST PUSH1 0x40 MLOAD DUP1 SWAP2 SUB SWAP1 RETURN JUMPDEST PUSH1 0x3 SLOAD DUP2 JUMP JUMPDEST PUSH1 0x0 PUSH1 0x5 PUSH1 0x0 CALLER PUSH20 0xFFFFFFFFFFFFFFFFFFFFFFFFFFFFFFFFFFFFFFFF AND PUSH20 0xFFFFFFFFFFFFFFFFFFFFFFFFFFFFFFFFFFFFFFFF AND DUP2 MSTORE PUSH1 0x20 ADD SWAP1 DUP2 MSTORE PUSH1 0x20 ADD PUSH1 0x0 KECCAK256 SLOAD SWAP1 POP PUSH1 0x0 DUP2 GT ISZERO PUSH2 0x2B5 JUMPI CALLER PUSH20 0xFFFFFFFFFFFFFFFFFFFFFFFFFFFFFFFFFFFFFFFF AND PUSH2 0x8FC DUP3 SWAP1 DUP2 ISZERO MUL SWAP1 PUSH1 0x40 MLOAD PUSH1 0x0 PUSH1 0x40 MLOAD DUP1 DUP4 SUB DUP2 DUP6 DUP9 DUP9 CALL SWAP4 POP POP POP POP ISZERO DUP1 ISZERO PUSH2 0x26E JUMPI RETURNDATASIZE PUSH1 0x0 DUP1 RETURNDATACOPY RETURNDATASIZE PUSH1 0x0 REVERT JUMPDEST POP PUSH1 0x0 PUSH1 0x5 PUSH1 0x0 CALLER PUSH20 0xFFFFFFFFFFFFFFFFFFFFFFFFFFFFFFFFFFFFFFFF AND PUSH20 0xFFFFFFFFFFFFFFFFFFFFFFFFFFFFFFFFFFFFFFFF AND DUP2 MSTORE PUSH1 0x20 ADD SWAP1 DUP2 MSTORE PUSH1 0x20 ADD PUSH1 0x0 KECCAK256 DUP2 SWAP1 SSTORE POP JUMPDEST POP JUMP JUMPDEST PUSH1 0x4 PUSH1 0x14 SWAP1 SLOAD SWAP1 PUSH2 0x100 EXP SWAP1 DIV PUSH1 0xFF AND DUP2 JUMP JUMPDEST PUSH1 0x0 SLOAD DUP2 JUMP JUMPDEST PUSH1 0x0 SLOAD TIMESTAMP DUP2 GT PUSH2 0x2E0 JUMPI PUSH1 0x0 DUP1 REVERT JUMPDEST PUSH1 0x1 SLOAD TIMESTAMP DUP2 LT PUSH2 0x2EF JUMPI PUSH1 0x0 DUP1 REVERT JUMPDEST PUSH1 0x0 PUSH1 0x6 PUSH1 0x0 CALLER PUSH20 0xFFFFFFFFFFFFFFFFFFFFFFFFFFFFFFFFFFFFFFFF AND PUSH20 0xFFFFFFFFFFFFFFFFFFFFFFFFFFFFFFFFFFFFFFFF AND DUP2 MSTORE PUSH1 0x20 ADD SWAP1 DUP2 MSTORE PUSH1 0x20 ADD PUSH1 0x0 KECCAK256 DUP1 SLOAD SWAP1 POP SWAP1 POP DUP1 DUP7 MLOAD EQ PUSH2 0x343 JUMPI PUSH1 0x0 DUP1 REVERT JUMPDEST DUP1 DUP6 MLOAD EQ PUSH2 0x350 JUMPI PUSH1 0x0 DUP1 REVERT JUMPDEST DUP1 DUP5 MLOAD EQ PUSH2 0x35D JUMPI PUSH1 0x0 DUP1 REVERT JUMPDEST PUSH1 0x0 DUP1 JUMPDEST DUP3 DUP2 LT ISZERO PUSH2 0x4D9 JUMPI PUSH1 0x0 PUSH1 0x6 PUSH1 0x0 CALLER PUSH20 0xFFFFFFFFFFFFFFFFFFFFFFFFFFFFFFFFFFFFFFFF AND PUSH20 0xFFFFFFFFFFFFFFFFFFFFFFFFFFFFFFFFFFFFFFFF AND DUP2 MSTORE PUSH1 0x20 ADD SWAP1 DUP2 MSTORE PUSH1 0x20 ADD PUSH1 0x0 KECCAK256 DUP3 DUP2 SLOAD DUP2 LT PUSH2 0x3BC JUMPI PUSH2 0x3BB PUSH2 0xD01 JUMP JUMPDEST JUMPDEST SWAP1 PUSH1 0x0 MSTORE PUSH1 0x20 PUSH1 0x0 KECCAK256 SWAP1 PUSH1 0x2 MUL ADD SWAP1 POP PUSH1 0x0 DUP1 PUSH1 0x0 DUP12 DUP6 DUP2 MLOAD DUP2 LT PUSH2 0x3E4 JUMPI PUSH2 0x3E3 PUSH2 0xD01 JUMP JUMPDEST JUMPDEST PUSH1 0x20 MUL PUSH1 0x20 ADD ADD MLOAD DUP12 DUP7 DUP2 MLOAD DUP2 LT PUSH2 0x3FF JUMPI PUSH2 0x3FE PUSH2 0xD01 JUMP JUMPDEST JUMPDEST PUSH1 0x20 MUL PUSH1 0x20 ADD ADD MLOAD DUP12 DUP8 DUP2 MLOAD DUP2 LT PUSH2 0x41A JUMPI PUSH2 0x419 PUSH2 0xD01 JUMP JUMPDEST JUMPDEST PUSH1 0x20 MUL PUSH1 0x20 ADD ADD MLOAD SWAP3 POP SWAP3 POP SWAP3 POP PUSH1 0x0 DUP4 DUP4 DUP4 PUSH1 0x40 MLOAD PUSH1 0x20 ADD PUSH2 0x43F SWAP4 SWAP3 SWAP2 SWAP1 PUSH2 0xDBA JUMP JUMPDEST PUSH1 0x40 MLOAD PUSH1 0x20 DUP2 DUP4 SUB SUB DUP2 MSTORE SWAP1 PUSH1 0x40 MSTORE SWAP1 POP DUP1 DUP1 MLOAD SWAP1 PUSH1 0x20 ADD KECCAK256 DUP6 PUSH1 0x1 ADD SLOAD EQ PUSH2 0x46C JUMPI POP POP POP POP POP PUSH2 0x4C6 JUMP JUMPDEST DUP5 PUSH1 0x0 ADD SLOAD DUP8 PUSH2 0x47C SWAP2 SWAP1 PUSH2 0xE26 JUMP JUMPDEST SWAP7 POP DUP3 ISZERO DUP1 ISZERO PUSH2 0x490 JUMPI POP DUP4 DUP6 PUSH1 0x0 ADD SLOAD LT ISZERO JUMPDEST ISZERO PUSH2 0x4B4 JUMPI PUSH2 0x49F DUP5 CALLER PUSH2 0x6AE JUMP JUMPDEST ISZERO PUSH2 0x4B3 JUMPI DUP4 DUP8 PUSH2 0x4B0 SWAP2 SWAP1 PUSH2 0xE7C JUMP JUMPDEST SWAP7 POP JUMPDEST JUMPDEST PUSH1 0x0 DUP1 SHL DUP6 PUSH1 0x1 ADD DUP2 SWAP1 SSTORE POP POP POP POP POP POP JUMPDEST DUP1 DUP1 PUSH2 0x4D1 SWAP1 PUSH2 0xEB0 JUMP JUMPDEST SWAP2 POP POP PUSH2 0x361 JUMP JUMPDEST POP CALLER PUSH20 0xFFFFFFFFFFFFFFFFFFFFFFFFFFFFFFFFFFFFFFFF AND PUSH2 0x8FC DUP3 SWAP1 DUP2 ISZERO MUL SWAP1 PUSH1 0x40 MLOAD PUSH1 0x0 PUSH1 0x40 MLOAD DUP1 DUP4 SUB DUP2 DUP6 DUP9 DUP9 CALL SWAP4 POP POP POP POP ISZERO DUP1 ISZERO PUSH2 0x520 JUMPI RETURNDATASIZE PUSH1 0x0 DUP1 RETURNDATACOPY RETURNDATASIZE PUSH1 0x0 REVERT JUMPDEST POP POP POP POP POP POP POP POP JUMP JUMPDEST PUSH1 0x1 SLOAD TIMESTAMP DUP2 GT PUSH2 0x539 JUMPI PUSH1 0x0 DUP1 REVERT JUMPDEST PUSH1 0x4 PUSH1 0x14 SWAP1 SLOAD SWAP1 PUSH2 0x100 EXP SWAP1 DIV PUSH1 0xFF AND ISZERO PUSH2 0x553 JUMPI PUSH1 0x0 DUP1 REVERT JUMPDEST PUSH1 0x1 PUSH1 0x4 PUSH1 0x14 PUSH2 0x100 EXP DUP2 SLOAD DUP2 PUSH1 0xFF MUL NOT AND SWAP1 DUP4 ISZERO ISZERO MUL OR SWAP1 SSTORE POP PUSH1 0x4 PUSH1 0x0 SWAP1 SLOAD SWAP1 PUSH2 0x100 EXP SWAP1 DIV PUSH20 0xFFFFFFFFFFFFFFFFFFFFFFFFFFFFFFFFFFFFFFFF AND PUSH20 0xFFFFFFFFFFFFFFFFFFFFFFFFFFFFFFFFFFFFFFFF AND PUSH2 0x8FC PUSH1 0x3 SLOAD SWAP1 DUP2 ISZERO MUL SWAP1 PUSH1 0x40 MLOAD PUSH1 0x0 PUSH1 0x40 MLOAD DUP1 DUP4 SUB DUP2 DUP6 DUP9 DUP9 CALL SWAP4 POP POP POP POP ISZERO DUP1 ISZERO PUSH2 0x5D8 JUMPI RETURNDATASIZE PUSH1 0x0 DUP1 RETURNDATACOPY RETURNDATASIZE PUSH1 0x0 REVERT JUMPDEST POP POP JUMP JUMPDEST PUSH1 0x0 SLOAD TIMESTAMP DUP2 LT PUSH2 0x5EB JUMPI PUSH1 0x0 DUP1 REVERT JUMPDEST PUSH1 0x6 PUSH1 0x0 CALLER PUSH20 0xFFFFFFFFFFFFFFFFFFFFFFFFFFFFFFFFFFFFFFFF AND PUSH20 0xFFFFFFFFFFFFFFFFFFFFFFFFFFFFFFFFFFFFFFFF AND DUP2 MSTORE PUSH1 0x20 ADD SWAP1 DUP2 MSTORE PUSH1 0x20 ADD PUSH1 0x0 KECCAK256 PUSH1 0x40 MLOAD DUP1 PUSH1 0x40 ADD PUSH1 0x40 MSTORE DUP1 CALLVALUE DUP2 MSTORE PUSH1 0x20 ADD DUP5 DUP2 MSTORE POP SWAP1 DUP1 PUSH1 0x1 DUP2 SLOAD ADD DUP1 DUP3 SSTORE DUP1 SWAP2 POP POP PUSH1 0x1 SWAP1 SUB SWAP1 PUSH1 0x0 MSTORE PUSH1 0x20 PUSH1 0x0 KECCAK256 SWAP1 PUSH1 0x2 MUL ADD PUSH1 0x0 SWAP1 SWAP2 SWAP1 SWAP2 SWAP1 SWAP2 POP PUSH1 0x0 DUP3 ADD MLOAD DUP2 PUSH1 0x0 ADD SSTORE PUSH1 0x20 DUP3 ADD MLOAD DUP2 PUSH1 0x1 ADD SSTORE POP POP POP POP JUMP JUMPDEST PUSH1 0x4 PUSH1 0x0 SWAP1 SLOAD SWAP1 PUSH2 0x100 EXP SWAP1 DIV PUSH20 0xFFFFFFFFFFFFFFFFFFFFFFFFFFFFFFFFFFFFFFFF AND DUP2 JUMP JUMPDEST PUSH1 0x1 SLOAD DUP2 JUMP JUMPDEST PUSH1 0x0 PUSH1 0x3 SLOAD DUP4 GT PUSH2 0x6C2 JUMPI PUSH1 0x0 SWAP1 POP PUSH2 0x7E0 JUMP JUMPDEST PUSH1 0x0 PUSH20 0xFFFFFFFFFFFFFFFFFFFFFFFFFFFFFFFFFFFFFFFF AND PUSH1 0x4 PUSH1 0x0 SWAP1 SLOAD SWAP1 PUSH2 0x100 EXP SWAP1 DIV PUSH20 0xFFFFFFFFFFFFFFFFFFFFFFFFFFFFFFFFFFFFFFFF AND PUSH20 0xFFFFFFFFFFFFFFFFFFFFFFFFFFFFFFFFFFFFFFFF AND EQ PUSH2 0x793 JUMPI PUSH1 0x3 SLOAD PUSH1 0x5 PUSH1 0x0 PUSH1 0x4 PUSH1 0x0 SWAP1 SLOAD SWAP1 PUSH2 0x100 EXP SWAP1 DIV PUSH20 0xFFFFFFFFFFFFFFFFFFFFFFFFFFFFFFFFFFFFFFFF AND PUSH20 0xFFFFFFFFFFFFFFFFFFFFFFFFFFFFFFFFFFFFFFFF AND PUSH20 0xFFFFFFFFFFFFFFFFFFFFFFFFFFFFFFFFFFFFFFFF AND DUP2 MSTORE PUSH1 0x20 ADD SWAP1 DUP2 MSTORE PUSH1 0x20 ADD PUSH1 0x0 KECCAK256 PUSH1 0x0 DUP3 DUP3 SLOAD PUSH2 0x78B SWAP2 SWAP1 PUSH2 0xE26 JUMP JUMPDEST SWAP3 POP POP DUP2 SWAP1 SSTORE POP JUMPDEST DUP2 PUSH1 0x4 PUSH1 0x0 PUSH2 0x100 EXP DUP2 SLOAD DUP2 PUSH20 0xFFFFFFFFFFFFFFFFFFFFFFFFFFFFFFFFFFFFFFFF MUL NOT AND SWAP1 DUP4 PUSH20 0xFFFFFFFFFFFFFFFFFFFFFFFFFFFFFFFFFFFFFFFF AND MUL OR SWAP1 SSTORE POP DUP3 PUSH1 0x3 DUP2 SWAP1 SSTORE POP PUSH1 0x1 SWAP1 POP JUMPDEST SWAP3 SWAP2 POP POP JUMP JUMPDEST PUSH1 0x0 DUP2 SWAP1 POP SWAP2 SWAP1 POP JUMP JUMPDEST PUSH2 0x7F9 DUP2 PUSH2 0x7E6 JUMP JUMPDEST DUP3 MSTORE POP POP JUMP JUMPDEST PUSH1 0x0 PUSH1 0x20 DUP3 ADD SWAP1 POP PUSH2 0x814 PUSH1 0x0 DUP4 ADD DUP5 PUSH2 0x7F0 JUMP JUMPDEST SWAP3 SWAP2 POP POP JUMP JUMPDEST PUSH1 0x0 DUP2 ISZERO ISZERO SWAP1 POP SWAP2 SWAP1 POP JUMP JUMPDEST PUSH2 0x82F DUP2 PUSH2 0x81A JUMP JUMPDEST DUP3 MSTORE POP POP JUMP JUMPDEST PUSH1 0x0 PUSH1 0x20 DUP3 ADD SWAP1 POP PUSH2 0x84A PUSH1 0x0 DUP4 ADD DUP5 PUSH2 0x826 JUMP JUMPDEST SWAP3 SWAP2 POP POP JUMP JUMPDEST PUSH1 0x0 PUSH1 0x40 MLOAD SWAP1 POP SWAP1 JUMP JUMPDEST PUSH1 0x0 DUP1 REVERT JUMPDEST PUSH1 0x0 DUP1 REVERT JUMPDEST PUSH1 0x0 DUP1 REVERT JUMPDEST PUSH1 0x0 PUSH1 0x1F NOT PUSH1 0x1F DUP4 ADD AND SWAP1 POP SWAP2 SWAP1 POP JUMP JUMPDEST PUSH32 0x4E487B7100000000000000000000000000000000000000000000000000000000 PUSH1 0x0 MSTORE PUSH1 0x41 PUSH1 0x4 MSTORE PUSH1 0x24 PUSH1 0x0 REVERT JUMPDEST PUSH2 0x8B2 DUP3 PUSH2 0x869 JUMP JUMPDEST DUP2 ADD DUP2 DUP2 LT PUSH8 0xFFFFFFFFFFFFFFFF DUP3 GT OR ISZERO PUSH2 0x8D1 JUMPI PUSH2 0x8D0 PUSH2 0x87A JUMP JUMPDEST JUMPDEST DUP1 PUSH1 0x40 MSTORE POP POP POP JUMP JUMPDEST PUSH1 0x0 PUSH2 0x8E4 PUSH2 0x850 JUMP JUMPDEST SWAP1 POP PUSH2 0x8F0 DUP3 DUP3 PUSH2 0x8A9 JUMP JUMPDEST SWAP2 SWAP1 POP JUMP JUMPDEST PUSH1 0x0 PUSH8 0xFFFFFFFFFFFFFFFF DUP3 GT ISZERO PUSH2 0x910 JUMPI PUSH2 0x90F PUSH2 0x87A JUMP JUMPDEST JUMPDEST PUSH1 0x20 DUP3 MUL SWAP1 POP PUSH1 0x20 DUP2 ADD SWAP1 POP SWAP2 SWAP1 POP JUMP JUMPDEST PUSH1 0x0 DUP1 REVERT JUMPDEST PUSH2 0x92F DUP2 PUSH2 0x7E6 JUMP JUMPDEST DUP2 EQ PUSH2 0x93A JUMPI PUSH1 0x0 DUP1 REVERT JUMPDEST POP JUMP JUMPDEST PUSH1 0x0 DUP2 CALLDATALOAD SWAP1 POP PUSH2 0x94C DUP2 PUSH2 0x926 JUMP JUMPDEST SWAP3 SWAP2 POP POP JUMP JUMPDEST PUSH1 0x0 PUSH2 0x965 PUSH2 0x960 DUP5 PUSH2 0x8F5 JUMP JUMPDEST PUSH2 0x8DA JUMP JUMPDEST SWAP1 POP DUP1 DUP4 DUP3 MSTORE PUSH1 0x20 DUP3 ADD SWAP1 POP PUSH1 0x20 DUP5 MUL DUP4 ADD DUP6 DUP2 GT ISZERO PUSH2 0x988 JUMPI PUSH2 0x987 PUSH2 0x921 JUMP JUMPDEST JUMPDEST DUP4 JUMPDEST DUP2 DUP2 LT ISZERO PUSH2 0x9B1 JUMPI DUP1 PUSH2 0x99D DUP9 DUP3 PUSH2 0x93D JUMP JUMPDEST DUP5 MSTORE PUSH1 0x20 DUP5 ADD SWAP4 POP POP PUSH1 0x20 DUP2 ADD SWAP1 POP PUSH2 0x98A JUMP JUMPDEST POP POP POP SWAP4 SWAP3 POP POP POP JUMP JUMPDEST PUSH1 0x0 DUP3 PUSH1 0x1F DUP4 ADD SLT PUSH2 0x9D0 JUMPI PUSH2 0x9CF PUSH2 0x864 JUMP JUMPDEST JUMPDEST DUP2 CALLDATALOAD PUSH2 0x9E0 DUP5 DUP3 PUSH1 0x20 DUP7 ADD PUSH2 0x952 JUMP JUMPDEST SWAP2 POP POP SWAP3 SWAP2 POP POP JUMP JUMPDEST PUSH1 0x0 PUSH8 0xFFFFFFFFFFFFFFFF DUP3 GT ISZERO PUSH2 0xA04 JUMPI PUSH2 0xA03 PUSH2 0x87A JUMP JUMPDEST JUMPDEST PUSH1 0x20 DUP3 MUL SWAP1 POP PUSH1 0x20 DUP2 ADD SWAP1 POP SWAP2 SWAP1 POP JUMP JUMPDEST PUSH2 0xA1E DUP2 PUSH2 0x81A JUMP JUMPDEST DUP2 EQ PUSH2 0xA29 JUMPI PUSH1 0x0 DUP1 REVERT JUMPDEST POP JUMP JUMPDEST PUSH1 0x0 DUP2 CALLDATALOAD SWAP1 POP PUSH2 0xA3B DUP2 PUSH2 0xA15 JUMP JUMPDEST SWAP3 SWAP2 POP POP JUMP JUMPDEST PUSH1 0x0 PUSH2 0xA54 PUSH2 0xA4F DUP5 PUSH2 0x9E9 JUMP JUMPDEST PUSH2 0x8DA JUMP JUMPDEST SWAP1 POP DUP1 DUP4 DUP3 MSTORE PUSH1 0x20 DUP3 ADD SWAP1 POP PUSH1 0x20 DUP5 MUL DUP4 ADD DUP6 DUP2 GT ISZERO PUSH2 0xA77 JUMPI PUSH2 0xA76 PUSH2 0x921 JUMP JUMPDEST JUMPDEST DUP4 JUMPDEST DUP2 DUP2 LT ISZERO PUSH2 0xAA0 JUMPI DUP1 PUSH2 0xA8C DUP9 DUP3 PUSH2 0xA2C JUMP JUMPDEST DUP5 MSTORE PUSH1 0x20 DUP5 ADD SWAP4 POP POP PUSH1 0x20 DUP2 ADD SWAP1 POP PUSH2 0xA79 JUMP JUMPDEST POP POP POP SWAP4 SWAP3 POP POP POP JUMP JUMPDEST PUSH1 0x0 DUP3 PUSH1 0x1F DUP4 ADD SLT PUSH2 0xABF JUMPI PUSH2 0xABE PUSH2 0x864 JUMP JUMPDEST JUMPDEST DUP2 CALLDATALOAD PUSH2 0xACF DUP5 DUP3 PUSH1 0x20 DUP7 ADD PUSH2 0xA41 JUMP JUMPDEST SWAP2 POP POP SWAP3 SWAP2 POP POP JUMP JUMPDEST PUSH1 0x0 PUSH8 0xFFFFFFFFFFFFFFFF DUP3 GT ISZERO PUSH2 0xAF3 JUMPI PUSH2 0xAF2 PUSH2 0x87A JUMP JUMPDEST JUMPDEST PUSH1 0x20 DUP3 MUL SWAP1 POP PUSH1 0x20 DUP2 ADD SWAP1 POP SWAP2 SWAP1 POP JUMP JUMPDEST PUSH1 0x0 DUP2 SWAP1 POP SWAP2 SWAP1 POP JUMP JUMPDEST PUSH2 0xB17 DUP2 PUSH2 0xB04 JUMP JUMPDEST DUP2 EQ PUSH2 0xB22 JUMPI PUSH1 0x0 DUP1 REVERT JUMPDEST POP JUMP JUMPDEST PUSH1 0x0 DUP2 CALLDATALOAD SWAP1 POP PUSH2 0xB34 DUP2 PUSH2 0xB0E JUMP JUMPDEST SWAP3 SWAP2 POP POP JUMP JUMPDEST PUSH1 0x0 PUSH2 0xB4D PUSH2 0xB48 DUP5 PUSH2 0xAD8 JUMP JUMPDEST PUSH2 0x8DA JUMP JUMPDEST SWAP1 POP DUP1 DUP4 DUP3 MSTORE PUSH1 0x20 DUP3 ADD SWAP1 POP PUSH1 0x20 DUP5 MUL DUP4 ADD DUP6 DUP2 GT ISZERO PUSH2 0xB70 JUMPI PUSH2 0xB6F PUSH2 0x921 JUMP JUMPDEST JUMPDEST DUP4 JUMPDEST DUP2 DUP2 LT ISZERO PUSH2 0xB99 JUMPI DUP1 PUSH2 0xB85 DUP9 DUP3 PUSH2 0xB25 JUMP JUMPDEST DUP5 MSTORE PUSH1 0x20 DUP5 ADD SWAP4 POP POP PUSH1 0x20 DUP2 ADD SWAP1 POP PUSH2 0xB72 JUMP JUMPDEST POP POP POP SWAP4 SWAP3 POP POP POP JUMP JUMPDEST PUSH1 0x0 DUP3 PUSH1 0x1F DUP4 ADD SLT PUSH2 0xBB8 JUMPI PUSH2 0xBB7 PUSH2 0x864 JUMP JUMPDEST JUMPDEST DUP2 CALLDATALOAD PUSH2 0xBC8 DUP5 DUP3 PUSH1 0x20 DUP7 ADD PUSH2 0xB3A JUMP JUMPDEST SWAP2 POP POP SWAP3 SWAP2 POP POP JUMP JUMPDEST PUSH1 0x0 DUP1 PUSH1 0x0 PUSH1 0x60 DUP5 DUP7 SUB SLT ISZERO PUSH2 0xBEA JUMPI PUSH2 0xBE9 PUSH2 0x85A JUMP JUMPDEST JUMPDEST PUSH1 0x0 DUP5 ADD CALLDATALOAD PUSH8 0xFFFFFFFFFFFFFFFF DUP2 GT ISZERO PUSH2 0xC08 JUMPI PUSH2 0xC07 PUSH2 0x85F JUMP JUMPDEST JUMPDEST PUSH2 0xC14 DUP7 DUP3 DUP8 ADD PUSH2 0x9BB JUMP JUMPDEST SWAP4 POP POP PUSH1 0x20 DUP5 ADD CALLDATALOAD PUSH8 0xFFFFFFFFFFFFFFFF DUP2 GT ISZERO PUSH2 0xC35 JUMPI PUSH2 0xC34 PUSH2 0x85F JUMP JUMPDEST JUMPDEST PUSH2 0xC41 DUP7 DUP3 DUP8 ADD PUSH2 0xAAA JUMP JUMPDEST SWAP3 POP POP PUSH1 0x40 DUP5 ADD CALLDATALOAD PUSH8 0xFFFFFFFFFFFFFFFF DUP2 GT ISZERO PUSH2 0xC62 JUMPI PUSH2 0xC61 PUSH2 0x85F JUMP JUMPDEST JUMPDEST PUSH2 0xC6E DUP7 DUP3 DUP8 ADD PUSH2 0xBA3 JUMP JUMPDEST SWAP2 POP POP SWAP3 POP SWAP3 POP SWAP3 JUMP JUMPDEST PUSH1 0x0 PUSH1 0x20 DUP3 DUP5 SUB SLT ISZERO PUSH2 0xC8E JUMPI PUSH2 0xC8D PUSH2 0x85A JUMP JUMPDEST JUMPDEST PUSH1 0x0 PUSH2 0xC9C DUP5 DUP3 DUP6 ADD PUSH2 0xB25 JUMP JUMPDEST SWAP2 POP POP SWAP3 SWAP2 POP POP JUMP JUMPDEST PUSH1 0x0 PUSH20 0xFFFFFFFFFFFFFFFFFFFFFFFFFFFFFFFFFFFFFFFF DUP3 AND SWAP1 POP SWAP2 SWAP1 POP JUMP JUMPDEST PUSH1 0x0 PUSH2 0xCD0 DUP3 PUSH2 0xCA5 JUMP JUMPDEST SWAP1 POP SWAP2 SWAP1 POP JUMP JUMPDEST PUSH2 0xCE0 DUP2 PUSH2 0xCC5 JUMP JUMPDEST DUP3 MSTORE POP POP JUMP JUMPDEST PUSH1 0x0 PUSH1 0x20 DUP3 ADD SWAP1 POP PUSH2 0xCFB PUSH1 0x0 DUP4 ADD DUP5 PUSH2 0xCD7 JUMP JUMPDEST SWAP3 SWAP2 POP POP JUMP JUMPDEST PUSH32 0x4E487B7100000000000000000000000000000000000000000000000000000000 PUSH1 0x0 MSTORE PUSH1 0x32 PUSH1 0x4 MSTORE PUSH1 0x24 PUSH1 0x0 REVERT JUMPDEST PUSH1 0x0 DUP2 SWAP1 POP SWAP2 SWAP1 POP JUMP JUMPDEST PUSH2 0xD4B PUSH2 0xD46 DUP3 PUSH2 0x7E6 JUMP JUMPDEST PUSH2 0xD30 JUMP JUMPDEST DUP3 MSTORE POP POP JUMP JUMPDEST PUSH1 0x0 DUP2 PUSH1 0xF8 SHL SWAP1 POP SWAP2 SWAP1 POP JUMP JUMPDEST PUSH1 0x0 PUSH2 0xD69 DUP3 PUSH2 0xD51 JUMP JUMPDEST SWAP1 POP SWAP2 SWAP1 POP JUMP JUMPDEST PUSH1 0x0 PUSH2 0xD7B DUP3 PUSH2 0xD5E JUMP JUMPDEST SWAP1 POP SWAP2 SWAP1 POP JUMP JUMPDEST PUSH2 0xD93 PUSH2 0xD8E DUP3 PUSH2 0x81A JUMP JUMPDEST PUSH2 0xD70 JUMP JUMPDEST DUP3 MSTORE POP POP JUMP JUMPDEST PUSH1 0x0 DUP2 SWAP1 POP SWAP2 SWAP1 POP JUMP JUMPDEST PUSH2 0xDB4 PUSH2 0xDAF DUP3 PUSH2 0xB04 JUMP JUMPDEST PUSH2 0xD99 JUMP JUMPDEST DUP3 MSTORE POP POP JUMP JUMPDEST PUSH1 0x0 PUSH2 0xDC6 DUP3 DUP7 PUSH2 0xD3A JUMP JUMPDEST PUSH1 0x20 DUP3 ADD SWAP2 POP PUSH2 0xDD6 DUP3 DUP6 PUSH2 0xD82 JUMP JUMPDEST PUSH1 0x1 DUP3 ADD SWAP2 POP PUSH2 0xDE6 DUP3 DUP5 PUSH2 0xDA3 JUMP JUMPDEST PUSH1 0x20 DUP3 ADD SWAP2 POP DUP2 SWAP1 POP SWAP5 SWAP4 POP POP POP POP JUMP JUMPDEST PUSH32 0x4E487B7100000000000000000000000000000000000000000000000000000000 PUSH1 0x0 MSTORE PUSH1 0x11 PUSH1 0x4 MSTORE PUSH1 0x24 PUSH1 0x0 REVERT JUMPDEST PUSH1 0x0 PUSH2 0xE31 DUP3 PUSH2 0x7E6 JUMP JUMPDEST SWAP2 POP PUSH2 0xE3C DUP4 PUSH2 0x7E6 JUMP JUMPDEST SWAP3 POP DUP3 PUSH32 0xFFFFFFFFFFFFFFFFFFFFFFFFFFFFFFFFFFFFFFFFFFFFFFFFFFFFFFFFFFFFFFFF SUB DUP3 GT ISZERO PUSH2 0xE71 JUMPI PUSH2 0xE70 PUSH2 0xDF7 JUMP JUMPDEST JUMPDEST DUP3 DUP3 ADD SWAP1 POP SWAP3 SWAP2 POP POP JUMP JUMPDEST PUSH1 0x0 PUSH2 0xE87 DUP3 PUSH2 0x7E6 JUMP JUMPDEST SWAP2 POP PUSH2 0xE92 DUP4 PUSH2 0x7E6 JUMP JUMPDEST SWAP3 POP DUP3 DUP3 LT ISZERO PUSH2 0xEA5 JUMPI PUSH2 0xEA4 PUSH2 0xDF7 JUMP JUMPDEST JUMPDEST DUP3 DUP3 SUB SWAP1 POP SWAP3 SWAP2 POP POP JUMP JUMPDEST PUSH1 0x0 PUSH2 0xEBB DUP3 PUSH2 0x7E6 JUMP JUMPDEST SWAP2 POP PUSH32 0xFFFFFFFFFFFFFFFFFFFFFFFFFFFFFFFFFFFFFFFFFFFFFFFFFFFFFFFFFFFFFFFF DUP3 SUB PUSH2 0xEED JUMPI PUSH2 0xEEC PUSH2 0xDF7 JUMP JUMPDEST JUMPDEST PUSH1 0x1 DUP3 ADD SWAP1 POP SWAP2 SWAP1 POP JUMP INVALID LOG2 PUSH5 0x6970667358 0x22 SLT KECCAK256 MUL 0x4B SAR AND CALLDATASIZE DUP13 0xAE 0x1F SWAP4 0xD0 SWAP3 0xE9 SWAP8 SWAP9 PUSH21 0x3ED1D2C1B48529C9F4D3A9718BA3B1002464736F6C PUSH4 0x4300080D STOP CALLER "
				},
				"gasEstimates": {
					"creation": {
						"codeDepositCost": "777200",
						"executionCost": "infinite",
						"totalCost": "infinite"
					},
					"external": {
						"auctionEnd()": "2496",
						"bid(bytes32)": "71277",
						"disclose(uint256[],bool[],bytes32[])": "infinite",
						"discloseEnd()": "2517",
						"endauction()": "infinite",
						"ended()": "2566",
						"highestPrice()": "2430",
						"highester()": "2580",
						"withDraw()": "infinite"
					},
					"internal": {
						"placeBid(uint256,address)": "infinite"
					}
				},
				"methodIdentifiers": {
					"auctionEnd()": "2a24f46c",
					"bid(bytes32)": "957bb1e0",
					"disclose(uint256[],bool[],bytes32[])": "381d9787",
					"discloseEnd()": "fe7fc8fd",
					"endauction()": "8b8ebcbc",
					"ended()": "12fa6feb",
					"highestPrice()": "0e8670e0",
					"highester()": "c0680113",
					"withDraw()": "0fdb1c10"
				}
			},
			"userdoc": {
				"kind": "user",
				"methods": {},
				"version": 1
			}
		}
	}
}