{
	"contracts/SecretAuctionSystem.sol": {
		"BlindAuction": {
			"abi": [
				{
					"inputs": [
						{
							"internalType": "uint256",
							"name": "_biddingTime",
							"type": "uint256"
						},
						{
							"internalType": "uint256",
							"name": "_revealTime",
							"type": "uint256"
						},
						{
							"internalType": "address payable",
							"name": "_beneficiary",
							"type": "address"
						}
					],
					"stateMutability": "nonpayable",
					"type": "constructor"
				},
				{
					"anonymous": false,
					"inputs": [
						{
							"indexed": false,
							"internalType": "address",
							"name": "winner",
							"type": "address"
						},
						{
							"indexed": false,
							"internalType": "uint256",
							"name": "highestBid",
							"type": "uint256"
						}
					],
					"name": "AuctionEnded",
					"type": "event"
				},
				{
					"inputs": [],
					"name": "beneficiary",
					"outputs": [
						{
							"internalType": "address payable",
							"name": "",
							"type": "address"
						}
					],
					"stateMutability": "view",
					"type": "function"
				},
				{
					"inputs": [],
					"name": "biddingEnd",
					"outputs": [
						{
							"internalType": "uint256",
							"name": "",
							"type": "uint256"
						}
					],
					"stateMutability": "view",
					"type": "function"
				},
				{
					"inputs": [
						{
							"internalType": "address",
							"name": "",
							"type": "address"
						},
						{
							"internalType": "uint256",
							"name": "",
							"type": "uint256"
						}
					],
					"name": "bids",
					"outputs": [
						{
							"internalType": "bytes32",
							"name": "blindedBid",
							"type": "bytes32"
						},
						{
							"internalType": "uint256",
							"name": "deposit",
							"type": "uint256"
						}
					],
					"stateMutability": "view",
					"type": "function"
				},
				{
					"inputs": [],
					"name": "ended",
					"outputs": [
						{
							"internalType": "bool",
							"name": "",
							"type": "bool"
						}
					],
					"stateMutability": "view",
					"type": "function"
				},
				{
					"inputs": [],
					"name": "highestBid",
					"outputs": [
						{
							"internalType": "uint256",
							"name": "",
							"type": "uint256"
						}
					],
					"stateMutability": "view",
					"type": "function"
				},
				{
					"inputs": [],
					"name": "highestBidder",
					"outputs": [
						{
							"internalType": "address",
							"name": "",
							"type": "address"
						}
					],
					"stateMutability": "view",
					"type": "function"
				},
				{
					"inputs": [],
					"name": "revealEnd",
					"outputs": [
						{
							"internalType": "uint256",
							"name": "",
							"type": "uint256"
						}
					],
					"stateMutability": "view",
					"type": "function"
				}
			],
			"devdoc": {
				"kind": "dev",
				"methods": {},
				"version": 1
			},
			"evm": {
				"assembly": "    /* \"contracts/SecretAuctionSystem.sol\":70:913  contract BlindAuction{... */\n  mstore(0x40, 0x80)\n    /* \"contracts/SecretAuctionSystem.sol\":690:911  constructor(uint _biddingTime, uint _revealTime, address payable _beneficiary) {... */\n  callvalue\n  dup1\n  iszero\n  tag_1\n  jumpi\n  0x00\n  dup1\n  revert\ntag_1:\n  pop\n  mload(0x40)\n  sub(codesize, bytecodeSize)\n  dup1\n  bytecodeSize\n  dup4\n  codecopy\n  dup2\n  dup2\n  add\n  0x40\n  mstore\n  dup2\n  add\n  swap1\n  tag_2\n  swap2\n  swap1\n  tag_3\n  jump\t// in\ntag_2:\n    /* \"contracts/SecretAuctionSystem.sol\":793:805  _beneficiary */\n  dup1\n    /* \"contracts/SecretAuctionSystem.sol\":779:790  beneficiary */\n  0x00\n  dup1\n    /* \"contracts/SecretAuctionSystem.sol\":779:805  beneficiary = _beneficiary */\n  0x0100\n  exp\n  dup2\n  sload\n  dup2\n  0xffffffffffffffffffffffffffffffffffffffff\n  mul\n  not\n  and\n  swap1\n  dup4\n  0xffffffffffffffffffffffffffffffffffffffff\n  and\n  mul\n  or\n  swap1\n  sstore\n  pop\n    /* \"contracts/SecretAuctionSystem.sol\":846:858  _biddingTime */\n  dup3\n    /* \"contracts/SecretAuctionSystem.sol\":828:843  block.timestamp */\n  timestamp\n    /* \"contracts/SecretAuctionSystem.sol\":828:858  block.timestamp + _biddingTime */\n  tag_6\n  swap2\n  swap1\n  tag_7\n  jump\t// in\ntag_6:\n    /* \"contracts/SecretAuctionSystem.sol\":815:825  biddingEnd */\n  0x01\n    /* \"contracts/SecretAuctionSystem.sol\":815:858  biddingEnd = block.timestamp + _biddingTime */\n  dup2\n  swap1\n  sstore\n  pop\n    /* \"contracts/SecretAuctionSystem.sol\":893:904  _revealTime */\n  dup2\n    /* \"contracts/SecretAuctionSystem.sol\":880:890  biddingEnd */\n  sload(0x01)\n    /* \"contracts/SecretAuctionSystem.sol\":880:904  biddingEnd + _revealTime */\n  tag_8\n  swap2\n  swap1\n  tag_7\n  jump\t// in\ntag_8:\n    /* \"contracts/SecretAuctionSystem.sol\":868:877  revealEnd */\n  0x02\n    /* \"contracts/SecretAuctionSystem.sol\":868:904  revealEnd = biddingEnd + _revealTime */\n  dup2\n  swap1\n  sstore\n  pop\n    /* \"contracts/SecretAuctionSystem.sol\":690:911  constructor(uint _biddingTime, uint _revealTime, address payable _beneficiary) {... */\n  pop\n  pop\n  pop\n    /* \"contracts/SecretAuctionSystem.sol\":70:913  contract BlindAuction{... */\n  jump(tag_9)\n    /* \"#utility.yul\":88:205   */\ntag_11:\n    /* \"#utility.yul\":197:198   */\n  0x00\n    /* \"#utility.yul\":194:195   */\n  dup1\n    /* \"#utility.yul\":187:199   */\n  revert\n    /* \"#utility.yul\":334:411   */\ntag_13:\n    /* \"#utility.yul\":371:378   */\n  0x00\n    /* \"#utility.yul\":400:405   */\n  dup2\n    /* \"#utility.yul\":389:405   */\n  swap1\n  pop\n    /* \"#utility.yul\":334:411   */\n  swap2\n  swap1\n  pop\n  jump\t// out\n    /* \"#utility.yul\":417:539   */\ntag_14:\n    /* \"#utility.yul\":490:514   */\n  tag_27\n    /* \"#utility.yul\":508:513   */\n  dup2\n    /* \"#utility.yul\":490:514   */\n  tag_13\n  jump\t// in\ntag_27:\n    /* \"#utility.yul\":483:488   */\n  dup2\n    /* \"#utility.yul\":480:515   */\n  eq\n    /* \"#utility.yul\":470:533   */\n  tag_28\n  jumpi\n    /* \"#utility.yul\":529:530   */\n  0x00\n    /* \"#utility.yul\":526:527   */\n  dup1\n    /* \"#utility.yul\":519:531   */\n  revert\n    /* \"#utility.yul\":470:533   */\ntag_28:\n    /* \"#utility.yul\":417:539   */\n  pop\n  jump\t// out\n    /* \"#utility.yul\":545:688   */\ntag_15:\n    /* \"#utility.yul\":602:607   */\n  0x00\n    /* \"#utility.yul\":633:639   */\n  dup2\n    /* \"#utility.yul\":627:640   */\n  mload\n    /* \"#utility.yul\":618:640   */\n  swap1\n  pop\n    /* \"#utility.yul\":649:682   */\n  tag_30\n    /* \"#utility.yul\":676:681   */\n  dup2\n    /* \"#utility.yul\":649:682   */\n  tag_14\n  jump\t// in\ntag_30:\n    /* \"#utility.yul\":545:688   */\n  swap3\n  swap2\n  pop\n  pop\n  jump\t// out\n    /* \"#utility.yul\":694:820   */\ntag_16:\n    /* \"#utility.yul\":731:738   */\n  0x00\n    /* \"#utility.yul\":771:813   */\n  0xffffffffffffffffffffffffffffffffffffffff\n    /* \"#utility.yul\":764:769   */\n  dup3\n    /* \"#utility.yul\":760:814   */\n  and\n    /* \"#utility.yul\":749:814   */\n  swap1\n  pop\n    /* \"#utility.yul\":694:820   */\n  swap2\n  swap1\n  pop\n  jump\t// out\n    /* \"#utility.yul\":826:930   */\ntag_17:\n    /* \"#utility.yul\":871:878   */\n  0x00\n    /* \"#utility.yul\":900:924   */\n  tag_33\n    /* \"#utility.yul\":918:923   */\n  dup3\n    /* \"#utility.yul\":900:924   */\n  tag_16\n  jump\t// in\ntag_33:\n    /* \"#utility.yul\":889:924   */\n  swap1\n  pop\n    /* \"#utility.yul\":826:930   */\n  swap2\n  swap1\n  pop\n  jump\t// out\n    /* \"#utility.yul\":936:1074   */\ntag_18:\n    /* \"#utility.yul\":1017:1049   */\n  tag_35\n    /* \"#utility.yul\":1043:1048   */\n  dup2\n    /* \"#utility.yul\":1017:1049   */\n  tag_17\n  jump\t// in\ntag_35:\n    /* \"#utility.yul\":1010:1015   */\n  dup2\n    /* \"#utility.yul\":1007:1050   */\n  eq\n    /* \"#utility.yul\":997:1068   */\n  tag_36\n  jumpi\n    /* \"#utility.yul\":1064:1065   */\n  0x00\n    /* \"#utility.yul\":1061:1062   */\n  dup1\n    /* \"#utility.yul\":1054:1066   */\n  revert\n    /* \"#utility.yul\":997:1068   */\ntag_36:\n    /* \"#utility.yul\":936:1074   */\n  pop\n  jump\t// out\n    /* \"#utility.yul\":1080:1239   */\ntag_19:\n    /* \"#utility.yul\":1145:1150   */\n  0x00\n    /* \"#utility.yul\":1176:1182   */\n  dup2\n    /* \"#utility.yul\":1170:1183   */\n  mload\n    /* \"#utility.yul\":1161:1183   */\n  swap1\n  pop\n    /* \"#utility.yul\":1192:1233   */\n  tag_38\n    /* \"#utility.yul\":1227:1232   */\n  dup2\n    /* \"#utility.yul\":1192:1233   */\n  tag_18\n  jump\t// in\ntag_38:\n    /* \"#utility.yul\":1080:1239   */\n  swap3\n  swap2\n  pop\n  pop\n  jump\t// out\n    /* \"#utility.yul\":1245:1924   */\ntag_3:\n    /* \"#utility.yul\":1341:1347   */\n  0x00\n    /* \"#utility.yul\":1349:1355   */\n  dup1\n    /* \"#utility.yul\":1357:1363   */\n  0x00\n    /* \"#utility.yul\":1406:1408   */\n  0x60\n    /* \"#utility.yul\":1394:1403   */\n  dup5\n    /* \"#utility.yul\":1385:1392   */\n  dup7\n    /* \"#utility.yul\":1381:1404   */\n  sub\n    /* \"#utility.yul\":1377:1409   */\n  slt\n    /* \"#utility.yul\":1374:1493   */\n  iszero\n  tag_40\n  jumpi\n    /* \"#utility.yul\":1412:1491   */\n  tag_41\n  tag_11\n  jump\t// in\ntag_41:\n    /* \"#utility.yul\":1374:1493   */\ntag_40:\n    /* \"#utility.yul\":1532:1533   */\n  0x00\n    /* \"#utility.yul\":1557:1621   */\n  tag_42\n    /* \"#utility.yul\":1613:1620   */\n  dup7\n    /* \"#utility.yul\":1604:1610   */\n  dup3\n    /* \"#utility.yul\":1593:1602   */\n  dup8\n    /* \"#utility.yul\":1589:1611   */\n  add\n    /* \"#utility.yul\":1557:1621   */\n  tag_15\n  jump\t// in\ntag_42:\n    /* \"#utility.yul\":1547:1621   */\n  swap4\n  pop\n    /* \"#utility.yul\":1503:1631   */\n  pop\n    /* \"#utility.yul\":1670:1672   */\n  0x20\n    /* \"#utility.yul\":1696:1760   */\n  tag_43\n    /* \"#utility.yul\":1752:1759   */\n  dup7\n    /* \"#utility.yul\":1743:1749   */\n  dup3\n    /* \"#utility.yul\":1732:1741   */\n  dup8\n    /* \"#utility.yul\":1728:1750   */\n  add\n    /* \"#utility.yul\":1696:1760   */\n  tag_15\n  jump\t// in\ntag_43:\n    /* \"#utility.yul\":1686:1760   */\n  swap3\n  pop\n    /* \"#utility.yul\":1641:1770   */\n  pop\n    /* \"#utility.yul\":1809:1811   */\n  0x40\n    /* \"#utility.yul\":1835:1907   */\n  tag_44\n    /* \"#utility.yul\":1899:1906   */\n  dup7\n    /* \"#utility.yul\":1890:1896   */\n  dup3\n    /* \"#utility.yul\":1879:1888   */\n  dup8\n    /* \"#utility.yul\":1875:1897   */\n  add\n    /* \"#utility.yul\":1835:1907   */\n  tag_19\n  jump\t// in\ntag_44:\n    /* \"#utility.yul\":1825:1907   */\n  swap2\n  pop\n    /* \"#utility.yul\":1780:1917   */\n  pop\n    /* \"#utility.yul\":1245:1924   */\n  swap3\n  pop\n  swap3\n  pop\n  swap3\n  jump\t// out\n    /* \"#utility.yul\":1930:2110   */\ntag_20:\n    /* \"#utility.yul\":1978:2055   */\n  0x4e487b7100000000000000000000000000000000000000000000000000000000\n    /* \"#utility.yul\":1975:1976   */\n  0x00\n    /* \"#utility.yul\":1968:2056   */\n  mstore\n    /* \"#utility.yul\":2075:2079   */\n  0x11\n    /* \"#utility.yul\":2072:2073   */\n  0x04\n    /* \"#utility.yul\":2065:2080   */\n  mstore\n    /* \"#utility.yul\":2099:2103   */\n  0x24\n    /* \"#utility.yul\":2096:2097   */\n  0x00\n    /* \"#utility.yul\":2089:2104   */\n  revert\n    /* \"#utility.yul\":2116:2421   */\ntag_7:\n    /* \"#utility.yul\":2156:2159   */\n  0x00\n    /* \"#utility.yul\":2175:2195   */\n  tag_47\n    /* \"#utility.yul\":2193:2194   */\n  dup3\n    /* \"#utility.yul\":2175:2195   */\n  tag_13\n  jump\t// in\ntag_47:\n    /* \"#utility.yul\":2170:2195   */\n  swap2\n  pop\n    /* \"#utility.yul\":2209:2229   */\n  tag_48\n    /* \"#utility.yul\":2227:2228   */\n  dup4\n    /* \"#utility.yul\":2209:2229   */\n  tag_13\n  jump\t// in\ntag_48:\n    /* \"#utility.yul\":2204:2229   */\n  swap3\n  pop\n    /* \"#utility.yul\":2363:2364   */\n  dup3\n    /* \"#utility.yul\":2295:2361   */\n  0xffffffffffffffffffffffffffffffffffffffffffffffffffffffffffffffff\n    /* \"#utility.yul\":2291:2365   */\n  sub\n    /* \"#utility.yul\":2288:2289   */\n  dup3\n    /* \"#utility.yul\":2285:2366   */\n  gt\n    /* \"#utility.yul\":2282:2389   */\n  iszero\n  tag_49\n  jumpi\n    /* \"#utility.yul\":2369:2387   */\n  tag_50\n  tag_20\n  jump\t// in\ntag_50:\n    /* \"#utility.yul\":2282:2389   */\ntag_49:\n    /* \"#utility.yul\":2413:2414   */\n  dup3\n    /* \"#utility.yul\":2410:2411   */\n  dup3\n    /* \"#utility.yul\":2406:2415   */\n  add\n    /* \"#utility.yul\":2399:2415   */\n  swap1\n  pop\n    /* \"#utility.yul\":2116:2421   */\n  swap3\n  swap2\n  pop\n  pop\n  jump\t// out\n    /* \"contracts/SecretAuctionSystem.sol\":70:913  contract BlindAuction{... */\ntag_9:\n  dataSize(sub_0)\n  dup1\n  dataOffset(sub_0)\n  0x00\n  codecopy\n  0x00\n  return\nstop\n\nsub_0: assembly {\n        /* \"contracts/SecretAuctionSystem.sol\":70:913  contract BlindAuction{... */\n      mstore(0x40, 0x80)\n      callvalue\n      dup1\n      iszero\n      tag_1\n      jumpi\n      0x00\n      dup1\n      revert\n    tag_1:\n      pop\n      jumpi(tag_2, lt(calldatasize, 0x04))\n      shr(0xe0, calldataload(0x00))\n      dup1\n      0x423b217f\n      gt\n      tag_10\n      jumpi\n      dup1\n      0x423b217f\n      eq\n      tag_6\n      jumpi\n      dup1\n      0x91f90157\n      eq\n      tag_7\n      jumpi\n      dup1\n      0xa6e66477\n      eq\n      tag_8\n      jumpi\n      dup1\n      0xd57bde79\n      eq\n      tag_9\n      jumpi\n      jump(tag_2)\n    tag_10:\n      dup1\n      0x01495c1c\n      eq\n      tag_3\n      jumpi\n      dup1\n      0x12fa6feb\n      eq\n      tag_4\n      jumpi\n      dup1\n      0x38af3eed\n      eq\n      tag_5\n      jumpi\n    tag_2:\n      0x00\n      dup1\n      revert\n        /* \"contracts/SecretAuctionSystem.sol\":327:364  mapping(address => Bid[]) public bids */\n    tag_3:\n      tag_11\n      0x04\n      dup1\n      calldatasize\n      sub\n      dup2\n      add\n      swap1\n      tag_12\n      swap2\n      swap1\n      tag_13\n      jump\t// in\n    tag_12:\n      tag_14\n      jump\t// in\n    tag_11:\n      mload(0x40)\n      tag_15\n      swap3\n      swap2\n      swap1\n      tag_16\n      jump\t// in\n    tag_15:\n      mload(0x40)\n      dup1\n      swap2\n      sub\n      swap1\n      return\n        /* \"contracts/SecretAuctionSystem.sol\":303:320  bool public ended */\n    tag_4:\n      tag_17\n      tag_18\n      jump\t// in\n    tag_17:\n      mload(0x40)\n      tag_19\n      swap2\n      swap1\n      tag_20\n      jump\t// in\n    tag_19:\n      mload(0x40)\n      dup1\n      swap2\n      sub\n      swap1\n      return\n        /* \"contracts/SecretAuctionSystem.sol\":195:229  address payable public beneficiary */\n    tag_5:\n      tag_21\n      tag_22\n      jump\t// in\n    tag_21:\n      mload(0x40)\n      tag_23\n      swap2\n      swap1\n      tag_24\n      jump\t// in\n    tag_23:\n      mload(0x40)\n      dup1\n      swap2\n      sub\n      swap1\n      return\n        /* \"contracts/SecretAuctionSystem.sol\":248:270  uint public biddingEnd */\n    tag_6:\n      tag_25\n      tag_26\n      jump\t// in\n    tag_25:\n      mload(0x40)\n      tag_27\n      swap2\n      swap1\n      tag_28\n      jump\t// in\n    tag_27:\n      mload(0x40)\n      dup1\n      swap2\n      sub\n      swap1\n      return\n        /* \"contracts/SecretAuctionSystem.sol\":371:399  address public highestBidder */\n    tag_7:\n      tag_29\n      tag_30\n      jump\t// in\n    tag_29:\n      mload(0x40)\n      tag_31\n      swap2\n      swap1\n      tag_32\n      jump\t// in\n    tag_31:\n      mload(0x40)\n      dup1\n      swap2\n      sub\n      swap1\n      return\n        /* \"contracts/SecretAuctionSystem.sol\":276:297  uint public revealEnd */\n    tag_8:\n      tag_33\n      tag_34\n      jump\t// in\n    tag_33:\n      mload(0x40)\n      tag_35\n      swap2\n      swap1\n      tag_28\n      jump\t// in\n    tag_35:\n      mload(0x40)\n      dup1\n      swap2\n      sub\n      swap1\n      return\n        /* \"contracts/SecretAuctionSystem.sol\":405:427  uint public highestBid */\n    tag_9:\n      tag_36\n      tag_37\n      jump\t// in\n    tag_36:\n      mload(0x40)\n      tag_38\n      swap2\n      swap1\n      tag_28\n      jump\t// in\n    tag_38:\n      mload(0x40)\n      dup1\n      swap2\n      sub\n      swap1\n      return\n        /* \"contracts/SecretAuctionSystem.sol\":327:364  mapping(address => Bid[]) public bids */\n    tag_14:\n      mstore(0x20, 0x04)\n      dup2\n      0x00\n      mstore\n      keccak256(0x00, 0x40)\n      dup2\n      dup2\n      sload\n      dup2\n      lt\n      tag_39\n      jumpi\n      0x00\n      dup1\n      revert\n    tag_39:\n      swap1\n      0x00\n      mstore\n      keccak256(0x00, 0x20)\n      swap1\n      0x02\n      mul\n      add\n      0x00\n      swap2\n      pop\n      swap2\n      pop\n      pop\n      dup1\n      0x00\n      add\n      sload\n      swap1\n      dup1\n      0x01\n      add\n      sload\n      swap1\n      pop\n      dup3\n      jump\t// out\n        /* \"contracts/SecretAuctionSystem.sol\":303:320  bool public ended */\n    tag_18:\n      0x03\n      0x00\n      swap1\n      sload\n      swap1\n      0x0100\n      exp\n      swap1\n      div\n      0xff\n      and\n      dup2\n      jump\t// out\n        /* \"contracts/SecretAuctionSystem.sol\":195:229  address payable public beneficiary */\n    tag_22:\n      0x00\n      dup1\n      sload\n      swap1\n      0x0100\n      exp\n      swap1\n      div\n      0xffffffffffffffffffffffffffffffffffffffff\n      and\n      dup2\n      jump\t// out\n        /* \"contracts/SecretAuctionSystem.sol\":248:270  uint public biddingEnd */\n    tag_26:\n      sload(0x01)\n      dup2\n      jump\t// out\n        /* \"contracts/SecretAuctionSystem.sol\":371:399  address public highestBidder */\n    tag_30:\n      0x05\n      0x00\n      swap1\n      sload\n      swap1\n      0x0100\n      exp\n      swap1\n      div\n      0xffffffffffffffffffffffffffffffffffffffff\n      and\n      dup2\n      jump\t// out\n        /* \"contracts/SecretAuctionSystem.sol\":276:297  uint public revealEnd */\n    tag_34:\n      sload(0x02)\n      dup2\n      jump\t// out\n        /* \"contracts/SecretAuctionSystem.sol\":405:427  uint public highestBid */\n    tag_37:\n      sload(0x06)\n      dup2\n      jump\t// out\n        /* \"#utility.yul\":88:205   */\n    tag_42:\n        /* \"#utility.yul\":197:198   */\n      0x00\n        /* \"#utility.yul\":194:195   */\n      dup1\n        /* \"#utility.yul\":187:199   */\n      revert\n        /* \"#utility.yul\":334:460   */\n    tag_44:\n        /* \"#utility.yul\":371:378   */\n      0x00\n        /* \"#utility.yul\":411:453   */\n      0xffffffffffffffffffffffffffffffffffffffff\n        /* \"#utility.yul\":404:409   */\n      dup3\n        /* \"#utility.yul\":400:454   */\n      and\n        /* \"#utility.yul\":389:454   */\n      swap1\n      pop\n        /* \"#utility.yul\":334:460   */\n      swap2\n      swap1\n      pop\n      jump\t// out\n        /* \"#utility.yul\":466:562   */\n    tag_45:\n        /* \"#utility.yul\":503:510   */\n      0x00\n        /* \"#utility.yul\":532:556   */\n      tag_65\n        /* \"#utility.yul\":550:555   */\n      dup3\n        /* \"#utility.yul\":532:556   */\n      tag_44\n      jump\t// in\n    tag_65:\n        /* \"#utility.yul\":521:556   */\n      swap1\n      pop\n        /* \"#utility.yul\":466:562   */\n      swap2\n      swap1\n      pop\n      jump\t// out\n        /* \"#utility.yul\":568:690   */\n    tag_46:\n        /* \"#utility.yul\":641:665   */\n      tag_67\n        /* \"#utility.yul\":659:664   */\n      dup2\n        /* \"#utility.yul\":641:665   */\n      tag_45\n      jump\t// in\n    tag_67:\n        /* \"#utility.yul\":634:639   */\n      dup2\n        /* \"#utility.yul\":631:666   */\n      eq\n        /* \"#utility.yul\":621:684   */\n      tag_68\n      jumpi\n        /* \"#utility.yul\":680:681   */\n      0x00\n        /* \"#utility.yul\":677:678   */\n      dup1\n        /* \"#utility.yul\":670:682   */\n      revert\n        /* \"#utility.yul\":621:684   */\n    tag_68:\n        /* \"#utility.yul\":568:690   */\n      pop\n      jump\t// out\n        /* \"#utility.yul\":696:835   */\n    tag_47:\n        /* \"#utility.yul\":742:747   */\n      0x00\n        /* \"#utility.yul\":780:786   */\n      dup2\n        /* \"#utility.yul\":767:787   */\n      calldataload\n        /* \"#utility.yul\":758:787   */\n      swap1\n      pop\n        /* \"#utility.yul\":796:829   */\n      tag_70\n        /* \"#utility.yul\":823:828   */\n      dup2\n        /* \"#utility.yul\":796:829   */\n      tag_46\n      jump\t// in\n    tag_70:\n        /* \"#utility.yul\":696:835   */\n      swap3\n      swap2\n      pop\n      pop\n      jump\t// out\n        /* \"#utility.yul\":841:918   */\n    tag_48:\n        /* \"#utility.yul\":878:885   */\n      0x00\n        /* \"#utility.yul\":907:912   */\n      dup2\n        /* \"#utility.yul\":896:912   */\n      swap1\n      pop\n        /* \"#utility.yul\":841:918   */\n      swap2\n      swap1\n      pop\n      jump\t// out\n        /* \"#utility.yul\":924:1046   */\n    tag_49:\n        /* \"#utility.yul\":997:1021   */\n      tag_73\n        /* \"#utility.yul\":1015:1020   */\n      dup2\n        /* \"#utility.yul\":997:1021   */\n      tag_48\n      jump\t// in\n    tag_73:\n        /* \"#utility.yul\":990:995   */\n      dup2\n        /* \"#utility.yul\":987:1022   */\n      eq\n        /* \"#utility.yul\":977:1040   */\n      tag_74\n      jumpi\n        /* \"#utility.yul\":1036:1037   */\n      0x00\n        /* \"#utility.yul\":1033:1034   */\n      dup1\n        /* \"#utility.yul\":1026:1038   */\n      revert\n        /* \"#utility.yul\":977:1040   */\n    tag_74:\n        /* \"#utility.yul\":924:1046   */\n      pop\n      jump\t// out\n        /* \"#utility.yul\":1052:1191   */\n    tag_50:\n        /* \"#utility.yul\":1098:1103   */\n      0x00\n        /* \"#utility.yul\":1136:1142   */\n      dup2\n        /* \"#utility.yul\":1123:1143   */\n      calldataload\n        /* \"#utility.yul\":1114:1143   */\n      swap1\n      pop\n        /* \"#utility.yul\":1152:1185   */\n      tag_76\n        /* \"#utility.yul\":1179:1184   */\n      dup2\n        /* \"#utility.yul\":1152:1185   */\n      tag_49\n      jump\t// in\n    tag_76:\n        /* \"#utility.yul\":1052:1191   */\n      swap3\n      swap2\n      pop\n      pop\n      jump\t// out\n        /* \"#utility.yul\":1197:1671   */\n    tag_13:\n        /* \"#utility.yul\":1265:1271   */\n      0x00\n        /* \"#utility.yul\":1273:1279   */\n      dup1\n        /* \"#utility.yul\":1322:1324   */\n      0x40\n        /* \"#utility.yul\":1310:1319   */\n      dup4\n        /* \"#utility.yul\":1301:1308   */\n      dup6\n        /* \"#utility.yul\":1297:1320   */\n      sub\n        /* \"#utility.yul\":1293:1325   */\n      slt\n        /* \"#utility.yul\":1290:1409   */\n      iszero\n      tag_78\n      jumpi\n        /* \"#utility.yul\":1328:1407   */\n      tag_79\n      tag_42\n      jump\t// in\n    tag_79:\n        /* \"#utility.yul\":1290:1409   */\n    tag_78:\n        /* \"#utility.yul\":1448:1449   */\n      0x00\n        /* \"#utility.yul\":1473:1526   */\n      tag_80\n        /* \"#utility.yul\":1518:1525   */\n      dup6\n        /* \"#utility.yul\":1509:1515   */\n      dup3\n        /* \"#utility.yul\":1498:1507   */\n      dup7\n        /* \"#utility.yul\":1494:1516   */\n      add\n        /* \"#utility.yul\":1473:1526   */\n      tag_47\n      jump\t// in\n    tag_80:\n        /* \"#utility.yul\":1463:1526   */\n      swap3\n      pop\n        /* \"#utility.yul\":1419:1536   */\n      pop\n        /* \"#utility.yul\":1575:1577   */\n      0x20\n        /* \"#utility.yul\":1601:1654   */\n      tag_81\n        /* \"#utility.yul\":1646:1653   */\n      dup6\n        /* \"#utility.yul\":1637:1643   */\n      dup3\n        /* \"#utility.yul\":1626:1635   */\n      dup7\n        /* \"#utility.yul\":1622:1644   */\n      add\n        /* \"#utility.yul\":1601:1654   */\n      tag_50\n      jump\t// in\n    tag_81:\n        /* \"#utility.yul\":1591:1654   */\n      swap2\n      pop\n        /* \"#utility.yul\":1546:1664   */\n      pop\n        /* \"#utility.yul\":1197:1671   */\n      swap3\n      pop\n      swap3\n      swap1\n      pop\n      jump\t// out\n        /* \"#utility.yul\":1677:1754   */\n    tag_51:\n        /* \"#utility.yul\":1714:1721   */\n      0x00\n        /* \"#utility.yul\":1743:1748   */\n      dup2\n        /* \"#utility.yul\":1732:1748   */\n      swap1\n      pop\n        /* \"#utility.yul\":1677:1754   */\n      swap2\n      swap1\n      pop\n      jump\t// out\n        /* \"#utility.yul\":1760:1878   */\n    tag_52:\n        /* \"#utility.yul\":1847:1871   */\n      tag_84\n        /* \"#utility.yul\":1865:1870   */\n      dup2\n        /* \"#utility.yul\":1847:1871   */\n      tag_51\n      jump\t// in\n    tag_84:\n        /* \"#utility.yul\":1842:1845   */\n      dup3\n        /* \"#utility.yul\":1835:1872   */\n      mstore\n        /* \"#utility.yul\":1760:1878   */\n      pop\n      pop\n      jump\t// out\n        /* \"#utility.yul\":1884:2002   */\n    tag_53:\n        /* \"#utility.yul\":1971:1995   */\n      tag_86\n        /* \"#utility.yul\":1989:1994   */\n      dup2\n        /* \"#utility.yul\":1971:1995   */\n      tag_48\n      jump\t// in\n    tag_86:\n        /* \"#utility.yul\":1966:1969   */\n      dup3\n        /* \"#utility.yul\":1959:1996   */\n      mstore\n        /* \"#utility.yul\":1884:2002   */\n      pop\n      pop\n      jump\t// out\n        /* \"#utility.yul\":2008:2340   */\n    tag_16:\n        /* \"#utility.yul\":2129:2133   */\n      0x00\n        /* \"#utility.yul\":2167:2169   */\n      0x40\n        /* \"#utility.yul\":2156:2165   */\n      dup3\n        /* \"#utility.yul\":2152:2170   */\n      add\n        /* \"#utility.yul\":2144:2170   */\n      swap1\n      pop\n        /* \"#utility.yul\":2180:2251   */\n      tag_88\n        /* \"#utility.yul\":2248:2249   */\n      0x00\n        /* \"#utility.yul\":2237:2246   */\n      dup4\n        /* \"#utility.yul\":2233:2250   */\n      add\n        /* \"#utility.yul\":2224:2230   */\n      dup6\n        /* \"#utility.yul\":2180:2251   */\n      tag_52\n      jump\t// in\n    tag_88:\n        /* \"#utility.yul\":2261:2333   */\n      tag_89\n        /* \"#utility.yul\":2329:2331   */\n      0x20\n        /* \"#utility.yul\":2318:2327   */\n      dup4\n        /* \"#utility.yul\":2314:2332   */\n      add\n        /* \"#utility.yul\":2305:2311   */\n      dup5\n        /* \"#utility.yul\":2261:2333   */\n      tag_53\n      jump\t// in\n    tag_89:\n        /* \"#utility.yul\":2008:2340   */\n      swap4\n      swap3\n      pop\n      pop\n      pop\n      jump\t// out\n        /* \"#utility.yul\":2346:2436   */\n    tag_54:\n        /* \"#utility.yul\":2380:2387   */\n      0x00\n        /* \"#utility.yul\":2423:2428   */\n      dup2\n        /* \"#utility.yul\":2416:2429   */\n      iszero\n        /* \"#utility.yul\":2409:2430   */\n      iszero\n        /* \"#utility.yul\":2398:2430   */\n      swap1\n      pop\n        /* \"#utility.yul\":2346:2436   */\n      swap2\n      swap1\n      pop\n      jump\t// out\n        /* \"#utility.yul\":2442:2551   */\n    tag_55:\n        /* \"#utility.yul\":2523:2544   */\n      tag_92\n        /* \"#utility.yul\":2538:2543   */\n      dup2\n        /* \"#utility.yul\":2523:2544   */\n      tag_54\n      jump\t// in\n    tag_92:\n        /* \"#utility.yul\":2518:2521   */\n      dup3\n        /* \"#utility.yul\":2511:2545   */\n      mstore\n        /* \"#utility.yul\":2442:2551   */\n      pop\n      pop\n      jump\t// out\n        /* \"#utility.yul\":2557:2767   */\n    tag_20:\n        /* \"#utility.yul\":2644:2648   */\n      0x00\n        /* \"#utility.yul\":2682:2684   */\n      0x20\n        /* \"#utility.yul\":2671:2680   */\n      dup3\n        /* \"#utility.yul\":2667:2685   */\n      add\n        /* \"#utility.yul\":2659:2685   */\n      swap1\n      pop\n        /* \"#utility.yul\":2695:2760   */\n      tag_94\n        /* \"#utility.yul\":2757:2758   */\n      0x00\n        /* \"#utility.yul\":2746:2755   */\n      dup4\n        /* \"#utility.yul\":2742:2759   */\n      add\n        /* \"#utility.yul\":2733:2739   */\n      dup5\n        /* \"#utility.yul\":2695:2760   */\n      tag_55\n      jump\t// in\n    tag_94:\n        /* \"#utility.yul\":2557:2767   */\n      swap3\n      swap2\n      pop\n      pop\n      jump\t// out\n        /* \"#utility.yul\":2773:2877   */\n    tag_56:\n        /* \"#utility.yul\":2818:2825   */\n      0x00\n        /* \"#utility.yul\":2847:2871   */\n      tag_96\n        /* \"#utility.yul\":2865:2870   */\n      dup3\n        /* \"#utility.yul\":2847:2871   */\n      tag_44\n      jump\t// in\n    tag_96:\n        /* \"#utility.yul\":2836:2871   */\n      swap1\n      pop\n        /* \"#utility.yul\":2773:2877   */\n      swap2\n      swap1\n      pop\n      jump\t// out\n        /* \"#utility.yul\":2883:3025   */\n    tag_57:\n        /* \"#utility.yul\":2986:3018   */\n      tag_98\n        /* \"#utility.yul\":3012:3017   */\n      dup2\n        /* \"#utility.yul\":2986:3018   */\n      tag_56\n      jump\t// in\n    tag_98:\n        /* \"#utility.yul\":2981:2984   */\n      dup3\n        /* \"#utility.yul\":2974:3019   */\n      mstore\n        /* \"#utility.yul\":2883:3025   */\n      pop\n      pop\n      jump\t// out\n        /* \"#utility.yul\":3031:3285   */\n    tag_24:\n        /* \"#utility.yul\":3140:3144   */\n      0x00\n        /* \"#utility.yul\":3178:3180   */\n      0x20\n        /* \"#utility.yul\":3167:3176   */\n      dup3\n        /* \"#utility.yul\":3163:3181   */\n      add\n        /* \"#utility.yul\":3155:3181   */\n      swap1\n      pop\n        /* \"#utility.yul\":3191:3278   */\n      tag_100\n        /* \"#utility.yul\":3275:3276   */\n      0x00\n        /* \"#utility.yul\":3264:3273   */\n      dup4\n        /* \"#utility.yul\":3260:3277   */\n      add\n        /* \"#utility.yul\":3251:3257   */\n      dup5\n        /* \"#utility.yul\":3191:3278   */\n      tag_57\n      jump\t// in\n    tag_100:\n        /* \"#utility.yul\":3031:3285   */\n      swap3\n      swap2\n      pop\n      pop\n      jump\t// out\n        /* \"#utility.yul\":3291:3513   */\n    tag_28:\n        /* \"#utility.yul\":3384:3388   */\n      0x00\n        /* \"#utility.yul\":3422:3424   */\n      0x20\n        /* \"#utility.yul\":3411:3420   */\n      dup3\n        /* \"#utility.yul\":3407:3425   */\n      add\n        /* \"#utility.yul\":3399:3425   */\n      swap1\n      pop\n        /* \"#utility.yul\":3435:3506   */\n      tag_102\n        /* \"#utility.yul\":3503:3504   */\n      0x00\n        /* \"#utility.yul\":3492:3501   */\n      dup4\n        /* \"#utility.yul\":3488:3505   */\n      add\n        /* \"#utility.yul\":3479:3485   */\n      dup5\n        /* \"#utility.yul\":3435:3506   */\n      tag_53\n      jump\t// in\n    tag_102:\n        /* \"#utility.yul\":3291:3513   */\n      swap3\n      swap2\n      pop\n      pop\n      jump\t// out\n        /* \"#utility.yul\":3519:3637   */\n    tag_58:\n        /* \"#utility.yul\":3606:3630   */\n      tag_104\n        /* \"#utility.yul\":3624:3629   */\n      dup2\n        /* \"#utility.yul\":3606:3630   */\n      tag_45\n      jump\t// in\n    tag_104:\n        /* \"#utility.yul\":3601:3604   */\n      dup3\n        /* \"#utility.yul\":3594:3631   */\n      mstore\n        /* \"#utility.yul\":3519:3637   */\n      pop\n      pop\n      jump\t// out\n        /* \"#utility.yul\":3643:3865   */\n    tag_32:\n        /* \"#utility.yul\":3736:3740   */\n      0x00\n        /* \"#utility.yul\":3774:3776   */\n      0x20\n        /* \"#utility.yul\":3763:3772   */\n      dup3\n        /* \"#utility.yul\":3759:3777   */\n      add\n        /* \"#utility.yul\":3751:3777   */\n      swap1\n      pop\n        /* \"#utility.yul\":3787:3858   */\n      tag_106\n        /* \"#utility.yul\":3855:3856   */\n      0x00\n        /* \"#utility.yul\":3844:3853   */\n      dup4\n        /* \"#utility.yul\":3840:3857   */\n      add\n        /* \"#utility.yul\":3831:3837   */\n      dup5\n        /* \"#utility.yul\":3787:3858   */\n      tag_58\n      jump\t// in\n    tag_106:\n        /* \"#utility.yul\":3643:3865   */\n      swap3\n      swap2\n      pop\n      pop\n      jump\t// out\n\n    auxdata: 0xa26469706673582212207d9b188fec838ce5f225608f9a61bb7c22a406a9374ad0c4db6191e1f8a690dc64736f6c634300080d0033\n}\n",
				"bytecode": {
					"linkReferences": {},
					"object": "608060405234801561001057600080fd5b5060405161064e38038061064e83398181016040528101906100329190610139565b806000806101000a81548173ffffffffffffffffffffffffffffffffffffffff021916908373ffffffffffffffffffffffffffffffffffffffff160217905550824261007e91906101bb565b6001819055508160015461009291906101bb565b600281905550505050610211565b600080fd5b6000819050919050565b6100b8816100a5565b81146100c357600080fd5b50565b6000815190506100d5816100af565b92915050565b600073ffffffffffffffffffffffffffffffffffffffff82169050919050565b6000610106826100db565b9050919050565b610116816100fb565b811461012157600080fd5b50565b6000815190506101338161010d565b92915050565b600080600060608486031215610152576101516100a0565b5b6000610160868287016100c6565b9350506020610171868287016100c6565b925050604061018286828701610124565b9150509250925092565b7f4e487b7100000000000000000000000000000000000000000000000000000000600052601160045260246000fd5b60006101c6826100a5565b91506101d1836100a5565b9250827fffffffffffffffffffffffffffffffffffffffffffffffffffffffffffffffff038211156102065761020561018c565b5b828201905092915050565b61042e806102206000396000f3fe608060405234801561001057600080fd5b506004361061007d5760003560e01c8063423b217f1161005b578063423b217f146100ef57806391f901571461010d578063a6e664771461012b578063d57bde79146101495761007d565b806301495c1c1461008257806312fa6feb146100b357806338af3eed146100d1575b600080fd5b61009c600480360381019061009791906102b0565b610167565b6040516100aa929190610318565b60405180910390f35b6100bb6101a8565b6040516100c8919061035c565b60405180910390f35b6100d96101bb565b6040516100e69190610398565b60405180910390f35b6100f76101df565b60405161010491906103b3565b60405180910390f35b6101156101e5565b60405161012291906103dd565b60405180910390f35b61013361020b565b60405161014091906103b3565b60405180910390f35b610151610211565b60405161015e91906103b3565b60405180910390f35b6004602052816000526040600020818154811061018357600080fd5b9060005260206000209060020201600091509150508060000154908060010154905082565b600360009054906101000a900460ff1681565b60008054906101000a900473ffffffffffffffffffffffffffffffffffffffff1681565b60015481565b600560009054906101000a900473ffffffffffffffffffffffffffffffffffffffff1681565b60025481565b60065481565b600080fd5b600073ffffffffffffffffffffffffffffffffffffffff82169050919050565b60006102478261021c565b9050919050565b6102578161023c565b811461026257600080fd5b50565b6000813590506102748161024e565b92915050565b6000819050919050565b61028d8161027a565b811461029857600080fd5b50565b6000813590506102aa81610284565b92915050565b600080604083850312156102c7576102c6610217565b5b60006102d585828601610265565b92505060206102e68582860161029b565b9150509250929050565b6000819050919050565b610303816102f0565b82525050565b6103128161027a565b82525050565b600060408201905061032d60008301856102fa565b61033a6020830184610309565b9392505050565b60008115159050919050565b61035681610341565b82525050565b6000602082019050610371600083018461034d565b92915050565b60006103828261021c565b9050919050565b61039281610377565b82525050565b60006020820190506103ad6000830184610389565b92915050565b60006020820190506103c86000830184610309565b92915050565b6103d78161023c565b82525050565b60006020820190506103f260008301846103ce565b9291505056fea26469706673582212207d9b188fec838ce5f225608f9a61bb7c22a406a9374ad0c4db6191e1f8a690dc64736f6c634300080d0033",
					"opcodes": "PUSH1 0x80 PUSH1 0x40 MSTORE CALLVALUE DUP1 ISZERO PUSH2 0x10 JUMPI PUSH1 0x0 DUP1 REVERT JUMPDEST POP PUSH1 0x40 MLOAD PUSH2 0x64E CODESIZE SUB DUP1 PUSH2 0x64E DUP4 CODECOPY DUP2 DUP2 ADD PUSH1 0x40 MSTORE DUP2 ADD SWAP1 PUSH2 0x32 SWAP2 SWAP1 PUSH2 0x139 JUMP JUMPDEST DUP1 PUSH1 0x0 DUP1 PUSH2 0x100 EXP DUP2 SLOAD DUP2 PUSH20 0xFFFFFFFFFFFFFFFFFFFFFFFFFFFFFFFFFFFFFFFF MUL NOT AND SWAP1 DUP4 PUSH20 0xFFFFFFFFFFFFFFFFFFFFFFFFFFFFFFFFFFFFFFFF AND MUL OR SWAP1 SSTORE POP DUP3 TIMESTAMP PUSH2 0x7E SWAP2 SWAP1 PUSH2 0x1BB JUMP JUMPDEST PUSH1 0x1 DUP2 SWAP1 SSTORE POP DUP2 PUSH1 0x1 SLOAD PUSH2 0x92 SWAP2 SWAP1 PUSH2 0x1BB JUMP JUMPDEST PUSH1 0x2 DUP2 SWAP1 SSTORE POP POP POP POP PUSH2 0x211 JUMP JUMPDEST PUSH1 0x0 DUP1 REVERT JUMPDEST PUSH1 0x0 DUP2 SWAP1 POP SWAP2 SWAP1 POP JUMP JUMPDEST PUSH2 0xB8 DUP2 PUSH2 0xA5 JUMP JUMPDEST DUP2 EQ PUSH2 0xC3 JUMPI PUSH1 0x0 DUP1 REVERT JUMPDEST POP JUMP JUMPDEST PUSH1 0x0 DUP2 MLOAD SWAP1 POP PUSH2 0xD5 DUP2 PUSH2 0xAF JUMP JUMPDEST SWAP3 SWAP2 POP POP JUMP JUMPDEST PUSH1 0x0 PUSH20 0xFFFFFFFFFFFFFFFFFFFFFFFFFFFFFFFFFFFFFFFF DUP3 AND SWAP1 POP SWAP2 SWAP1 POP JUMP JUMPDEST PUSH1 0x0 PUSH2 0x106 DUP3 PUSH2 0xDB JUMP JUMPDEST SWAP1 POP SWAP2 SWAP1 POP JUMP JUMPDEST PUSH2 0x116 DUP2 PUSH2 0xFB JUMP JUMPDEST DUP2 EQ PUSH2 0x121 JUMPI PUSH1 0x0 DUP1 REVERT JUMPDEST POP JUMP JUMPDEST PUSH1 0x0 DUP2 MLOAD SWAP1 POP PUSH2 0x133 DUP2 PUSH2 0x10D JUMP JUMPDEST SWAP3 SWAP2 POP POP JUMP JUMPDEST PUSH1 0x0 DUP1 PUSH1 0x0 PUSH1 0x60 DUP5 DUP7 SUB SLT ISZERO PUSH2 0x152 JUMPI PUSH2 0x151 PUSH2 0xA0 JUMP JUMPDEST JUMPDEST PUSH1 0x0 PUSH2 0x160 DUP7 DUP3 DUP8 ADD PUSH2 0xC6 JUMP JUMPDEST SWAP4 POP POP PUSH1 0x20 PUSH2 0x171 DUP7 DUP3 DUP8 ADD PUSH2 0xC6 JUMP JUMPDEST SWAP3 POP POP PUSH1 0x40 PUSH2 0x182 DUP7 DUP3 DUP8 ADD PUSH2 0x124 JUMP JUMPDEST SWAP2 POP POP SWAP3 POP SWAP3 POP SWAP3 JUMP JUMPDEST PUSH32 0x4E487B7100000000000000000000000000000000000000000000000000000000 PUSH1 0x0 MSTORE PUSH1 0x11 PUSH1 0x4 MSTORE PUSH1 0x24 PUSH1 0x0 REVERT JUMPDEST PUSH1 0x0 PUSH2 0x1C6 DUP3 PUSH2 0xA5 JUMP JUMPDEST SWAP2 POP PUSH2 0x1D1 DUP4 PUSH2 0xA5 JUMP JUMPDEST SWAP3 POP DUP3 PUSH32 0xFFFFFFFFFFFFFFFFFFFFFFFFFFFFFFFFFFFFFFFFFFFFFFFFFFFFFFFFFFFFFFFF SUB DUP3 GT ISZERO PUSH2 0x206 JUMPI PUSH2 0x205 PUSH2 0x18C JUMP JUMPDEST JUMPDEST DUP3 DUP3 ADD SWAP1 POP SWAP3 SWAP2 POP POP JUMP JUMPDEST PUSH2 0x42E DUP1 PUSH2 0x220 PUSH1 0x0 CODECOPY PUSH1 0x0 RETURN INVALID PUSH1 0x80 PUSH1 0x40 MSTORE CALLVALUE DUP1 ISZERO PUSH2 0x10 JUMPI PUSH1 0x0 DUP1 REVERT JUMPDEST POP PUSH1 0x4 CALLDATASIZE LT PUSH2 0x7D JUMPI PUSH1 0x0 CALLDATALOAD PUSH1 0xE0 SHR DUP1 PUSH4 0x423B217F GT PUSH2 0x5B JUMPI DUP1 PUSH4 0x423B217F EQ PUSH2 0xEF JUMPI DUP1 PUSH4 0x91F90157 EQ PUSH2 0x10D JUMPI DUP1 PUSH4 0xA6E66477 EQ PUSH2 0x12B JUMPI DUP1 PUSH4 0xD57BDE79 EQ PUSH2 0x149 JUMPI PUSH2 0x7D JUMP JUMPDEST DUP1 PUSH4 0x1495C1C EQ PUSH2 0x82 JUMPI DUP1 PUSH4 0x12FA6FEB EQ PUSH2 0xB3 JUMPI DUP1 PUSH4 0x38AF3EED EQ PUSH2 0xD1 JUMPI JUMPDEST PUSH1 0x0 DUP1 REVERT JUMPDEST PUSH2 0x9C PUSH1 0x4 DUP1 CALLDATASIZE SUB DUP2 ADD SWAP1 PUSH2 0x97 SWAP2 SWAP1 PUSH2 0x2B0 JUMP JUMPDEST PUSH2 0x167 JUMP JUMPDEST PUSH1 0x40 MLOAD PUSH2 0xAA SWAP3 SWAP2 SWAP1 PUSH2 0x318 JUMP JUMPDEST PUSH1 0x40 MLOAD DUP1 SWAP2 SUB SWAP1 RETURN JUMPDEST PUSH2 0xBB PUSH2 0x1A8 JUMP JUMPDEST PUSH1 0x40 MLOAD PUSH2 0xC8 SWAP2 SWAP1 PUSH2 0x35C JUMP JUMPDEST PUSH1 0x40 MLOAD DUP1 SWAP2 SUB SWAP1 RETURN JUMPDEST PUSH2 0xD9 PUSH2 0x1BB JUMP JUMPDEST PUSH1 0x40 MLOAD PUSH2 0xE6 SWAP2 SWAP1 PUSH2 0x398 JUMP JUMPDEST PUSH1 0x40 MLOAD DUP1 SWAP2 SUB SWAP1 RETURN JUMPDEST PUSH2 0xF7 PUSH2 0x1DF JUMP JUMPDEST PUSH1 0x40 MLOAD PUSH2 0x104 SWAP2 SWAP1 PUSH2 0x3B3 JUMP JUMPDEST PUSH1 0x40 MLOAD DUP1 SWAP2 SUB SWAP1 RETURN JUMPDEST PUSH2 0x115 PUSH2 0x1E5 JUMP JUMPDEST PUSH1 0x40 MLOAD PUSH2 0x122 SWAP2 SWAP1 PUSH2 0x3DD JUMP JUMPDEST PUSH1 0x40 MLOAD DUP1 SWAP2 SUB SWAP1 RETURN JUMPDEST PUSH2 0x133 PUSH2 0x20B JUMP JUMPDEST PUSH1 0x40 MLOAD PUSH2 0x140 SWAP2 SWAP1 PUSH2 0x3B3 JUMP JUMPDEST PUSH1 0x40 MLOAD DUP1 SWAP2 SUB SWAP1 RETURN JUMPDEST PUSH2 0x151 PUSH2 0x211 JUMP JUMPDEST PUSH1 0x40 MLOAD PUSH2 0x15E SWAP2 SWAP1 PUSH2 0x3B3 JUMP JUMPDEST PUSH1 0x40 MLOAD DUP1 SWAP2 SUB SWAP1 RETURN JUMPDEST PUSH1 0x4 PUSH1 0x20 MSTORE DUP2 PUSH1 0x0 MSTORE PUSH1 0x40 PUSH1 0x0 KECCAK256 DUP2 DUP2 SLOAD DUP2 LT PUSH2 0x183 JUMPI PUSH1 0x0 DUP1 REVERT JUMPDEST SWAP1 PUSH1 0x0 MSTORE PUSH1 0x20 PUSH1 0x0 KECCAK256 SWAP1 PUSH1 0x2 MUL ADD PUSH1 0x0 SWAP2 POP SWAP2 POP POP DUP1 PUSH1 0x0 ADD SLOAD SWAP1 DUP1 PUSH1 0x1 ADD SLOAD SWAP1 POP DUP3 JUMP JUMPDEST PUSH1 0x3 PUSH1 0x0 SWAP1 SLOAD SWAP1 PUSH2 0x100 EXP SWAP1 DIV PUSH1 0xFF AND DUP2 JUMP JUMPDEST PUSH1 0x0 DUP1 SLOAD SWAP1 PUSH2 0x100 EXP SWAP1 DIV PUSH20 0xFFFFFFFFFFFFFFFFFFFFFFFFFFFFFFFFFFFFFFFF AND DUP2 JUMP JUMPDEST PUSH1 0x1 SLOAD DUP2 JUMP JUMPDEST PUSH1 0x5 PUSH1 0x0 SWAP1 SLOAD SWAP1 PUSH2 0x100 EXP SWAP1 DIV PUSH20 0xFFFFFFFFFFFFFFFFFFFFFFFFFFFFFFFFFFFFFFFF AND DUP2 JUMP JUMPDEST PUSH1 0x2 SLOAD DUP2 JUMP JUMPDEST PUSH1 0x6 SLOAD DUP2 JUMP JUMPDEST PUSH1 0x0 DUP1 REVERT JUMPDEST PUSH1 0x0 PUSH20 0xFFFFFFFFFFFFFFFFFFFFFFFFFFFFFFFFFFFFFFFF DUP3 AND SWAP1 POP SWAP2 SWAP1 POP JUMP JUMPDEST PUSH1 0x0 PUSH2 0x247 DUP3 PUSH2 0x21C JUMP JUMPDEST SWAP1 POP SWAP2 SWAP1 POP JUMP JUMPDEST PUSH2 0x257 DUP2 PUSH2 0x23C JUMP JUMPDEST DUP2 EQ PUSH2 0x262 JUMPI PUSH1 0x0 DUP1 REVERT JUMPDEST POP JUMP JUMPDEST PUSH1 0x0 DUP2 CALLDATALOAD SWAP1 POP PUSH2 0x274 DUP2 PUSH2 0x24E JUMP JUMPDEST SWAP3 SWAP2 POP POP JUMP JUMPDEST PUSH1 0x0 DUP2 SWAP1 POP SWAP2 SWAP1 POP JUMP JUMPDEST PUSH2 0x28D DUP2 PUSH2 0x27A JUMP JUMPDEST DUP2 EQ PUSH2 0x298 JUMPI PUSH1 0x0 DUP1 REVERT JUMPDEST POP JUMP JUMPDEST PUSH1 0x0 DUP2 CALLDATALOAD SWAP1 POP PUSH2 0x2AA DUP2 PUSH2 0x284 JUMP JUMPDEST SWAP3 SWAP2 POP POP JUMP JUMPDEST PUSH1 0x0 DUP1 PUSH1 0x40 DUP4 DUP6 SUB SLT ISZERO PUSH2 0x2C7 JUMPI PUSH2 0x2C6 PUSH2 0x217 JUMP JUMPDEST JUMPDEST PUSH1 0x0 PUSH2 0x2D5 DUP6 DUP3 DUP7 ADD PUSH2 0x265 JUMP JUMPDEST SWAP3 POP POP PUSH1 0x20 PUSH2 0x2E6 DUP6 DUP3 DUP7 ADD PUSH2 0x29B JUMP JUMPDEST SWAP2 POP POP SWAP3 POP SWAP3 SWAP1 POP JUMP JUMPDEST PUSH1 0x0 DUP2 SWAP1 POP SWAP2 SWAP1 POP JUMP JUMPDEST PUSH2 0x303 DUP2 PUSH2 0x2F0 JUMP JUMPDEST DUP3 MSTORE POP POP JUMP JUMPDEST PUSH2 0x312 DUP2 PUSH2 0x27A JUMP JUMPDEST DUP3 MSTORE POP POP JUMP JUMPDEST PUSH1 0x0 PUSH1 0x40 DUP3 ADD SWAP1 POP PUSH2 0x32D PUSH1 0x0 DUP4 ADD DUP6 PUSH2 0x2FA JUMP JUMPDEST PUSH2 0x33A PUSH1 0x20 DUP4 ADD DUP5 PUSH2 0x309 JUMP JUMPDEST SWAP4 SWAP3 POP POP POP JUMP JUMPDEST PUSH1 0x0 DUP2 ISZERO ISZERO SWAP1 POP SWAP2 SWAP1 POP JUMP JUMPDEST PUSH2 0x356 DUP2 PUSH2 0x341 JUMP JUMPDEST DUP3 MSTORE POP POP JUMP JUMPDEST PUSH1 0x0 PUSH1 0x20 DUP3 ADD SWAP1 POP PUSH2 0x371 PUSH1 0x0 DUP4 ADD DUP5 PUSH2 0x34D JUMP JUMPDEST SWAP3 SWAP2 POP POP JUMP JUMPDEST PUSH1 0x0 PUSH2 0x382 DUP3 PUSH2 0x21C JUMP JUMPDEST SWAP1 POP SWAP2 SWAP1 POP JUMP JUMPDEST PUSH2 0x392 DUP2 PUSH2 0x377 JUMP JUMPDEST DUP3 MSTORE POP POP JUMP JUMPDEST PUSH1 0x0 PUSH1 0x20 DUP3 ADD SWAP1 POP PUSH2 0x3AD PUSH1 0x0 DUP4 ADD DUP5 PUSH2 0x389 JUMP JUMPDEST SWAP3 SWAP2 POP POP JUMP JUMPDEST PUSH1 0x0 PUSH1 0x20 DUP3 ADD SWAP1 POP PUSH2 0x3C8 PUSH1 0x0 DUP4 ADD DUP5 PUSH2 0x309 JUMP JUMPDEST SWAP3 SWAP2 POP POP JUMP JUMPDEST PUSH2 0x3D7 DUP2 PUSH2 0x23C JUMP JUMPDEST DUP3 MSTORE POP POP JUMP JUMPDEST PUSH1 0x0 PUSH1 0x20 DUP3 ADD SWAP1 POP PUSH2 0x3F2 PUSH1 0x0 DUP4 ADD DUP5 PUSH2 0x3CE JUMP JUMPDEST SWAP3 SWAP2 POP POP JUMP INVALID LOG2 PUSH5 0x6970667358 0x22 SLT KECCAK256 PUSH30 0x9B188FEC838CE5F225608F9A61BB7C22A406A9374AD0C4DB6191E1F8A690 0xDC PUSH5 0x736F6C6343 STOP ADDMOD 0xD STOP CALLER "
				},
				"gasEstimates": {
					"creation": {
						"codeDepositCost": "214000",
						"executionCost": "infinite",
						"totalCost": "infinite"
					},
					"external": {
						"beneficiary()": "2556",
						"biddingEnd()": "2429",
						"bids(address,uint256)": "infinite",
						"ended()": "2494",
						"highestBid()": "2495",
						"highestBidder()": "2536",
						"revealEnd()": "2473"
					}
				},
				"methodIdentifiers": {
					"beneficiary()": "38af3eed",
					"biddingEnd()": "423b217f",
					"bids(address,uint256)": "01495c1c",
					"ended()": "12fa6feb",
					"highestBid()": "d57bde79",
					"highestBidder()": "91f90157",
					"revealEnd()": "a6e66477"
				}
			},
			"userdoc": {
				"kind": "user",
				"methods": {},
				"version": 1
			}
		}
	}
}