{
	"contracts/test.sol": {
		"Test": {
			"abi": [
				{
					"inputs": [
						{
							"internalType": "address",
							"name": "_beneficiary",
							"type": "address"
						},
						{
							"internalType": "uint256",
							"name": "_auctionEnd",
							"type": "uint256"
						},
						{
							"internalType": "uint256",
							"name": "_discloseEnd",
							"type": "uint256"
						}
					],
					"stateMutability": "nonpayable",
					"type": "constructor"
				},
				{
					"anonymous": false,
					"inputs": [
						{
							"indexed": false,
							"internalType": "address",
							"name": "_s",
							"type": "address"
						},
						{
							"indexed": false,
							"internalType": "uint256",
							"name": "amount",
							"type": "uint256"
						}
					],
					"name": "auctionEndEvent",
					"type": "event"
				},
				{
					"inputs": [],
					"name": "auctionEnd",
					"outputs": [
						{
							"internalType": "uint256",
							"name": "",
							"type": "uint256"
						}
					],
					"stateMutability": "view",
					"type": "function"
				},
				{
					"inputs": [
						{
							"internalType": "bytes32",
							"name": "_secretBid",
							"type": "bytes32"
						}
					],
					"name": "bid",
					"outputs": [],
					"stateMutability": "payable",
					"type": "function"
				},
				{
					"inputs": [
						{
							"internalType": "uint256[]",
							"name": "_value",
							"type": "uint256[]"
						},
						{
							"internalType": "bool[]",
							"name": "_fake",
							"type": "bool[]"
						},
						{
							"internalType": "bytes32[]",
							"name": "secret",
							"type": "bytes32[]"
						}
					],
					"name": "disclose",
					"outputs": [],
					"stateMutability": "nonpayable",
					"type": "function"
				},
				{
					"inputs": [],
					"name": "discloseEnd",
					"outputs": [
						{
							"internalType": "uint256",
							"name": "",
							"type": "uint256"
						}
					],
					"stateMutability": "view",
					"type": "function"
				}
			],
			"devdoc": {
				"kind": "dev",
				"methods": {},
				"version": 1
			},
			"evm": {
				"assembly": "    /* \"contracts/test.sol\":70:1177  contract Test{... */\n  mstore(0x40, 0x80)\n    /* \"contracts/test.sol\":498:713  constructor(address _beneficiary, uint _auctionEnd, uint _discloseEnd) {... */\n  callvalue\n  dup1\n  iszero\n  tag_1\n  jumpi\n  0x00\n  dup1\n  revert\ntag_1:\n  pop\n  mload(0x40)\n  sub(codesize, bytecodeSize)\n  dup1\n  bytecodeSize\n  dup4\n  codecopy\n  dup2\n  dup2\n  add\n  0x40\n  mstore\n  dup2\n  add\n  swap1\n  tag_2\n  swap2\n  swap1\n  tag_3\n  jump\t// in\ntag_2:\n    /* \"contracts/test.sol\":593:605  _beneficiary */\n  dup3\n    /* \"contracts/test.sol\":579:590  beneficiary */\n  0x02\n  0x00\n    /* \"contracts/test.sol\":579:605  beneficiary = _beneficiary */\n  0x0100\n  exp\n  dup2\n  sload\n  dup2\n  0xffffffffffffffffffffffffffffffffffffffff\n  mul\n  not\n  and\n  swap1\n  dup4\n  0xffffffffffffffffffffffffffffffffffffffff\n  and\n  mul\n  or\n  swap1\n  sstore\n  pop\n    /* \"contracts/test.sol\":646:657  _auctionEnd */\n  dup2\n    /* \"contracts/test.sol\":628:643  block.timestamp */\n  timestamp\n    /* \"contracts/test.sol\":628:657  block.timestamp + _auctionEnd */\n  tag_6\n  swap2\n  swap1\n  tag_7\n  jump\t// in\ntag_6:\n    /* \"contracts/test.sol\":615:625  auctionEnd */\n  0x00\n    /* \"contracts/test.sol\":615:657  auctionEnd = block.timestamp + _auctionEnd */\n  dup2\n  swap1\n  sstore\n  pop\n    /* \"contracts/test.sol\":694:706  _discloseEnd */\n  dup1\n    /* \"contracts/test.sol\":681:691  auctionEnd */\n  sload(0x00)\n    /* \"contracts/test.sol\":681:706  auctionEnd + _discloseEnd */\n  tag_8\n  swap2\n  swap1\n  tag_7\n  jump\t// in\ntag_8:\n    /* \"contracts/test.sol\":667:678  discloseEnd */\n  0x01\n    /* \"contracts/test.sol\":667:706  discloseEnd = auctionEnd + _discloseEnd */\n  dup2\n  swap1\n  sstore\n  pop\n    /* \"contracts/test.sol\":498:713  constructor(address _beneficiary, uint _auctionEnd, uint _discloseEnd) {... */\n  pop\n  pop\n  pop\n    /* \"contracts/test.sol\":70:1177  contract Test{... */\n  jump(tag_9)\n    /* \"#utility.yul\":88:205   */\ntag_11:\n    /* \"#utility.yul\":197:198   */\n  0x00\n    /* \"#utility.yul\":194:195   */\n  dup1\n    /* \"#utility.yul\":187:199   */\n  revert\n    /* \"#utility.yul\":334:460   */\ntag_13:\n    /* \"#utility.yul\":371:378   */\n  0x00\n    /* \"#utility.yul\":411:453   */\n  0xffffffffffffffffffffffffffffffffffffffff\n    /* \"#utility.yul\":404:409   */\n  dup3\n    /* \"#utility.yul\":400:454   */\n  and\n    /* \"#utility.yul\":389:454   */\n  swap1\n  pop\n    /* \"#utility.yul\":334:460   */\n  swap2\n  swap1\n  pop\n  jump\t// out\n    /* \"#utility.yul\":466:562   */\ntag_14:\n    /* \"#utility.yul\":503:510   */\n  0x00\n    /* \"#utility.yul\":532:556   */\n  tag_27\n    /* \"#utility.yul\":550:555   */\n  dup3\n    /* \"#utility.yul\":532:556   */\n  tag_13\n  jump\t// in\ntag_27:\n    /* \"#utility.yul\":521:556   */\n  swap1\n  pop\n    /* \"#utility.yul\":466:562   */\n  swap2\n  swap1\n  pop\n  jump\t// out\n    /* \"#utility.yul\":568:690   */\ntag_15:\n    /* \"#utility.yul\":641:665   */\n  tag_29\n    /* \"#utility.yul\":659:664   */\n  dup2\n    /* \"#utility.yul\":641:665   */\n  tag_14\n  jump\t// in\ntag_29:\n    /* \"#utility.yul\":634:639   */\n  dup2\n    /* \"#utility.yul\":631:666   */\n  eq\n    /* \"#utility.yul\":621:684   */\n  tag_30\n  jumpi\n    /* \"#utility.yul\":680:681   */\n  0x00\n    /* \"#utility.yul\":677:678   */\n  dup1\n    /* \"#utility.yul\":670:682   */\n  revert\n    /* \"#utility.yul\":621:684   */\ntag_30:\n    /* \"#utility.yul\":568:690   */\n  pop\n  jump\t// out\n    /* \"#utility.yul\":696:839   */\ntag_16:\n    /* \"#utility.yul\":753:758   */\n  0x00\n    /* \"#utility.yul\":784:790   */\n  dup2\n    /* \"#utility.yul\":778:791   */\n  mload\n    /* \"#utility.yul\":769:791   */\n  swap1\n  pop\n    /* \"#utility.yul\":800:833   */\n  tag_32\n    /* \"#utility.yul\":827:832   */\n  dup2\n    /* \"#utility.yul\":800:833   */\n  tag_15\n  jump\t// in\ntag_32:\n    /* \"#utility.yul\":696:839   */\n  swap3\n  swap2\n  pop\n  pop\n  jump\t// out\n    /* \"#utility.yul\":845:922   */\ntag_17:\n    /* \"#utility.yul\":882:889   */\n  0x00\n    /* \"#utility.yul\":911:916   */\n  dup2\n    /* \"#utility.yul\":900:916   */\n  swap1\n  pop\n    /* \"#utility.yul\":845:922   */\n  swap2\n  swap1\n  pop\n  jump\t// out\n    /* \"#utility.yul\":928:1050   */\ntag_18:\n    /* \"#utility.yul\":1001:1025   */\n  tag_35\n    /* \"#utility.yul\":1019:1024   */\n  dup2\n    /* \"#utility.yul\":1001:1025   */\n  tag_17\n  jump\t// in\ntag_35:\n    /* \"#utility.yul\":994:999   */\n  dup2\n    /* \"#utility.yul\":991:1026   */\n  eq\n    /* \"#utility.yul\":981:1044   */\n  tag_36\n  jumpi\n    /* \"#utility.yul\":1040:1041   */\n  0x00\n    /* \"#utility.yul\":1037:1038   */\n  dup1\n    /* \"#utility.yul\":1030:1042   */\n  revert\n    /* \"#utility.yul\":981:1044   */\ntag_36:\n    /* \"#utility.yul\":928:1050   */\n  pop\n  jump\t// out\n    /* \"#utility.yul\":1056:1199   */\ntag_19:\n    /* \"#utility.yul\":1113:1118   */\n  0x00\n    /* \"#utility.yul\":1144:1150   */\n  dup2\n    /* \"#utility.yul\":1138:1151   */\n  mload\n    /* \"#utility.yul\":1129:1151   */\n  swap1\n  pop\n    /* \"#utility.yul\":1160:1193   */\n  tag_38\n    /* \"#utility.yul\":1187:1192   */\n  dup2\n    /* \"#utility.yul\":1160:1193   */\n  tag_18\n  jump\t// in\ntag_38:\n    /* \"#utility.yul\":1056:1199   */\n  swap3\n  swap2\n  pop\n  pop\n  jump\t// out\n    /* \"#utility.yul\":1205:1868   */\ntag_3:\n    /* \"#utility.yul\":1293:1299   */\n  0x00\n    /* \"#utility.yul\":1301:1307   */\n  dup1\n    /* \"#utility.yul\":1309:1315   */\n  0x00\n    /* \"#utility.yul\":1358:1360   */\n  0x60\n    /* \"#utility.yul\":1346:1355   */\n  dup5\n    /* \"#utility.yul\":1337:1344   */\n  dup7\n    /* \"#utility.yul\":1333:1356   */\n  sub\n    /* \"#utility.yul\":1329:1361   */\n  slt\n    /* \"#utility.yul\":1326:1445   */\n  iszero\n  tag_40\n  jumpi\n    /* \"#utility.yul\":1364:1443   */\n  tag_41\n  tag_11\n  jump\t// in\ntag_41:\n    /* \"#utility.yul\":1326:1445   */\ntag_40:\n    /* \"#utility.yul\":1484:1485   */\n  0x00\n    /* \"#utility.yul\":1509:1573   */\n  tag_42\n    /* \"#utility.yul\":1565:1572   */\n  dup7\n    /* \"#utility.yul\":1556:1562   */\n  dup3\n    /* \"#utility.yul\":1545:1554   */\n  dup8\n    /* \"#utility.yul\":1541:1563   */\n  add\n    /* \"#utility.yul\":1509:1573   */\n  tag_16\n  jump\t// in\ntag_42:\n    /* \"#utility.yul\":1499:1573   */\n  swap4\n  pop\n    /* \"#utility.yul\":1455:1583   */\n  pop\n    /* \"#utility.yul\":1622:1624   */\n  0x20\n    /* \"#utility.yul\":1648:1712   */\n  tag_43\n    /* \"#utility.yul\":1704:1711   */\n  dup7\n    /* \"#utility.yul\":1695:1701   */\n  dup3\n    /* \"#utility.yul\":1684:1693   */\n  dup8\n    /* \"#utility.yul\":1680:1702   */\n  add\n    /* \"#utility.yul\":1648:1712   */\n  tag_19\n  jump\t// in\ntag_43:\n    /* \"#utility.yul\":1638:1712   */\n  swap3\n  pop\n    /* \"#utility.yul\":1593:1722   */\n  pop\n    /* \"#utility.yul\":1761:1763   */\n  0x40\n    /* \"#utility.yul\":1787:1851   */\n  tag_44\n    /* \"#utility.yul\":1843:1850   */\n  dup7\n    /* \"#utility.yul\":1834:1840   */\n  dup3\n    /* \"#utility.yul\":1823:1832   */\n  dup8\n    /* \"#utility.yul\":1819:1841   */\n  add\n    /* \"#utility.yul\":1787:1851   */\n  tag_19\n  jump\t// in\ntag_44:\n    /* \"#utility.yul\":1777:1851   */\n  swap2\n  pop\n    /* \"#utility.yul\":1732:1861   */\n  pop\n    /* \"#utility.yul\":1205:1868   */\n  swap3\n  pop\n  swap3\n  pop\n  swap3\n  jump\t// out\n    /* \"#utility.yul\":1874:2054   */\ntag_20:\n    /* \"#utility.yul\":1922:1999   */\n  0x4e487b7100000000000000000000000000000000000000000000000000000000\n    /* \"#utility.yul\":1919:1920   */\n  0x00\n    /* \"#utility.yul\":1912:2000   */\n  mstore\n    /* \"#utility.yul\":2019:2023   */\n  0x11\n    /* \"#utility.yul\":2016:2017   */\n  0x04\n    /* \"#utility.yul\":2009:2024   */\n  mstore\n    /* \"#utility.yul\":2043:2047   */\n  0x24\n    /* \"#utility.yul\":2040:2041   */\n  0x00\n    /* \"#utility.yul\":2033:2048   */\n  revert\n    /* \"#utility.yul\":2060:2365   */\ntag_7:\n    /* \"#utility.yul\":2100:2103   */\n  0x00\n    /* \"#utility.yul\":2119:2139   */\n  tag_47\n    /* \"#utility.yul\":2137:2138   */\n  dup3\n    /* \"#utility.yul\":2119:2139   */\n  tag_17\n  jump\t// in\ntag_47:\n    /* \"#utility.yul\":2114:2139   */\n  swap2\n  pop\n    /* \"#utility.yul\":2153:2173   */\n  tag_48\n    /* \"#utility.yul\":2171:2172   */\n  dup4\n    /* \"#utility.yul\":2153:2173   */\n  tag_17\n  jump\t// in\ntag_48:\n    /* \"#utility.yul\":2148:2173   */\n  swap3\n  pop\n    /* \"#utility.yul\":2307:2308   */\n  dup3\n    /* \"#utility.yul\":2239:2305   */\n  0xffffffffffffffffffffffffffffffffffffffffffffffffffffffffffffffff\n    /* \"#utility.yul\":2235:2309   */\n  sub\n    /* \"#utility.yul\":2232:2233   */\n  dup3\n    /* \"#utility.yul\":2229:2310   */\n  gt\n    /* \"#utility.yul\":2226:2333   */\n  iszero\n  tag_49\n  jumpi\n    /* \"#utility.yul\":2313:2331   */\n  tag_50\n  tag_20\n  jump\t// in\ntag_50:\n    /* \"#utility.yul\":2226:2333   */\ntag_49:\n    /* \"#utility.yul\":2357:2358   */\n  dup3\n    /* \"#utility.yul\":2354:2355   */\n  dup3\n    /* \"#utility.yul\":2350:2359   */\n  add\n    /* \"#utility.yul\":2343:2359   */\n  swap1\n  pop\n    /* \"#utility.yul\":2060:2365   */\n  swap3\n  swap2\n  pop\n  pop\n  jump\t// out\n    /* \"contracts/test.sol\":70:1177  contract Test{... */\ntag_9:\n  dataSize(sub_0)\n  dup1\n  dataOffset(sub_0)\n  0x00\n  codecopy\n  0x00\n  return\nstop\n\nsub_0: assembly {\n        /* \"contracts/test.sol\":70:1177  contract Test{... */\n      mstore(0x40, 0x80)\n      jumpi(tag_1, lt(calldatasize, 0x04))\n      shr(0xe0, calldataload(0x00))\n      dup1\n      0x2a24f46c\n      eq\n      tag_2\n      jumpi\n      dup1\n      0x381d9787\n      eq\n      tag_3\n      jumpi\n      dup1\n      0x957bb1e0\n      eq\n      tag_4\n      jumpi\n      dup1\n      0xfe7fc8fd\n      eq\n      tag_5\n      jumpi\n    tag_1:\n      0x00\n      dup1\n      revert\n        /* \"contracts/test.sol\":161:183  uint public auctionEnd */\n    tag_2:\n      callvalue\n      dup1\n      iszero\n      tag_6\n      jumpi\n      0x00\n      dup1\n      revert\n    tag_6:\n      pop\n      tag_7\n      tag_8\n      jump\t// in\n    tag_7:\n      mload(0x40)\n      tag_9\n      swap2\n      swap1\n      tag_10\n      jump\t// in\n    tag_9:\n      mload(0x40)\n      dup1\n      swap2\n      sub\n      swap1\n      return\n        /* \"contracts/test.sol\":940:1175  function disclose(uint[] memory _value, bool[] memory _fake, bytes32[] memory secret) public onlyAfter(auctionEnd) onlyBefore(discloseEnd) {... */\n    tag_3:\n      callvalue\n      dup1\n      iszero\n      tag_11\n      jumpi\n      0x00\n      dup1\n      revert\n    tag_11:\n      pop\n      tag_12\n      0x04\n      dup1\n      calldatasize\n      sub\n      dup2\n      add\n      swap1\n      tag_13\n      swap2\n      swap1\n      tag_14\n      jump\t// in\n    tag_13:\n      tag_15\n      jump\t// in\n    tag_12:\n      stop\n        /* \"contracts/test.sol\":719:934  function bid(bytes32 _secretBid) payable public onlyBefore(auctionEnd) {... */\n    tag_4:\n      tag_16\n      0x04\n      dup1\n      calldatasize\n      sub\n      dup2\n      add\n      swap1\n      tag_17\n      swap2\n      swap1\n      tag_18\n      jump\t// in\n    tag_17:\n      tag_19\n      jump\t// in\n    tag_16:\n      stop\n        /* \"contracts/test.sol\":189:212  uint public discloseEnd */\n    tag_5:\n      callvalue\n      dup1\n      iszero\n      tag_20\n      jumpi\n      0x00\n      dup1\n      revert\n    tag_20:\n      pop\n      tag_21\n      tag_22\n      jump\t// in\n    tag_21:\n      mload(0x40)\n      tag_23\n      swap2\n      swap1\n      tag_10\n      jump\t// in\n    tag_23:\n      mload(0x40)\n      dup1\n      swap2\n      sub\n      swap1\n      return\n        /* \"contracts/test.sol\":161:183  uint public auctionEnd */\n    tag_8:\n      sload(0x00)\n      dup2\n      jump\t// out\n        /* \"contracts/test.sol\":940:1175  function disclose(uint[] memory _value, bool[] memory _fake, bytes32[] memory secret) public onlyAfter(auctionEnd) onlyBefore(discloseEnd) {... */\n    tag_15:\n        /* \"contracts/test.sol\":1043:1053  auctionEnd */\n      sload(0x00)\n        /* \"contracts/test.sol\":472:487  block.timestamp */\n      timestamp\n        /* \"contracts/test.sol\":462:469  timeEnd */\n      dup2\n        /* \"contracts/test.sol\":462:487  timeEnd > block.timestamp */\n      gt\n        /* \"contracts/test.sol\":454:488  require(timeEnd > block.timestamp) */\n      tag_25\n      jumpi\n      0x00\n      dup1\n      revert\n    tag_25:\n        /* \"contracts/test.sol\":1066:1077  discloseEnd */\n      sload(0x01)\n        /* \"contracts/test.sol\":396:411  block.timestamp */\n      timestamp\n        /* \"contracts/test.sol\":386:393  timeEnd */\n      dup2\n        /* \"contracts/test.sol\":386:411  timeEnd < block.timestamp */\n      lt\n        /* \"contracts/test.sol\":378:412  require(timeEnd < block.timestamp) */\n      tag_27\n      jumpi\n      0x00\n      dup1\n      revert\n    tag_27:\n        /* \"contracts/test.sol\":1089:1100  uint length */\n      0x00\n        /* \"contracts/test.sol\":1103:1107  bids */\n      0x03\n        /* \"contracts/test.sol\":1103:1119  bids[msg.sender] */\n      0x00\n        /* \"contracts/test.sol\":1108:1118  msg.sender */\n      caller\n        /* \"contracts/test.sol\":1103:1119  bids[msg.sender] */\n      0xffffffffffffffffffffffffffffffffffffffff\n      and\n      0xffffffffffffffffffffffffffffffffffffffff\n      and\n      dup2\n      mstore\n      0x20\n      add\n      swap1\n      dup2\n      mstore\n      0x20\n      add\n      0x00\n      keccak256\n        /* \"contracts/test.sol\":1103:1126  bids[msg.sender].length */\n      dup1\n      sload\n      swap1\n      pop\n        /* \"contracts/test.sol\":1089:1126  uint length = bids[msg.sender].length */\n      swap1\n      pop\n        /* \"contracts/test.sol\":1161:1167  length */\n      dup1\n        /* \"contracts/test.sol\":1144:1150  _value */\n      dup7\n        /* \"contracts/test.sol\":1144:1157  _value.length */\n      mload\n        /* \"contracts/test.sol\":1144:1167  _value.length == length */\n      eq\n        /* \"contracts/test.sol\":1136:1168  require(_value.length == length) */\n      tag_29\n      jumpi\n      0x00\n      dup1\n      revert\n    tag_29:\n        /* \"contracts/test.sol\":1079:1175  {... */\n      pop\n        /* \"contracts/test.sol\":489:490  _ */\n      pop\n        /* \"contracts/test.sol\":940:1175  function disclose(uint[] memory _value, bool[] memory _fake, bytes32[] memory secret) public onlyAfter(auctionEnd) onlyBefore(discloseEnd) {... */\n      pop\n      pop\n      pop\n      pop\n      jump\t// out\n        /* \"contracts/test.sol\":719:934  function bid(bytes32 _secretBid) payable public onlyBefore(auctionEnd) {... */\n    tag_19:\n        /* \"contracts/test.sol\":778:788  auctionEnd */\n      sload(0x00)\n        /* \"contracts/test.sol\":396:411  block.timestamp */\n      timestamp\n        /* \"contracts/test.sol\":386:393  timeEnd */\n      dup2\n        /* \"contracts/test.sol\":386:411  timeEnd < block.timestamp */\n      lt\n        /* \"contracts/test.sol\":378:412  require(timeEnd < block.timestamp) */\n      tag_31\n      jumpi\n      0x00\n      dup1\n      revert\n    tag_31:\n        /* \"contracts/test.sol\":800:804  bids */\n      0x03\n        /* \"contracts/test.sol\":800:816  bids[msg.sender] */\n      0x00\n        /* \"contracts/test.sol\":805:815  msg.sender */\n      caller\n        /* \"contracts/test.sol\":800:816  bids[msg.sender] */\n      0xffffffffffffffffffffffffffffffffffffffff\n      and\n      0xffffffffffffffffffffffffffffffffffffffff\n      and\n      dup2\n      mstore\n      0x20\n      add\n      swap1\n      dup2\n      mstore\n      0x20\n      add\n      0x00\n      keccak256\n        /* \"contracts/test.sol\":835:917  Bid({... */\n      mload(0x40)\n      dup1\n      0x40\n      add\n      0x40\n      mstore\n      dup1\n        /* \"contracts/test.sol\":862:871  msg.value */\n      callvalue\n        /* \"contracts/test.sol\":835:917  Bid({... */\n      dup2\n      mstore\n      0x20\n      add\n        /* \"contracts/test.sol\":896:906  _secretBid */\n      dup5\n        /* \"contracts/test.sol\":835:917  Bid({... */\n      dup2\n      mstore\n      pop\n        /* \"contracts/test.sol\":800:927  bids[msg.sender].push(... */\n      swap1\n      dup1\n      0x01\n      dup2\n      sload\n      add\n      dup1\n      dup3\n      sstore\n      dup1\n      swap2\n      pop\n      pop\n      0x01\n      swap1\n      sub\n      swap1\n      0x00\n      mstore\n      keccak256(0x00, 0x20)\n      swap1\n      0x02\n      mul\n      add\n      0x00\n      swap1\n      swap2\n      swap1\n      swap2\n      swap1\n      swap2\n      pop\n      0x00\n      dup3\n      add\n      mload\n      dup2\n      0x00\n      add\n      sstore\n      0x20\n      dup3\n      add\n      mload\n      dup2\n      0x01\n      add\n      sstore\n      pop\n      pop\n        /* \"contracts/test.sol\":719:934  function bid(bytes32 _secretBid) payable public onlyBefore(auctionEnd) {... */\n      pop\n      pop\n      jump\t// out\n        /* \"contracts/test.sol\":189:212  uint public discloseEnd */\n    tag_22:\n      sload(0x01)\n      dup2\n      jump\t// out\n        /* \"#utility.yul\":7:84   */\n    tag_34:\n        /* \"#utility.yul\":44:51   */\n      0x00\n        /* \"#utility.yul\":73:78   */\n      dup2\n        /* \"#utility.yul\":62:78   */\n      swap1\n      pop\n        /* \"#utility.yul\":7:84   */\n      swap2\n      swap1\n      pop\n      jump\t// out\n        /* \"#utility.yul\":90:208   */\n    tag_35:\n        /* \"#utility.yul\":177:201   */\n      tag_65\n        /* \"#utility.yul\":195:200   */\n      dup2\n        /* \"#utility.yul\":177:201   */\n      tag_34\n      jump\t// in\n    tag_65:\n        /* \"#utility.yul\":172:175   */\n      dup3\n        /* \"#utility.yul\":165:202   */\n      mstore\n        /* \"#utility.yul\":90:208   */\n      pop\n      pop\n      jump\t// out\n        /* \"#utility.yul\":214:436   */\n    tag_10:\n        /* \"#utility.yul\":307:311   */\n      0x00\n        /* \"#utility.yul\":345:347   */\n      0x20\n        /* \"#utility.yul\":334:343   */\n      dup3\n        /* \"#utility.yul\":330:348   */\n      add\n        /* \"#utility.yul\":322:348   */\n      swap1\n      pop\n        /* \"#utility.yul\":358:429   */\n      tag_67\n        /* \"#utility.yul\":426:427   */\n      0x00\n        /* \"#utility.yul\":415:424   */\n      dup4\n        /* \"#utility.yul\":411:428   */\n      add\n        /* \"#utility.yul\":402:408   */\n      dup5\n        /* \"#utility.yul\":358:429   */\n      tag_35\n      jump\t// in\n    tag_67:\n        /* \"#utility.yul\":214:436   */\n      swap3\n      swap2\n      pop\n      pop\n      jump\t// out\n        /* \"#utility.yul\":442:517   */\n    tag_36:\n        /* \"#utility.yul\":475:481   */\n      0x00\n        /* \"#utility.yul\":508:510   */\n      0x40\n        /* \"#utility.yul\":502:511   */\n      mload\n        /* \"#utility.yul\":492:511   */\n      swap1\n      pop\n        /* \"#utility.yul\":442:517   */\n      swap1\n      jump\t// out\n        /* \"#utility.yul\":523:640   */\n    tag_37:\n        /* \"#utility.yul\":632:633   */\n      0x00\n        /* \"#utility.yul\":629:630   */\n      dup1\n        /* \"#utility.yul\":622:634   */\n      revert\n        /* \"#utility.yul\":646:763   */\n    tag_38:\n        /* \"#utility.yul\":755:756   */\n      0x00\n        /* \"#utility.yul\":752:753   */\n      dup1\n        /* \"#utility.yul\":745:757   */\n      revert\n        /* \"#utility.yul\":769:886   */\n    tag_39:\n        /* \"#utility.yul\":878:879   */\n      0x00\n        /* \"#utility.yul\":875:876   */\n      dup1\n        /* \"#utility.yul\":868:880   */\n      revert\n        /* \"#utility.yul\":892:994   */\n    tag_40:\n        /* \"#utility.yul\":933:939   */\n      0x00\n        /* \"#utility.yul\":984:986   */\n      0x1f\n        /* \"#utility.yul\":980:987   */\n      not\n        /* \"#utility.yul\":975:977   */\n      0x1f\n        /* \"#utility.yul\":968:973   */\n      dup4\n        /* \"#utility.yul\":964:978   */\n      add\n        /* \"#utility.yul\":960:988   */\n      and\n        /* \"#utility.yul\":950:988   */\n      swap1\n      pop\n        /* \"#utility.yul\":892:994   */\n      swap2\n      swap1\n      pop\n      jump\t// out\n        /* \"#utility.yul\":1000:1180   */\n    tag_41:\n        /* \"#utility.yul\":1048:1125   */\n      0x4e487b7100000000000000000000000000000000000000000000000000000000\n        /* \"#utility.yul\":1045:1046   */\n      0x00\n        /* \"#utility.yul\":1038:1126   */\n      mstore\n        /* \"#utility.yul\":1145:1149   */\n      0x41\n        /* \"#utility.yul\":1142:1143   */\n      0x04\n        /* \"#utility.yul\":1135:1150   */\n      mstore\n        /* \"#utility.yul\":1169:1173   */\n      0x24\n        /* \"#utility.yul\":1166:1167   */\n      0x00\n        /* \"#utility.yul\":1159:1174   */\n      revert\n        /* \"#utility.yul\":1186:1467   */\n    tag_42:\n        /* \"#utility.yul\":1269:1296   */\n      tag_75\n        /* \"#utility.yul\":1291:1295   */\n      dup3\n        /* \"#utility.yul\":1269:1296   */\n      tag_40\n      jump\t// in\n    tag_75:\n        /* \"#utility.yul\":1261:1267   */\n      dup2\n        /* \"#utility.yul\":1257:1297   */\n      add\n        /* \"#utility.yul\":1399:1405   */\n      dup2\n        /* \"#utility.yul\":1387:1397   */\n      dup2\n        /* \"#utility.yul\":1384:1406   */\n      lt\n        /* \"#utility.yul\":1363:1381   */\n      0xffffffffffffffff\n        /* \"#utility.yul\":1351:1361   */\n      dup3\n        /* \"#utility.yul\":1348:1382   */\n      gt\n        /* \"#utility.yul\":1345:1407   */\n      or\n        /* \"#utility.yul\":1342:1430   */\n      iszero\n      tag_76\n      jumpi\n        /* \"#utility.yul\":1410:1428   */\n      tag_77\n      tag_41\n      jump\t// in\n    tag_77:\n        /* \"#utility.yul\":1342:1430   */\n    tag_76:\n        /* \"#utility.yul\":1450:1460   */\n      dup1\n        /* \"#utility.yul\":1446:1448   */\n      0x40\n        /* \"#utility.yul\":1439:1461   */\n      mstore\n        /* \"#utility.yul\":1229:1467   */\n      pop\n        /* \"#utility.yul\":1186:1467   */\n      pop\n      pop\n      jump\t// out\n        /* \"#utility.yul\":1473:1602   */\n    tag_43:\n        /* \"#utility.yul\":1507:1513   */\n      0x00\n        /* \"#utility.yul\":1534:1554   */\n      tag_79\n      tag_36\n      jump\t// in\n    tag_79:\n        /* \"#utility.yul\":1524:1554   */\n      swap1\n      pop\n        /* \"#utility.yul\":1563:1596   */\n      tag_80\n        /* \"#utility.yul\":1591:1595   */\n      dup3\n        /* \"#utility.yul\":1583:1589   */\n      dup3\n        /* \"#utility.yul\":1563:1596   */\n      tag_42\n      jump\t// in\n    tag_80:\n        /* \"#utility.yul\":1473:1602   */\n      swap2\n      swap1\n      pop\n      jump\t// out\n        /* \"#utility.yul\":1608:1919   */\n    tag_44:\n        /* \"#utility.yul\":1685:1689   */\n      0x00\n        /* \"#utility.yul\":1775:1793   */\n      0xffffffffffffffff\n        /* \"#utility.yul\":1767:1773   */\n      dup3\n        /* \"#utility.yul\":1764:1794   */\n      gt\n        /* \"#utility.yul\":1761:1817   */\n      iszero\n      tag_82\n      jumpi\n        /* \"#utility.yul\":1797:1815   */\n      tag_83\n      tag_41\n      jump\t// in\n    tag_83:\n        /* \"#utility.yul\":1761:1817   */\n    tag_82:\n        /* \"#utility.yul\":1847:1851   */\n      0x20\n        /* \"#utility.yul\":1839:1845   */\n      dup3\n        /* \"#utility.yul\":1835:1852   */\n      mul\n        /* \"#utility.yul\":1827:1852   */\n      swap1\n      pop\n        /* \"#utility.yul\":1907:1911   */\n      0x20\n        /* \"#utility.yul\":1901:1905   */\n      dup2\n        /* \"#utility.yul\":1897:1912   */\n      add\n        /* \"#utility.yul\":1889:1912   */\n      swap1\n      pop\n        /* \"#utility.yul\":1608:1919   */\n      swap2\n      swap1\n      pop\n      jump\t// out\n        /* \"#utility.yul\":1925:2042   */\n    tag_45:\n        /* \"#utility.yul\":2034:2035   */\n      0x00\n        /* \"#utility.yul\":2031:2032   */\n      dup1\n        /* \"#utility.yul\":2024:2036   */\n      revert\n        /* \"#utility.yul\":2048:2170   */\n    tag_46:\n        /* \"#utility.yul\":2121:2145   */\n      tag_86\n        /* \"#utility.yul\":2139:2144   */\n      dup2\n        /* \"#utility.yul\":2121:2145   */\n      tag_34\n      jump\t// in\n    tag_86:\n        /* \"#utility.yul\":2114:2119   */\n      dup2\n        /* \"#utility.yul\":2111:2146   */\n      eq\n        /* \"#utility.yul\":2101:2164   */\n      tag_87\n      jumpi\n        /* \"#utility.yul\":2160:2161   */\n      0x00\n        /* \"#utility.yul\":2157:2158   */\n      dup1\n        /* \"#utility.yul\":2150:2162   */\n      revert\n        /* \"#utility.yul\":2101:2164   */\n    tag_87:\n        /* \"#utility.yul\":2048:2170   */\n      pop\n      jump\t// out\n        /* \"#utility.yul\":2176:2315   */\n    tag_47:\n        /* \"#utility.yul\":2222:2227   */\n      0x00\n        /* \"#utility.yul\":2260:2266   */\n      dup2\n        /* \"#utility.yul\":2247:2267   */\n      calldataload\n        /* \"#utility.yul\":2238:2267   */\n      swap1\n      pop\n        /* \"#utility.yul\":2276:2309   */\n      tag_89\n        /* \"#utility.yul\":2303:2308   */\n      dup2\n        /* \"#utility.yul\":2276:2309   */\n      tag_46\n      jump\t// in\n    tag_89:\n        /* \"#utility.yul\":2176:2315   */\n      swap3\n      swap2\n      pop\n      pop\n      jump\t// out\n        /* \"#utility.yul\":2338:3048   */\n    tag_48:\n        /* \"#utility.yul\":2434:2439   */\n      0x00\n        /* \"#utility.yul\":2459:2540   */\n      tag_91\n        /* \"#utility.yul\":2475:2539   */\n      tag_92\n        /* \"#utility.yul\":2532:2538   */\n      dup5\n        /* \"#utility.yul\":2475:2539   */\n      tag_44\n      jump\t// in\n    tag_92:\n        /* \"#utility.yul\":2459:2540   */\n      tag_43\n      jump\t// in\n    tag_91:\n        /* \"#utility.yul\":2450:2540   */\n      swap1\n      pop\n        /* \"#utility.yul\":2560:2565   */\n      dup1\n        /* \"#utility.yul\":2589:2595   */\n      dup4\n        /* \"#utility.yul\":2582:2587   */\n      dup3\n        /* \"#utility.yul\":2575:2596   */\n      mstore\n        /* \"#utility.yul\":2623:2627   */\n      0x20\n        /* \"#utility.yul\":2616:2621   */\n      dup3\n        /* \"#utility.yul\":2612:2628   */\n      add\n        /* \"#utility.yul\":2605:2628   */\n      swap1\n      pop\n        /* \"#utility.yul\":2676:2680   */\n      0x20\n        /* \"#utility.yul\":2668:2674   */\n      dup5\n        /* \"#utility.yul\":2664:2681   */\n      mul\n        /* \"#utility.yul\":2656:2662   */\n      dup4\n        /* \"#utility.yul\":2652:2682   */\n      add\n        /* \"#utility.yul\":2705:2708   */\n      dup6\n        /* \"#utility.yul\":2697:2703   */\n      dup2\n        /* \"#utility.yul\":2694:2709   */\n      gt\n        /* \"#utility.yul\":2691:2813   */\n      iszero\n      tag_93\n      jumpi\n        /* \"#utility.yul\":2724:2803   */\n      tag_94\n      tag_45\n      jump\t// in\n    tag_94:\n        /* \"#utility.yul\":2691:2813   */\n    tag_93:\n        /* \"#utility.yul\":2839:2845   */\n      dup4\n        /* \"#utility.yul\":2822:3042   */\n    tag_95:\n        /* \"#utility.yul\":2856:2862   */\n      dup2\n        /* \"#utility.yul\":2851:2854   */\n      dup2\n        /* \"#utility.yul\":2848:2863   */\n      lt\n        /* \"#utility.yul\":2822:3042   */\n      iszero\n      tag_97\n      jumpi\n        /* \"#utility.yul\":2931:2934   */\n      dup1\n        /* \"#utility.yul\":2960:2997   */\n      tag_98\n        /* \"#utility.yul\":2993:2996   */\n      dup9\n        /* \"#utility.yul\":2981:2991   */\n      dup3\n        /* \"#utility.yul\":2960:2997   */\n      tag_47\n      jump\t// in\n    tag_98:\n        /* \"#utility.yul\":2955:2958   */\n      dup5\n        /* \"#utility.yul\":2948:2998   */\n      mstore\n        /* \"#utility.yul\":3027:3031   */\n      0x20\n        /* \"#utility.yul\":3022:3025   */\n      dup5\n        /* \"#utility.yul\":3018:3032   */\n      add\n        /* \"#utility.yul\":3011:3032   */\n      swap4\n      pop\n        /* \"#utility.yul\":2898:3042   */\n      pop\n        /* \"#utility.yul\":2882:2886   */\n      0x20\n        /* \"#utility.yul\":2877:2880   */\n      dup2\n        /* \"#utility.yul\":2873:2887   */\n      add\n        /* \"#utility.yul\":2866:2887   */\n      swap1\n      pop\n        /* \"#utility.yul\":2822:3042   */\n      jump(tag_95)\n    tag_97:\n        /* \"#utility.yul\":2826:2847   */\n      pop\n        /* \"#utility.yul\":2440:3048   */\n      pop\n      pop\n        /* \"#utility.yul\":2338:3048   */\n      swap4\n      swap3\n      pop\n      pop\n      pop\n      jump\t// out\n        /* \"#utility.yul\":3071:3441   */\n    tag_49:\n        /* \"#utility.yul\":3142:3147   */\n      0x00\n        /* \"#utility.yul\":3191:3194   */\n      dup3\n        /* \"#utility.yul\":3184:3188   */\n      0x1f\n        /* \"#utility.yul\":3176:3182   */\n      dup4\n        /* \"#utility.yul\":3172:3189   */\n      add\n        /* \"#utility.yul\":3168:3195   */\n      slt\n        /* \"#utility.yul\":3158:3280   */\n      tag_100\n      jumpi\n        /* \"#utility.yul\":3199:3278   */\n      tag_101\n      tag_39\n      jump\t// in\n    tag_101:\n        /* \"#utility.yul\":3158:3280   */\n    tag_100:\n        /* \"#utility.yul\":3316:3322   */\n      dup2\n        /* \"#utility.yul\":3303:3323   */\n      calldataload\n        /* \"#utility.yul\":3341:3435   */\n      tag_102\n        /* \"#utility.yul\":3431:3434   */\n      dup5\n        /* \"#utility.yul\":3423:3429   */\n      dup3\n        /* \"#utility.yul\":3416:3420   */\n      0x20\n        /* \"#utility.yul\":3408:3414   */\n      dup7\n        /* \"#utility.yul\":3404:3421   */\n      add\n        /* \"#utility.yul\":3341:3435   */\n      tag_48\n      jump\t// in\n    tag_102:\n        /* \"#utility.yul\":3332:3435   */\n      swap2\n      pop\n        /* \"#utility.yul\":3148:3441   */\n      pop\n        /* \"#utility.yul\":3071:3441   */\n      swap3\n      swap2\n      pop\n      pop\n      jump\t// out\n        /* \"#utility.yul\":3447:3755   */\n    tag_50:\n        /* \"#utility.yul\":3521:3525   */\n      0x00\n        /* \"#utility.yul\":3611:3629   */\n      0xffffffffffffffff\n        /* \"#utility.yul\":3603:3609   */\n      dup3\n        /* \"#utility.yul\":3600:3630   */\n      gt\n        /* \"#utility.yul\":3597:3653   */\n      iszero\n      tag_104\n      jumpi\n        /* \"#utility.yul\":3633:3651   */\n      tag_105\n      tag_41\n      jump\t// in\n    tag_105:\n        /* \"#utility.yul\":3597:3653   */\n    tag_104:\n        /* \"#utility.yul\":3683:3687   */\n      0x20\n        /* \"#utility.yul\":3675:3681   */\n      dup3\n        /* \"#utility.yul\":3671:3688   */\n      mul\n        /* \"#utility.yul\":3663:3688   */\n      swap1\n      pop\n        /* \"#utility.yul\":3743:3747   */\n      0x20\n        /* \"#utility.yul\":3737:3741   */\n      dup2\n        /* \"#utility.yul\":3733:3748   */\n      add\n        /* \"#utility.yul\":3725:3748   */\n      swap1\n      pop\n        /* \"#utility.yul\":3447:3755   */\n      swap2\n      swap1\n      pop\n      jump\t// out\n        /* \"#utility.yul\":3761:3851   */\n    tag_51:\n        /* \"#utility.yul\":3795:3802   */\n      0x00\n        /* \"#utility.yul\":3838:3843   */\n      dup2\n        /* \"#utility.yul\":3831:3844   */\n      iszero\n        /* \"#utility.yul\":3824:3845   */\n      iszero\n        /* \"#utility.yul\":3813:3845   */\n      swap1\n      pop\n        /* \"#utility.yul\":3761:3851   */\n      swap2\n      swap1\n      pop\n      jump\t// out\n        /* \"#utility.yul\":3857:3973   */\n    tag_52:\n        /* \"#utility.yul\":3927:3948   */\n      tag_108\n        /* \"#utility.yul\":3942:3947   */\n      dup2\n        /* \"#utility.yul\":3927:3948   */\n      tag_51\n      jump\t// in\n    tag_108:\n        /* \"#utility.yul\":3920:3925   */\n      dup2\n        /* \"#utility.yul\":3917:3949   */\n      eq\n        /* \"#utility.yul\":3907:3967   */\n      tag_109\n      jumpi\n        /* \"#utility.yul\":3963:3964   */\n      0x00\n        /* \"#utility.yul\":3960:3961   */\n      dup1\n        /* \"#utility.yul\":3953:3965   */\n      revert\n        /* \"#utility.yul\":3907:3967   */\n    tag_109:\n        /* \"#utility.yul\":3857:3973   */\n      pop\n      jump\t// out\n        /* \"#utility.yul\":3979:4112   */\n    tag_53:\n        /* \"#utility.yul\":4022:4027   */\n      0x00\n        /* \"#utility.yul\":4060:4066   */\n      dup2\n        /* \"#utility.yul\":4047:4067   */\n      calldataload\n        /* \"#utility.yul\":4038:4067   */\n      swap1\n      pop\n        /* \"#utility.yul\":4076:4106   */\n      tag_111\n        /* \"#utility.yul\":4100:4105   */\n      dup2\n        /* \"#utility.yul\":4076:4106   */\n      tag_52\n      jump\t// in\n    tag_111:\n        /* \"#utility.yul\":3979:4112   */\n      swap3\n      swap2\n      pop\n      pop\n      jump\t// out\n        /* \"#utility.yul\":4132:4833   */\n    tag_54:\n        /* \"#utility.yul\":4225:4230   */\n      0x00\n        /* \"#utility.yul\":4250:4328   */\n      tag_113\n        /* \"#utility.yul\":4266:4327   */\n      tag_114\n        /* \"#utility.yul\":4320:4326   */\n      dup5\n        /* \"#utility.yul\":4266:4327   */\n      tag_50\n      jump\t// in\n    tag_114:\n        /* \"#utility.yul\":4250:4328   */\n      tag_43\n      jump\t// in\n    tag_113:\n        /* \"#utility.yul\":4241:4328   */\n      swap1\n      pop\n        /* \"#utility.yul\":4348:4353   */\n      dup1\n        /* \"#utility.yul\":4377:4383   */\n      dup4\n        /* \"#utility.yul\":4370:4375   */\n      dup3\n        /* \"#utility.yul\":4363:4384   */\n      mstore\n        /* \"#utility.yul\":4411:4415   */\n      0x20\n        /* \"#utility.yul\":4404:4409   */\n      dup3\n        /* \"#utility.yul\":4400:4416   */\n      add\n        /* \"#utility.yul\":4393:4416   */\n      swap1\n      pop\n        /* \"#utility.yul\":4464:4468   */\n      0x20\n        /* \"#utility.yul\":4456:4462   */\n      dup5\n        /* \"#utility.yul\":4452:4469   */\n      mul\n        /* \"#utility.yul\":4444:4450   */\n      dup4\n        /* \"#utility.yul\":4440:4470   */\n      add\n        /* \"#utility.yul\":4493:4496   */\n      dup6\n        /* \"#utility.yul\":4485:4491   */\n      dup2\n        /* \"#utility.yul\":4482:4497   */\n      gt\n        /* \"#utility.yul\":4479:4601   */\n      iszero\n      tag_115\n      jumpi\n        /* \"#utility.yul\":4512:4591   */\n      tag_116\n      tag_45\n      jump\t// in\n    tag_116:\n        /* \"#utility.yul\":4479:4601   */\n    tag_115:\n        /* \"#utility.yul\":4627:4633   */\n      dup4\n        /* \"#utility.yul\":4610:4827   */\n    tag_117:\n        /* \"#utility.yul\":4644:4650   */\n      dup2\n        /* \"#utility.yul\":4639:4642   */\n      dup2\n        /* \"#utility.yul\":4636:4651   */\n      lt\n        /* \"#utility.yul\":4610:4827   */\n      iszero\n      tag_119\n      jumpi\n        /* \"#utility.yul\":4719:4722   */\n      dup1\n        /* \"#utility.yul\":4748:4782   */\n      tag_120\n        /* \"#utility.yul\":4778:4781   */\n      dup9\n        /* \"#utility.yul\":4766:4776   */\n      dup3\n        /* \"#utility.yul\":4748:4782   */\n      tag_53\n      jump\t// in\n    tag_120:\n        /* \"#utility.yul\":4743:4746   */\n      dup5\n        /* \"#utility.yul\":4736:4783   */\n      mstore\n        /* \"#utility.yul\":4812:4816   */\n      0x20\n        /* \"#utility.yul\":4807:4810   */\n      dup5\n        /* \"#utility.yul\":4803:4817   */\n      add\n        /* \"#utility.yul\":4796:4817   */\n      swap4\n      pop\n        /* \"#utility.yul\":4686:4827   */\n      pop\n        /* \"#utility.yul\":4670:4674   */\n      0x20\n        /* \"#utility.yul\":4665:4668   */\n      dup2\n        /* \"#utility.yul\":4661:4675   */\n      add\n        /* \"#utility.yul\":4654:4675   */\n      swap1\n      pop\n        /* \"#utility.yul\":4610:4827   */\n      jump(tag_117)\n    tag_119:\n        /* \"#utility.yul\":4614:4635   */\n      pop\n        /* \"#utility.yul\":4231:4833   */\n      pop\n      pop\n        /* \"#utility.yul\":4132:4833   */\n      swap4\n      swap3\n      pop\n      pop\n      pop\n      jump\t// out\n        /* \"#utility.yul\":4853:5217   */\n    tag_55:\n        /* \"#utility.yul\":4921:4926   */\n      0x00\n        /* \"#utility.yul\":4970:4973   */\n      dup3\n        /* \"#utility.yul\":4963:4967   */\n      0x1f\n        /* \"#utility.yul\":4955:4961   */\n      dup4\n        /* \"#utility.yul\":4951:4968   */\n      add\n        /* \"#utility.yul\":4947:4974   */\n      slt\n        /* \"#utility.yul\":4937:5059   */\n      tag_122\n      jumpi\n        /* \"#utility.yul\":4978:5057   */\n      tag_123\n      tag_39\n      jump\t// in\n    tag_123:\n        /* \"#utility.yul\":4937:5059   */\n    tag_122:\n        /* \"#utility.yul\":5095:5101   */\n      dup2\n        /* \"#utility.yul\":5082:5102   */\n      calldataload\n        /* \"#utility.yul\":5120:5211   */\n      tag_124\n        /* \"#utility.yul\":5207:5210   */\n      dup5\n        /* \"#utility.yul\":5199:5205   */\n      dup3\n        /* \"#utility.yul\":5192:5196   */\n      0x20\n        /* \"#utility.yul\":5184:5190   */\n      dup7\n        /* \"#utility.yul\":5180:5197   */\n      add\n        /* \"#utility.yul\":5120:5211   */\n      tag_54\n      jump\t// in\n    tag_124:\n        /* \"#utility.yul\":5111:5211   */\n      swap2\n      pop\n        /* \"#utility.yul\":4927:5217   */\n      pop\n        /* \"#utility.yul\":4853:5217   */\n      swap3\n      swap2\n      pop\n      pop\n      jump\t// out\n        /* \"#utility.yul\":5223:5534   */\n    tag_56:\n        /* \"#utility.yul\":5300:5304   */\n      0x00\n        /* \"#utility.yul\":5390:5408   */\n      0xffffffffffffffff\n        /* \"#utility.yul\":5382:5388   */\n      dup3\n        /* \"#utility.yul\":5379:5409   */\n      gt\n        /* \"#utility.yul\":5376:5432   */\n      iszero\n      tag_126\n      jumpi\n        /* \"#utility.yul\":5412:5430   */\n      tag_127\n      tag_41\n      jump\t// in\n    tag_127:\n        /* \"#utility.yul\":5376:5432   */\n    tag_126:\n        /* \"#utility.yul\":5462:5466   */\n      0x20\n        /* \"#utility.yul\":5454:5460   */\n      dup3\n        /* \"#utility.yul\":5450:5467   */\n      mul\n        /* \"#utility.yul\":5442:5467   */\n      swap1\n      pop\n        /* \"#utility.yul\":5522:5526   */\n      0x20\n        /* \"#utility.yul\":5516:5520   */\n      dup2\n        /* \"#utility.yul\":5512:5527   */\n      add\n        /* \"#utility.yul\":5504:5527   */\n      swap1\n      pop\n        /* \"#utility.yul\":5223:5534   */\n      swap2\n      swap1\n      pop\n      jump\t// out\n        /* \"#utility.yul\":5540:5617   */\n    tag_57:\n        /* \"#utility.yul\":5577:5584   */\n      0x00\n        /* \"#utility.yul\":5606:5611   */\n      dup2\n        /* \"#utility.yul\":5595:5611   */\n      swap1\n      pop\n        /* \"#utility.yul\":5540:5617   */\n      swap2\n      swap1\n      pop\n      jump\t// out\n        /* \"#utility.yul\":5623:5745   */\n    tag_58:\n        /* \"#utility.yul\":5696:5720   */\n      tag_130\n        /* \"#utility.yul\":5714:5719   */\n      dup2\n        /* \"#utility.yul\":5696:5720   */\n      tag_57\n      jump\t// in\n    tag_130:\n        /* \"#utility.yul\":5689:5694   */\n      dup2\n        /* \"#utility.yul\":5686:5721   */\n      eq\n        /* \"#utility.yul\":5676:5739   */\n      tag_131\n      jumpi\n        /* \"#utility.yul\":5735:5736   */\n      0x00\n        /* \"#utility.yul\":5732:5733   */\n      dup1\n        /* \"#utility.yul\":5725:5737   */\n      revert\n        /* \"#utility.yul\":5676:5739   */\n    tag_131:\n        /* \"#utility.yul\":5623:5745   */\n      pop\n      jump\t// out\n        /* \"#utility.yul\":5751:5890   */\n    tag_59:\n        /* \"#utility.yul\":5797:5802   */\n      0x00\n        /* \"#utility.yul\":5835:5841   */\n      dup2\n        /* \"#utility.yul\":5822:5842   */\n      calldataload\n        /* \"#utility.yul\":5813:5842   */\n      swap1\n      pop\n        /* \"#utility.yul\":5851:5884   */\n      tag_133\n        /* \"#utility.yul\":5878:5883   */\n      dup2\n        /* \"#utility.yul\":5851:5884   */\n      tag_58\n      jump\t// in\n    tag_133:\n        /* \"#utility.yul\":5751:5890   */\n      swap3\n      swap2\n      pop\n      pop\n      jump\t// out\n        /* \"#utility.yul\":5913:6623   */\n    tag_60:\n        /* \"#utility.yul\":6009:6014   */\n      0x00\n        /* \"#utility.yul\":6034:6115   */\n      tag_135\n        /* \"#utility.yul\":6050:6114   */\n      tag_136\n        /* \"#utility.yul\":6107:6113   */\n      dup5\n        /* \"#utility.yul\":6050:6114   */\n      tag_56\n      jump\t// in\n    tag_136:\n        /* \"#utility.yul\":6034:6115   */\n      tag_43\n      jump\t// in\n    tag_135:\n        /* \"#utility.yul\":6025:6115   */\n      swap1\n      pop\n        /* \"#utility.yul\":6135:6140   */\n      dup1\n        /* \"#utility.yul\":6164:6170   */\n      dup4\n        /* \"#utility.yul\":6157:6162   */\n      dup3\n        /* \"#utility.yul\":6150:6171   */\n      mstore\n        /* \"#utility.yul\":6198:6202   */\n      0x20\n        /* \"#utility.yul\":6191:6196   */\n      dup3\n        /* \"#utility.yul\":6187:6203   */\n      add\n        /* \"#utility.yul\":6180:6203   */\n      swap1\n      pop\n        /* \"#utility.yul\":6251:6255   */\n      0x20\n        /* \"#utility.yul\":6243:6249   */\n      dup5\n        /* \"#utility.yul\":6239:6256   */\n      mul\n        /* \"#utility.yul\":6231:6237   */\n      dup4\n        /* \"#utility.yul\":6227:6257   */\n      add\n        /* \"#utility.yul\":6280:6283   */\n      dup6\n        /* \"#utility.yul\":6272:6278   */\n      dup2\n        /* \"#utility.yul\":6269:6284   */\n      gt\n        /* \"#utility.yul\":6266:6388   */\n      iszero\n      tag_137\n      jumpi\n        /* \"#utility.yul\":6299:6378   */\n      tag_138\n      tag_45\n      jump\t// in\n    tag_138:\n        /* \"#utility.yul\":6266:6388   */\n    tag_137:\n        /* \"#utility.yul\":6414:6420   */\n      dup4\n        /* \"#utility.yul\":6397:6617   */\n    tag_139:\n        /* \"#utility.yul\":6431:6437   */\n      dup2\n        /* \"#utility.yul\":6426:6429   */\n      dup2\n        /* \"#utility.yul\":6423:6438   */\n      lt\n        /* \"#utility.yul\":6397:6617   */\n      iszero\n      tag_141\n      jumpi\n        /* \"#utility.yul\":6506:6509   */\n      dup1\n        /* \"#utility.yul\":6535:6572   */\n      tag_142\n        /* \"#utility.yul\":6568:6571   */\n      dup9\n        /* \"#utility.yul\":6556:6566   */\n      dup3\n        /* \"#utility.yul\":6535:6572   */\n      tag_59\n      jump\t// in\n    tag_142:\n        /* \"#utility.yul\":6530:6533   */\n      dup5\n        /* \"#utility.yul\":6523:6573   */\n      mstore\n        /* \"#utility.yul\":6602:6606   */\n      0x20\n        /* \"#utility.yul\":6597:6600   */\n      dup5\n        /* \"#utility.yul\":6593:6607   */\n      add\n        /* \"#utility.yul\":6586:6607   */\n      swap4\n      pop\n        /* \"#utility.yul\":6473:6617   */\n      pop\n        /* \"#utility.yul\":6457:6461   */\n      0x20\n        /* \"#utility.yul\":6452:6455   */\n      dup2\n        /* \"#utility.yul\":6448:6462   */\n      add\n        /* \"#utility.yul\":6441:6462   */\n      swap1\n      pop\n        /* \"#utility.yul\":6397:6617   */\n      jump(tag_139)\n    tag_141:\n        /* \"#utility.yul\":6401:6422   */\n      pop\n        /* \"#utility.yul\":6015:6623   */\n      pop\n      pop\n        /* \"#utility.yul\":5913:6623   */\n      swap4\n      swap3\n      pop\n      pop\n      pop\n      jump\t// out\n        /* \"#utility.yul\":6646:7016   */\n    tag_61:\n        /* \"#utility.yul\":6717:6722   */\n      0x00\n        /* \"#utility.yul\":6766:6769   */\n      dup3\n        /* \"#utility.yul\":6759:6763   */\n      0x1f\n        /* \"#utility.yul\":6751:6757   */\n      dup4\n        /* \"#utility.yul\":6747:6764   */\n      add\n        /* \"#utility.yul\":6743:6770   */\n      slt\n        /* \"#utility.yul\":6733:6855   */\n      tag_144\n      jumpi\n        /* \"#utility.yul\":6774:6853   */\n      tag_145\n      tag_39\n      jump\t// in\n    tag_145:\n        /* \"#utility.yul\":6733:6855   */\n    tag_144:\n        /* \"#utility.yul\":6891:6897   */\n      dup2\n        /* \"#utility.yul\":6878:6898   */\n      calldataload\n        /* \"#utility.yul\":6916:7010   */\n      tag_146\n        /* \"#utility.yul\":7006:7009   */\n      dup5\n        /* \"#utility.yul\":6998:7004   */\n      dup3\n        /* \"#utility.yul\":6991:6995   */\n      0x20\n        /* \"#utility.yul\":6983:6989   */\n      dup7\n        /* \"#utility.yul\":6979:6996   */\n      add\n        /* \"#utility.yul\":6916:7010   */\n      tag_60\n      jump\t// in\n    tag_146:\n        /* \"#utility.yul\":6907:7010   */\n      swap2\n      pop\n        /* \"#utility.yul\":6723:7016   */\n      pop\n        /* \"#utility.yul\":6646:7016   */\n      swap3\n      swap2\n      pop\n      pop\n      jump\t// out\n        /* \"#utility.yul\":7022:8265   */\n    tag_14:\n        /* \"#utility.yul\":7171:7177   */\n      0x00\n        /* \"#utility.yul\":7179:7185   */\n      dup1\n        /* \"#utility.yul\":7187:7193   */\n      0x00\n        /* \"#utility.yul\":7236:7238   */\n      0x60\n        /* \"#utility.yul\":7224:7233   */\n      dup5\n        /* \"#utility.yul\":7215:7222   */\n      dup7\n        /* \"#utility.yul\":7211:7234   */\n      sub\n        /* \"#utility.yul\":7207:7239   */\n      slt\n        /* \"#utility.yul\":7204:7323   */\n      iszero\n      tag_148\n      jumpi\n        /* \"#utility.yul\":7242:7321   */\n      tag_149\n      tag_37\n      jump\t// in\n    tag_149:\n        /* \"#utility.yul\":7204:7323   */\n    tag_148:\n        /* \"#utility.yul\":7390:7391   */\n      0x00\n        /* \"#utility.yul\":7379:7388   */\n      dup5\n        /* \"#utility.yul\":7375:7392   */\n      add\n        /* \"#utility.yul\":7362:7393   */\n      calldataload\n        /* \"#utility.yul\":7420:7438   */\n      0xffffffffffffffff\n        /* \"#utility.yul\":7412:7418   */\n      dup2\n        /* \"#utility.yul\":7409:7439   */\n      gt\n        /* \"#utility.yul\":7406:7523   */\n      iszero\n      tag_150\n      jumpi\n        /* \"#utility.yul\":7442:7521   */\n      tag_151\n      tag_38\n      jump\t// in\n    tag_151:\n        /* \"#utility.yul\":7406:7523   */\n    tag_150:\n        /* \"#utility.yul\":7547:7625   */\n      tag_152\n        /* \"#utility.yul\":7617:7624   */\n      dup7\n        /* \"#utility.yul\":7608:7614   */\n      dup3\n        /* \"#utility.yul\":7597:7606   */\n      dup8\n        /* \"#utility.yul\":7593:7615   */\n      add\n        /* \"#utility.yul\":7547:7625   */\n      tag_49\n      jump\t// in\n    tag_152:\n        /* \"#utility.yul\":7537:7625   */\n      swap4\n      pop\n        /* \"#utility.yul\":7333:7635   */\n      pop\n        /* \"#utility.yul\":7702:7704   */\n      0x20\n        /* \"#utility.yul\":7691:7700   */\n      dup5\n        /* \"#utility.yul\":7687:7705   */\n      add\n        /* \"#utility.yul\":7674:7706   */\n      calldataload\n        /* \"#utility.yul\":7733:7751   */\n      0xffffffffffffffff\n        /* \"#utility.yul\":7725:7731   */\n      dup2\n        /* \"#utility.yul\":7722:7752   */\n      gt\n        /* \"#utility.yul\":7719:7836   */\n      iszero\n      tag_153\n      jumpi\n        /* \"#utility.yul\":7755:7834   */\n      tag_154\n      tag_38\n      jump\t// in\n    tag_154:\n        /* \"#utility.yul\":7719:7836   */\n    tag_153:\n        /* \"#utility.yul\":7860:7935   */\n      tag_155\n        /* \"#utility.yul\":7927:7934   */\n      dup7\n        /* \"#utility.yul\":7918:7924   */\n      dup3\n        /* \"#utility.yul\":7907:7916   */\n      dup8\n        /* \"#utility.yul\":7903:7925   */\n      add\n        /* \"#utility.yul\":7860:7935   */\n      tag_55\n      jump\t// in\n    tag_155:\n        /* \"#utility.yul\":7850:7935   */\n      swap3\n      pop\n        /* \"#utility.yul\":7645:7945   */\n      pop\n        /* \"#utility.yul\":8012:8014   */\n      0x40\n        /* \"#utility.yul\":8001:8010   */\n      dup5\n        /* \"#utility.yul\":7997:8015   */\n      add\n        /* \"#utility.yul\":7984:8016   */\n      calldataload\n        /* \"#utility.yul\":8043:8061   */\n      0xffffffffffffffff\n        /* \"#utility.yul\":8035:8041   */\n      dup2\n        /* \"#utility.yul\":8032:8062   */\n      gt\n        /* \"#utility.yul\":8029:8146   */\n      iszero\n      tag_156\n      jumpi\n        /* \"#utility.yul\":8065:8144   */\n      tag_157\n      tag_38\n      jump\t// in\n    tag_157:\n        /* \"#utility.yul\":8029:8146   */\n    tag_156:\n        /* \"#utility.yul\":8170:8248   */\n      tag_158\n        /* \"#utility.yul\":8240:8247   */\n      dup7\n        /* \"#utility.yul\":8231:8237   */\n      dup3\n        /* \"#utility.yul\":8220:8229   */\n      dup8\n        /* \"#utility.yul\":8216:8238   */\n      add\n        /* \"#utility.yul\":8170:8248   */\n      tag_61\n      jump\t// in\n    tag_158:\n        /* \"#utility.yul\":8160:8248   */\n      swap2\n      pop\n        /* \"#utility.yul\":7955:8258   */\n      pop\n        /* \"#utility.yul\":7022:8265   */\n      swap3\n      pop\n      swap3\n      pop\n      swap3\n      jump\t// out\n        /* \"#utility.yul\":8271:8600   */\n    tag_18:\n        /* \"#utility.yul\":8330:8336   */\n      0x00\n        /* \"#utility.yul\":8379:8381   */\n      0x20\n        /* \"#utility.yul\":8367:8376   */\n      dup3\n        /* \"#utility.yul\":8358:8365   */\n      dup5\n        /* \"#utility.yul\":8354:8377   */\n      sub\n        /* \"#utility.yul\":8350:8382   */\n      slt\n        /* \"#utility.yul\":8347:8466   */\n      iszero\n      tag_160\n      jumpi\n        /* \"#utility.yul\":8385:8464   */\n      tag_161\n      tag_37\n      jump\t// in\n    tag_161:\n        /* \"#utility.yul\":8347:8466   */\n    tag_160:\n        /* \"#utility.yul\":8505:8506   */\n      0x00\n        /* \"#utility.yul\":8530:8583   */\n      tag_162\n        /* \"#utility.yul\":8575:8582   */\n      dup5\n        /* \"#utility.yul\":8566:8572   */\n      dup3\n        /* \"#utility.yul\":8555:8564   */\n      dup6\n        /* \"#utility.yul\":8551:8573   */\n      add\n        /* \"#utility.yul\":8530:8583   */\n      tag_59\n      jump\t// in\n    tag_162:\n        /* \"#utility.yul\":8520:8583   */\n      swap2\n      pop\n        /* \"#utility.yul\":8476:8593   */\n      pop\n        /* \"#utility.yul\":8271:8600   */\n      swap3\n      swap2\n      pop\n      pop\n      jump\t// out\n\n    auxdata: 0xa264697066735822122032d44f01fd1f4f76bf1cf21bb0917bbd322b3f63be2afaa7bfc0af615f4360d964736f6c634300080d0033\n}\n",
				"bytecode": {
					"linkReferences": {},
					"object": "608060405234801561001057600080fd5b506040516108f73803806108f78339818101604052810190610032919061013a565b82600260006101000a81548173ffffffffffffffffffffffffffffffffffffffff021916908373ffffffffffffffffffffffffffffffffffffffff160217905550814261007f91906101bc565b6000819055508060005461009391906101bc565b600181905550505050610212565b600080fd5b600073ffffffffffffffffffffffffffffffffffffffff82169050919050565b60006100d1826100a6565b9050919050565b6100e1816100c6565b81146100ec57600080fd5b50565b6000815190506100fe816100d8565b92915050565b6000819050919050565b61011781610104565b811461012257600080fd5b50565b6000815190506101348161010e565b92915050565b600080600060608486031215610153576101526100a1565b5b6000610161868287016100ef565b935050602061017286828701610125565b925050604061018386828701610125565b9150509250925092565b7f4e487b7100000000000000000000000000000000000000000000000000000000600052601160045260246000fd5b60006101c782610104565b91506101d283610104565b9250827fffffffffffffffffffffffffffffffffffffffffffffffffffffffffffffffff038211156102075761020661018d565b5b828201905092915050565b6106d6806102216000396000f3fe60806040526004361061003f5760003560e01c80632a24f46c14610044578063381d97871461006f578063957bb1e014610098578063fe7fc8fd146100b4575b600080fd5b34801561005057600080fd5b506100596100df565b6040516100669190610224565b60405180910390f35b34801561007b57600080fd5b50610096600480360381019061009191906105cc565b6100e5565b005b6100b260048036038101906100ad9190610673565b61015f565b005b3480156100c057600080fd5b506100c9610205565b6040516100d69190610224565b60405180910390f35b60005481565b6000544281116100f457600080fd5b60015442811061010357600080fd5b6000600360003373ffffffffffffffffffffffffffffffffffffffff1673ffffffffffffffffffffffffffffffffffffffff1681526020019081526020016000208054905090508086511461015757600080fd5b505050505050565b60005442811061016e57600080fd5b600360003373ffffffffffffffffffffffffffffffffffffffff1673ffffffffffffffffffffffffffffffffffffffff1681526020019081526020016000206040518060400160405280348152602001848152509080600181540180825580915050600190039060005260206000209060020201600090919091909150600082015181600001556020820151816001015550505050565b60015481565b6000819050919050565b61021e8161020b565b82525050565b60006020820190506102396000830184610215565b92915050565b6000604051905090565b600080fd5b600080fd5b600080fd5b6000601f19601f8301169050919050565b7f4e487b7100000000000000000000000000000000000000000000000000000000600052604160045260246000fd5b6102a182610258565b810181811067ffffffffffffffff821117156102c0576102bf610269565b5b80604052505050565b60006102d361023f565b90506102df8282610298565b919050565b600067ffffffffffffffff8211156102ff576102fe610269565b5b602082029050602081019050919050565b600080fd5b61031e8161020b565b811461032957600080fd5b50565b60008135905061033b81610315565b92915050565b600061035461034f846102e4565b6102c9565b9050808382526020820190506020840283018581111561037757610376610310565b5b835b818110156103a0578061038c888261032c565b845260208401935050602081019050610379565b5050509392505050565b600082601f8301126103bf576103be610253565b5b81356103cf848260208601610341565b91505092915050565b600067ffffffffffffffff8211156103f3576103f2610269565b5b602082029050602081019050919050565b60008115159050919050565b61041981610404565b811461042457600080fd5b50565b60008135905061043681610410565b92915050565b600061044f61044a846103d8565b6102c9565b9050808382526020820190506020840283018581111561047257610471610310565b5b835b8181101561049b57806104878882610427565b845260208401935050602081019050610474565b5050509392505050565b600082601f8301126104ba576104b9610253565b5b81356104ca84826020860161043c565b91505092915050565b600067ffffffffffffffff8211156104ee576104ed610269565b5b602082029050602081019050919050565b6000819050919050565b610512816104ff565b811461051d57600080fd5b50565b60008135905061052f81610509565b92915050565b6000610548610543846104d3565b6102c9565b9050808382526020820190506020840283018581111561056b5761056a610310565b5b835b8181101561059457806105808882610520565b84526020840193505060208101905061056d565b5050509392505050565b600082601f8301126105b3576105b2610253565b5b81356105c3848260208601610535565b91505092915050565b6000806000606084860312156105e5576105e4610249565b5b600084013567ffffffffffffffff8111156106035761060261024e565b5b61060f868287016103aa565b935050602084013567ffffffffffffffff8111156106305761062f61024e565b5b61063c868287016104a5565b925050604084013567ffffffffffffffff81111561065d5761065c61024e565b5b6106698682870161059e565b9150509250925092565b60006020828403121561068957610688610249565b5b600061069784828501610520565b9150509291505056fea264697066735822122032d44f01fd1f4f76bf1cf21bb0917bbd322b3f63be2afaa7bfc0af615f4360d964736f6c634300080d0033",
					"opcodes": "PUSH1 0x80 PUSH1 0x40 MSTORE CALLVALUE DUP1 ISZERO PUSH2 0x10 JUMPI PUSH1 0x0 DUP1 REVERT JUMPDEST POP PUSH1 0x40 MLOAD PUSH2 0x8F7 CODESIZE SUB DUP1 PUSH2 0x8F7 DUP4 CODECOPY DUP2 DUP2 ADD PUSH1 0x40 MSTORE DUP2 ADD SWAP1 PUSH2 0x32 SWAP2 SWAP1 PUSH2 0x13A JUMP JUMPDEST DUP3 PUSH1 0x2 PUSH1 0x0 PUSH2 0x100 EXP DUP2 SLOAD DUP2 PUSH20 0xFFFFFFFFFFFFFFFFFFFFFFFFFFFFFFFFFFFFFFFF MUL NOT AND SWAP1 DUP4 PUSH20 0xFFFFFFFFFFFFFFFFFFFFFFFFFFFFFFFFFFFFFFFF AND MUL OR SWAP1 SSTORE POP DUP2 TIMESTAMP PUSH2 0x7F SWAP2 SWAP1 PUSH2 0x1BC JUMP JUMPDEST PUSH1 0x0 DUP2 SWAP1 SSTORE POP DUP1 PUSH1 0x0 SLOAD PUSH2 0x93 SWAP2 SWAP1 PUSH2 0x1BC JUMP JUMPDEST PUSH1 0x1 DUP2 SWAP1 SSTORE POP POP POP POP PUSH2 0x212 JUMP JUMPDEST PUSH1 0x0 DUP1 REVERT JUMPDEST PUSH1 0x0 PUSH20 0xFFFFFFFFFFFFFFFFFFFFFFFFFFFFFFFFFFFFFFFF DUP3 AND SWAP1 POP SWAP2 SWAP1 POP JUMP JUMPDEST PUSH1 0x0 PUSH2 0xD1 DUP3 PUSH2 0xA6 JUMP JUMPDEST SWAP1 POP SWAP2 SWAP1 POP JUMP JUMPDEST PUSH2 0xE1 DUP2 PUSH2 0xC6 JUMP JUMPDEST DUP2 EQ PUSH2 0xEC JUMPI PUSH1 0x0 DUP1 REVERT JUMPDEST POP JUMP JUMPDEST PUSH1 0x0 DUP2 MLOAD SWAP1 POP PUSH2 0xFE DUP2 PUSH2 0xD8 JUMP JUMPDEST SWAP3 SWAP2 POP POP JUMP JUMPDEST PUSH1 0x0 DUP2 SWAP1 POP SWAP2 SWAP1 POP JUMP JUMPDEST PUSH2 0x117 DUP2 PUSH2 0x104 JUMP JUMPDEST DUP2 EQ PUSH2 0x122 JUMPI PUSH1 0x0 DUP1 REVERT JUMPDEST POP JUMP JUMPDEST PUSH1 0x0 DUP2 MLOAD SWAP1 POP PUSH2 0x134 DUP2 PUSH2 0x10E JUMP JUMPDEST SWAP3 SWAP2 POP POP JUMP JUMPDEST PUSH1 0x0 DUP1 PUSH1 0x0 PUSH1 0x60 DUP5 DUP7 SUB SLT ISZERO PUSH2 0x153 JUMPI PUSH2 0x152 PUSH2 0xA1 JUMP JUMPDEST JUMPDEST PUSH1 0x0 PUSH2 0x161 DUP7 DUP3 DUP8 ADD PUSH2 0xEF JUMP JUMPDEST SWAP4 POP POP PUSH1 0x20 PUSH2 0x172 DUP7 DUP3 DUP8 ADD PUSH2 0x125 JUMP JUMPDEST SWAP3 POP POP PUSH1 0x40 PUSH2 0x183 DUP7 DUP3 DUP8 ADD PUSH2 0x125 JUMP JUMPDEST SWAP2 POP POP SWAP3 POP SWAP3 POP SWAP3 JUMP JUMPDEST PUSH32 0x4E487B7100000000000000000000000000000000000000000000000000000000 PUSH1 0x0 MSTORE PUSH1 0x11 PUSH1 0x4 MSTORE PUSH1 0x24 PUSH1 0x0 REVERT JUMPDEST PUSH1 0x0 PUSH2 0x1C7 DUP3 PUSH2 0x104 JUMP JUMPDEST SWAP2 POP PUSH2 0x1D2 DUP4 PUSH2 0x104 JUMP JUMPDEST SWAP3 POP DUP3 PUSH32 0xFFFFFFFFFFFFFFFFFFFFFFFFFFFFFFFFFFFFFFFFFFFFFFFFFFFFFFFFFFFFFFFF SUB DUP3 GT ISZERO PUSH2 0x207 JUMPI PUSH2 0x206 PUSH2 0x18D JUMP JUMPDEST JUMPDEST DUP3 DUP3 ADD SWAP1 POP SWAP3 SWAP2 POP POP JUMP JUMPDEST PUSH2 0x6D6 DUP1 PUSH2 0x221 PUSH1 0x0 CODECOPY PUSH1 0x0 RETURN INVALID PUSH1 0x80 PUSH1 0x40 MSTORE PUSH1 0x4 CALLDATASIZE LT PUSH2 0x3F JUMPI PUSH1 0x0 CALLDATALOAD PUSH1 0xE0 SHR DUP1 PUSH4 0x2A24F46C EQ PUSH2 0x44 JUMPI DUP1 PUSH4 0x381D9787 EQ PUSH2 0x6F JUMPI DUP1 PUSH4 0x957BB1E0 EQ PUSH2 0x98 JUMPI DUP1 PUSH4 0xFE7FC8FD EQ PUSH2 0xB4 JUMPI JUMPDEST PUSH1 0x0 DUP1 REVERT JUMPDEST CALLVALUE DUP1 ISZERO PUSH2 0x50 JUMPI PUSH1 0x0 DUP1 REVERT JUMPDEST POP PUSH2 0x59 PUSH2 0xDF JUMP JUMPDEST PUSH1 0x40 MLOAD PUSH2 0x66 SWAP2 SWAP1 PUSH2 0x224 JUMP JUMPDEST PUSH1 0x40 MLOAD DUP1 SWAP2 SUB SWAP1 RETURN JUMPDEST CALLVALUE DUP1 ISZERO PUSH2 0x7B JUMPI PUSH1 0x0 DUP1 REVERT JUMPDEST POP PUSH2 0x96 PUSH1 0x4 DUP1 CALLDATASIZE SUB DUP2 ADD SWAP1 PUSH2 0x91 SWAP2 SWAP1 PUSH2 0x5CC JUMP JUMPDEST PUSH2 0xE5 JUMP JUMPDEST STOP JUMPDEST PUSH2 0xB2 PUSH1 0x4 DUP1 CALLDATASIZE SUB DUP2 ADD SWAP1 PUSH2 0xAD SWAP2 SWAP1 PUSH2 0x673 JUMP JUMPDEST PUSH2 0x15F JUMP JUMPDEST STOP JUMPDEST CALLVALUE DUP1 ISZERO PUSH2 0xC0 JUMPI PUSH1 0x0 DUP1 REVERT JUMPDEST POP PUSH2 0xC9 PUSH2 0x205 JUMP JUMPDEST PUSH1 0x40 MLOAD PUSH2 0xD6 SWAP2 SWAP1 PUSH2 0x224 JUMP JUMPDEST PUSH1 0x40 MLOAD DUP1 SWAP2 SUB SWAP1 RETURN JUMPDEST PUSH1 0x0 SLOAD DUP2 JUMP JUMPDEST PUSH1 0x0 SLOAD TIMESTAMP DUP2 GT PUSH2 0xF4 JUMPI PUSH1 0x0 DUP1 REVERT JUMPDEST PUSH1 0x1 SLOAD TIMESTAMP DUP2 LT PUSH2 0x103 JUMPI PUSH1 0x0 DUP1 REVERT JUMPDEST PUSH1 0x0 PUSH1 0x3 PUSH1 0x0 CALLER PUSH20 0xFFFFFFFFFFFFFFFFFFFFFFFFFFFFFFFFFFFFFFFF AND PUSH20 0xFFFFFFFFFFFFFFFFFFFFFFFFFFFFFFFFFFFFFFFF AND DUP2 MSTORE PUSH1 0x20 ADD SWAP1 DUP2 MSTORE PUSH1 0x20 ADD PUSH1 0x0 KECCAK256 DUP1 SLOAD SWAP1 POP SWAP1 POP DUP1 DUP7 MLOAD EQ PUSH2 0x157 JUMPI PUSH1 0x0 DUP1 REVERT JUMPDEST POP POP POP POP POP POP JUMP JUMPDEST PUSH1 0x0 SLOAD TIMESTAMP DUP2 LT PUSH2 0x16E JUMPI PUSH1 0x0 DUP1 REVERT JUMPDEST PUSH1 0x3 PUSH1 0x0 CALLER PUSH20 0xFFFFFFFFFFFFFFFFFFFFFFFFFFFFFFFFFFFFFFFF AND PUSH20 0xFFFFFFFFFFFFFFFFFFFFFFFFFFFFFFFFFFFFFFFF AND DUP2 MSTORE PUSH1 0x20 ADD SWAP1 DUP2 MSTORE PUSH1 0x20 ADD PUSH1 0x0 KECCAK256 PUSH1 0x40 MLOAD DUP1 PUSH1 0x40 ADD PUSH1 0x40 MSTORE DUP1 CALLVALUE DUP2 MSTORE PUSH1 0x20 ADD DUP5 DUP2 MSTORE POP SWAP1 DUP1 PUSH1 0x1 DUP2 SLOAD ADD DUP1 DUP3 SSTORE DUP1 SWAP2 POP POP PUSH1 0x1 SWAP1 SUB SWAP1 PUSH1 0x0 MSTORE PUSH1 0x20 PUSH1 0x0 KECCAK256 SWAP1 PUSH1 0x2 MUL ADD PUSH1 0x0 SWAP1 SWAP2 SWAP1 SWAP2 SWAP1 SWAP2 POP PUSH1 0x0 DUP3 ADD MLOAD DUP2 PUSH1 0x0 ADD SSTORE PUSH1 0x20 DUP3 ADD MLOAD DUP2 PUSH1 0x1 ADD SSTORE POP POP POP POP JUMP JUMPDEST PUSH1 0x1 SLOAD DUP2 JUMP JUMPDEST PUSH1 0x0 DUP2 SWAP1 POP SWAP2 SWAP1 POP JUMP JUMPDEST PUSH2 0x21E DUP2 PUSH2 0x20B JUMP JUMPDEST DUP3 MSTORE POP POP JUMP JUMPDEST PUSH1 0x0 PUSH1 0x20 DUP3 ADD SWAP1 POP PUSH2 0x239 PUSH1 0x0 DUP4 ADD DUP5 PUSH2 0x215 JUMP JUMPDEST SWAP3 SWAP2 POP POP JUMP JUMPDEST PUSH1 0x0 PUSH1 0x40 MLOAD SWAP1 POP SWAP1 JUMP JUMPDEST PUSH1 0x0 DUP1 REVERT JUMPDEST PUSH1 0x0 DUP1 REVERT JUMPDEST PUSH1 0x0 DUP1 REVERT JUMPDEST PUSH1 0x0 PUSH1 0x1F NOT PUSH1 0x1F DUP4 ADD AND SWAP1 POP SWAP2 SWAP1 POP JUMP JUMPDEST PUSH32 0x4E487B7100000000000000000000000000000000000000000000000000000000 PUSH1 0x0 MSTORE PUSH1 0x41 PUSH1 0x4 MSTORE PUSH1 0x24 PUSH1 0x0 REVERT JUMPDEST PUSH2 0x2A1 DUP3 PUSH2 0x258 JUMP JUMPDEST DUP2 ADD DUP2 DUP2 LT PUSH8 0xFFFFFFFFFFFFFFFF DUP3 GT OR ISZERO PUSH2 0x2C0 JUMPI PUSH2 0x2BF PUSH2 0x269 JUMP JUMPDEST JUMPDEST DUP1 PUSH1 0x40 MSTORE POP POP POP JUMP JUMPDEST PUSH1 0x0 PUSH2 0x2D3 PUSH2 0x23F JUMP JUMPDEST SWAP1 POP PUSH2 0x2DF DUP3 DUP3 PUSH2 0x298 JUMP JUMPDEST SWAP2 SWAP1 POP JUMP JUMPDEST PUSH1 0x0 PUSH8 0xFFFFFFFFFFFFFFFF DUP3 GT ISZERO PUSH2 0x2FF JUMPI PUSH2 0x2FE PUSH2 0x269 JUMP JUMPDEST JUMPDEST PUSH1 0x20 DUP3 MUL SWAP1 POP PUSH1 0x20 DUP2 ADD SWAP1 POP SWAP2 SWAP1 POP JUMP JUMPDEST PUSH1 0x0 DUP1 REVERT JUMPDEST PUSH2 0x31E DUP2 PUSH2 0x20B JUMP JUMPDEST DUP2 EQ PUSH2 0x329 JUMPI PUSH1 0x0 DUP1 REVERT JUMPDEST POP JUMP JUMPDEST PUSH1 0x0 DUP2 CALLDATALOAD SWAP1 POP PUSH2 0x33B DUP2 PUSH2 0x315 JUMP JUMPDEST SWAP3 SWAP2 POP POP JUMP JUMPDEST PUSH1 0x0 PUSH2 0x354 PUSH2 0x34F DUP5 PUSH2 0x2E4 JUMP JUMPDEST PUSH2 0x2C9 JUMP JUMPDEST SWAP1 POP DUP1 DUP4 DUP3 MSTORE PUSH1 0x20 DUP3 ADD SWAP1 POP PUSH1 0x20 DUP5 MUL DUP4 ADD DUP6 DUP2 GT ISZERO PUSH2 0x377 JUMPI PUSH2 0x376 PUSH2 0x310 JUMP JUMPDEST JUMPDEST DUP4 JUMPDEST DUP2 DUP2 LT ISZERO PUSH2 0x3A0 JUMPI DUP1 PUSH2 0x38C DUP9 DUP3 PUSH2 0x32C JUMP JUMPDEST DUP5 MSTORE PUSH1 0x20 DUP5 ADD SWAP4 POP POP PUSH1 0x20 DUP2 ADD SWAP1 POP PUSH2 0x379 JUMP JUMPDEST POP POP POP SWAP4 SWAP3 POP POP POP JUMP JUMPDEST PUSH1 0x0 DUP3 PUSH1 0x1F DUP4 ADD SLT PUSH2 0x3BF JUMPI PUSH2 0x3BE PUSH2 0x253 JUMP JUMPDEST JUMPDEST DUP2 CALLDATALOAD PUSH2 0x3CF DUP5 DUP3 PUSH1 0x20 DUP7 ADD PUSH2 0x341 JUMP JUMPDEST SWAP2 POP POP SWAP3 SWAP2 POP POP JUMP JUMPDEST PUSH1 0x0 PUSH8 0xFFFFFFFFFFFFFFFF DUP3 GT ISZERO PUSH2 0x3F3 JUMPI PUSH2 0x3F2 PUSH2 0x269 JUMP JUMPDEST JUMPDEST PUSH1 0x20 DUP3 MUL SWAP1 POP PUSH1 0x20 DUP2 ADD SWAP1 POP SWAP2 SWAP1 POP JUMP JUMPDEST PUSH1 0x0 DUP2 ISZERO ISZERO SWAP1 POP SWAP2 SWAP1 POP JUMP JUMPDEST PUSH2 0x419 DUP2 PUSH2 0x404 JUMP JUMPDEST DUP2 EQ PUSH2 0x424 JUMPI PUSH1 0x0 DUP1 REVERT JUMPDEST POP JUMP JUMPDEST PUSH1 0x0 DUP2 CALLDATALOAD SWAP1 POP PUSH2 0x436 DUP2 PUSH2 0x410 JUMP JUMPDEST SWAP3 SWAP2 POP POP JUMP JUMPDEST PUSH1 0x0 PUSH2 0x44F PUSH2 0x44A DUP5 PUSH2 0x3D8 JUMP JUMPDEST PUSH2 0x2C9 JUMP JUMPDEST SWAP1 POP DUP1 DUP4 DUP3 MSTORE PUSH1 0x20 DUP3 ADD SWAP1 POP PUSH1 0x20 DUP5 MUL DUP4 ADD DUP6 DUP2 GT ISZERO PUSH2 0x472 JUMPI PUSH2 0x471 PUSH2 0x310 JUMP JUMPDEST JUMPDEST DUP4 JUMPDEST DUP2 DUP2 LT ISZERO PUSH2 0x49B JUMPI DUP1 PUSH2 0x487 DUP9 DUP3 PUSH2 0x427 JUMP JUMPDEST DUP5 MSTORE PUSH1 0x20 DUP5 ADD SWAP4 POP POP PUSH1 0x20 DUP2 ADD SWAP1 POP PUSH2 0x474 JUMP JUMPDEST POP POP POP SWAP4 SWAP3 POP POP POP JUMP JUMPDEST PUSH1 0x0 DUP3 PUSH1 0x1F DUP4 ADD SLT PUSH2 0x4BA JUMPI PUSH2 0x4B9 PUSH2 0x253 JUMP JUMPDEST JUMPDEST DUP2 CALLDATALOAD PUSH2 0x4CA DUP5 DUP3 PUSH1 0x20 DUP7 ADD PUSH2 0x43C JUMP JUMPDEST SWAP2 POP POP SWAP3 SWAP2 POP POP JUMP JUMPDEST PUSH1 0x0 PUSH8 0xFFFFFFFFFFFFFFFF DUP3 GT ISZERO PUSH2 0x4EE JUMPI PUSH2 0x4ED PUSH2 0x269 JUMP JUMPDEST JUMPDEST PUSH1 0x20 DUP3 MUL SWAP1 POP PUSH1 0x20 DUP2 ADD SWAP1 POP SWAP2 SWAP1 POP JUMP JUMPDEST PUSH1 0x0 DUP2 SWAP1 POP SWAP2 SWAP1 POP JUMP JUMPDEST PUSH2 0x512 DUP2 PUSH2 0x4FF JUMP JUMPDEST DUP2 EQ PUSH2 0x51D JUMPI PUSH1 0x0 DUP1 REVERT JUMPDEST POP JUMP JUMPDEST PUSH1 0x0 DUP2 CALLDATALOAD SWAP1 POP PUSH2 0x52F DUP2 PUSH2 0x509 JUMP JUMPDEST SWAP3 SWAP2 POP POP JUMP JUMPDEST PUSH1 0x0 PUSH2 0x548 PUSH2 0x543 DUP5 PUSH2 0x4D3 JUMP JUMPDEST PUSH2 0x2C9 JUMP JUMPDEST SWAP1 POP DUP1 DUP4 DUP3 MSTORE PUSH1 0x20 DUP3 ADD SWAP1 POP PUSH1 0x20 DUP5 MUL DUP4 ADD DUP6 DUP2 GT ISZERO PUSH2 0x56B JUMPI PUSH2 0x56A PUSH2 0x310 JUMP JUMPDEST JUMPDEST DUP4 JUMPDEST DUP2 DUP2 LT ISZERO PUSH2 0x594 JUMPI DUP1 PUSH2 0x580 DUP9 DUP3 PUSH2 0x520 JUMP JUMPDEST DUP5 MSTORE PUSH1 0x20 DUP5 ADD SWAP4 POP POP PUSH1 0x20 DUP2 ADD SWAP1 POP PUSH2 0x56D JUMP JUMPDEST POP POP POP SWAP4 SWAP3 POP POP POP JUMP JUMPDEST PUSH1 0x0 DUP3 PUSH1 0x1F DUP4 ADD SLT PUSH2 0x5B3 JUMPI PUSH2 0x5B2 PUSH2 0x253 JUMP JUMPDEST JUMPDEST DUP2 CALLDATALOAD PUSH2 0x5C3 DUP5 DUP3 PUSH1 0x20 DUP7 ADD PUSH2 0x535 JUMP JUMPDEST SWAP2 POP POP SWAP3 SWAP2 POP POP JUMP JUMPDEST PUSH1 0x0 DUP1 PUSH1 0x0 PUSH1 0x60 DUP5 DUP7 SUB SLT ISZERO PUSH2 0x5E5 JUMPI PUSH2 0x5E4 PUSH2 0x249 JUMP JUMPDEST JUMPDEST PUSH1 0x0 DUP5 ADD CALLDATALOAD PUSH8 0xFFFFFFFFFFFFFFFF DUP2 GT ISZERO PUSH2 0x603 JUMPI PUSH2 0x602 PUSH2 0x24E JUMP JUMPDEST JUMPDEST PUSH2 0x60F DUP7 DUP3 DUP8 ADD PUSH2 0x3AA JUMP JUMPDEST SWAP4 POP POP PUSH1 0x20 DUP5 ADD CALLDATALOAD PUSH8 0xFFFFFFFFFFFFFFFF DUP2 GT ISZERO PUSH2 0x630 JUMPI PUSH2 0x62F PUSH2 0x24E JUMP JUMPDEST JUMPDEST PUSH2 0x63C DUP7 DUP3 DUP8 ADD PUSH2 0x4A5 JUMP JUMPDEST SWAP3 POP POP PUSH1 0x40 DUP5 ADD CALLDATALOAD PUSH8 0xFFFFFFFFFFFFFFFF DUP2 GT ISZERO PUSH2 0x65D JUMPI PUSH2 0x65C PUSH2 0x24E JUMP JUMPDEST JUMPDEST PUSH2 0x669 DUP7 DUP3 DUP8 ADD PUSH2 0x59E JUMP JUMPDEST SWAP2 POP POP SWAP3 POP SWAP3 POP SWAP3 JUMP JUMPDEST PUSH1 0x0 PUSH1 0x20 DUP3 DUP5 SUB SLT ISZERO PUSH2 0x689 JUMPI PUSH2 0x688 PUSH2 0x249 JUMP JUMPDEST JUMPDEST PUSH1 0x0 PUSH2 0x697 DUP5 DUP3 DUP6 ADD PUSH2 0x520 JUMP JUMPDEST SWAP2 POP POP SWAP3 SWAP2 POP POP JUMP INVALID LOG2 PUSH5 0x6970667358 0x22 SLT KECCAK256 ORIGIN 0xD4 0x4F ADD REVERT 0x1F 0x4F PUSH23 0xBF1CF21BB0917BBD322B3F63BE2AFAA7BFC0AF615F4360 0xD9 PUSH5 0x736F6C6343 STOP ADDMOD 0xD STOP CALLER "
				},
				"gasEstimates": {
					"creation": {
						"codeDepositCost": "350000",
						"executionCost": "infinite",
						"totalCost": "infinite"
					},
					"external": {
						"auctionEnd()": "2407",
						"bid(bytes32)": "71255",
						"disclose(uint256[],bool[],bytes32[])": "infinite",
						"discloseEnd()": "2473"
					}
				},
				"methodIdentifiers": {
					"auctionEnd()": "2a24f46c",
					"bid(bytes32)": "957bb1e0",
					"disclose(uint256[],bool[],bytes32[])": "381d9787",
					"discloseEnd()": "fe7fc8fd"
				}
			},
			"userdoc": {
				"kind": "user",
				"methods": {},
				"version": 1
			}
		}
	}
}