{
	"contracts/SecretAuctionSystem.sol": {
		"BlindAuction": {
			"abi": [
				{
					"inputs": [
						{
							"internalType": "uint256",
							"name": "_biddingTime",
							"type": "uint256"
						},
						{
							"internalType": "uint256",
							"name": "_revealTime",
							"type": "uint256"
						},
						{
							"internalType": "address payable",
							"name": "_beneficiary",
							"type": "address"
						}
					],
					"stateMutability": "nonpayable",
					"type": "constructor"
				},
				{
					"anonymous": false,
					"inputs": [
						{
							"indexed": false,
							"internalType": "address",
							"name": "winner",
							"type": "address"
						},
						{
							"indexed": false,
							"internalType": "uint256",
							"name": "highestBid",
							"type": "uint256"
						}
					],
					"name": "AuctionEnded",
					"type": "event"
				},
				{
					"inputs": [],
					"name": "beneficiary",
					"outputs": [
						{
							"internalType": "address payable",
							"name": "",
							"type": "address"
						}
					],
					"stateMutability": "view",
					"type": "function"
				},
				{
					"inputs": [
						{
							"internalType": "bytes32",
							"name": "_blindedBid",
							"type": "bytes32"
						}
					],
					"name": "bid",
					"outputs": [],
					"stateMutability": "payable",
					"type": "function"
				},
				{
					"inputs": [],
					"name": "biddingEnd",
					"outputs": [
						{
							"internalType": "uint256",
							"name": "",
							"type": "uint256"
						}
					],
					"stateMutability": "view",
					"type": "function"
				},
				{
					"inputs": [
						{
							"internalType": "address",
							"name": "",
							"type": "address"
						},
						{
							"internalType": "uint256",
							"name": "",
							"type": "uint256"
						}
					],
					"name": "bids",
					"outputs": [
						{
							"internalType": "bytes32",
							"name": "blindedBid",
							"type": "bytes32"
						},
						{
							"internalType": "uint256",
							"name": "deposit",
							"type": "uint256"
						}
					],
					"stateMutability": "view",
					"type": "function"
				},
				{
					"inputs": [],
					"name": "ended",
					"outputs": [
						{
							"internalType": "bool",
							"name": "",
							"type": "bool"
						}
					],
					"stateMutability": "view",
					"type": "function"
				},
				{
					"inputs": [],
					"name": "highestBid",
					"outputs": [
						{
							"internalType": "uint256",
							"name": "",
							"type": "uint256"
						}
					],
					"stateMutability": "view",
					"type": "function"
				},
				{
					"inputs": [],
					"name": "highestBidder",
					"outputs": [
						{
							"internalType": "address",
							"name": "",
							"type": "address"
						}
					],
					"stateMutability": "view",
					"type": "function"
				},
				{
					"inputs": [],
					"name": "revealEnd",
					"outputs": [
						{
							"internalType": "uint256",
							"name": "",
							"type": "uint256"
						}
					],
					"stateMutability": "view",
					"type": "function"
				}
			],
			"devdoc": {
				"kind": "dev",
				"methods": {},
				"version": 1
			},
			"evm": {
				"assembly": "    /* \"contracts/SecretAuctionSystem.sol\":70:1532  contract BlindAuction{... */\n  mstore(0x40, 0x80)\n    /* \"contracts/SecretAuctionSystem.sol\":914:1260  constructor(uint _biddingTime, uint _revealTime, address payable _beneficiary) {... */\n  callvalue\n  dup1\n  iszero\n  tag_1\n  jumpi\n  0x00\n  dup1\n  revert\ntag_1:\n  pop\n  mload(0x40)\n  sub(codesize, bytecodeSize)\n  dup1\n  bytecodeSize\n  dup4\n  codecopy\n  dup2\n  dup2\n  add\n  0x40\n  mstore\n  dup2\n  add\n  swap1\n  tag_2\n  swap2\n  swap1\n  tag_3\n  jump\t// in\ntag_2:\n    /* \"contracts/SecretAuctionSystem.sol\":1017:1029  _beneficiary */\n  dup1\n    /* \"contracts/SecretAuctionSystem.sol\":1003:1014  beneficiary */\n  0x00\n  dup1\n    /* \"contracts/SecretAuctionSystem.sol\":1003:1029  beneficiary = _beneficiary */\n  0x0100\n  exp\n  dup2\n  sload\n  dup2\n  0xffffffffffffffffffffffffffffffffffffffff\n  mul\n  not\n  and\n  swap1\n  dup4\n  0xffffffffffffffffffffffffffffffffffffffff\n  and\n  mul\n  or\n  swap1\n  sstore\n  pop\n    /* \"contracts/SecretAuctionSystem.sol\":1083:1095  _biddingTime */\n  dup3\n    /* \"contracts/SecretAuctionSystem.sol\":1065:1080  block.timestamp */\n  timestamp\n    /* \"contracts/SecretAuctionSystem.sol\":1065:1095  block.timestamp + _biddingTime */\n  tag_6\n  swap2\n  swap1\n  tag_7\n  jump\t// in\ntag_6:\n    /* \"contracts/SecretAuctionSystem.sol\":1052:1062  biddingEnd */\n  0x01\n    /* \"contracts/SecretAuctionSystem.sol\":1052:1095  biddingEnd = block.timestamp + _biddingTime */\n  dup2\n  swap1\n  sstore\n  pop\n    /* \"contracts/SecretAuctionSystem.sol\":1190:1201  _revealTime */\n  dup2\n    /* \"contracts/SecretAuctionSystem.sol\":1177:1187  biddingEnd */\n  sload(0x01)\n    /* \"contracts/SecretAuctionSystem.sol\":1177:1201  biddingEnd + _revealTime */\n  tag_8\n  swap2\n  swap1\n  tag_7\n  jump\t// in\ntag_8:\n    /* \"contracts/SecretAuctionSystem.sol\":1165:1174  revealEnd */\n  0x02\n    /* \"contracts/SecretAuctionSystem.sol\":1165:1201  revealEnd = biddingEnd + _revealTime */\n  dup2\n  swap1\n  sstore\n  pop\n    /* \"contracts/SecretAuctionSystem.sol\":914:1260  constructor(uint _biddingTime, uint _revealTime, address payable _beneficiary) {... */\n  pop\n  pop\n  pop\n    /* \"contracts/SecretAuctionSystem.sol\":70:1532  contract BlindAuction{... */\n  jump(tag_9)\n    /* \"#utility.yul\":88:205   */\ntag_11:\n    /* \"#utility.yul\":197:198   */\n  0x00\n    /* \"#utility.yul\":194:195   */\n  dup1\n    /* \"#utility.yul\":187:199   */\n  revert\n    /* \"#utility.yul\":334:411   */\ntag_13:\n    /* \"#utility.yul\":371:378   */\n  0x00\n    /* \"#utility.yul\":400:405   */\n  dup2\n    /* \"#utility.yul\":389:405   */\n  swap1\n  pop\n    /* \"#utility.yul\":334:411   */\n  swap2\n  swap1\n  pop\n  jump\t// out\n    /* \"#utility.yul\":417:539   */\ntag_14:\n    /* \"#utility.yul\":490:514   */\n  tag_27\n    /* \"#utility.yul\":508:513   */\n  dup2\n    /* \"#utility.yul\":490:514   */\n  tag_13\n  jump\t// in\ntag_27:\n    /* \"#utility.yul\":483:488   */\n  dup2\n    /* \"#utility.yul\":480:515   */\n  eq\n    /* \"#utility.yul\":470:533   */\n  tag_28\n  jumpi\n    /* \"#utility.yul\":529:530   */\n  0x00\n    /* \"#utility.yul\":526:527   */\n  dup1\n    /* \"#utility.yul\":519:531   */\n  revert\n    /* \"#utility.yul\":470:533   */\ntag_28:\n    /* \"#utility.yul\":417:539   */\n  pop\n  jump\t// out\n    /* \"#utility.yul\":545:688   */\ntag_15:\n    /* \"#utility.yul\":602:607   */\n  0x00\n    /* \"#utility.yul\":633:639   */\n  dup2\n    /* \"#utility.yul\":627:640   */\n  mload\n    /* \"#utility.yul\":618:640   */\n  swap1\n  pop\n    /* \"#utility.yul\":649:682   */\n  tag_30\n    /* \"#utility.yul\":676:681   */\n  dup2\n    /* \"#utility.yul\":649:682   */\n  tag_14\n  jump\t// in\ntag_30:\n    /* \"#utility.yul\":545:688   */\n  swap3\n  swap2\n  pop\n  pop\n  jump\t// out\n    /* \"#utility.yul\":694:820   */\ntag_16:\n    /* \"#utility.yul\":731:738   */\n  0x00\n    /* \"#utility.yul\":771:813   */\n  0xffffffffffffffffffffffffffffffffffffffff\n    /* \"#utility.yul\":764:769   */\n  dup3\n    /* \"#utility.yul\":760:814   */\n  and\n    /* \"#utility.yul\":749:814   */\n  swap1\n  pop\n    /* \"#utility.yul\":694:820   */\n  swap2\n  swap1\n  pop\n  jump\t// out\n    /* \"#utility.yul\":826:930   */\ntag_17:\n    /* \"#utility.yul\":871:878   */\n  0x00\n    /* \"#utility.yul\":900:924   */\n  tag_33\n    /* \"#utility.yul\":918:923   */\n  dup3\n    /* \"#utility.yul\":900:924   */\n  tag_16\n  jump\t// in\ntag_33:\n    /* \"#utility.yul\":889:924   */\n  swap1\n  pop\n    /* \"#utility.yul\":826:930   */\n  swap2\n  swap1\n  pop\n  jump\t// out\n    /* \"#utility.yul\":936:1074   */\ntag_18:\n    /* \"#utility.yul\":1017:1049   */\n  tag_35\n    /* \"#utility.yul\":1043:1048   */\n  dup2\n    /* \"#utility.yul\":1017:1049   */\n  tag_17\n  jump\t// in\ntag_35:\n    /* \"#utility.yul\":1010:1015   */\n  dup2\n    /* \"#utility.yul\":1007:1050   */\n  eq\n    /* \"#utility.yul\":997:1068   */\n  tag_36\n  jumpi\n    /* \"#utility.yul\":1064:1065   */\n  0x00\n    /* \"#utility.yul\":1061:1062   */\n  dup1\n    /* \"#utility.yul\":1054:1066   */\n  revert\n    /* \"#utility.yul\":997:1068   */\ntag_36:\n    /* \"#utility.yul\":936:1074   */\n  pop\n  jump\t// out\n    /* \"#utility.yul\":1080:1239   */\ntag_19:\n    /* \"#utility.yul\":1145:1150   */\n  0x00\n    /* \"#utility.yul\":1176:1182   */\n  dup2\n    /* \"#utility.yul\":1170:1183   */\n  mload\n    /* \"#utility.yul\":1161:1183   */\n  swap1\n  pop\n    /* \"#utility.yul\":1192:1233   */\n  tag_38\n    /* \"#utility.yul\":1227:1232   */\n  dup2\n    /* \"#utility.yul\":1192:1233   */\n  tag_18\n  jump\t// in\ntag_38:\n    /* \"#utility.yul\":1080:1239   */\n  swap3\n  swap2\n  pop\n  pop\n  jump\t// out\n    /* \"#utility.yul\":1245:1924   */\ntag_3:\n    /* \"#utility.yul\":1341:1347   */\n  0x00\n    /* \"#utility.yul\":1349:1355   */\n  dup1\n    /* \"#utility.yul\":1357:1363   */\n  0x00\n    /* \"#utility.yul\":1406:1408   */\n  0x60\n    /* \"#utility.yul\":1394:1403   */\n  dup5\n    /* \"#utility.yul\":1385:1392   */\n  dup7\n    /* \"#utility.yul\":1381:1404   */\n  sub\n    /* \"#utility.yul\":1377:1409   */\n  slt\n    /* \"#utility.yul\":1374:1493   */\n  iszero\n  tag_40\n  jumpi\n    /* \"#utility.yul\":1412:1491   */\n  tag_41\n  tag_11\n  jump\t// in\ntag_41:\n    /* \"#utility.yul\":1374:1493   */\ntag_40:\n    /* \"#utility.yul\":1532:1533   */\n  0x00\n    /* \"#utility.yul\":1557:1621   */\n  tag_42\n    /* \"#utility.yul\":1613:1620   */\n  dup7\n    /* \"#utility.yul\":1604:1610   */\n  dup3\n    /* \"#utility.yul\":1593:1602   */\n  dup8\n    /* \"#utility.yul\":1589:1611   */\n  add\n    /* \"#utility.yul\":1557:1621   */\n  tag_15\n  jump\t// in\ntag_42:\n    /* \"#utility.yul\":1547:1621   */\n  swap4\n  pop\n    /* \"#utility.yul\":1503:1631   */\n  pop\n    /* \"#utility.yul\":1670:1672   */\n  0x20\n    /* \"#utility.yul\":1696:1760   */\n  tag_43\n    /* \"#utility.yul\":1752:1759   */\n  dup7\n    /* \"#utility.yul\":1743:1749   */\n  dup3\n    /* \"#utility.yul\":1732:1741   */\n  dup8\n    /* \"#utility.yul\":1728:1750   */\n  add\n    /* \"#utility.yul\":1696:1760   */\n  tag_15\n  jump\t// in\ntag_43:\n    /* \"#utility.yul\":1686:1760   */\n  swap3\n  pop\n    /* \"#utility.yul\":1641:1770   */\n  pop\n    /* \"#utility.yul\":1809:1811   */\n  0x40\n    /* \"#utility.yul\":1835:1907   */\n  tag_44\n    /* \"#utility.yul\":1899:1906   */\n  dup7\n    /* \"#utility.yul\":1890:1896   */\n  dup3\n    /* \"#utility.yul\":1879:1888   */\n  dup8\n    /* \"#utility.yul\":1875:1897   */\n  add\n    /* \"#utility.yul\":1835:1907   */\n  tag_19\n  jump\t// in\ntag_44:\n    /* \"#utility.yul\":1825:1907   */\n  swap2\n  pop\n    /* \"#utility.yul\":1780:1917   */\n  pop\n    /* \"#utility.yul\":1245:1924   */\n  swap3\n  pop\n  swap3\n  pop\n  swap3\n  jump\t// out\n    /* \"#utility.yul\":1930:2110   */\ntag_20:\n    /* \"#utility.yul\":1978:2055   */\n  0x4e487b7100000000000000000000000000000000000000000000000000000000\n    /* \"#utility.yul\":1975:1976   */\n  0x00\n    /* \"#utility.yul\":1968:2056   */\n  mstore\n    /* \"#utility.yul\":2075:2079   */\n  0x11\n    /* \"#utility.yul\":2072:2073   */\n  0x04\n    /* \"#utility.yul\":2065:2080   */\n  mstore\n    /* \"#utility.yul\":2099:2103   */\n  0x24\n    /* \"#utility.yul\":2096:2097   */\n  0x00\n    /* \"#utility.yul\":2089:2104   */\n  revert\n    /* \"#utility.yul\":2116:2421   */\ntag_7:\n    /* \"#utility.yul\":2156:2159   */\n  0x00\n    /* \"#utility.yul\":2175:2195   */\n  tag_47\n    /* \"#utility.yul\":2193:2194   */\n  dup3\n    /* \"#utility.yul\":2175:2195   */\n  tag_13\n  jump\t// in\ntag_47:\n    /* \"#utility.yul\":2170:2195   */\n  swap2\n  pop\n    /* \"#utility.yul\":2209:2229   */\n  tag_48\n    /* \"#utility.yul\":2227:2228   */\n  dup4\n    /* \"#utility.yul\":2209:2229   */\n  tag_13\n  jump\t// in\ntag_48:\n    /* \"#utility.yul\":2204:2229   */\n  swap3\n  pop\n    /* \"#utility.yul\":2363:2364   */\n  dup3\n    /* \"#utility.yul\":2295:2361   */\n  0xffffffffffffffffffffffffffffffffffffffffffffffffffffffffffffffff\n    /* \"#utility.yul\":2291:2365   */\n  sub\n    /* \"#utility.yul\":2288:2289   */\n  dup3\n    /* \"#utility.yul\":2285:2366   */\n  gt\n    /* \"#utility.yul\":2282:2389   */\n  iszero\n  tag_49\n  jumpi\n    /* \"#utility.yul\":2369:2387   */\n  tag_50\n  tag_20\n  jump\t// in\ntag_50:\n    /* \"#utility.yul\":2282:2389   */\ntag_49:\n    /* \"#utility.yul\":2413:2414   */\n  dup3\n    /* \"#utility.yul\":2410:2411   */\n  dup3\n    /* \"#utility.yul\":2406:2415   */\n  add\n    /* \"#utility.yul\":2399:2415   */\n  swap1\n  pop\n    /* \"#utility.yul\":2116:2421   */\n  swap3\n  swap2\n  pop\n  pop\n  jump\t// out\n    /* \"contracts/SecretAuctionSystem.sol\":70:1532  contract BlindAuction{... */\ntag_9:\n  dataSize(sub_0)\n  dup1\n  dataOffset(sub_0)\n  0x00\n  codecopy\n  0x00\n  return\nstop\n\nsub_0: assembly {\n        /* \"contracts/SecretAuctionSystem.sol\":70:1532  contract BlindAuction{... */\n      mstore(0x40, 0x80)\n      jumpi(tag_1, lt(calldatasize, 0x04))\n      shr(0xe0, calldataload(0x00))\n      dup1\n      0x91f90157\n      gt\n      tag_10\n      jumpi\n      dup1\n      0x91f90157\n      eq\n      tag_6\n      jumpi\n      dup1\n      0x957bb1e0\n      eq\n      tag_7\n      jumpi\n      dup1\n      0xa6e66477\n      eq\n      tag_8\n      jumpi\n      dup1\n      0xd57bde79\n      eq\n      tag_9\n      jumpi\n      jump(tag_1)\n    tag_10:\n      dup1\n      0x01495c1c\n      eq\n      tag_2\n      jumpi\n      dup1\n      0x12fa6feb\n      eq\n      tag_3\n      jumpi\n      dup1\n      0x38af3eed\n      eq\n      tag_4\n      jumpi\n      dup1\n      0x423b217f\n      eq\n      tag_5\n      jumpi\n    tag_1:\n      0x00\n      dup1\n      revert\n        /* \"contracts/SecretAuctionSystem.sol\":399:436  mapping(address => Bid[]) public bids */\n    tag_2:\n      callvalue\n      dup1\n      iszero\n      tag_11\n      jumpi\n      0x00\n      dup1\n      revert\n    tag_11:\n      pop\n      tag_12\n      0x04\n      dup1\n      calldatasize\n      sub\n      dup2\n      add\n      swap1\n      tag_13\n      swap2\n      swap1\n      tag_14\n      jump\t// in\n    tag_13:\n      tag_15\n      jump\t// in\n    tag_12:\n      mload(0x40)\n      tag_16\n      swap3\n      swap2\n      swap1\n      tag_17\n      jump\t// in\n    tag_16:\n      mload(0x40)\n      dup1\n      swap2\n      sub\n      swap1\n      return\n        /* \"contracts/SecretAuctionSystem.sol\":353:370  bool public ended */\n    tag_3:\n      callvalue\n      dup1\n      iszero\n      tag_18\n      jumpi\n      0x00\n      dup1\n      revert\n    tag_18:\n      pop\n      tag_19\n      tag_20\n      jump\t// in\n    tag_19:\n      mload(0x40)\n      tag_21\n      swap2\n      swap1\n      tag_22\n      jump\t// in\n    tag_21:\n      mload(0x40)\n      dup1\n      swap2\n      sub\n      swap1\n      return\n        /* \"contracts/SecretAuctionSystem.sol\":195:229  address payable public beneficiary */\n    tag_4:\n      callvalue\n      dup1\n      iszero\n      tag_23\n      jumpi\n      0x00\n      dup1\n      revert\n    tag_23:\n      pop\n      tag_24\n      tag_25\n      jump\t// in\n    tag_24:\n      mload(0x40)\n      tag_26\n      swap2\n      swap1\n      tag_27\n      jump\t// in\n    tag_26:\n      mload(0x40)\n      dup1\n      swap2\n      sub\n      swap1\n      return\n        /* \"contracts/SecretAuctionSystem.sol\":248:270  uint public biddingEnd */\n    tag_5:\n      callvalue\n      dup1\n      iszero\n      tag_28\n      jumpi\n      0x00\n      dup1\n      revert\n    tag_28:\n      pop\n      tag_29\n      tag_30\n      jump\t// in\n    tag_29:\n      mload(0x40)\n      tag_31\n      swap2\n      swap1\n      tag_32\n      jump\t// in\n    tag_31:\n      mload(0x40)\n      dup1\n      swap2\n      sub\n      swap1\n      return\n        /* \"contracts/SecretAuctionSystem.sol\":483:511  address public highestBidder */\n    tag_6:\n      callvalue\n      dup1\n      iszero\n      tag_33\n      jumpi\n      0x00\n      dup1\n      revert\n    tag_33:\n      pop\n      tag_34\n      tag_35\n      jump\t// in\n    tag_34:\n      mload(0x40)\n      tag_36\n      swap2\n      swap1\n      tag_37\n      jump\t// in\n    tag_36:\n      mload(0x40)\n      dup1\n      swap2\n      sub\n      swap1\n      return\n        /* \"contracts/SecretAuctionSystem.sol\":1289:1520  function bid(bytes32 _blindedBid) public payable onlyBefore(biddingEnd){... */\n    tag_7:\n      tag_38\n      0x04\n      dup1\n      calldatasize\n      sub\n      dup2\n      add\n      swap1\n      tag_39\n      swap2\n      swap1\n      tag_40\n      jump\t// in\n    tag_39:\n      tag_41\n      jump\t// in\n    tag_38:\n      stop\n        /* \"contracts/SecretAuctionSystem.sol\":301:322  uint public revealEnd */\n    tag_8:\n      callvalue\n      dup1\n      iszero\n      tag_42\n      jumpi\n      0x00\n      dup1\n      revert\n    tag_42:\n      pop\n      tag_43\n      tag_44\n      jump\t// in\n    tag_43:\n      mload(0x40)\n      tag_45\n      swap2\n      swap1\n      tag_32\n      jump\t// in\n    tag_45:\n      mload(0x40)\n      dup1\n      swap2\n      sub\n      swap1\n      return\n        /* \"contracts/SecretAuctionSystem.sol\":539:561  uint public highestBid */\n    tag_9:\n      callvalue\n      dup1\n      iszero\n      tag_46\n      jumpi\n      0x00\n      dup1\n      revert\n    tag_46:\n      pop\n      tag_47\n      tag_48\n      jump\t// in\n    tag_47:\n      mload(0x40)\n      tag_49\n      swap2\n      swap1\n      tag_32\n      jump\t// in\n    tag_49:\n      mload(0x40)\n      dup1\n      swap2\n      sub\n      swap1\n      return\n        /* \"contracts/SecretAuctionSystem.sol\":399:436  mapping(address => Bid[]) public bids */\n    tag_15:\n      mstore(0x20, 0x04)\n      dup2\n      0x00\n      mstore\n      keccak256(0x00, 0x40)\n      dup2\n      dup2\n      sload\n      dup2\n      lt\n      tag_50\n      jumpi\n      0x00\n      dup1\n      revert\n    tag_50:\n      swap1\n      0x00\n      mstore\n      keccak256(0x00, 0x20)\n      swap1\n      0x02\n      mul\n      add\n      0x00\n      swap2\n      pop\n      swap2\n      pop\n      pop\n      dup1\n      0x00\n      add\n      sload\n      swap1\n      dup1\n      0x01\n      add\n      sload\n      swap1\n      pop\n      dup3\n      jump\t// out\n        /* \"contracts/SecretAuctionSystem.sol\":353:370  bool public ended */\n    tag_20:\n      0x03\n      0x00\n      swap1\n      sload\n      swap1\n      0x0100\n      exp\n      swap1\n      div\n      0xff\n      and\n      dup2\n      jump\t// out\n        /* \"contracts/SecretAuctionSystem.sol\":195:229  address payable public beneficiary */\n    tag_25:\n      0x00\n      dup1\n      sload\n      swap1\n      0x0100\n      exp\n      swap1\n      div\n      0xffffffffffffffffffffffffffffffffffffffff\n      and\n      dup2\n      jump\t// out\n        /* \"contracts/SecretAuctionSystem.sol\":248:270  uint public biddingEnd */\n    tag_30:\n      sload(0x01)\n      dup2\n      jump\t// out\n        /* \"contracts/SecretAuctionSystem.sol\":483:511  address public highestBidder */\n    tag_35:\n      0x05\n      0x00\n      swap1\n      sload\n      swap1\n      0x0100\n      exp\n      swap1\n      div\n      0xffffffffffffffffffffffffffffffffffffffff\n      and\n      dup2\n      jump\t// out\n        /* \"contracts/SecretAuctionSystem.sol\":1289:1520  function bid(bytes32 _blindedBid) public payable onlyBefore(biddingEnd){... */\n    tag_41:\n        /* \"contracts/SecretAuctionSystem.sol\":1349:1359  biddingEnd */\n      sload(0x01)\n        /* \"contracts/SecretAuctionSystem.sol\":820:825  _time */\n      dup1\n        /* \"contracts/SecretAuctionSystem.sol\":802:817  block.timestamp */\n      timestamp\n        /* \"contracts/SecretAuctionSystem.sol\":802:825  block.timestamp < _time */\n      lt\n        /* \"contracts/SecretAuctionSystem.sol\":794:826  require(block.timestamp < _time) */\n      tag_53\n      jumpi\n      0x00\n      dup1\n      revert\n    tag_53:\n        /* \"contracts/SecretAuctionSystem.sol\":1370:1374  bids */\n      0x04\n        /* \"contracts/SecretAuctionSystem.sol\":1370:1386  bids[msg.sender] */\n      0x00\n        /* \"contracts/SecretAuctionSystem.sol\":1375:1385  msg.sender */\n      caller\n        /* \"contracts/SecretAuctionSystem.sol\":1370:1386  bids[msg.sender] */\n      0xffffffffffffffffffffffffffffffffffffffff\n      and\n      0xffffffffffffffffffffffffffffffffffffffff\n      and\n      dup2\n      mstore\n      0x20\n      add\n      swap1\n      dup2\n      mstore\n      0x20\n      add\n      0x00\n      keccak256\n        /* \"contracts/SecretAuctionSystem.sol\":1405:1499  Bid({... */\n      mload(0x40)\n      dup1\n      0x40\n      add\n      0x40\n      mstore\n      dup1\n        /* \"contracts/SecretAuctionSystem.sol\":1438:1449  _blindedBid */\n      dup5\n        /* \"contracts/SecretAuctionSystem.sol\":1405:1499  Bid({... */\n      dup2\n      mstore\n      0x20\n      add\n        /* \"contracts/SecretAuctionSystem.sol\":1475:1484  msg.value */\n      callvalue\n        /* \"contracts/SecretAuctionSystem.sol\":1405:1499  Bid({... */\n      dup2\n      mstore\n      pop\n        /* \"contracts/SecretAuctionSystem.sol\":1370:1513  bids[msg.sender].push(... */\n      swap1\n      dup1\n      0x01\n      dup2\n      sload\n      add\n      dup1\n      dup3\n      sstore\n      dup1\n      swap2\n      pop\n      pop\n      0x01\n      swap1\n      sub\n      swap1\n      0x00\n      mstore\n      keccak256(0x00, 0x20)\n      swap1\n      0x02\n      mul\n      add\n      0x00\n      swap1\n      swap2\n      swap1\n      swap2\n      swap1\n      swap2\n      pop\n      0x00\n      dup3\n      add\n      mload\n      dup2\n      0x00\n      add\n      sstore\n      0x20\n      dup3\n      add\n      mload\n      dup2\n      0x01\n      add\n      sstore\n      pop\n      pop\n        /* \"contracts/SecretAuctionSystem.sol\":1289:1520  function bid(bytes32 _blindedBid) public payable onlyBefore(biddingEnd){... */\n      pop\n      pop\n      jump\t// out\n        /* \"contracts/SecretAuctionSystem.sol\":301:322  uint public revealEnd */\n    tag_44:\n      sload(0x02)\n      dup2\n      jump\t// out\n        /* \"contracts/SecretAuctionSystem.sol\":539:561  uint public highestBid */\n    tag_48:\n      sload(0x06)\n      dup2\n      jump\t// out\n        /* \"#utility.yul\":88:205   */\n    tag_57:\n        /* \"#utility.yul\":197:198   */\n      0x00\n        /* \"#utility.yul\":194:195   */\n      dup1\n        /* \"#utility.yul\":187:199   */\n      revert\n        /* \"#utility.yul\":334:460   */\n    tag_59:\n        /* \"#utility.yul\":371:378   */\n      0x00\n        /* \"#utility.yul\":411:453   */\n      0xffffffffffffffffffffffffffffffffffffffff\n        /* \"#utility.yul\":404:409   */\n      dup3\n        /* \"#utility.yul\":400:454   */\n      and\n        /* \"#utility.yul\":389:454   */\n      swap1\n      pop\n        /* \"#utility.yul\":334:460   */\n      swap2\n      swap1\n      pop\n      jump\t// out\n        /* \"#utility.yul\":466:562   */\n    tag_60:\n        /* \"#utility.yul\":503:510   */\n      0x00\n        /* \"#utility.yul\":532:556   */\n      tag_82\n        /* \"#utility.yul\":550:555   */\n      dup3\n        /* \"#utility.yul\":532:556   */\n      tag_59\n      jump\t// in\n    tag_82:\n        /* \"#utility.yul\":521:556   */\n      swap1\n      pop\n        /* \"#utility.yul\":466:562   */\n      swap2\n      swap1\n      pop\n      jump\t// out\n        /* \"#utility.yul\":568:690   */\n    tag_61:\n        /* \"#utility.yul\":641:665   */\n      tag_84\n        /* \"#utility.yul\":659:664   */\n      dup2\n        /* \"#utility.yul\":641:665   */\n      tag_60\n      jump\t// in\n    tag_84:\n        /* \"#utility.yul\":634:639   */\n      dup2\n        /* \"#utility.yul\":631:666   */\n      eq\n        /* \"#utility.yul\":621:684   */\n      tag_85\n      jumpi\n        /* \"#utility.yul\":680:681   */\n      0x00\n        /* \"#utility.yul\":677:678   */\n      dup1\n        /* \"#utility.yul\":670:682   */\n      revert\n        /* \"#utility.yul\":621:684   */\n    tag_85:\n        /* \"#utility.yul\":568:690   */\n      pop\n      jump\t// out\n        /* \"#utility.yul\":696:835   */\n    tag_62:\n        /* \"#utility.yul\":742:747   */\n      0x00\n        /* \"#utility.yul\":780:786   */\n      dup2\n        /* \"#utility.yul\":767:787   */\n      calldataload\n        /* \"#utility.yul\":758:787   */\n      swap1\n      pop\n        /* \"#utility.yul\":796:829   */\n      tag_87\n        /* \"#utility.yul\":823:828   */\n      dup2\n        /* \"#utility.yul\":796:829   */\n      tag_61\n      jump\t// in\n    tag_87:\n        /* \"#utility.yul\":696:835   */\n      swap3\n      swap2\n      pop\n      pop\n      jump\t// out\n        /* \"#utility.yul\":841:918   */\n    tag_63:\n        /* \"#utility.yul\":878:885   */\n      0x00\n        /* \"#utility.yul\":907:912   */\n      dup2\n        /* \"#utility.yul\":896:912   */\n      swap1\n      pop\n        /* \"#utility.yul\":841:918   */\n      swap2\n      swap1\n      pop\n      jump\t// out\n        /* \"#utility.yul\":924:1046   */\n    tag_64:\n        /* \"#utility.yul\":997:1021   */\n      tag_90\n        /* \"#utility.yul\":1015:1020   */\n      dup2\n        /* \"#utility.yul\":997:1021   */\n      tag_63\n      jump\t// in\n    tag_90:\n        /* \"#utility.yul\":990:995   */\n      dup2\n        /* \"#utility.yul\":987:1022   */\n      eq\n        /* \"#utility.yul\":977:1040   */\n      tag_91\n      jumpi\n        /* \"#utility.yul\":1036:1037   */\n      0x00\n        /* \"#utility.yul\":1033:1034   */\n      dup1\n        /* \"#utility.yul\":1026:1038   */\n      revert\n        /* \"#utility.yul\":977:1040   */\n    tag_91:\n        /* \"#utility.yul\":924:1046   */\n      pop\n      jump\t// out\n        /* \"#utility.yul\":1052:1191   */\n    tag_65:\n        /* \"#utility.yul\":1098:1103   */\n      0x00\n        /* \"#utility.yul\":1136:1142   */\n      dup2\n        /* \"#utility.yul\":1123:1143   */\n      calldataload\n        /* \"#utility.yul\":1114:1143   */\n      swap1\n      pop\n        /* \"#utility.yul\":1152:1185   */\n      tag_93\n        /* \"#utility.yul\":1179:1184   */\n      dup2\n        /* \"#utility.yul\":1152:1185   */\n      tag_64\n      jump\t// in\n    tag_93:\n        /* \"#utility.yul\":1052:1191   */\n      swap3\n      swap2\n      pop\n      pop\n      jump\t// out\n        /* \"#utility.yul\":1197:1671   */\n    tag_14:\n        /* \"#utility.yul\":1265:1271   */\n      0x00\n        /* \"#utility.yul\":1273:1279   */\n      dup1\n        /* \"#utility.yul\":1322:1324   */\n      0x40\n        /* \"#utility.yul\":1310:1319   */\n      dup4\n        /* \"#utility.yul\":1301:1308   */\n      dup6\n        /* \"#utility.yul\":1297:1320   */\n      sub\n        /* \"#utility.yul\":1293:1325   */\n      slt\n        /* \"#utility.yul\":1290:1409   */\n      iszero\n      tag_95\n      jumpi\n        /* \"#utility.yul\":1328:1407   */\n      tag_96\n      tag_57\n      jump\t// in\n    tag_96:\n        /* \"#utility.yul\":1290:1409   */\n    tag_95:\n        /* \"#utility.yul\":1448:1449   */\n      0x00\n        /* \"#utility.yul\":1473:1526   */\n      tag_97\n        /* \"#utility.yul\":1518:1525   */\n      dup6\n        /* \"#utility.yul\":1509:1515   */\n      dup3\n        /* \"#utility.yul\":1498:1507   */\n      dup7\n        /* \"#utility.yul\":1494:1516   */\n      add\n        /* \"#utility.yul\":1473:1526   */\n      tag_62\n      jump\t// in\n    tag_97:\n        /* \"#utility.yul\":1463:1526   */\n      swap3\n      pop\n        /* \"#utility.yul\":1419:1536   */\n      pop\n        /* \"#utility.yul\":1575:1577   */\n      0x20\n        /* \"#utility.yul\":1601:1654   */\n      tag_98\n        /* \"#utility.yul\":1646:1653   */\n      dup6\n        /* \"#utility.yul\":1637:1643   */\n      dup3\n        /* \"#utility.yul\":1626:1635   */\n      dup7\n        /* \"#utility.yul\":1622:1644   */\n      add\n        /* \"#utility.yul\":1601:1654   */\n      tag_65\n      jump\t// in\n    tag_98:\n        /* \"#utility.yul\":1591:1654   */\n      swap2\n      pop\n        /* \"#utility.yul\":1546:1664   */\n      pop\n        /* \"#utility.yul\":1197:1671   */\n      swap3\n      pop\n      swap3\n      swap1\n      pop\n      jump\t// out\n        /* \"#utility.yul\":1677:1754   */\n    tag_66:\n        /* \"#utility.yul\":1714:1721   */\n      0x00\n        /* \"#utility.yul\":1743:1748   */\n      dup2\n        /* \"#utility.yul\":1732:1748   */\n      swap1\n      pop\n        /* \"#utility.yul\":1677:1754   */\n      swap2\n      swap1\n      pop\n      jump\t// out\n        /* \"#utility.yul\":1760:1878   */\n    tag_67:\n        /* \"#utility.yul\":1847:1871   */\n      tag_101\n        /* \"#utility.yul\":1865:1870   */\n      dup2\n        /* \"#utility.yul\":1847:1871   */\n      tag_66\n      jump\t// in\n    tag_101:\n        /* \"#utility.yul\":1842:1845   */\n      dup3\n        /* \"#utility.yul\":1835:1872   */\n      mstore\n        /* \"#utility.yul\":1760:1878   */\n      pop\n      pop\n      jump\t// out\n        /* \"#utility.yul\":1884:2002   */\n    tag_68:\n        /* \"#utility.yul\":1971:1995   */\n      tag_103\n        /* \"#utility.yul\":1989:1994   */\n      dup2\n        /* \"#utility.yul\":1971:1995   */\n      tag_63\n      jump\t// in\n    tag_103:\n        /* \"#utility.yul\":1966:1969   */\n      dup3\n        /* \"#utility.yul\":1959:1996   */\n      mstore\n        /* \"#utility.yul\":1884:2002   */\n      pop\n      pop\n      jump\t// out\n        /* \"#utility.yul\":2008:2340   */\n    tag_17:\n        /* \"#utility.yul\":2129:2133   */\n      0x00\n        /* \"#utility.yul\":2167:2169   */\n      0x40\n        /* \"#utility.yul\":2156:2165   */\n      dup3\n        /* \"#utility.yul\":2152:2170   */\n      add\n        /* \"#utility.yul\":2144:2170   */\n      swap1\n      pop\n        /* \"#utility.yul\":2180:2251   */\n      tag_105\n        /* \"#utility.yul\":2248:2249   */\n      0x00\n        /* \"#utility.yul\":2237:2246   */\n      dup4\n        /* \"#utility.yul\":2233:2250   */\n      add\n        /* \"#utility.yul\":2224:2230   */\n      dup6\n        /* \"#utility.yul\":2180:2251   */\n      tag_67\n      jump\t// in\n    tag_105:\n        /* \"#utility.yul\":2261:2333   */\n      tag_106\n        /* \"#utility.yul\":2329:2331   */\n      0x20\n        /* \"#utility.yul\":2318:2327   */\n      dup4\n        /* \"#utility.yul\":2314:2332   */\n      add\n        /* \"#utility.yul\":2305:2311   */\n      dup5\n        /* \"#utility.yul\":2261:2333   */\n      tag_68\n      jump\t// in\n    tag_106:\n        /* \"#utility.yul\":2008:2340   */\n      swap4\n      swap3\n      pop\n      pop\n      pop\n      jump\t// out\n        /* \"#utility.yul\":2346:2436   */\n    tag_69:\n        /* \"#utility.yul\":2380:2387   */\n      0x00\n        /* \"#utility.yul\":2423:2428   */\n      dup2\n        /* \"#utility.yul\":2416:2429   */\n      iszero\n        /* \"#utility.yul\":2409:2430   */\n      iszero\n        /* \"#utility.yul\":2398:2430   */\n      swap1\n      pop\n        /* \"#utility.yul\":2346:2436   */\n      swap2\n      swap1\n      pop\n      jump\t// out\n        /* \"#utility.yul\":2442:2551   */\n    tag_70:\n        /* \"#utility.yul\":2523:2544   */\n      tag_109\n        /* \"#utility.yul\":2538:2543   */\n      dup2\n        /* \"#utility.yul\":2523:2544   */\n      tag_69\n      jump\t// in\n    tag_109:\n        /* \"#utility.yul\":2518:2521   */\n      dup3\n        /* \"#utility.yul\":2511:2545   */\n      mstore\n        /* \"#utility.yul\":2442:2551   */\n      pop\n      pop\n      jump\t// out\n        /* \"#utility.yul\":2557:2767   */\n    tag_22:\n        /* \"#utility.yul\":2644:2648   */\n      0x00\n        /* \"#utility.yul\":2682:2684   */\n      0x20\n        /* \"#utility.yul\":2671:2680   */\n      dup3\n        /* \"#utility.yul\":2667:2685   */\n      add\n        /* \"#utility.yul\":2659:2685   */\n      swap1\n      pop\n        /* \"#utility.yul\":2695:2760   */\n      tag_111\n        /* \"#utility.yul\":2757:2758   */\n      0x00\n        /* \"#utility.yul\":2746:2755   */\n      dup4\n        /* \"#utility.yul\":2742:2759   */\n      add\n        /* \"#utility.yul\":2733:2739   */\n      dup5\n        /* \"#utility.yul\":2695:2760   */\n      tag_70\n      jump\t// in\n    tag_111:\n        /* \"#utility.yul\":2557:2767   */\n      swap3\n      swap2\n      pop\n      pop\n      jump\t// out\n        /* \"#utility.yul\":2773:2877   */\n    tag_71:\n        /* \"#utility.yul\":2818:2825   */\n      0x00\n        /* \"#utility.yul\":2847:2871   */\n      tag_113\n        /* \"#utility.yul\":2865:2870   */\n      dup3\n        /* \"#utility.yul\":2847:2871   */\n      tag_59\n      jump\t// in\n    tag_113:\n        /* \"#utility.yul\":2836:2871   */\n      swap1\n      pop\n        /* \"#utility.yul\":2773:2877   */\n      swap2\n      swap1\n      pop\n      jump\t// out\n        /* \"#utility.yul\":2883:3025   */\n    tag_72:\n        /* \"#utility.yul\":2986:3018   */\n      tag_115\n        /* \"#utility.yul\":3012:3017   */\n      dup2\n        /* \"#utility.yul\":2986:3018   */\n      tag_71\n      jump\t// in\n    tag_115:\n        /* \"#utility.yul\":2981:2984   */\n      dup3\n        /* \"#utility.yul\":2974:3019   */\n      mstore\n        /* \"#utility.yul\":2883:3025   */\n      pop\n      pop\n      jump\t// out\n        /* \"#utility.yul\":3031:3285   */\n    tag_27:\n        /* \"#utility.yul\":3140:3144   */\n      0x00\n        /* \"#utility.yul\":3178:3180   */\n      0x20\n        /* \"#utility.yul\":3167:3176   */\n      dup3\n        /* \"#utility.yul\":3163:3181   */\n      add\n        /* \"#utility.yul\":3155:3181   */\n      swap1\n      pop\n        /* \"#utility.yul\":3191:3278   */\n      tag_117\n        /* \"#utility.yul\":3275:3276   */\n      0x00\n        /* \"#utility.yul\":3264:3273   */\n      dup4\n        /* \"#utility.yul\":3260:3277   */\n      add\n        /* \"#utility.yul\":3251:3257   */\n      dup5\n        /* \"#utility.yul\":3191:3278   */\n      tag_72\n      jump\t// in\n    tag_117:\n        /* \"#utility.yul\":3031:3285   */\n      swap3\n      swap2\n      pop\n      pop\n      jump\t// out\n        /* \"#utility.yul\":3291:3513   */\n    tag_32:\n        /* \"#utility.yul\":3384:3388   */\n      0x00\n        /* \"#utility.yul\":3422:3424   */\n      0x20\n        /* \"#utility.yul\":3411:3420   */\n      dup3\n        /* \"#utility.yul\":3407:3425   */\n      add\n        /* \"#utility.yul\":3399:3425   */\n      swap1\n      pop\n        /* \"#utility.yul\":3435:3506   */\n      tag_119\n        /* \"#utility.yul\":3503:3504   */\n      0x00\n        /* \"#utility.yul\":3492:3501   */\n      dup4\n        /* \"#utility.yul\":3488:3505   */\n      add\n        /* \"#utility.yul\":3479:3485   */\n      dup5\n        /* \"#utility.yul\":3435:3506   */\n      tag_68\n      jump\t// in\n    tag_119:\n        /* \"#utility.yul\":3291:3513   */\n      swap3\n      swap2\n      pop\n      pop\n      jump\t// out\n        /* \"#utility.yul\":3519:3637   */\n    tag_73:\n        /* \"#utility.yul\":3606:3630   */\n      tag_121\n        /* \"#utility.yul\":3624:3629   */\n      dup2\n        /* \"#utility.yul\":3606:3630   */\n      tag_60\n      jump\t// in\n    tag_121:\n        /* \"#utility.yul\":3601:3604   */\n      dup3\n        /* \"#utility.yul\":3594:3631   */\n      mstore\n        /* \"#utility.yul\":3519:3637   */\n      pop\n      pop\n      jump\t// out\n        /* \"#utility.yul\":3643:3865   */\n    tag_37:\n        /* \"#utility.yul\":3736:3740   */\n      0x00\n        /* \"#utility.yul\":3774:3776   */\n      0x20\n        /* \"#utility.yul\":3763:3772   */\n      dup3\n        /* \"#utility.yul\":3759:3777   */\n      add\n        /* \"#utility.yul\":3751:3777   */\n      swap1\n      pop\n        /* \"#utility.yul\":3787:3858   */\n      tag_123\n        /* \"#utility.yul\":3855:3856   */\n      0x00\n        /* \"#utility.yul\":3844:3853   */\n      dup4\n        /* \"#utility.yul\":3840:3857   */\n      add\n        /* \"#utility.yul\":3831:3837   */\n      dup5\n        /* \"#utility.yul\":3787:3858   */\n      tag_73\n      jump\t// in\n    tag_123:\n        /* \"#utility.yul\":3643:3865   */\n      swap3\n      swap2\n      pop\n      pop\n      jump\t// out\n        /* \"#utility.yul\":3871:3993   */\n    tag_74:\n        /* \"#utility.yul\":3944:3968   */\n      tag_125\n        /* \"#utility.yul\":3962:3967   */\n      dup2\n        /* \"#utility.yul\":3944:3968   */\n      tag_66\n      jump\t// in\n    tag_125:\n        /* \"#utility.yul\":3937:3942   */\n      dup2\n        /* \"#utility.yul\":3934:3969   */\n      eq\n        /* \"#utility.yul\":3924:3987   */\n      tag_126\n      jumpi\n        /* \"#utility.yul\":3983:3984   */\n      0x00\n        /* \"#utility.yul\":3980:3981   */\n      dup1\n        /* \"#utility.yul\":3973:3985   */\n      revert\n        /* \"#utility.yul\":3924:3987   */\n    tag_126:\n        /* \"#utility.yul\":3871:3993   */\n      pop\n      jump\t// out\n        /* \"#utility.yul\":3999:4138   */\n    tag_75:\n        /* \"#utility.yul\":4045:4050   */\n      0x00\n        /* \"#utility.yul\":4083:4089   */\n      dup2\n        /* \"#utility.yul\":4070:4090   */\n      calldataload\n        /* \"#utility.yul\":4061:4090   */\n      swap1\n      pop\n        /* \"#utility.yul\":4099:4132   */\n      tag_128\n        /* \"#utility.yul\":4126:4131   */\n      dup2\n        /* \"#utility.yul\":4099:4132   */\n      tag_74\n      jump\t// in\n    tag_128:\n        /* \"#utility.yul\":3999:4138   */\n      swap3\n      swap2\n      pop\n      pop\n      jump\t// out\n        /* \"#utility.yul\":4144:4473   */\n    tag_40:\n        /* \"#utility.yul\":4203:4209   */\n      0x00\n        /* \"#utility.yul\":4252:4254   */\n      0x20\n        /* \"#utility.yul\":4240:4249   */\n      dup3\n        /* \"#utility.yul\":4231:4238   */\n      dup5\n        /* \"#utility.yul\":4227:4250   */\n      sub\n        /* \"#utility.yul\":4223:4255   */\n      slt\n        /* \"#utility.yul\":4220:4339   */\n      iszero\n      tag_130\n      jumpi\n        /* \"#utility.yul\":4258:4337   */\n      tag_131\n      tag_57\n      jump\t// in\n    tag_131:\n        /* \"#utility.yul\":4220:4339   */\n    tag_130:\n        /* \"#utility.yul\":4378:4379   */\n      0x00\n        /* \"#utility.yul\":4403:4456   */\n      tag_132\n        /* \"#utility.yul\":4448:4455   */\n      dup5\n        /* \"#utility.yul\":4439:4445   */\n      dup3\n        /* \"#utility.yul\":4428:4437   */\n      dup6\n        /* \"#utility.yul\":4424:4446   */\n      add\n        /* \"#utility.yul\":4403:4456   */\n      tag_75\n      jump\t// in\n    tag_132:\n        /* \"#utility.yul\":4393:4456   */\n      swap2\n      pop\n        /* \"#utility.yul\":4349:4466   */\n      pop\n        /* \"#utility.yul\":4144:4473   */\n      swap3\n      swap2\n      pop\n      pop\n      jump\t// out\n\n    auxdata: 0xa26469706673582212207a966cf857c201d54f6779cac02c22dd629c0036d2e3434583257b274a60844f64736f6c634300080d0033\n}\n",
				"bytecode": {
					"linkReferences": {},
					"object": "608060405234801561001057600080fd5b506040516107c23803806107c283398181016040528101906100329190610139565b806000806101000a81548173ffffffffffffffffffffffffffffffffffffffff021916908373ffffffffffffffffffffffffffffffffffffffff160217905550824261007e91906101bb565b6001819055508160015461009291906101bb565b600281905550505050610211565b600080fd5b6000819050919050565b6100b8816100a5565b81146100c357600080fd5b50565b6000815190506100d5816100af565b92915050565b600073ffffffffffffffffffffffffffffffffffffffff82169050919050565b6000610106826100db565b9050919050565b610116816100fb565b811461012157600080fd5b50565b6000815190506101338161010d565b92915050565b600080600060608486031215610152576101516100a0565b5b6000610160868287016100c6565b9350506020610171868287016100c6565b925050604061018286828701610124565b9150509250925092565b7f4e487b7100000000000000000000000000000000000000000000000000000000600052601160045260246000fd5b60006101c6826100a5565b91506101d1836100a5565b9250827fffffffffffffffffffffffffffffffffffffffffffffffffffffffffffffffff038211156102065761020561018c565b5b828201905092915050565b6105a2806102206000396000f3fe60806040526004361061007b5760003560e01c806391f901571161004e57806391f901571461013f578063957bb1e01461016a578063a6e6647714610186578063d57bde79146101b15761007b565b806301495c1c1461008057806312fa6feb146100be57806338af3eed146100e9578063423b217f14610114575b600080fd5b34801561008c57600080fd5b506100a760048036038101906100a291906103cb565b6101dc565b6040516100b5929190610433565b60405180910390f35b3480156100ca57600080fd5b506100d361021d565b6040516100e09190610477565b60405180910390f35b3480156100f557600080fd5b506100fe610230565b60405161010b91906104b3565b60405180910390f35b34801561012057600080fd5b50610129610254565b60405161013691906104ce565b60405180910390f35b34801561014b57600080fd5b5061015461025a565b60405161016191906104f8565b60405180910390f35b610184600480360381019061017f919061053f565b610280565b005b34801561019257600080fd5b5061019b610326565b6040516101a891906104ce565b60405180910390f35b3480156101bd57600080fd5b506101c661032c565b6040516101d391906104ce565b60405180910390f35b600460205281600052604060002081815481106101f857600080fd5b9060005260206000209060020201600091509150508060000154908060010154905082565b600360009054906101000a900460ff1681565b60008054906101000a900473ffffffffffffffffffffffffffffffffffffffff1681565b60015481565b600560009054906101000a900473ffffffffffffffffffffffffffffffffffffffff1681565b60015480421061028f57600080fd5b600460003373ffffffffffffffffffffffffffffffffffffffff1673ffffffffffffffffffffffffffffffffffffffff1681526020019081526020016000206040518060400160405280848152602001348152509080600181540180825580915050600190039060005260206000209060020201600090919091909150600082015181600001556020820151816001015550505050565b60025481565b60065481565b600080fd5b600073ffffffffffffffffffffffffffffffffffffffff82169050919050565b600061036282610337565b9050919050565b61037281610357565b811461037d57600080fd5b50565b60008135905061038f81610369565b92915050565b6000819050919050565b6103a881610395565b81146103b357600080fd5b50565b6000813590506103c58161039f565b92915050565b600080604083850312156103e2576103e1610332565b5b60006103f085828601610380565b9250506020610401858286016103b6565b9150509250929050565b6000819050919050565b61041e8161040b565b82525050565b61042d81610395565b82525050565b60006040820190506104486000830185610415565b6104556020830184610424565b9392505050565b60008115159050919050565b6104718161045c565b82525050565b600060208201905061048c6000830184610468565b92915050565b600061049d82610337565b9050919050565b6104ad81610492565b82525050565b60006020820190506104c860008301846104a4565b92915050565b60006020820190506104e36000830184610424565b92915050565b6104f281610357565b82525050565b600060208201905061050d60008301846104e9565b92915050565b61051c8161040b565b811461052757600080fd5b50565b60008135905061053981610513565b92915050565b60006020828403121561055557610554610332565b5b60006105638482850161052a565b9150509291505056fea26469706673582212207a966cf857c201d54f6779cac02c22dd629c0036d2e3434583257b274a60844f64736f6c634300080d0033",
					"opcodes": "PUSH1 0x80 PUSH1 0x40 MSTORE CALLVALUE DUP1 ISZERO PUSH2 0x10 JUMPI PUSH1 0x0 DUP1 REVERT JUMPDEST POP PUSH1 0x40 MLOAD PUSH2 0x7C2 CODESIZE SUB DUP1 PUSH2 0x7C2 DUP4 CODECOPY DUP2 DUP2 ADD PUSH1 0x40 MSTORE DUP2 ADD SWAP1 PUSH2 0x32 SWAP2 SWAP1 PUSH2 0x139 JUMP JUMPDEST DUP1 PUSH1 0x0 DUP1 PUSH2 0x100 EXP DUP2 SLOAD DUP2 PUSH20 0xFFFFFFFFFFFFFFFFFFFFFFFFFFFFFFFFFFFFFFFF MUL NOT AND SWAP1 DUP4 PUSH20 0xFFFFFFFFFFFFFFFFFFFFFFFFFFFFFFFFFFFFFFFF AND MUL OR SWAP1 SSTORE POP DUP3 TIMESTAMP PUSH2 0x7E SWAP2 SWAP1 PUSH2 0x1BB JUMP JUMPDEST PUSH1 0x1 DUP2 SWAP1 SSTORE POP DUP2 PUSH1 0x1 SLOAD PUSH2 0x92 SWAP2 SWAP1 PUSH2 0x1BB JUMP JUMPDEST PUSH1 0x2 DUP2 SWAP1 SSTORE POP POP POP POP PUSH2 0x211 JUMP JUMPDEST PUSH1 0x0 DUP1 REVERT JUMPDEST PUSH1 0x0 DUP2 SWAP1 POP SWAP2 SWAP1 POP JUMP JUMPDEST PUSH2 0xB8 DUP2 PUSH2 0xA5 JUMP JUMPDEST DUP2 EQ PUSH2 0xC3 JUMPI PUSH1 0x0 DUP1 REVERT JUMPDEST POP JUMP JUMPDEST PUSH1 0x0 DUP2 MLOAD SWAP1 POP PUSH2 0xD5 DUP2 PUSH2 0xAF JUMP JUMPDEST SWAP3 SWAP2 POP POP JUMP JUMPDEST PUSH1 0x0 PUSH20 0xFFFFFFFFFFFFFFFFFFFFFFFFFFFFFFFFFFFFFFFF DUP3 AND SWAP1 POP SWAP2 SWAP1 POP JUMP JUMPDEST PUSH1 0x0 PUSH2 0x106 DUP3 PUSH2 0xDB JUMP JUMPDEST SWAP1 POP SWAP2 SWAP1 POP JUMP JUMPDEST PUSH2 0x116 DUP2 PUSH2 0xFB JUMP JUMPDEST DUP2 EQ PUSH2 0x121 JUMPI PUSH1 0x0 DUP1 REVERT JUMPDEST POP JUMP JUMPDEST PUSH1 0x0 DUP2 MLOAD SWAP1 POP PUSH2 0x133 DUP2 PUSH2 0x10D JUMP JUMPDEST SWAP3 SWAP2 POP POP JUMP JUMPDEST PUSH1 0x0 DUP1 PUSH1 0x0 PUSH1 0x60 DUP5 DUP7 SUB SLT ISZERO PUSH2 0x152 JUMPI PUSH2 0x151 PUSH2 0xA0 JUMP JUMPDEST JUMPDEST PUSH1 0x0 PUSH2 0x160 DUP7 DUP3 DUP8 ADD PUSH2 0xC6 JUMP JUMPDEST SWAP4 POP POP PUSH1 0x20 PUSH2 0x171 DUP7 DUP3 DUP8 ADD PUSH2 0xC6 JUMP JUMPDEST SWAP3 POP POP PUSH1 0x40 PUSH2 0x182 DUP7 DUP3 DUP8 ADD PUSH2 0x124 JUMP JUMPDEST SWAP2 POP POP SWAP3 POP SWAP3 POP SWAP3 JUMP JUMPDEST PUSH32 0x4E487B7100000000000000000000000000000000000000000000000000000000 PUSH1 0x0 MSTORE PUSH1 0x11 PUSH1 0x4 MSTORE PUSH1 0x24 PUSH1 0x0 REVERT JUMPDEST PUSH1 0x0 PUSH2 0x1C6 DUP3 PUSH2 0xA5 JUMP JUMPDEST SWAP2 POP PUSH2 0x1D1 DUP4 PUSH2 0xA5 JUMP JUMPDEST SWAP3 POP DUP3 PUSH32 0xFFFFFFFFFFFFFFFFFFFFFFFFFFFFFFFFFFFFFFFFFFFFFFFFFFFFFFFFFFFFFFFF SUB DUP3 GT ISZERO PUSH2 0x206 JUMPI PUSH2 0x205 PUSH2 0x18C JUMP JUMPDEST JUMPDEST DUP3 DUP3 ADD SWAP1 POP SWAP3 SWAP2 POP POP JUMP JUMPDEST PUSH2 0x5A2 DUP1 PUSH2 0x220 PUSH1 0x0 CODECOPY PUSH1 0x0 RETURN INVALID PUSH1 0x80 PUSH1 0x40 MSTORE PUSH1 0x4 CALLDATASIZE LT PUSH2 0x7B JUMPI PUSH1 0x0 CALLDATALOAD PUSH1 0xE0 SHR DUP1 PUSH4 0x91F90157 GT PUSH2 0x4E JUMPI DUP1 PUSH4 0x91F90157 EQ PUSH2 0x13F JUMPI DUP1 PUSH4 0x957BB1E0 EQ PUSH2 0x16A JUMPI DUP1 PUSH4 0xA6E66477 EQ PUSH2 0x186 JUMPI DUP1 PUSH4 0xD57BDE79 EQ PUSH2 0x1B1 JUMPI PUSH2 0x7B JUMP JUMPDEST DUP1 PUSH4 0x1495C1C EQ PUSH2 0x80 JUMPI DUP1 PUSH4 0x12FA6FEB EQ PUSH2 0xBE JUMPI DUP1 PUSH4 0x38AF3EED EQ PUSH2 0xE9 JUMPI DUP1 PUSH4 0x423B217F EQ PUSH2 0x114 JUMPI JUMPDEST PUSH1 0x0 DUP1 REVERT JUMPDEST CALLVALUE DUP1 ISZERO PUSH2 0x8C JUMPI PUSH1 0x0 DUP1 REVERT JUMPDEST POP PUSH2 0xA7 PUSH1 0x4 DUP1 CALLDATASIZE SUB DUP2 ADD SWAP1 PUSH2 0xA2 SWAP2 SWAP1 PUSH2 0x3CB JUMP JUMPDEST PUSH2 0x1DC JUMP JUMPDEST PUSH1 0x40 MLOAD PUSH2 0xB5 SWAP3 SWAP2 SWAP1 PUSH2 0x433 JUMP JUMPDEST PUSH1 0x40 MLOAD DUP1 SWAP2 SUB SWAP1 RETURN JUMPDEST CALLVALUE DUP1 ISZERO PUSH2 0xCA JUMPI PUSH1 0x0 DUP1 REVERT JUMPDEST POP PUSH2 0xD3 PUSH2 0x21D JUMP JUMPDEST PUSH1 0x40 MLOAD PUSH2 0xE0 SWAP2 SWAP1 PUSH2 0x477 JUMP JUMPDEST PUSH1 0x40 MLOAD DUP1 SWAP2 SUB SWAP1 RETURN JUMPDEST CALLVALUE DUP1 ISZERO PUSH2 0xF5 JUMPI PUSH1 0x0 DUP1 REVERT JUMPDEST POP PUSH2 0xFE PUSH2 0x230 JUMP JUMPDEST PUSH1 0x40 MLOAD PUSH2 0x10B SWAP2 SWAP1 PUSH2 0x4B3 JUMP JUMPDEST PUSH1 0x40 MLOAD DUP1 SWAP2 SUB SWAP1 RETURN JUMPDEST CALLVALUE DUP1 ISZERO PUSH2 0x120 JUMPI PUSH1 0x0 DUP1 REVERT JUMPDEST POP PUSH2 0x129 PUSH2 0x254 JUMP JUMPDEST PUSH1 0x40 MLOAD PUSH2 0x136 SWAP2 SWAP1 PUSH2 0x4CE JUMP JUMPDEST PUSH1 0x40 MLOAD DUP1 SWAP2 SUB SWAP1 RETURN JUMPDEST CALLVALUE DUP1 ISZERO PUSH2 0x14B JUMPI PUSH1 0x0 DUP1 REVERT JUMPDEST POP PUSH2 0x154 PUSH2 0x25A JUMP JUMPDEST PUSH1 0x40 MLOAD PUSH2 0x161 SWAP2 SWAP1 PUSH2 0x4F8 JUMP JUMPDEST PUSH1 0x40 MLOAD DUP1 SWAP2 SUB SWAP1 RETURN JUMPDEST PUSH2 0x184 PUSH1 0x4 DUP1 CALLDATASIZE SUB DUP2 ADD SWAP1 PUSH2 0x17F SWAP2 SWAP1 PUSH2 0x53F JUMP JUMPDEST PUSH2 0x280 JUMP JUMPDEST STOP JUMPDEST CALLVALUE DUP1 ISZERO PUSH2 0x192 JUMPI PUSH1 0x0 DUP1 REVERT JUMPDEST POP PUSH2 0x19B PUSH2 0x326 JUMP JUMPDEST PUSH1 0x40 MLOAD PUSH2 0x1A8 SWAP2 SWAP1 PUSH2 0x4CE JUMP JUMPDEST PUSH1 0x40 MLOAD DUP1 SWAP2 SUB SWAP1 RETURN JUMPDEST CALLVALUE DUP1 ISZERO PUSH2 0x1BD JUMPI PUSH1 0x0 DUP1 REVERT JUMPDEST POP PUSH2 0x1C6 PUSH2 0x32C JUMP JUMPDEST PUSH1 0x40 MLOAD PUSH2 0x1D3 SWAP2 SWAP1 PUSH2 0x4CE JUMP JUMPDEST PUSH1 0x40 MLOAD DUP1 SWAP2 SUB SWAP1 RETURN JUMPDEST PUSH1 0x4 PUSH1 0x20 MSTORE DUP2 PUSH1 0x0 MSTORE PUSH1 0x40 PUSH1 0x0 KECCAK256 DUP2 DUP2 SLOAD DUP2 LT PUSH2 0x1F8 JUMPI PUSH1 0x0 DUP1 REVERT JUMPDEST SWAP1 PUSH1 0x0 MSTORE PUSH1 0x20 PUSH1 0x0 KECCAK256 SWAP1 PUSH1 0x2 MUL ADD PUSH1 0x0 SWAP2 POP SWAP2 POP POP DUP1 PUSH1 0x0 ADD SLOAD SWAP1 DUP1 PUSH1 0x1 ADD SLOAD SWAP1 POP DUP3 JUMP JUMPDEST PUSH1 0x3 PUSH1 0x0 SWAP1 SLOAD SWAP1 PUSH2 0x100 EXP SWAP1 DIV PUSH1 0xFF AND DUP2 JUMP JUMPDEST PUSH1 0x0 DUP1 SLOAD SWAP1 PUSH2 0x100 EXP SWAP1 DIV PUSH20 0xFFFFFFFFFFFFFFFFFFFFFFFFFFFFFFFFFFFFFFFF AND DUP2 JUMP JUMPDEST PUSH1 0x1 SLOAD DUP2 JUMP JUMPDEST PUSH1 0x5 PUSH1 0x0 SWAP1 SLOAD SWAP1 PUSH2 0x100 EXP SWAP1 DIV PUSH20 0xFFFFFFFFFFFFFFFFFFFFFFFFFFFFFFFFFFFFFFFF AND DUP2 JUMP JUMPDEST PUSH1 0x1 SLOAD DUP1 TIMESTAMP LT PUSH2 0x28F JUMPI PUSH1 0x0 DUP1 REVERT JUMPDEST PUSH1 0x4 PUSH1 0x0 CALLER PUSH20 0xFFFFFFFFFFFFFFFFFFFFFFFFFFFFFFFFFFFFFFFF AND PUSH20 0xFFFFFFFFFFFFFFFFFFFFFFFFFFFFFFFFFFFFFFFF AND DUP2 MSTORE PUSH1 0x20 ADD SWAP1 DUP2 MSTORE PUSH1 0x20 ADD PUSH1 0x0 KECCAK256 PUSH1 0x40 MLOAD DUP1 PUSH1 0x40 ADD PUSH1 0x40 MSTORE DUP1 DUP5 DUP2 MSTORE PUSH1 0x20 ADD CALLVALUE DUP2 MSTORE POP SWAP1 DUP1 PUSH1 0x1 DUP2 SLOAD ADD DUP1 DUP3 SSTORE DUP1 SWAP2 POP POP PUSH1 0x1 SWAP1 SUB SWAP1 PUSH1 0x0 MSTORE PUSH1 0x20 PUSH1 0x0 KECCAK256 SWAP1 PUSH1 0x2 MUL ADD PUSH1 0x0 SWAP1 SWAP2 SWAP1 SWAP2 SWAP1 SWAP2 POP PUSH1 0x0 DUP3 ADD MLOAD DUP2 PUSH1 0x0 ADD SSTORE PUSH1 0x20 DUP3 ADD MLOAD DUP2 PUSH1 0x1 ADD SSTORE POP POP POP POP JUMP JUMPDEST PUSH1 0x2 SLOAD DUP2 JUMP JUMPDEST PUSH1 0x6 SLOAD DUP2 JUMP JUMPDEST PUSH1 0x0 DUP1 REVERT JUMPDEST PUSH1 0x0 PUSH20 0xFFFFFFFFFFFFFFFFFFFFFFFFFFFFFFFFFFFFFFFF DUP3 AND SWAP1 POP SWAP2 SWAP1 POP JUMP JUMPDEST PUSH1 0x0 PUSH2 0x362 DUP3 PUSH2 0x337 JUMP JUMPDEST SWAP1 POP SWAP2 SWAP1 POP JUMP JUMPDEST PUSH2 0x372 DUP2 PUSH2 0x357 JUMP JUMPDEST DUP2 EQ PUSH2 0x37D JUMPI PUSH1 0x0 DUP1 REVERT JUMPDEST POP JUMP JUMPDEST PUSH1 0x0 DUP2 CALLDATALOAD SWAP1 POP PUSH2 0x38F DUP2 PUSH2 0x369 JUMP JUMPDEST SWAP3 SWAP2 POP POP JUMP JUMPDEST PUSH1 0x0 DUP2 SWAP1 POP SWAP2 SWAP1 POP JUMP JUMPDEST PUSH2 0x3A8 DUP2 PUSH2 0x395 JUMP JUMPDEST DUP2 EQ PUSH2 0x3B3 JUMPI PUSH1 0x0 DUP1 REVERT JUMPDEST POP JUMP JUMPDEST PUSH1 0x0 DUP2 CALLDATALOAD SWAP1 POP PUSH2 0x3C5 DUP2 PUSH2 0x39F JUMP JUMPDEST SWAP3 SWAP2 POP POP JUMP JUMPDEST PUSH1 0x0 DUP1 PUSH1 0x40 DUP4 DUP6 SUB SLT ISZERO PUSH2 0x3E2 JUMPI PUSH2 0x3E1 PUSH2 0x332 JUMP JUMPDEST JUMPDEST PUSH1 0x0 PUSH2 0x3F0 DUP6 DUP3 DUP7 ADD PUSH2 0x380 JUMP JUMPDEST SWAP3 POP POP PUSH1 0x20 PUSH2 0x401 DUP6 DUP3 DUP7 ADD PUSH2 0x3B6 JUMP JUMPDEST SWAP2 POP POP SWAP3 POP SWAP3 SWAP1 POP JUMP JUMPDEST PUSH1 0x0 DUP2 SWAP1 POP SWAP2 SWAP1 POP JUMP JUMPDEST PUSH2 0x41E DUP2 PUSH2 0x40B JUMP JUMPDEST DUP3 MSTORE POP POP JUMP JUMPDEST PUSH2 0x42D DUP2 PUSH2 0x395 JUMP JUMPDEST DUP3 MSTORE POP POP JUMP JUMPDEST PUSH1 0x0 PUSH1 0x40 DUP3 ADD SWAP1 POP PUSH2 0x448 PUSH1 0x0 DUP4 ADD DUP6 PUSH2 0x415 JUMP JUMPDEST PUSH2 0x455 PUSH1 0x20 DUP4 ADD DUP5 PUSH2 0x424 JUMP JUMPDEST SWAP4 SWAP3 POP POP POP JUMP JUMPDEST PUSH1 0x0 DUP2 ISZERO ISZERO SWAP1 POP SWAP2 SWAP1 POP JUMP JUMPDEST PUSH2 0x471 DUP2 PUSH2 0x45C JUMP JUMPDEST DUP3 MSTORE POP POP JUMP JUMPDEST PUSH1 0x0 PUSH1 0x20 DUP3 ADD SWAP1 POP PUSH2 0x48C PUSH1 0x0 DUP4 ADD DUP5 PUSH2 0x468 JUMP JUMPDEST SWAP3 SWAP2 POP POP JUMP JUMPDEST PUSH1 0x0 PUSH2 0x49D DUP3 PUSH2 0x337 JUMP JUMPDEST SWAP1 POP SWAP2 SWAP1 POP JUMP JUMPDEST PUSH2 0x4AD DUP2 PUSH2 0x492 JUMP JUMPDEST DUP3 MSTORE POP POP JUMP JUMPDEST PUSH1 0x0 PUSH1 0x20 DUP3 ADD SWAP1 POP PUSH2 0x4C8 PUSH1 0x0 DUP4 ADD DUP5 PUSH2 0x4A4 JUMP JUMPDEST SWAP3 SWAP2 POP POP JUMP JUMPDEST PUSH1 0x0 PUSH1 0x20 DUP3 ADD SWAP1 POP PUSH2 0x4E3 PUSH1 0x0 DUP4 ADD DUP5 PUSH2 0x424 JUMP JUMPDEST SWAP3 SWAP2 POP POP JUMP JUMPDEST PUSH2 0x4F2 DUP2 PUSH2 0x357 JUMP JUMPDEST DUP3 MSTORE POP POP JUMP JUMPDEST PUSH1 0x0 PUSH1 0x20 DUP3 ADD SWAP1 POP PUSH2 0x50D PUSH1 0x0 DUP4 ADD DUP5 PUSH2 0x4E9 JUMP JUMPDEST SWAP3 SWAP2 POP POP JUMP JUMPDEST PUSH2 0x51C DUP2 PUSH2 0x40B JUMP JUMPDEST DUP2 EQ PUSH2 0x527 JUMPI PUSH1 0x0 DUP1 REVERT JUMPDEST POP JUMP JUMPDEST PUSH1 0x0 DUP2 CALLDATALOAD SWAP1 POP PUSH2 0x539 DUP2 PUSH2 0x513 JUMP JUMPDEST SWAP3 SWAP2 POP POP JUMP JUMPDEST PUSH1 0x0 PUSH1 0x20 DUP3 DUP5 SUB SLT ISZERO PUSH2 0x555 JUMPI PUSH2 0x554 PUSH2 0x332 JUMP JUMPDEST JUMPDEST PUSH1 0x0 PUSH2 0x563 DUP5 DUP3 DUP6 ADD PUSH2 0x52A JUMP JUMPDEST SWAP2 POP POP SWAP3 SWAP2 POP POP JUMP INVALID LOG2 PUSH5 0x6970667358 0x22 SLT KECCAK256 PUSH27 0x966CF857C201D54F6779CAC02C22DD629C0036D2E3434583257B27 0x4A PUSH1 0x84 0x4F PUSH5 0x736F6C6343 STOP ADDMOD 0xD STOP CALLER "
				},
				"gasEstimates": {
					"creation": {
						"codeDepositCost": "288400",
						"executionCost": "infinite",
						"totalCost": "infinite"
					},
					"external": {
						"beneficiary()": "2556",
						"bid(bytes32)": "71255",
						"biddingEnd()": "2496",
						"bids(address,uint256)": "infinite",
						"ended()": "2494",
						"highestBid()": "2495",
						"highestBidder()": "2514",
						"revealEnd()": "2473"
					}
				},
				"methodIdentifiers": {
					"beneficiary()": "38af3eed",
					"bid(bytes32)": "957bb1e0",
					"biddingEnd()": "423b217f",
					"bids(address,uint256)": "01495c1c",
					"ended()": "12fa6feb",
					"highestBid()": "d57bde79",
					"highestBidder()": "91f90157",
					"revealEnd()": "a6e66477"
				}
			},
			"userdoc": {
				"kind": "user",
				"methods": {},
				"version": 1
			}
		}
	}
}