{
	"contracts/AuctionSystem.sol": {
		"AuctionSystem": {
			"abi": [
				{
					"inputs": [
						{
							"internalType": "uint256",
							"name": "_endtime",
							"type": "uint256"
						},
						{
							"internalType": "address",
							"name": "_beneficiary",
							"type": "address"
						}
					],
					"stateMutability": "nonpayable",
					"type": "constructor"
				},
				{
					"anonymous": false,
					"inputs": [
						{
							"indexed": false,
							"internalType": "address",
							"name": "winner",
							"type": "address"
						},
						{
							"indexed": false,
							"internalType": "uint256",
							"name": "amount",
							"type": "uint256"
						}
					],
					"name": "AuctionEnded",
					"type": "event"
				},
				{
					"anonymous": false,
					"inputs": [
						{
							"indexed": false,
							"internalType": "address",
							"name": "bidder",
							"type": "address"
						},
						{
							"indexed": false,
							"internalType": "uint256",
							"name": "amount",
							"type": "uint256"
						}
					],
					"name": "HighestBidIncreased",
					"type": "event"
				},
				{
					"inputs": [],
					"name": "beneficiary",
					"outputs": [
						{
							"internalType": "address payable",
							"name": "",
							"type": "address"
						}
					],
					"stateMutability": "view",
					"type": "function"
				},
				{
					"inputs": [],
					"name": "bid",
					"outputs": [],
					"stateMutability": "payable",
					"type": "function"
				},
				{
					"inputs": [],
					"name": "endAuction",
					"outputs": [],
					"stateMutability": "nonpayable",
					"type": "function"
				},
				{
					"inputs": [],
					"name": "endTime",
					"outputs": [
						{
							"internalType": "uint256",
							"name": "",
							"type": "uint256"
						}
					],
					"stateMutability": "view",
					"type": "function"
				},
				{
					"inputs": [],
					"name": "ended",
					"outputs": [
						{
							"internalType": "bool",
							"name": "",
							"type": "bool"
						}
					],
					"stateMutability": "view",
					"type": "function"
				},
				{
					"inputs": [],
					"name": "highestPrice",
					"outputs": [
						{
							"internalType": "uint256",
							"name": "",
							"type": "uint256"
						}
					],
					"stateMutability": "view",
					"type": "function"
				},
				{
					"inputs": [],
					"name": "highester",
					"outputs": [
						{
							"internalType": "address",
							"name": "",
							"type": "address"
						}
					],
					"stateMutability": "view",
					"type": "function"
				},
				{
					"inputs": [],
					"name": "priceBack",
					"outputs": [
						{
							"internalType": "bool",
							"name": "",
							"type": "bool"
						}
					],
					"stateMutability": "nonpayable",
					"type": "function"
				},
				{
					"inputs": [
						{
							"internalType": "address",
							"name": "",
							"type": "address"
						}
					],
					"name": "returnDict",
					"outputs": [
						{
							"internalType": "uint256",
							"name": "",
							"type": "uint256"
						}
					],
					"stateMutability": "view",
					"type": "function"
				}
			],
			"devdoc": {
				"kind": "dev",
				"methods": {},
				"version": 1
			},
			"evm": {
				"assembly": "    /* \"contracts/AuctionSystem.sol\":70:1650  contract AuctionSystem{... */\n  mstore(0x40, 0x80)\n    /* \"contracts/AuctionSystem.sol\":437:584  constructor(uint _endtime, address _beneficiary) {... */\n  callvalue\n  dup1\n  iszero\n  tag_1\n  jumpi\n  0x00\n  dup1\n  revert\ntag_1:\n  pop\n  mload(0x40)\n  sub(codesize, bytecodeSize)\n  dup1\n  bytecodeSize\n  dup4\n  codecopy\n  dup2\n  dup2\n  add\n  0x40\n  mstore\n  dup2\n  add\n  swap1\n  tag_2\n  swap2\n  swap1\n  tag_3\n  jump\t// in\ntag_2:\n    /* \"contracts/AuctionSystem.sol\":524:532  _endtime */\n  dup2\n    /* \"contracts/AuctionSystem.sol\":506:521  block.timestamp */\n  timestamp\n    /* \"contracts/AuctionSystem.sol\":506:532  block.timestamp + _endtime */\n  tag_6\n  swap2\n  swap1\n  tag_7\n  jump\t// in\ntag_6:\n    /* \"contracts/AuctionSystem.sol\":496:503  endTime */\n  0x00\n    /* \"contracts/AuctionSystem.sol\":496:532  endTime = block.timestamp + _endtime */\n  dup2\n  swap1\n  sstore\n  pop\n    /* \"contracts/AuctionSystem.sol\":564:576  _beneficiary */\n  dup1\n    /* \"contracts/AuctionSystem.sol\":542:553  beneficiary */\n  0x01\n  0x00\n    /* \"contracts/AuctionSystem.sol\":542:577  beneficiary = payable(_beneficiary) */\n  0x0100\n  exp\n  dup2\n  sload\n  dup2\n  0xffffffffffffffffffffffffffffffffffffffff\n  mul\n  not\n  and\n  swap1\n  dup4\n  0xffffffffffffffffffffffffffffffffffffffff\n  and\n  mul\n  or\n  swap1\n  sstore\n  pop\n    /* \"contracts/AuctionSystem.sol\":437:584  constructor(uint _endtime, address _beneficiary) {... */\n  pop\n  pop\n    /* \"contracts/AuctionSystem.sol\":70:1650  contract AuctionSystem{... */\n  jump(tag_8)\n    /* \"#utility.yul\":88:205   */\ntag_10:\n    /* \"#utility.yul\":197:198   */\n  0x00\n    /* \"#utility.yul\":194:195   */\n  dup1\n    /* \"#utility.yul\":187:199   */\n  revert\n    /* \"#utility.yul\":334:411   */\ntag_12:\n    /* \"#utility.yul\":371:378   */\n  0x00\n    /* \"#utility.yul\":400:405   */\n  dup2\n    /* \"#utility.yul\":389:405   */\n  swap1\n  pop\n    /* \"#utility.yul\":334:411   */\n  swap2\n  swap1\n  pop\n  jump\t// out\n    /* \"#utility.yul\":417:539   */\ntag_13:\n    /* \"#utility.yul\":490:514   */\n  tag_26\n    /* \"#utility.yul\":508:513   */\n  dup2\n    /* \"#utility.yul\":490:514   */\n  tag_12\n  jump\t// in\ntag_26:\n    /* \"#utility.yul\":483:488   */\n  dup2\n    /* \"#utility.yul\":480:515   */\n  eq\n    /* \"#utility.yul\":470:533   */\n  tag_27\n  jumpi\n    /* \"#utility.yul\":529:530   */\n  0x00\n    /* \"#utility.yul\":526:527   */\n  dup1\n    /* \"#utility.yul\":519:531   */\n  revert\n    /* \"#utility.yul\":470:533   */\ntag_27:\n    /* \"#utility.yul\":417:539   */\n  pop\n  jump\t// out\n    /* \"#utility.yul\":545:688   */\ntag_14:\n    /* \"#utility.yul\":602:607   */\n  0x00\n    /* \"#utility.yul\":633:639   */\n  dup2\n    /* \"#utility.yul\":627:640   */\n  mload\n    /* \"#utility.yul\":618:640   */\n  swap1\n  pop\n    /* \"#utility.yul\":649:682   */\n  tag_29\n    /* \"#utility.yul\":676:681   */\n  dup2\n    /* \"#utility.yul\":649:682   */\n  tag_13\n  jump\t// in\ntag_29:\n    /* \"#utility.yul\":545:688   */\n  swap3\n  swap2\n  pop\n  pop\n  jump\t// out\n    /* \"#utility.yul\":694:820   */\ntag_15:\n    /* \"#utility.yul\":731:738   */\n  0x00\n    /* \"#utility.yul\":771:813   */\n  0xffffffffffffffffffffffffffffffffffffffff\n    /* \"#utility.yul\":764:769   */\n  dup3\n    /* \"#utility.yul\":760:814   */\n  and\n    /* \"#utility.yul\":749:814   */\n  swap1\n  pop\n    /* \"#utility.yul\":694:820   */\n  swap2\n  swap1\n  pop\n  jump\t// out\n    /* \"#utility.yul\":826:922   */\ntag_16:\n    /* \"#utility.yul\":863:870   */\n  0x00\n    /* \"#utility.yul\":892:916   */\n  tag_32\n    /* \"#utility.yul\":910:915   */\n  dup3\n    /* \"#utility.yul\":892:916   */\n  tag_15\n  jump\t// in\ntag_32:\n    /* \"#utility.yul\":881:916   */\n  swap1\n  pop\n    /* \"#utility.yul\":826:922   */\n  swap2\n  swap1\n  pop\n  jump\t// out\n    /* \"#utility.yul\":928:1050   */\ntag_17:\n    /* \"#utility.yul\":1001:1025   */\n  tag_34\n    /* \"#utility.yul\":1019:1024   */\n  dup2\n    /* \"#utility.yul\":1001:1025   */\n  tag_16\n  jump\t// in\ntag_34:\n    /* \"#utility.yul\":994:999   */\n  dup2\n    /* \"#utility.yul\":991:1026   */\n  eq\n    /* \"#utility.yul\":981:1044   */\n  tag_35\n  jumpi\n    /* \"#utility.yul\":1040:1041   */\n  0x00\n    /* \"#utility.yul\":1037:1038   */\n  dup1\n    /* \"#utility.yul\":1030:1042   */\n  revert\n    /* \"#utility.yul\":981:1044   */\ntag_35:\n    /* \"#utility.yul\":928:1050   */\n  pop\n  jump\t// out\n    /* \"#utility.yul\":1056:1199   */\ntag_18:\n    /* \"#utility.yul\":1113:1118   */\n  0x00\n    /* \"#utility.yul\":1144:1150   */\n  dup2\n    /* \"#utility.yul\":1138:1151   */\n  mload\n    /* \"#utility.yul\":1129:1151   */\n  swap1\n  pop\n    /* \"#utility.yul\":1160:1193   */\n  tag_37\n    /* \"#utility.yul\":1187:1192   */\n  dup2\n    /* \"#utility.yul\":1160:1193   */\n  tag_17\n  jump\t// in\ntag_37:\n    /* \"#utility.yul\":1056:1199   */\n  swap3\n  swap2\n  pop\n  pop\n  jump\t// out\n    /* \"#utility.yul\":1205:1712   */\ntag_3:\n    /* \"#utility.yul\":1284:1290   */\n  0x00\n    /* \"#utility.yul\":1292:1298   */\n  dup1\n    /* \"#utility.yul\":1341:1343   */\n  0x40\n    /* \"#utility.yul\":1329:1338   */\n  dup4\n    /* \"#utility.yul\":1320:1327   */\n  dup6\n    /* \"#utility.yul\":1316:1339   */\n  sub\n    /* \"#utility.yul\":1312:1344   */\n  slt\n    /* \"#utility.yul\":1309:1428   */\n  iszero\n  tag_39\n  jumpi\n    /* \"#utility.yul\":1347:1426   */\n  tag_40\n  tag_10\n  jump\t// in\ntag_40:\n    /* \"#utility.yul\":1309:1428   */\ntag_39:\n    /* \"#utility.yul\":1467:1468   */\n  0x00\n    /* \"#utility.yul\":1492:1556   */\n  tag_41\n    /* \"#utility.yul\":1548:1555   */\n  dup6\n    /* \"#utility.yul\":1539:1545   */\n  dup3\n    /* \"#utility.yul\":1528:1537   */\n  dup7\n    /* \"#utility.yul\":1524:1546   */\n  add\n    /* \"#utility.yul\":1492:1556   */\n  tag_14\n  jump\t// in\ntag_41:\n    /* \"#utility.yul\":1482:1556   */\n  swap3\n  pop\n    /* \"#utility.yul\":1438:1566   */\n  pop\n    /* \"#utility.yul\":1605:1607   */\n  0x20\n    /* \"#utility.yul\":1631:1695   */\n  tag_42\n    /* \"#utility.yul\":1687:1694   */\n  dup6\n    /* \"#utility.yul\":1678:1684   */\n  dup3\n    /* \"#utility.yul\":1667:1676   */\n  dup7\n    /* \"#utility.yul\":1663:1685   */\n  add\n    /* \"#utility.yul\":1631:1695   */\n  tag_18\n  jump\t// in\ntag_42:\n    /* \"#utility.yul\":1621:1695   */\n  swap2\n  pop\n    /* \"#utility.yul\":1576:1705   */\n  pop\n    /* \"#utility.yul\":1205:1712   */\n  swap3\n  pop\n  swap3\n  swap1\n  pop\n  jump\t// out\n    /* \"#utility.yul\":1718:1898   */\ntag_19:\n    /* \"#utility.yul\":1766:1843   */\n  0x4e487b7100000000000000000000000000000000000000000000000000000000\n    /* \"#utility.yul\":1763:1764   */\n  0x00\n    /* \"#utility.yul\":1756:1844   */\n  mstore\n    /* \"#utility.yul\":1863:1867   */\n  0x11\n    /* \"#utility.yul\":1860:1861   */\n  0x04\n    /* \"#utility.yul\":1853:1868   */\n  mstore\n    /* \"#utility.yul\":1887:1891   */\n  0x24\n    /* \"#utility.yul\":1884:1885   */\n  0x00\n    /* \"#utility.yul\":1877:1892   */\n  revert\n    /* \"#utility.yul\":1904:2209   */\ntag_7:\n    /* \"#utility.yul\":1944:1947   */\n  0x00\n    /* \"#utility.yul\":1963:1983   */\n  tag_45\n    /* \"#utility.yul\":1981:1982   */\n  dup3\n    /* \"#utility.yul\":1963:1983   */\n  tag_12\n  jump\t// in\ntag_45:\n    /* \"#utility.yul\":1958:1983   */\n  swap2\n  pop\n    /* \"#utility.yul\":1997:2017   */\n  tag_46\n    /* \"#utility.yul\":2015:2016   */\n  dup4\n    /* \"#utility.yul\":1997:2017   */\n  tag_12\n  jump\t// in\ntag_46:\n    /* \"#utility.yul\":1992:2017   */\n  swap3\n  pop\n    /* \"#utility.yul\":2151:2152   */\n  dup3\n    /* \"#utility.yul\":2083:2149   */\n  0xffffffffffffffffffffffffffffffffffffffffffffffffffffffffffffffff\n    /* \"#utility.yul\":2079:2153   */\n  sub\n    /* \"#utility.yul\":2076:2077   */\n  dup3\n    /* \"#utility.yul\":2073:2154   */\n  gt\n    /* \"#utility.yul\":2070:2177   */\n  iszero\n  tag_47\n  jumpi\n    /* \"#utility.yul\":2157:2175   */\n  tag_48\n  tag_19\n  jump\t// in\ntag_48:\n    /* \"#utility.yul\":2070:2177   */\ntag_47:\n    /* \"#utility.yul\":2201:2202   */\n  dup3\n    /* \"#utility.yul\":2198:2199   */\n  dup3\n    /* \"#utility.yul\":2194:2203   */\n  add\n    /* \"#utility.yul\":2187:2203   */\n  swap1\n  pop\n    /* \"#utility.yul\":1904:2209   */\n  swap3\n  swap2\n  pop\n  pop\n  jump\t// out\n    /* \"contracts/AuctionSystem.sol\":70:1650  contract AuctionSystem{... */\ntag_8:\n  dataSize(sub_0)\n  dup1\n  dataOffset(sub_0)\n  0x00\n  codecopy\n  0x00\n  return\nstop\n\nsub_0: assembly {\n        /* \"contracts/AuctionSystem.sol\":70:1650  contract AuctionSystem{... */\n      mstore(0x40, 0x80)\n      jumpi(tag_1, lt(calldatasize, 0x04))\n      shr(0xe0, calldataload(0x00))\n      dup1\n      0x38af3eed\n      gt\n      tag_11\n      jumpi\n      dup1\n      0x38af3eed\n      eq\n      tag_6\n      jumpi\n      dup1\n      0xc0680113\n      eq\n      tag_7\n      jumpi\n      dup1\n      0xd3ee63cb\n      eq\n      tag_8\n      jumpi\n      dup1\n      0xe10aa9d1\n      eq\n      tag_9\n      jumpi\n      dup1\n      0xfe67a54b\n      eq\n      tag_10\n      jumpi\n      jump(tag_1)\n    tag_11:\n      dup1\n      0x0e8670e0\n      eq\n      tag_2\n      jumpi\n      dup1\n      0x12fa6feb\n      eq\n      tag_3\n      jumpi\n      dup1\n      0x1998aeef\n      eq\n      tag_4\n      jumpi\n      dup1\n      0x3197cbb6\n      eq\n      tag_5\n      jumpi\n    tag_1:\n      0x00\n      dup1\n      revert\n        /* \"contracts/AuctionSystem.sol\":186:210  uint public highestPrice */\n    tag_2:\n      callvalue\n      dup1\n      iszero\n      tag_12\n      jumpi\n      0x00\n      dup1\n      revert\n    tag_12:\n      pop\n      tag_13\n      tag_14\n      jump\t// in\n    tag_13:\n      mload(0x40)\n      tag_15\n      swap2\n      swap1\n      tag_16\n      jump\t// in\n    tag_15:\n      mload(0x40)\n      dup1\n      swap2\n      sub\n      swap1\n      return\n        /* \"contracts/AuctionSystem.sol\":163:180  bool public ended */\n    tag_3:\n      callvalue\n      dup1\n      iszero\n      tag_17\n      jumpi\n      0x00\n      dup1\n      revert\n    tag_17:\n      pop\n      tag_18\n      tag_19\n      jump\t// in\n    tag_18:\n      mload(0x40)\n      tag_20\n      swap2\n      swap1\n      tag_21\n      jump\t// in\n    tag_20:\n      mload(0x40)\n      dup1\n      swap2\n      sub\n      swap1\n      return\n        /* \"contracts/AuctionSystem.sol\":590:1094  function bid() payable public {... */\n    tag_4:\n      tag_22\n      tag_23\n      jump\t// in\n    tag_22:\n      stop\n        /* \"contracts/AuctionSystem.sol\":98:117  uint public endTime */\n    tag_5:\n      callvalue\n      dup1\n      iszero\n      tag_24\n      jumpi\n      0x00\n      dup1\n      revert\n    tag_24:\n      pop\n      tag_25\n      tag_26\n      jump\t// in\n    tag_25:\n      mload(0x40)\n      tag_27\n      swap2\n      swap1\n      tag_16\n      jump\t// in\n    tag_27:\n      mload(0x40)\n      dup1\n      swap2\n      sub\n      swap1\n      return\n        /* \"contracts/AuctionSystem.sol\":123:157  address payable public beneficiary */\n    tag_6:\n      callvalue\n      dup1\n      iszero\n      tag_28\n      jumpi\n      0x00\n      dup1\n      revert\n    tag_28:\n      pop\n      tag_29\n      tag_30\n      jump\t// in\n    tag_29:\n      mload(0x40)\n      tag_31\n      swap2\n      swap1\n      tag_32\n      jump\t// in\n    tag_31:\n      mload(0x40)\n      dup1\n      swap2\n      sub\n      swap1\n      return\n        /* \"contracts/AuctionSystem.sol\":216:240  address public highester */\n    tag_7:\n      callvalue\n      dup1\n      iszero\n      tag_33\n      jumpi\n      0x00\n      dup1\n      revert\n    tag_33:\n      pop\n      tag_34\n      tag_35\n      jump\t// in\n    tag_34:\n      mload(0x40)\n      tag_36\n      swap2\n      swap1\n      tag_37\n      jump\t// in\n    tag_36:\n      mload(0x40)\n      dup1\n      swap2\n      sub\n      swap1\n      return\n        /* \"contracts/AuctionSystem.sol\":246:287  mapping(address=> uint) public returnDict */\n    tag_8:\n      callvalue\n      dup1\n      iszero\n      tag_38\n      jumpi\n      0x00\n      dup1\n      revert\n    tag_38:\n      pop\n      tag_39\n      0x04\n      dup1\n      calldatasize\n      sub\n      dup2\n      add\n      swap1\n      tag_40\n      swap2\n      swap1\n      tag_41\n      jump\t// in\n    tag_40:\n      tag_42\n      jump\t// in\n    tag_39:\n      mload(0x40)\n      tag_43\n      swap2\n      swap1\n      tag_16\n      jump\t// in\n    tag_43:\n      mload(0x40)\n      dup1\n      swap2\n      sub\n      swap1\n      return\n        /* \"contracts/AuctionSystem.sol\":1100:1438  function priceBack() public returns(bool) {... */\n    tag_9:\n      callvalue\n      dup1\n      iszero\n      tag_44\n      jumpi\n      0x00\n      dup1\n      revert\n    tag_44:\n      pop\n      tag_45\n      tag_46\n      jump\t// in\n    tag_45:\n      mload(0x40)\n      tag_47\n      swap2\n      swap1\n      tag_21\n      jump\t// in\n    tag_47:\n      mload(0x40)\n      dup1\n      swap2\n      sub\n      swap1\n      return\n        /* \"contracts/AuctionSystem.sol\":1444:1648  function endAuction() public {... */\n    tag_10:\n      callvalue\n      dup1\n      iszero\n      tag_48\n      jumpi\n      0x00\n      dup1\n      revert\n    tag_48:\n      pop\n      tag_49\n      tag_50\n      jump\t// in\n    tag_49:\n      stop\n        /* \"contracts/AuctionSystem.sol\":186:210  uint public highestPrice */\n    tag_14:\n      sload(0x02)\n      dup2\n      jump\t// out\n        /* \"contracts/AuctionSystem.sol\":163:180  bool public ended */\n    tag_19:\n      0x01\n      0x14\n      swap1\n      sload\n      swap1\n      0x0100\n      exp\n      swap1\n      div\n      0xff\n      and\n      dup2\n      jump\t// out\n        /* \"contracts/AuctionSystem.sol\":590:1094  function bid() payable public {... */\n    tag_23:\n        /* \"contracts/AuctionSystem.sol\":656:663  endTime */\n      sload(0x00)\n        /* \"contracts/AuctionSystem.sol\":638:653  block.timestamp */\n      timestamp\n        /* \"contracts/AuctionSystem.sol\":638:663  block.timestamp < endTime */\n      lt\n        /* \"contracts/AuctionSystem.sol\":630:690  require(block.timestamp < endTime, \"Auction time has ended\") */\n      tag_52\n      jumpi\n      mload(0x40)\n      0x08c379a000000000000000000000000000000000000000000000000000000000\n      dup2\n      mstore\n      0x04\n      add\n      tag_53\n      swap1\n      tag_54\n      jump\t// in\n    tag_53:\n      mload(0x40)\n      dup1\n      swap2\n      sub\n      swap1\n      revert\n    tag_52:\n        /* \"contracts/AuctionSystem.sol\":720:732  highestPrice */\n      sload(0x02)\n        /* \"contracts/AuctionSystem.sol\":708:717  msg.value */\n      callvalue\n        /* \"contracts/AuctionSystem.sol\":708:732  msg.value > highestPrice */\n      gt\n        /* \"contracts/AuctionSystem.sol\":700:768  require(msg.value > highestPrice, \"Not exceeding the maximum price\") */\n      tag_55\n      jumpi\n      mload(0x40)\n      0x08c379a000000000000000000000000000000000000000000000000000000000\n      dup2\n      mstore\n      0x04\n      add\n      tag_56\n      swap1\n      tag_57\n      jump\t// in\n    tag_56:\n      mload(0x40)\n      dup1\n      swap2\n      sub\n      swap1\n      revert\n    tag_55:\n        /* \"contracts/AuctionSystem.sol\":797:798  0 */\n      0x00\n        /* \"contracts/AuctionSystem.sol\":782:794  highestPrice */\n      sload(0x02)\n        /* \"contracts/AuctionSystem.sol\":782:798  highestPrice > 0 */\n      gt\n        /* \"contracts/AuctionSystem.sol\":778:965  if (highestPrice > 0) {... */\n      iszero\n      tag_58\n      jumpi\n        /* \"contracts/AuctionSystem.sol\":839:851  highestPrice */\n      sload(0x02)\n        /* \"contracts/AuctionSystem.sol\":814:824  returnDict */\n      0x04\n        /* \"contracts/AuctionSystem.sol\":814:835  returnDict[highester] */\n      0x00\n        /* \"contracts/AuctionSystem.sol\":825:834  highester */\n      0x03\n      0x00\n      swap1\n      sload\n      swap1\n      0x0100\n      exp\n      swap1\n      div\n      0xffffffffffffffffffffffffffffffffffffffff\n      and\n        /* \"contracts/AuctionSystem.sol\":814:835  returnDict[highester] */\n      0xffffffffffffffffffffffffffffffffffffffff\n      and\n      0xffffffffffffffffffffffffffffffffffffffff\n      and\n      dup2\n      mstore\n      0x20\n      add\n      swap1\n      dup2\n      mstore\n      0x20\n      add\n      0x00\n      keccak256\n      0x00\n        /* \"contracts/AuctionSystem.sol\":814:851  returnDict[highester] += highestPrice */\n      dup3\n      dup3\n      sload\n      tag_59\n      swap2\n      swap1\n      tag_60\n      jump\t// in\n    tag_59:\n      swap3\n      pop\n      pop\n      dup2\n      swap1\n      sstore\n      pop\n        /* \"contracts/AuctionSystem.sol\":778:965  if (highestPrice > 0) {... */\n    tag_58:\n        /* \"contracts/AuctionSystem.sol\":989:998  msg.value */\n      callvalue\n        /* \"contracts/AuctionSystem.sol\":974:986  highestPrice */\n      0x02\n        /* \"contracts/AuctionSystem.sol\":974:998  highestPrice = msg.value */\n      dup2\n      swap1\n      sstore\n      pop\n        /* \"contracts/AuctionSystem.sol\":1020:1030  msg.sender */\n      caller\n        /* \"contracts/AuctionSystem.sol\":1008:1017  highester */\n      0x03\n      0x00\n        /* \"contracts/AuctionSystem.sol\":1008:1030  highester = msg.sender */\n      0x0100\n      exp\n      dup2\n      sload\n      dup2\n      0xffffffffffffffffffffffffffffffffffffffff\n      mul\n      not\n      and\n      swap1\n      dup4\n      0xffffffffffffffffffffffffffffffffffffffff\n      and\n      mul\n      or\n      swap1\n      sstore\n      pop\n        /* \"contracts/AuctionSystem.sol\":1045:1087  HighestBidIncreased(msg.sender, msg.value) */\n      0xf4757a49b326036464bec6fe419a4ae38c8a02ce3e68bf0809674f6aab8ad300\n        /* \"contracts/AuctionSystem.sol\":1065:1075  msg.sender */\n      caller\n        /* \"contracts/AuctionSystem.sol\":1077:1086  msg.value */\n      callvalue\n        /* \"contracts/AuctionSystem.sol\":1045:1087  HighestBidIncreased(msg.sender, msg.value) */\n      mload(0x40)\n      tag_61\n      swap3\n      swap2\n      swap1\n      tag_62\n      jump\t// in\n    tag_61:\n      mload(0x40)\n      dup1\n      swap2\n      sub\n      swap1\n      log1\n        /* \"contracts/AuctionSystem.sol\":590:1094  function bid() payable public {... */\n      jump\t// out\n        /* \"contracts/AuctionSystem.sol\":98:117  uint public endTime */\n    tag_26:\n      sload(0x00)\n      dup2\n      jump\t// out\n        /* \"contracts/AuctionSystem.sol\":123:157  address payable public beneficiary */\n    tag_30:\n      0x01\n      0x00\n      swap1\n      sload\n      swap1\n      0x0100\n      exp\n      swap1\n      div\n      0xffffffffffffffffffffffffffffffffffffffff\n      and\n      dup2\n      jump\t// out\n        /* \"contracts/AuctionSystem.sol\":216:240  address public highester */\n    tag_35:\n      0x03\n      0x00\n      swap1\n      sload\n      swap1\n      0x0100\n      exp\n      swap1\n      div\n      0xffffffffffffffffffffffffffffffffffffffff\n      and\n      dup2\n      jump\t// out\n        /* \"contracts/AuctionSystem.sol\":246:287  mapping(address=> uint) public returnDict */\n    tag_42:\n      mstore(0x20, 0x04)\n      dup1\n      0x00\n      mstore\n      keccak256(0x00, 0x40)\n      0x00\n      swap2\n      pop\n      swap1\n      pop\n      sload\n      dup2\n      jump\t// out\n        /* \"contracts/AuctionSystem.sol\":1100:1438  function priceBack() public returns(bool) {... */\n    tag_46:\n        /* \"contracts/AuctionSystem.sol\":1136:1140  bool */\n      0x00\n        /* \"contracts/AuctionSystem.sol\":1152:1162  uint money */\n      dup1\n        /* \"contracts/AuctionSystem.sol\":1165:1175  returnDict */\n      0x04\n        /* \"contracts/AuctionSystem.sol\":1165:1187  returnDict[msg.sender] */\n      0x00\n        /* \"contracts/AuctionSystem.sol\":1176:1186  msg.sender */\n      caller\n        /* \"contracts/AuctionSystem.sol\":1165:1187  returnDict[msg.sender] */\n      0xffffffffffffffffffffffffffffffffffffffff\n      and\n      0xffffffffffffffffffffffffffffffffffffffff\n      and\n      dup2\n      mstore\n      0x20\n      add\n      swap1\n      dup2\n      mstore\n      0x20\n      add\n      0x00\n      keccak256\n      sload\n        /* \"contracts/AuctionSystem.sol\":1152:1187  uint money = returnDict[msg.sender] */\n      swap1\n      pop\n        /* \"contracts/AuctionSystem.sol\":1222:1223  0 */\n      0x00\n        /* \"contracts/AuctionSystem.sol\":1197:1207  returnDict */\n      0x04\n        /* \"contracts/AuctionSystem.sol\":1197:1219  returnDict[msg.sender] */\n      0x00\n        /* \"contracts/AuctionSystem.sol\":1208:1218  msg.sender */\n      caller\n        /* \"contracts/AuctionSystem.sol\":1197:1219  returnDict[msg.sender] */\n      0xffffffffffffffffffffffffffffffffffffffff\n      and\n      0xffffffffffffffffffffffffffffffffffffffff\n      and\n      dup2\n      mstore\n      0x20\n      add\n      swap1\n      dup2\n      mstore\n      0x20\n      add\n      0x00\n      keccak256\n        /* \"contracts/AuctionSystem.sol\":1197:1223  returnDict[msg.sender] = 0 */\n      dup2\n      swap1\n      sstore\n      pop\n        /* \"contracts/AuctionSystem.sol\":1245:1246  0 */\n      0x00\n        /* \"contracts/AuctionSystem.sol\":1237:1242  money */\n      dup2\n        /* \"contracts/AuctionSystem.sol\":1237:1246  money > 0 */\n      gt\n        /* \"contracts/AuctionSystem.sol\":1233:1402  if (money > 0) {... */\n      iszero\n      tag_64\n      jumpi\n        /* \"contracts/AuctionSystem.sol\":1275:1285  msg.sender */\n      caller\n        /* \"contracts/AuctionSystem.sol\":1267:1291  payable(msg.sender).send */\n      0xffffffffffffffffffffffffffffffffffffffff\n      and\n        /* \"contracts/AuctionSystem.sol\":1267:1298  payable(msg.sender).send(money) */\n      0x08fc\n        /* \"contracts/AuctionSystem.sol\":1292:1297  money */\n      dup3\n        /* \"contracts/AuctionSystem.sol\":1267:1298  payable(msg.sender).send(money) */\n      swap1\n      dup2\n      iszero\n      mul\n      swap1\n      mload(0x40)\n      0x00\n      mload(0x40)\n      dup1\n      dup4\n      sub\n      dup2\n      dup6\n      dup9\n      dup9\n      call\n      swap4\n      pop\n      pop\n      pop\n      pop\n        /* \"contracts/AuctionSystem.sol\":1262:1392  if (!payable(msg.sender).send(money)){... */\n      tag_66\n      jumpi\n        /* \"contracts/AuctionSystem.sol\":1342:1347  money */\n      dup1\n        /* \"contracts/AuctionSystem.sol\":1317:1327  returnDict */\n      0x04\n        /* \"contracts/AuctionSystem.sol\":1317:1339  returnDict[msg.sender] */\n      0x00\n        /* \"contracts/AuctionSystem.sol\":1328:1338  msg.sender */\n      caller\n        /* \"contracts/AuctionSystem.sol\":1317:1339  returnDict[msg.sender] */\n      0xffffffffffffffffffffffffffffffffffffffff\n      and\n      0xffffffffffffffffffffffffffffffffffffffff\n      and\n      dup2\n      mstore\n      0x20\n      add\n      swap1\n      dup2\n      mstore\n      0x20\n      add\n      0x00\n      keccak256\n        /* \"contracts/AuctionSystem.sol\":1317:1347  returnDict[msg.sender] = money */\n      dup2\n      swap1\n      sstore\n      pop\n        /* \"contracts/AuctionSystem.sol\":1372:1377  false */\n      0x00\n        /* \"contracts/AuctionSystem.sol\":1365:1377  return false */\n      swap2\n      pop\n      pop\n      jump(tag_63)\n        /* \"contracts/AuctionSystem.sol\":1262:1392  if (!payable(msg.sender).send(money)){... */\n    tag_66:\n        /* \"contracts/AuctionSystem.sol\":1233:1402  if (money > 0) {... */\n    tag_64:\n        /* \"contracts/AuctionSystem.sol\":1418:1422  true */\n      0x01\n        /* \"contracts/AuctionSystem.sol\":1411:1422  return true */\n      swap2\n      pop\n      pop\n        /* \"contracts/AuctionSystem.sol\":1100:1438  function priceBack() public returns(bool) {... */\n    tag_63:\n      swap1\n      jump\t// out\n        /* \"contracts/AuctionSystem.sol\":1444:1648  function endAuction() public {... */\n    tag_50:\n        /* \"contracts/AuctionSystem.sol\":1501:1516  block.timestamp */\n      timestamp\n        /* \"contracts/AuctionSystem.sol\":1491:1498  endTime */\n      sload(0x00)\n        /* \"contracts/AuctionSystem.sol\":1491:1516  endTime < block.timestamp */\n      lt\n        /* \"contracts/AuctionSystem.sol\":1483:1550  require(endTime < block.timestamp, \"The auction has not ended yet\") */\n      tag_68\n      jumpi\n      mload(0x40)\n      0x08c379a000000000000000000000000000000000000000000000000000000000\n      dup2\n      mstore\n      0x04\n      add\n      tag_69\n      swap1\n      tag_70\n      jump\t// in\n    tag_69:\n      mload(0x40)\n      dup1\n      swap2\n      sub\n      swap1\n      revert\n    tag_68:\n        /* \"contracts/AuctionSystem.sol\":1569:1574  ended */\n      0x01\n      0x14\n      swap1\n      sload\n      swap1\n      0x0100\n      exp\n      swap1\n      div\n      0xff\n      and\n        /* \"contracts/AuctionSystem.sol\":1568:1574  !ended */\n      iszero\n        /* \"contracts/AuctionSystem.sol\":1560:1575  require(!ended) */\n      tag_71\n      jumpi\n      0x00\n      dup1\n      revert\n    tag_71:\n        /* \"contracts/AuctionSystem.sol\":1585:1596  beneficiary */\n      0x01\n      0x00\n      swap1\n      sload\n      swap1\n      0x0100\n      exp\n      swap1\n      div\n      0xffffffffffffffffffffffffffffffffffffffff\n      and\n        /* \"contracts/AuctionSystem.sol\":1585:1605  beneficiary.transfer */\n      0xffffffffffffffffffffffffffffffffffffffff\n      and\n        /* \"contracts/AuctionSystem.sol\":1585:1619  beneficiary.transfer(highestPrice) */\n      0x08fc\n        /* \"contracts/AuctionSystem.sol\":1606:1618  highestPrice */\n      sload(0x02)\n        /* \"contracts/AuctionSystem.sol\":1585:1619  beneficiary.transfer(highestPrice) */\n      swap1\n      dup2\n      iszero\n      mul\n      swap1\n      mload(0x40)\n      0x00\n      mload(0x40)\n      dup1\n      dup4\n      sub\n      dup2\n      dup6\n      dup9\n      dup9\n      call\n      swap4\n      pop\n      pop\n      pop\n      pop\n      iszero\n      dup1\n      iszero\n      tag_73\n      jumpi\n      returndatasize\n      0x00\n      dup1\n      returndatacopy\n      revert(0x00, returndatasize)\n    tag_73:\n      pop\n        /* \"contracts/AuctionSystem.sol\":1637:1641  true */\n      0x01\n        /* \"contracts/AuctionSystem.sol\":1629:1634  ended */\n      dup1\n      0x14\n        /* \"contracts/AuctionSystem.sol\":1629:1641  ended = true */\n      0x0100\n      exp\n      dup2\n      sload\n      dup2\n      0xff\n      mul\n      not\n      and\n      swap1\n      dup4\n      iszero\n      iszero\n      mul\n      or\n      swap1\n      sstore\n      pop\n        /* \"contracts/AuctionSystem.sol\":1444:1648  function endAuction() public {... */\n      jump\t// out\n        /* \"#utility.yul\":7:84   */\n    tag_74:\n        /* \"#utility.yul\":44:51   */\n      0x00\n        /* \"#utility.yul\":73:78   */\n      dup2\n        /* \"#utility.yul\":62:78   */\n      swap1\n      pop\n        /* \"#utility.yul\":7:84   */\n      swap2\n      swap1\n      pop\n      jump\t// out\n        /* \"#utility.yul\":90:208   */\n    tag_75:\n        /* \"#utility.yul\":177:201   */\n      tag_99\n        /* \"#utility.yul\":195:200   */\n      dup2\n        /* \"#utility.yul\":177:201   */\n      tag_74\n      jump\t// in\n    tag_99:\n        /* \"#utility.yul\":172:175   */\n      dup3\n        /* \"#utility.yul\":165:202   */\n      mstore\n        /* \"#utility.yul\":90:208   */\n      pop\n      pop\n      jump\t// out\n        /* \"#utility.yul\":214:436   */\n    tag_16:\n        /* \"#utility.yul\":307:311   */\n      0x00\n        /* \"#utility.yul\":345:347   */\n      0x20\n        /* \"#utility.yul\":334:343   */\n      dup3\n        /* \"#utility.yul\":330:348   */\n      add\n        /* \"#utility.yul\":322:348   */\n      swap1\n      pop\n        /* \"#utility.yul\":358:429   */\n      tag_101\n        /* \"#utility.yul\":426:427   */\n      0x00\n        /* \"#utility.yul\":415:424   */\n      dup4\n        /* \"#utility.yul\":411:428   */\n      add\n        /* \"#utility.yul\":402:408   */\n      dup5\n        /* \"#utility.yul\":358:429   */\n      tag_75\n      jump\t// in\n    tag_101:\n        /* \"#utility.yul\":214:436   */\n      swap3\n      swap2\n      pop\n      pop\n      jump\t// out\n        /* \"#utility.yul\":442:532   */\n    tag_76:\n        /* \"#utility.yul\":476:483   */\n      0x00\n        /* \"#utility.yul\":519:524   */\n      dup2\n        /* \"#utility.yul\":512:525   */\n      iszero\n        /* \"#utility.yul\":505:526   */\n      iszero\n        /* \"#utility.yul\":494:526   */\n      swap1\n      pop\n        /* \"#utility.yul\":442:532   */\n      swap2\n      swap1\n      pop\n      jump\t// out\n        /* \"#utility.yul\":538:647   */\n    tag_77:\n        /* \"#utility.yul\":619:640   */\n      tag_104\n        /* \"#utility.yul\":634:639   */\n      dup2\n        /* \"#utility.yul\":619:640   */\n      tag_76\n      jump\t// in\n    tag_104:\n        /* \"#utility.yul\":614:617   */\n      dup3\n        /* \"#utility.yul\":607:641   */\n      mstore\n        /* \"#utility.yul\":538:647   */\n      pop\n      pop\n      jump\t// out\n        /* \"#utility.yul\":653:863   */\n    tag_21:\n        /* \"#utility.yul\":740:744   */\n      0x00\n        /* \"#utility.yul\":778:780   */\n      0x20\n        /* \"#utility.yul\":767:776   */\n      dup3\n        /* \"#utility.yul\":763:781   */\n      add\n        /* \"#utility.yul\":755:781   */\n      swap1\n      pop\n        /* \"#utility.yul\":791:856   */\n      tag_106\n        /* \"#utility.yul\":853:854   */\n      0x00\n        /* \"#utility.yul\":842:851   */\n      dup4\n        /* \"#utility.yul\":838:855   */\n      add\n        /* \"#utility.yul\":829:835   */\n      dup5\n        /* \"#utility.yul\":791:856   */\n      tag_77\n      jump\t// in\n    tag_106:\n        /* \"#utility.yul\":653:863   */\n      swap3\n      swap2\n      pop\n      pop\n      jump\t// out\n        /* \"#utility.yul\":869:995   */\n    tag_78:\n        /* \"#utility.yul\":906:913   */\n      0x00\n        /* \"#utility.yul\":946:988   */\n      0xffffffffffffffffffffffffffffffffffffffff\n        /* \"#utility.yul\":939:944   */\n      dup3\n        /* \"#utility.yul\":935:989   */\n      and\n        /* \"#utility.yul\":924:989   */\n      swap1\n      pop\n        /* \"#utility.yul\":869:995   */\n      swap2\n      swap1\n      pop\n      jump\t// out\n        /* \"#utility.yul\":1001:1105   */\n    tag_79:\n        /* \"#utility.yul\":1046:1053   */\n      0x00\n        /* \"#utility.yul\":1075:1099   */\n      tag_109\n        /* \"#utility.yul\":1093:1098   */\n      dup3\n        /* \"#utility.yul\":1075:1099   */\n      tag_78\n      jump\t// in\n    tag_109:\n        /* \"#utility.yul\":1064:1099   */\n      swap1\n      pop\n        /* \"#utility.yul\":1001:1105   */\n      swap2\n      swap1\n      pop\n      jump\t// out\n        /* \"#utility.yul\":1111:1253   */\n    tag_80:\n        /* \"#utility.yul\":1214:1246   */\n      tag_111\n        /* \"#utility.yul\":1240:1245   */\n      dup2\n        /* \"#utility.yul\":1214:1246   */\n      tag_79\n      jump\t// in\n    tag_111:\n        /* \"#utility.yul\":1209:1212   */\n      dup3\n        /* \"#utility.yul\":1202:1247   */\n      mstore\n        /* \"#utility.yul\":1111:1253   */\n      pop\n      pop\n      jump\t// out\n        /* \"#utility.yul\":1259:1513   */\n    tag_32:\n        /* \"#utility.yul\":1368:1372   */\n      0x00\n        /* \"#utility.yul\":1406:1408   */\n      0x20\n        /* \"#utility.yul\":1395:1404   */\n      dup3\n        /* \"#utility.yul\":1391:1409   */\n      add\n        /* \"#utility.yul\":1383:1409   */\n      swap1\n      pop\n        /* \"#utility.yul\":1419:1506   */\n      tag_113\n        /* \"#utility.yul\":1503:1504   */\n      0x00\n        /* \"#utility.yul\":1492:1501   */\n      dup4\n        /* \"#utility.yul\":1488:1505   */\n      add\n        /* \"#utility.yul\":1479:1485   */\n      dup5\n        /* \"#utility.yul\":1419:1506   */\n      tag_80\n      jump\t// in\n    tag_113:\n        /* \"#utility.yul\":1259:1513   */\n      swap3\n      swap2\n      pop\n      pop\n      jump\t// out\n        /* \"#utility.yul\":1519:1615   */\n    tag_81:\n        /* \"#utility.yul\":1556:1563   */\n      0x00\n        /* \"#utility.yul\":1585:1609   */\n      tag_115\n        /* \"#utility.yul\":1603:1608   */\n      dup3\n        /* \"#utility.yul\":1585:1609   */\n      tag_78\n      jump\t// in\n    tag_115:\n        /* \"#utility.yul\":1574:1609   */\n      swap1\n      pop\n        /* \"#utility.yul\":1519:1615   */\n      swap2\n      swap1\n      pop\n      jump\t// out\n        /* \"#utility.yul\":1621:1739   */\n    tag_82:\n        /* \"#utility.yul\":1708:1732   */\n      tag_117\n        /* \"#utility.yul\":1726:1731   */\n      dup2\n        /* \"#utility.yul\":1708:1732   */\n      tag_81\n      jump\t// in\n    tag_117:\n        /* \"#utility.yul\":1703:1706   */\n      dup3\n        /* \"#utility.yul\":1696:1733   */\n      mstore\n        /* \"#utility.yul\":1621:1739   */\n      pop\n      pop\n      jump\t// out\n        /* \"#utility.yul\":1745:1967   */\n    tag_37:\n        /* \"#utility.yul\":1838:1842   */\n      0x00\n        /* \"#utility.yul\":1876:1878   */\n      0x20\n        /* \"#utility.yul\":1865:1874   */\n      dup3\n        /* \"#utility.yul\":1861:1879   */\n      add\n        /* \"#utility.yul\":1853:1879   */\n      swap1\n      pop\n        /* \"#utility.yul\":1889:1960   */\n      tag_119\n        /* \"#utility.yul\":1957:1958   */\n      0x00\n        /* \"#utility.yul\":1946:1955   */\n      dup4\n        /* \"#utility.yul\":1942:1959   */\n      add\n        /* \"#utility.yul\":1933:1939   */\n      dup5\n        /* \"#utility.yul\":1889:1960   */\n      tag_82\n      jump\t// in\n    tag_119:\n        /* \"#utility.yul\":1745:1967   */\n      swap3\n      swap2\n      pop\n      pop\n      jump\t// out\n        /* \"#utility.yul\":2054:2171   */\n    tag_84:\n        /* \"#utility.yul\":2163:2164   */\n      0x00\n        /* \"#utility.yul\":2160:2161   */\n      dup1\n        /* \"#utility.yul\":2153:2165   */\n      revert\n        /* \"#utility.yul\":2300:2422   */\n    tag_86:\n        /* \"#utility.yul\":2373:2397   */\n      tag_124\n        /* \"#utility.yul\":2391:2396   */\n      dup2\n        /* \"#utility.yul\":2373:2397   */\n      tag_81\n      jump\t// in\n    tag_124:\n        /* \"#utility.yul\":2366:2371   */\n      dup2\n        /* \"#utility.yul\":2363:2398   */\n      eq\n        /* \"#utility.yul\":2353:2416   */\n      tag_125\n      jumpi\n        /* \"#utility.yul\":2412:2413   */\n      0x00\n        /* \"#utility.yul\":2409:2410   */\n      dup1\n        /* \"#utility.yul\":2402:2414   */\n      revert\n        /* \"#utility.yul\":2353:2416   */\n    tag_125:\n        /* \"#utility.yul\":2300:2422   */\n      pop\n      jump\t// out\n        /* \"#utility.yul\":2428:2567   */\n    tag_87:\n        /* \"#utility.yul\":2474:2479   */\n      0x00\n        /* \"#utility.yul\":2512:2518   */\n      dup2\n        /* \"#utility.yul\":2499:2519   */\n      calldataload\n        /* \"#utility.yul\":2490:2519   */\n      swap1\n      pop\n        /* \"#utility.yul\":2528:2561   */\n      tag_127\n        /* \"#utility.yul\":2555:2560   */\n      dup2\n        /* \"#utility.yul\":2528:2561   */\n      tag_86\n      jump\t// in\n    tag_127:\n        /* \"#utility.yul\":2428:2567   */\n      swap3\n      swap2\n      pop\n      pop\n      jump\t// out\n        /* \"#utility.yul\":2573:2902   */\n    tag_41:\n        /* \"#utility.yul\":2632:2638   */\n      0x00\n        /* \"#utility.yul\":2681:2683   */\n      0x20\n        /* \"#utility.yul\":2669:2678   */\n      dup3\n        /* \"#utility.yul\":2660:2667   */\n      dup5\n        /* \"#utility.yul\":2656:2679   */\n      sub\n        /* \"#utility.yul\":2652:2684   */\n      slt\n        /* \"#utility.yul\":2649:2768   */\n      iszero\n      tag_129\n      jumpi\n        /* \"#utility.yul\":2687:2766   */\n      tag_130\n      tag_84\n      jump\t// in\n    tag_130:\n        /* \"#utility.yul\":2649:2768   */\n    tag_129:\n        /* \"#utility.yul\":2807:2808   */\n      0x00\n        /* \"#utility.yul\":2832:2885   */\n      tag_131\n        /* \"#utility.yul\":2877:2884   */\n      dup5\n        /* \"#utility.yul\":2868:2874   */\n      dup3\n        /* \"#utility.yul\":2857:2866   */\n      dup6\n        /* \"#utility.yul\":2853:2875   */\n      add\n        /* \"#utility.yul\":2832:2885   */\n      tag_87\n      jump\t// in\n    tag_131:\n        /* \"#utility.yul\":2822:2885   */\n      swap2\n      pop\n        /* \"#utility.yul\":2778:2895   */\n      pop\n        /* \"#utility.yul\":2573:2902   */\n      swap3\n      swap2\n      pop\n      pop\n      jump\t// out\n        /* \"#utility.yul\":2908:3077   */\n    tag_88:\n        /* \"#utility.yul\":2992:3003   */\n      0x00\n        /* \"#utility.yul\":3026:3032   */\n      dup3\n        /* \"#utility.yul\":3021:3024   */\n      dup3\n        /* \"#utility.yul\":3014:3033   */\n      mstore\n        /* \"#utility.yul\":3066:3070   */\n      0x20\n        /* \"#utility.yul\":3061:3064   */\n      dup3\n        /* \"#utility.yul\":3057:3071   */\n      add\n        /* \"#utility.yul\":3042:3071   */\n      swap1\n      pop\n        /* \"#utility.yul\":2908:3077   */\n      swap3\n      swap2\n      pop\n      pop\n      jump\t// out\n        /* \"#utility.yul\":3083:3255   */\n    tag_89:\n        /* \"#utility.yul\":3223:3247   */\n      0x41756374696f6e2074696d652068617320656e64656400000000000000000000\n        /* \"#utility.yul\":3219:3220   */\n      0x00\n        /* \"#utility.yul\":3211:3217   */\n      dup3\n        /* \"#utility.yul\":3207:3221   */\n      add\n        /* \"#utility.yul\":3200:3248   */\n      mstore\n        /* \"#utility.yul\":3083:3255   */\n      pop\n      jump\t// out\n        /* \"#utility.yul\":3261:3627   */\n    tag_90:\n        /* \"#utility.yul\":3403:3406   */\n      0x00\n        /* \"#utility.yul\":3424:3491   */\n      tag_135\n        /* \"#utility.yul\":3488:3490   */\n      0x16\n        /* \"#utility.yul\":3483:3486   */\n      dup4\n        /* \"#utility.yul\":3424:3491   */\n      tag_88\n      jump\t// in\n    tag_135:\n        /* \"#utility.yul\":3417:3491   */\n      swap2\n      pop\n        /* \"#utility.yul\":3500:3593   */\n      tag_136\n        /* \"#utility.yul\":3589:3592   */\n      dup3\n        /* \"#utility.yul\":3500:3593   */\n      tag_89\n      jump\t// in\n    tag_136:\n        /* \"#utility.yul\":3618:3620   */\n      0x20\n        /* \"#utility.yul\":3613:3616   */\n      dup3\n        /* \"#utility.yul\":3609:3621   */\n      add\n        /* \"#utility.yul\":3602:3621   */\n      swap1\n      pop\n        /* \"#utility.yul\":3261:3627   */\n      swap2\n      swap1\n      pop\n      jump\t// out\n        /* \"#utility.yul\":3633:4052   */\n    tag_54:\n        /* \"#utility.yul\":3799:3803   */\n      0x00\n        /* \"#utility.yul\":3837:3839   */\n      0x20\n        /* \"#utility.yul\":3826:3835   */\n      dup3\n        /* \"#utility.yul\":3822:3840   */\n      add\n        /* \"#utility.yul\":3814:3840   */\n      swap1\n      pop\n        /* \"#utility.yul\":3886:3895   */\n      dup2\n        /* \"#utility.yul\":3880:3884   */\n      dup2\n        /* \"#utility.yul\":3876:3896   */\n      sub\n        /* \"#utility.yul\":3872:3873   */\n      0x00\n        /* \"#utility.yul\":3861:3870   */\n      dup4\n        /* \"#utility.yul\":3857:3874   */\n      add\n        /* \"#utility.yul\":3850:3897   */\n      mstore\n        /* \"#utility.yul\":3914:4045   */\n      tag_138\n        /* \"#utility.yul\":4040:4044   */\n      dup2\n        /* \"#utility.yul\":3914:4045   */\n      tag_90\n      jump\t// in\n    tag_138:\n        /* \"#utility.yul\":3906:4045   */\n      swap1\n      pop\n        /* \"#utility.yul\":3633:4052   */\n      swap2\n      swap1\n      pop\n      jump\t// out\n        /* \"#utility.yul\":4058:4239   */\n    tag_91:\n        /* \"#utility.yul\":4198:4231   */\n      0x4e6f7420657863656564696e6720746865206d6178696d756d20707269636500\n        /* \"#utility.yul\":4194:4195   */\n      0x00\n        /* \"#utility.yul\":4186:4192   */\n      dup3\n        /* \"#utility.yul\":4182:4196   */\n      add\n        /* \"#utility.yul\":4175:4232   */\n      mstore\n        /* \"#utility.yul\":4058:4239   */\n      pop\n      jump\t// out\n        /* \"#utility.yul\":4245:4611   */\n    tag_92:\n        /* \"#utility.yul\":4387:4390   */\n      0x00\n        /* \"#utility.yul\":4408:4475   */\n      tag_141\n        /* \"#utility.yul\":4472:4474   */\n      0x1f\n        /* \"#utility.yul\":4467:4470   */\n      dup4\n        /* \"#utility.yul\":4408:4475   */\n      tag_88\n      jump\t// in\n    tag_141:\n        /* \"#utility.yul\":4401:4475   */\n      swap2\n      pop\n        /* \"#utility.yul\":4484:4577   */\n      tag_142\n        /* \"#utility.yul\":4573:4576   */\n      dup3\n        /* \"#utility.yul\":4484:4577   */\n      tag_91\n      jump\t// in\n    tag_142:\n        /* \"#utility.yul\":4602:4604   */\n      0x20\n        /* \"#utility.yul\":4597:4600   */\n      dup3\n        /* \"#utility.yul\":4593:4605   */\n      add\n        /* \"#utility.yul\":4586:4605   */\n      swap1\n      pop\n        /* \"#utility.yul\":4245:4611   */\n      swap2\n      swap1\n      pop\n      jump\t// out\n        /* \"#utility.yul\":4617:5036   */\n    tag_57:\n        /* \"#utility.yul\":4783:4787   */\n      0x00\n        /* \"#utility.yul\":4821:4823   */\n      0x20\n        /* \"#utility.yul\":4810:4819   */\n      dup3\n        /* \"#utility.yul\":4806:4824   */\n      add\n        /* \"#utility.yul\":4798:4824   */\n      swap1\n      pop\n        /* \"#utility.yul\":4870:4879   */\n      dup2\n        /* \"#utility.yul\":4864:4868   */\n      dup2\n        /* \"#utility.yul\":4860:4880   */\n      sub\n        /* \"#utility.yul\":4856:4857   */\n      0x00\n        /* \"#utility.yul\":4845:4854   */\n      dup4\n        /* \"#utility.yul\":4841:4858   */\n      add\n        /* \"#utility.yul\":4834:4881   */\n      mstore\n        /* \"#utility.yul\":4898:5029   */\n      tag_144\n        /* \"#utility.yul\":5024:5028   */\n      dup2\n        /* \"#utility.yul\":4898:5029   */\n      tag_92\n      jump\t// in\n    tag_144:\n        /* \"#utility.yul\":4890:5029   */\n      swap1\n      pop\n        /* \"#utility.yul\":4617:5036   */\n      swap2\n      swap1\n      pop\n      jump\t// out\n        /* \"#utility.yul\":5042:5222   */\n    tag_93:\n        /* \"#utility.yul\":5090:5167   */\n      0x4e487b7100000000000000000000000000000000000000000000000000000000\n        /* \"#utility.yul\":5087:5088   */\n      0x00\n        /* \"#utility.yul\":5080:5168   */\n      mstore\n        /* \"#utility.yul\":5187:5191   */\n      0x11\n        /* \"#utility.yul\":5184:5185   */\n      0x04\n        /* \"#utility.yul\":5177:5192   */\n      mstore\n        /* \"#utility.yul\":5211:5215   */\n      0x24\n        /* \"#utility.yul\":5208:5209   */\n      0x00\n        /* \"#utility.yul\":5201:5216   */\n      revert\n        /* \"#utility.yul\":5228:5533   */\n    tag_60:\n        /* \"#utility.yul\":5268:5271   */\n      0x00\n        /* \"#utility.yul\":5287:5307   */\n      tag_147\n        /* \"#utility.yul\":5305:5306   */\n      dup3\n        /* \"#utility.yul\":5287:5307   */\n      tag_74\n      jump\t// in\n    tag_147:\n        /* \"#utility.yul\":5282:5307   */\n      swap2\n      pop\n        /* \"#utility.yul\":5321:5341   */\n      tag_148\n        /* \"#utility.yul\":5339:5340   */\n      dup4\n        /* \"#utility.yul\":5321:5341   */\n      tag_74\n      jump\t// in\n    tag_148:\n        /* \"#utility.yul\":5316:5341   */\n      swap3\n      pop\n        /* \"#utility.yul\":5475:5476   */\n      dup3\n        /* \"#utility.yul\":5407:5473   */\n      0xffffffffffffffffffffffffffffffffffffffffffffffffffffffffffffffff\n        /* \"#utility.yul\":5403:5477   */\n      sub\n        /* \"#utility.yul\":5400:5401   */\n      dup3\n        /* \"#utility.yul\":5397:5478   */\n      gt\n        /* \"#utility.yul\":5394:5501   */\n      iszero\n      tag_149\n      jumpi\n        /* \"#utility.yul\":5481:5499   */\n      tag_150\n      tag_93\n      jump\t// in\n    tag_150:\n        /* \"#utility.yul\":5394:5501   */\n    tag_149:\n        /* \"#utility.yul\":5525:5526   */\n      dup3\n        /* \"#utility.yul\":5522:5523   */\n      dup3\n        /* \"#utility.yul\":5518:5527   */\n      add\n        /* \"#utility.yul\":5511:5527   */\n      swap1\n      pop\n        /* \"#utility.yul\":5228:5533   */\n      swap3\n      swap2\n      pop\n      pop\n      jump\t// out\n        /* \"#utility.yul\":5539:5871   */\n    tag_62:\n        /* \"#utility.yul\":5660:5664   */\n      0x00\n        /* \"#utility.yul\":5698:5700   */\n      0x40\n        /* \"#utility.yul\":5687:5696   */\n      dup3\n        /* \"#utility.yul\":5683:5701   */\n      add\n        /* \"#utility.yul\":5675:5701   */\n      swap1\n      pop\n        /* \"#utility.yul\":5711:5782   */\n      tag_152\n        /* \"#utility.yul\":5779:5780   */\n      0x00\n        /* \"#utility.yul\":5768:5777   */\n      dup4\n        /* \"#utility.yul\":5764:5781   */\n      add\n        /* \"#utility.yul\":5755:5761   */\n      dup6\n        /* \"#utility.yul\":5711:5782   */\n      tag_82\n      jump\t// in\n    tag_152:\n        /* \"#utility.yul\":5792:5864   */\n      tag_153\n        /* \"#utility.yul\":5860:5862   */\n      0x20\n        /* \"#utility.yul\":5849:5858   */\n      dup4\n        /* \"#utility.yul\":5845:5863   */\n      add\n        /* \"#utility.yul\":5836:5842   */\n      dup5\n        /* \"#utility.yul\":5792:5864   */\n      tag_75\n      jump\t// in\n    tag_153:\n        /* \"#utility.yul\":5539:5871   */\n      swap4\n      swap3\n      pop\n      pop\n      pop\n      jump\t// out\n        /* \"#utility.yul\":5877:6056   */\n    tag_94:\n        /* \"#utility.yul\":6017:6048   */\n      0x5468652061756374696f6e20686173206e6f7420656e64656420796574000000\n        /* \"#utility.yul\":6013:6014   */\n      0x00\n        /* \"#utility.yul\":6005:6011   */\n      dup3\n        /* \"#utility.yul\":6001:6015   */\n      add\n        /* \"#utility.yul\":5994:6049   */\n      mstore\n        /* \"#utility.yul\":5877:6056   */\n      pop\n      jump\t// out\n        /* \"#utility.yul\":6062:6428   */\n    tag_95:\n        /* \"#utility.yul\":6204:6207   */\n      0x00\n        /* \"#utility.yul\":6225:6292   */\n      tag_156\n        /* \"#utility.yul\":6289:6291   */\n      0x1d\n        /* \"#utility.yul\":6284:6287   */\n      dup4\n        /* \"#utility.yul\":6225:6292   */\n      tag_88\n      jump\t// in\n    tag_156:\n        /* \"#utility.yul\":6218:6292   */\n      swap2\n      pop\n        /* \"#utility.yul\":6301:6394   */\n      tag_157\n        /* \"#utility.yul\":6390:6393   */\n      dup3\n        /* \"#utility.yul\":6301:6394   */\n      tag_94\n      jump\t// in\n    tag_157:\n        /* \"#utility.yul\":6419:6421   */\n      0x20\n        /* \"#utility.yul\":6414:6417   */\n      dup3\n        /* \"#utility.yul\":6410:6422   */\n      add\n        /* \"#utility.yul\":6403:6422   */\n      swap1\n      pop\n        /* \"#utility.yul\":6062:6428   */\n      swap2\n      swap1\n      pop\n      jump\t// out\n        /* \"#utility.yul\":6434:6853   */\n    tag_70:\n        /* \"#utility.yul\":6600:6604   */\n      0x00\n        /* \"#utility.yul\":6638:6640   */\n      0x20\n        /* \"#utility.yul\":6627:6636   */\n      dup3\n        /* \"#utility.yul\":6623:6641   */\n      add\n        /* \"#utility.yul\":6615:6641   */\n      swap1\n      pop\n        /* \"#utility.yul\":6687:6696   */\n      dup2\n        /* \"#utility.yul\":6681:6685   */\n      dup2\n        /* \"#utility.yul\":6677:6697   */\n      sub\n        /* \"#utility.yul\":6673:6674   */\n      0x00\n        /* \"#utility.yul\":6662:6671   */\n      dup4\n        /* \"#utility.yul\":6658:6675   */\n      add\n        /* \"#utility.yul\":6651:6698   */\n      mstore\n        /* \"#utility.yul\":6715:6846   */\n      tag_159\n        /* \"#utility.yul\":6841:6845   */\n      dup2\n        /* \"#utility.yul\":6715:6846   */\n      tag_95\n      jump\t// in\n    tag_159:\n        /* \"#utility.yul\":6707:6846   */\n      swap1\n      pop\n        /* \"#utility.yul\":6434:6853   */\n      swap2\n      swap1\n      pop\n      jump\t// out\n\n    auxdata: 0xa2646970667358221220e9ad55a090e45c5ede0c6abe14507a166cf72d916b60bc1e7ac27fca81bcbac364736f6c634300080d0033\n}\n",
				"bytecode": {
					"linkReferences": {},
					"object": "60806040523480156200001157600080fd5b5060405162000bbd38038062000bbd833981810160405281019062000037919062000139565b8142620000459190620001af565b60008190555080600160006101000a81548173ffffffffffffffffffffffffffffffffffffffff021916908373ffffffffffffffffffffffffffffffffffffffff16021790555050506200020c565b600080fd5b6000819050919050565b620000ae8162000099565b8114620000ba57600080fd5b50565b600081519050620000ce81620000a3565b92915050565b600073ffffffffffffffffffffffffffffffffffffffff82169050919050565b60006200010182620000d4565b9050919050565b6200011381620000f4565b81146200011f57600080fd5b50565b600081519050620001338162000108565b92915050565b6000806040838503121562000153576200015262000094565b5b60006200016385828601620000bd565b9250506020620001768582860162000122565b9150509250929050565b7f4e487b7100000000000000000000000000000000000000000000000000000000600052601160045260246000fd5b6000620001bc8262000099565b9150620001c98362000099565b9250827fffffffffffffffffffffffffffffffffffffffffffffffffffffffffffffffff0382111562000201576200020062000180565b5b828201905092915050565b6109a1806200021c6000396000f3fe6080604052600436106100865760003560e01c806338af3eed1161005957806338af3eed14610116578063c068011314610141578063d3ee63cb1461016c578063e10aa9d1146101a9578063fe67a54b146101d457610086565b80630e8670e01461008b57806312fa6feb146100b65780631998aeef146100e15780633197cbb6146100eb575b600080fd5b34801561009757600080fd5b506100a06101eb565b6040516100ad9190610621565b60405180910390f35b3480156100c257600080fd5b506100cb6101f1565b6040516100d89190610657565b60405180910390f35b6100e9610204565b005b3480156100f757600080fd5b50610100610395565b60405161010d9190610621565b60405180910390f35b34801561012257600080fd5b5061012b61039b565b60405161013891906106b3565b60405180910390f35b34801561014d57600080fd5b506101566103c1565b60405161016391906106ef565b60405180910390f35b34801561017857600080fd5b50610193600480360381019061018e919061073b565b6103e7565b6040516101a09190610621565b60405180910390f35b3480156101b557600080fd5b506101be6103ff565b6040516101cb9190610657565b60405180910390f35b3480156101e057600080fd5b506101e9610523565b005b60025481565b600160149054906101000a900460ff1681565b6000544210610248576040517f08c379a000000000000000000000000000000000000000000000000000000000815260040161023f906107c5565b60405180910390fd5b600254341161028c576040517f08c379a000000000000000000000000000000000000000000000000000000000815260040161028390610831565b60405180910390fd5b600060025411156103125760025460046000600360009054906101000a900473ffffffffffffffffffffffffffffffffffffffff1673ffffffffffffffffffffffffffffffffffffffff1673ffffffffffffffffffffffffffffffffffffffff168152602001908152602001600020600082825461030a9190610880565b925050819055505b3460028190555033600360006101000a81548173ffffffffffffffffffffffffffffffffffffffff021916908373ffffffffffffffffffffffffffffffffffffffff1602179055507ff4757a49b326036464bec6fe419a4ae38c8a02ce3e68bf0809674f6aab8ad300333460405161038b9291906108d6565b60405180910390a1565b60005481565b600160009054906101000a900473ffffffffffffffffffffffffffffffffffffffff1681565b600360009054906101000a900473ffffffffffffffffffffffffffffffffffffffff1681565b60046020528060005260406000206000915090505481565b600080600460003373ffffffffffffffffffffffffffffffffffffffff1673ffffffffffffffffffffffffffffffffffffffff1681526020019081526020016000205490506000600460003373ffffffffffffffffffffffffffffffffffffffff1673ffffffffffffffffffffffffffffffffffffffff16815260200190815260200160002081905550600081111561051a573373ffffffffffffffffffffffffffffffffffffffff166108fc829081150290604051600060405180830381858888f193505050506105195780600460003373ffffffffffffffffffffffffffffffffffffffff1673ffffffffffffffffffffffffffffffffffffffff168152602001908152602001600020819055506000915050610520565b5b60019150505b90565b4260005410610567576040517f08c379a000000000000000000000000000000000000000000000000000000000815260040161055e9061094b565b60405180910390fd5b600160149054906101000a900460ff161561058157600080fd5b600160009054906101000a900473ffffffffffffffffffffffffffffffffffffffff1673ffffffffffffffffffffffffffffffffffffffff166108fc6002549081150290604051600060405180830381858888f193505050501580156105eb573d6000803e3d6000fd5b5060018060146101000a81548160ff021916908315150217905550565b6000819050919050565b61061b81610608565b82525050565b60006020820190506106366000830184610612565b92915050565b60008115159050919050565b6106518161063c565b82525050565b600060208201905061066c6000830184610648565b92915050565b600073ffffffffffffffffffffffffffffffffffffffff82169050919050565b600061069d82610672565b9050919050565b6106ad81610692565b82525050565b60006020820190506106c860008301846106a4565b92915050565b60006106d982610672565b9050919050565b6106e9816106ce565b82525050565b600060208201905061070460008301846106e0565b92915050565b600080fd5b610718816106ce565b811461072357600080fd5b50565b6000813590506107358161070f565b92915050565b6000602082840312156107515761075061070a565b5b600061075f84828501610726565b91505092915050565b600082825260208201905092915050565b7f41756374696f6e2074696d652068617320656e64656400000000000000000000600082015250565b60006107af601683610768565b91506107ba82610779565b602082019050919050565b600060208201905081810360008301526107de816107a2565b9050919050565b7f4e6f7420657863656564696e6720746865206d6178696d756d20707269636500600082015250565b600061081b601f83610768565b9150610826826107e5565b602082019050919050565b6000602082019050818103600083015261084a8161080e565b9050919050565b7f4e487b7100000000000000000000000000000000000000000000000000000000600052601160045260246000fd5b600061088b82610608565b915061089683610608565b9250827fffffffffffffffffffffffffffffffffffffffffffffffffffffffffffffffff038211156108cb576108ca610851565b5b828201905092915050565b60006040820190506108eb60008301856106e0565b6108f86020830184610612565b9392505050565b7f5468652061756374696f6e20686173206e6f7420656e64656420796574000000600082015250565b6000610935601d83610768565b9150610940826108ff565b602082019050919050565b6000602082019050818103600083015261096481610928565b905091905056fea2646970667358221220e9ad55a090e45c5ede0c6abe14507a166cf72d916b60bc1e7ac27fca81bcbac364736f6c634300080d0033",
					"opcodes": "PUSH1 0x80 PUSH1 0x40 MSTORE CALLVALUE DUP1 ISZERO PUSH3 0x11 JUMPI PUSH1 0x0 DUP1 REVERT JUMPDEST POP PUSH1 0x40 MLOAD PUSH3 0xBBD CODESIZE SUB DUP1 PUSH3 0xBBD DUP4 CODECOPY DUP2 DUP2 ADD PUSH1 0x40 MSTORE DUP2 ADD SWAP1 PUSH3 0x37 SWAP2 SWAP1 PUSH3 0x139 JUMP JUMPDEST DUP2 TIMESTAMP PUSH3 0x45 SWAP2 SWAP1 PUSH3 0x1AF JUMP JUMPDEST PUSH1 0x0 DUP2 SWAP1 SSTORE POP DUP1 PUSH1 0x1 PUSH1 0x0 PUSH2 0x100 EXP DUP2 SLOAD DUP2 PUSH20 0xFFFFFFFFFFFFFFFFFFFFFFFFFFFFFFFFFFFFFFFF MUL NOT AND SWAP1 DUP4 PUSH20 0xFFFFFFFFFFFFFFFFFFFFFFFFFFFFFFFFFFFFFFFF AND MUL OR SWAP1 SSTORE POP POP POP PUSH3 0x20C JUMP JUMPDEST PUSH1 0x0 DUP1 REVERT JUMPDEST PUSH1 0x0 DUP2 SWAP1 POP SWAP2 SWAP1 POP JUMP JUMPDEST PUSH3 0xAE DUP2 PUSH3 0x99 JUMP JUMPDEST DUP2 EQ PUSH3 0xBA JUMPI PUSH1 0x0 DUP1 REVERT JUMPDEST POP JUMP JUMPDEST PUSH1 0x0 DUP2 MLOAD SWAP1 POP PUSH3 0xCE DUP2 PUSH3 0xA3 JUMP JUMPDEST SWAP3 SWAP2 POP POP JUMP JUMPDEST PUSH1 0x0 PUSH20 0xFFFFFFFFFFFFFFFFFFFFFFFFFFFFFFFFFFFFFFFF DUP3 AND SWAP1 POP SWAP2 SWAP1 POP JUMP JUMPDEST PUSH1 0x0 PUSH3 0x101 DUP3 PUSH3 0xD4 JUMP JUMPDEST SWAP1 POP SWAP2 SWAP1 POP JUMP JUMPDEST PUSH3 0x113 DUP2 PUSH3 0xF4 JUMP JUMPDEST DUP2 EQ PUSH3 0x11F JUMPI PUSH1 0x0 DUP1 REVERT JUMPDEST POP JUMP JUMPDEST PUSH1 0x0 DUP2 MLOAD SWAP1 POP PUSH3 0x133 DUP2 PUSH3 0x108 JUMP JUMPDEST SWAP3 SWAP2 POP POP JUMP JUMPDEST PUSH1 0x0 DUP1 PUSH1 0x40 DUP4 DUP6 SUB SLT ISZERO PUSH3 0x153 JUMPI PUSH3 0x152 PUSH3 0x94 JUMP JUMPDEST JUMPDEST PUSH1 0x0 PUSH3 0x163 DUP6 DUP3 DUP7 ADD PUSH3 0xBD JUMP JUMPDEST SWAP3 POP POP PUSH1 0x20 PUSH3 0x176 DUP6 DUP3 DUP7 ADD PUSH3 0x122 JUMP JUMPDEST SWAP2 POP POP SWAP3 POP SWAP3 SWAP1 POP JUMP JUMPDEST PUSH32 0x4E487B7100000000000000000000000000000000000000000000000000000000 PUSH1 0x0 MSTORE PUSH1 0x11 PUSH1 0x4 MSTORE PUSH1 0x24 PUSH1 0x0 REVERT JUMPDEST PUSH1 0x0 PUSH3 0x1BC DUP3 PUSH3 0x99 JUMP JUMPDEST SWAP2 POP PUSH3 0x1C9 DUP4 PUSH3 0x99 JUMP JUMPDEST SWAP3 POP DUP3 PUSH32 0xFFFFFFFFFFFFFFFFFFFFFFFFFFFFFFFFFFFFFFFFFFFFFFFFFFFFFFFFFFFFFFFF SUB DUP3 GT ISZERO PUSH3 0x201 JUMPI PUSH3 0x200 PUSH3 0x180 JUMP JUMPDEST JUMPDEST DUP3 DUP3 ADD SWAP1 POP SWAP3 SWAP2 POP POP JUMP JUMPDEST PUSH2 0x9A1 DUP1 PUSH3 0x21C PUSH1 0x0 CODECOPY PUSH1 0x0 RETURN INVALID PUSH1 0x80 PUSH1 0x40 MSTORE PUSH1 0x4 CALLDATASIZE LT PUSH2 0x86 JUMPI PUSH1 0x0 CALLDATALOAD PUSH1 0xE0 SHR DUP1 PUSH4 0x38AF3EED GT PUSH2 0x59 JUMPI DUP1 PUSH4 0x38AF3EED EQ PUSH2 0x116 JUMPI DUP1 PUSH4 0xC0680113 EQ PUSH2 0x141 JUMPI DUP1 PUSH4 0xD3EE63CB EQ PUSH2 0x16C JUMPI DUP1 PUSH4 0xE10AA9D1 EQ PUSH2 0x1A9 JUMPI DUP1 PUSH4 0xFE67A54B EQ PUSH2 0x1D4 JUMPI PUSH2 0x86 JUMP JUMPDEST DUP1 PUSH4 0xE8670E0 EQ PUSH2 0x8B JUMPI DUP1 PUSH4 0x12FA6FEB EQ PUSH2 0xB6 JUMPI DUP1 PUSH4 0x1998AEEF EQ PUSH2 0xE1 JUMPI DUP1 PUSH4 0x3197CBB6 EQ PUSH2 0xEB JUMPI JUMPDEST PUSH1 0x0 DUP1 REVERT JUMPDEST CALLVALUE DUP1 ISZERO PUSH2 0x97 JUMPI PUSH1 0x0 DUP1 REVERT JUMPDEST POP PUSH2 0xA0 PUSH2 0x1EB JUMP JUMPDEST PUSH1 0x40 MLOAD PUSH2 0xAD SWAP2 SWAP1 PUSH2 0x621 JUMP JUMPDEST PUSH1 0x40 MLOAD DUP1 SWAP2 SUB SWAP1 RETURN JUMPDEST CALLVALUE DUP1 ISZERO PUSH2 0xC2 JUMPI PUSH1 0x0 DUP1 REVERT JUMPDEST POP PUSH2 0xCB PUSH2 0x1F1 JUMP JUMPDEST PUSH1 0x40 MLOAD PUSH2 0xD8 SWAP2 SWAP1 PUSH2 0x657 JUMP JUMPDEST PUSH1 0x40 MLOAD DUP1 SWAP2 SUB SWAP1 RETURN JUMPDEST PUSH2 0xE9 PUSH2 0x204 JUMP JUMPDEST STOP JUMPDEST CALLVALUE DUP1 ISZERO PUSH2 0xF7 JUMPI PUSH1 0x0 DUP1 REVERT JUMPDEST POP PUSH2 0x100 PUSH2 0x395 JUMP JUMPDEST PUSH1 0x40 MLOAD PUSH2 0x10D SWAP2 SWAP1 PUSH2 0x621 JUMP JUMPDEST PUSH1 0x40 MLOAD DUP1 SWAP2 SUB SWAP1 RETURN JUMPDEST CALLVALUE DUP1 ISZERO PUSH2 0x122 JUMPI PUSH1 0x0 DUP1 REVERT JUMPDEST POP PUSH2 0x12B PUSH2 0x39B JUMP JUMPDEST PUSH1 0x40 MLOAD PUSH2 0x138 SWAP2 SWAP1 PUSH2 0x6B3 JUMP JUMPDEST PUSH1 0x40 MLOAD DUP1 SWAP2 SUB SWAP1 RETURN JUMPDEST CALLVALUE DUP1 ISZERO PUSH2 0x14D JUMPI PUSH1 0x0 DUP1 REVERT JUMPDEST POP PUSH2 0x156 PUSH2 0x3C1 JUMP JUMPDEST PUSH1 0x40 MLOAD PUSH2 0x163 SWAP2 SWAP1 PUSH2 0x6EF JUMP JUMPDEST PUSH1 0x40 MLOAD DUP1 SWAP2 SUB SWAP1 RETURN JUMPDEST CALLVALUE DUP1 ISZERO PUSH2 0x178 JUMPI PUSH1 0x0 DUP1 REVERT JUMPDEST POP PUSH2 0x193 PUSH1 0x4 DUP1 CALLDATASIZE SUB DUP2 ADD SWAP1 PUSH2 0x18E SWAP2 SWAP1 PUSH2 0x73B JUMP JUMPDEST PUSH2 0x3E7 JUMP JUMPDEST PUSH1 0x40 MLOAD PUSH2 0x1A0 SWAP2 SWAP1 PUSH2 0x621 JUMP JUMPDEST PUSH1 0x40 MLOAD DUP1 SWAP2 SUB SWAP1 RETURN JUMPDEST CALLVALUE DUP1 ISZERO PUSH2 0x1B5 JUMPI PUSH1 0x0 DUP1 REVERT JUMPDEST POP PUSH2 0x1BE PUSH2 0x3FF JUMP JUMPDEST PUSH1 0x40 MLOAD PUSH2 0x1CB SWAP2 SWAP1 PUSH2 0x657 JUMP JUMPDEST PUSH1 0x40 MLOAD DUP1 SWAP2 SUB SWAP1 RETURN JUMPDEST CALLVALUE DUP1 ISZERO PUSH2 0x1E0 JUMPI PUSH1 0x0 DUP1 REVERT JUMPDEST POP PUSH2 0x1E9 PUSH2 0x523 JUMP JUMPDEST STOP JUMPDEST PUSH1 0x2 SLOAD DUP2 JUMP JUMPDEST PUSH1 0x1 PUSH1 0x14 SWAP1 SLOAD SWAP1 PUSH2 0x100 EXP SWAP1 DIV PUSH1 0xFF AND DUP2 JUMP JUMPDEST PUSH1 0x0 SLOAD TIMESTAMP LT PUSH2 0x248 JUMPI PUSH1 0x40 MLOAD PUSH32 0x8C379A000000000000000000000000000000000000000000000000000000000 DUP2 MSTORE PUSH1 0x4 ADD PUSH2 0x23F SWAP1 PUSH2 0x7C5 JUMP JUMPDEST PUSH1 0x40 MLOAD DUP1 SWAP2 SUB SWAP1 REVERT JUMPDEST PUSH1 0x2 SLOAD CALLVALUE GT PUSH2 0x28C JUMPI PUSH1 0x40 MLOAD PUSH32 0x8C379A000000000000000000000000000000000000000000000000000000000 DUP2 MSTORE PUSH1 0x4 ADD PUSH2 0x283 SWAP1 PUSH2 0x831 JUMP JUMPDEST PUSH1 0x40 MLOAD DUP1 SWAP2 SUB SWAP1 REVERT JUMPDEST PUSH1 0x0 PUSH1 0x2 SLOAD GT ISZERO PUSH2 0x312 JUMPI PUSH1 0x2 SLOAD PUSH1 0x4 PUSH1 0x0 PUSH1 0x3 PUSH1 0x0 SWAP1 SLOAD SWAP1 PUSH2 0x100 EXP SWAP1 DIV PUSH20 0xFFFFFFFFFFFFFFFFFFFFFFFFFFFFFFFFFFFFFFFF AND PUSH20 0xFFFFFFFFFFFFFFFFFFFFFFFFFFFFFFFFFFFFFFFF AND PUSH20 0xFFFFFFFFFFFFFFFFFFFFFFFFFFFFFFFFFFFFFFFF AND DUP2 MSTORE PUSH1 0x20 ADD SWAP1 DUP2 MSTORE PUSH1 0x20 ADD PUSH1 0x0 KECCAK256 PUSH1 0x0 DUP3 DUP3 SLOAD PUSH2 0x30A SWAP2 SWAP1 PUSH2 0x880 JUMP JUMPDEST SWAP3 POP POP DUP2 SWAP1 SSTORE POP JUMPDEST CALLVALUE PUSH1 0x2 DUP2 SWAP1 SSTORE POP CALLER PUSH1 0x3 PUSH1 0x0 PUSH2 0x100 EXP DUP2 SLOAD DUP2 PUSH20 0xFFFFFFFFFFFFFFFFFFFFFFFFFFFFFFFFFFFFFFFF MUL NOT AND SWAP1 DUP4 PUSH20 0xFFFFFFFFFFFFFFFFFFFFFFFFFFFFFFFFFFFFFFFF AND MUL OR SWAP1 SSTORE POP PUSH32 0xF4757A49B326036464BEC6FE419A4AE38C8A02CE3E68BF0809674F6AAB8AD300 CALLER CALLVALUE PUSH1 0x40 MLOAD PUSH2 0x38B SWAP3 SWAP2 SWAP1 PUSH2 0x8D6 JUMP JUMPDEST PUSH1 0x40 MLOAD DUP1 SWAP2 SUB SWAP1 LOG1 JUMP JUMPDEST PUSH1 0x0 SLOAD DUP2 JUMP JUMPDEST PUSH1 0x1 PUSH1 0x0 SWAP1 SLOAD SWAP1 PUSH2 0x100 EXP SWAP1 DIV PUSH20 0xFFFFFFFFFFFFFFFFFFFFFFFFFFFFFFFFFFFFFFFF AND DUP2 JUMP JUMPDEST PUSH1 0x3 PUSH1 0x0 SWAP1 SLOAD SWAP1 PUSH2 0x100 EXP SWAP1 DIV PUSH20 0xFFFFFFFFFFFFFFFFFFFFFFFFFFFFFFFFFFFFFFFF AND DUP2 JUMP JUMPDEST PUSH1 0x4 PUSH1 0x20 MSTORE DUP1 PUSH1 0x0 MSTORE PUSH1 0x40 PUSH1 0x0 KECCAK256 PUSH1 0x0 SWAP2 POP SWAP1 POP SLOAD DUP2 JUMP JUMPDEST PUSH1 0x0 DUP1 PUSH1 0x4 PUSH1 0x0 CALLER PUSH20 0xFFFFFFFFFFFFFFFFFFFFFFFFFFFFFFFFFFFFFFFF AND PUSH20 0xFFFFFFFFFFFFFFFFFFFFFFFFFFFFFFFFFFFFFFFF AND DUP2 MSTORE PUSH1 0x20 ADD SWAP1 DUP2 MSTORE PUSH1 0x20 ADD PUSH1 0x0 KECCAK256 SLOAD SWAP1 POP PUSH1 0x0 PUSH1 0x4 PUSH1 0x0 CALLER PUSH20 0xFFFFFFFFFFFFFFFFFFFFFFFFFFFFFFFFFFFFFFFF AND PUSH20 0xFFFFFFFFFFFFFFFFFFFFFFFFFFFFFFFFFFFFFFFF AND DUP2 MSTORE PUSH1 0x20 ADD SWAP1 DUP2 MSTORE PUSH1 0x20 ADD PUSH1 0x0 KECCAK256 DUP2 SWAP1 SSTORE POP PUSH1 0x0 DUP2 GT ISZERO PUSH2 0x51A JUMPI CALLER PUSH20 0xFFFFFFFFFFFFFFFFFFFFFFFFFFFFFFFFFFFFFFFF AND PUSH2 0x8FC DUP3 SWAP1 DUP2 ISZERO MUL SWAP1 PUSH1 0x40 MLOAD PUSH1 0x0 PUSH1 0x40 MLOAD DUP1 DUP4 SUB DUP2 DUP6 DUP9 DUP9 CALL SWAP4 POP POP POP POP PUSH2 0x519 JUMPI DUP1 PUSH1 0x4 PUSH1 0x0 CALLER PUSH20 0xFFFFFFFFFFFFFFFFFFFFFFFFFFFFFFFFFFFFFFFF AND PUSH20 0xFFFFFFFFFFFFFFFFFFFFFFFFFFFFFFFFFFFFFFFF AND DUP2 MSTORE PUSH1 0x20 ADD SWAP1 DUP2 MSTORE PUSH1 0x20 ADD PUSH1 0x0 KECCAK256 DUP2 SWAP1 SSTORE POP PUSH1 0x0 SWAP2 POP POP PUSH2 0x520 JUMP JUMPDEST JUMPDEST PUSH1 0x1 SWAP2 POP POP JUMPDEST SWAP1 JUMP JUMPDEST TIMESTAMP PUSH1 0x0 SLOAD LT PUSH2 0x567 JUMPI PUSH1 0x40 MLOAD PUSH32 0x8C379A000000000000000000000000000000000000000000000000000000000 DUP2 MSTORE PUSH1 0x4 ADD PUSH2 0x55E SWAP1 PUSH2 0x94B JUMP JUMPDEST PUSH1 0x40 MLOAD DUP1 SWAP2 SUB SWAP1 REVERT JUMPDEST PUSH1 0x1 PUSH1 0x14 SWAP1 SLOAD SWAP1 PUSH2 0x100 EXP SWAP1 DIV PUSH1 0xFF AND ISZERO PUSH2 0x581 JUMPI PUSH1 0x0 DUP1 REVERT JUMPDEST PUSH1 0x1 PUSH1 0x0 SWAP1 SLOAD SWAP1 PUSH2 0x100 EXP SWAP1 DIV PUSH20 0xFFFFFFFFFFFFFFFFFFFFFFFFFFFFFFFFFFFFFFFF AND PUSH20 0xFFFFFFFFFFFFFFFFFFFFFFFFFFFFFFFFFFFFFFFF AND PUSH2 0x8FC PUSH1 0x2 SLOAD SWAP1 DUP2 ISZERO MUL SWAP1 PUSH1 0x40 MLOAD PUSH1 0x0 PUSH1 0x40 MLOAD DUP1 DUP4 SUB DUP2 DUP6 DUP9 DUP9 CALL SWAP4 POP POP POP POP ISZERO DUP1 ISZERO PUSH2 0x5EB JUMPI RETURNDATASIZE PUSH1 0x0 DUP1 RETURNDATACOPY RETURNDATASIZE PUSH1 0x0 REVERT JUMPDEST POP PUSH1 0x1 DUP1 PUSH1 0x14 PUSH2 0x100 EXP DUP2 SLOAD DUP2 PUSH1 0xFF MUL NOT AND SWAP1 DUP4 ISZERO ISZERO MUL OR SWAP1 SSTORE POP JUMP JUMPDEST PUSH1 0x0 DUP2 SWAP1 POP SWAP2 SWAP1 POP JUMP JUMPDEST PUSH2 0x61B DUP2 PUSH2 0x608 JUMP JUMPDEST DUP3 MSTORE POP POP JUMP JUMPDEST PUSH1 0x0 PUSH1 0x20 DUP3 ADD SWAP1 POP PUSH2 0x636 PUSH1 0x0 DUP4 ADD DUP5 PUSH2 0x612 JUMP JUMPDEST SWAP3 SWAP2 POP POP JUMP JUMPDEST PUSH1 0x0 DUP2 ISZERO ISZERO SWAP1 POP SWAP2 SWAP1 POP JUMP JUMPDEST PUSH2 0x651 DUP2 PUSH2 0x63C JUMP JUMPDEST DUP3 MSTORE POP POP JUMP JUMPDEST PUSH1 0x0 PUSH1 0x20 DUP3 ADD SWAP1 POP PUSH2 0x66C PUSH1 0x0 DUP4 ADD DUP5 PUSH2 0x648 JUMP JUMPDEST SWAP3 SWAP2 POP POP JUMP JUMPDEST PUSH1 0x0 PUSH20 0xFFFFFFFFFFFFFFFFFFFFFFFFFFFFFFFFFFFFFFFF DUP3 AND SWAP1 POP SWAP2 SWAP1 POP JUMP JUMPDEST PUSH1 0x0 PUSH2 0x69D DUP3 PUSH2 0x672 JUMP JUMPDEST SWAP1 POP SWAP2 SWAP1 POP JUMP JUMPDEST PUSH2 0x6AD DUP2 PUSH2 0x692 JUMP JUMPDEST DUP3 MSTORE POP POP JUMP JUMPDEST PUSH1 0x0 PUSH1 0x20 DUP3 ADD SWAP1 POP PUSH2 0x6C8 PUSH1 0x0 DUP4 ADD DUP5 PUSH2 0x6A4 JUMP JUMPDEST SWAP3 SWAP2 POP POP JUMP JUMPDEST PUSH1 0x0 PUSH2 0x6D9 DUP3 PUSH2 0x672 JUMP JUMPDEST SWAP1 POP SWAP2 SWAP1 POP JUMP JUMPDEST PUSH2 0x6E9 DUP2 PUSH2 0x6CE JUMP JUMPDEST DUP3 MSTORE POP POP JUMP JUMPDEST PUSH1 0x0 PUSH1 0x20 DUP3 ADD SWAP1 POP PUSH2 0x704 PUSH1 0x0 DUP4 ADD DUP5 PUSH2 0x6E0 JUMP JUMPDEST SWAP3 SWAP2 POP POP JUMP JUMPDEST PUSH1 0x0 DUP1 REVERT JUMPDEST PUSH2 0x718 DUP2 PUSH2 0x6CE JUMP JUMPDEST DUP2 EQ PUSH2 0x723 JUMPI PUSH1 0x0 DUP1 REVERT JUMPDEST POP JUMP JUMPDEST PUSH1 0x0 DUP2 CALLDATALOAD SWAP1 POP PUSH2 0x735 DUP2 PUSH2 0x70F JUMP JUMPDEST SWAP3 SWAP2 POP POP JUMP JUMPDEST PUSH1 0x0 PUSH1 0x20 DUP3 DUP5 SUB SLT ISZERO PUSH2 0x751 JUMPI PUSH2 0x750 PUSH2 0x70A JUMP JUMPDEST JUMPDEST PUSH1 0x0 PUSH2 0x75F DUP5 DUP3 DUP6 ADD PUSH2 0x726 JUMP JUMPDEST SWAP2 POP POP SWAP3 SWAP2 POP POP JUMP JUMPDEST PUSH1 0x0 DUP3 DUP3 MSTORE PUSH1 0x20 DUP3 ADD SWAP1 POP SWAP3 SWAP2 POP POP JUMP JUMPDEST PUSH32 0x41756374696F6E2074696D652068617320656E64656400000000000000000000 PUSH1 0x0 DUP3 ADD MSTORE POP JUMP JUMPDEST PUSH1 0x0 PUSH2 0x7AF PUSH1 0x16 DUP4 PUSH2 0x768 JUMP JUMPDEST SWAP2 POP PUSH2 0x7BA DUP3 PUSH2 0x779 JUMP JUMPDEST PUSH1 0x20 DUP3 ADD SWAP1 POP SWAP2 SWAP1 POP JUMP JUMPDEST PUSH1 0x0 PUSH1 0x20 DUP3 ADD SWAP1 POP DUP2 DUP2 SUB PUSH1 0x0 DUP4 ADD MSTORE PUSH2 0x7DE DUP2 PUSH2 0x7A2 JUMP JUMPDEST SWAP1 POP SWAP2 SWAP1 POP JUMP JUMPDEST PUSH32 0x4E6F7420657863656564696E6720746865206D6178696D756D20707269636500 PUSH1 0x0 DUP3 ADD MSTORE POP JUMP JUMPDEST PUSH1 0x0 PUSH2 0x81B PUSH1 0x1F DUP4 PUSH2 0x768 JUMP JUMPDEST SWAP2 POP PUSH2 0x826 DUP3 PUSH2 0x7E5 JUMP JUMPDEST PUSH1 0x20 DUP3 ADD SWAP1 POP SWAP2 SWAP1 POP JUMP JUMPDEST PUSH1 0x0 PUSH1 0x20 DUP3 ADD SWAP1 POP DUP2 DUP2 SUB PUSH1 0x0 DUP4 ADD MSTORE PUSH2 0x84A DUP2 PUSH2 0x80E JUMP JUMPDEST SWAP1 POP SWAP2 SWAP1 POP JUMP JUMPDEST PUSH32 0x4E487B7100000000000000000000000000000000000000000000000000000000 PUSH1 0x0 MSTORE PUSH1 0x11 PUSH1 0x4 MSTORE PUSH1 0x24 PUSH1 0x0 REVERT JUMPDEST PUSH1 0x0 PUSH2 0x88B DUP3 PUSH2 0x608 JUMP JUMPDEST SWAP2 POP PUSH2 0x896 DUP4 PUSH2 0x608 JUMP JUMPDEST SWAP3 POP DUP3 PUSH32 0xFFFFFFFFFFFFFFFFFFFFFFFFFFFFFFFFFFFFFFFFFFFFFFFFFFFFFFFFFFFFFFFF SUB DUP3 GT ISZERO PUSH2 0x8CB JUMPI PUSH2 0x8CA PUSH2 0x851 JUMP JUMPDEST JUMPDEST DUP3 DUP3 ADD SWAP1 POP SWAP3 SWAP2 POP POP JUMP JUMPDEST PUSH1 0x0 PUSH1 0x40 DUP3 ADD SWAP1 POP PUSH2 0x8EB PUSH1 0x0 DUP4 ADD DUP6 PUSH2 0x6E0 JUMP JUMPDEST PUSH2 0x8F8 PUSH1 0x20 DUP4 ADD DUP5 PUSH2 0x612 JUMP JUMPDEST SWAP4 SWAP3 POP POP POP JUMP JUMPDEST PUSH32 0x5468652061756374696F6E20686173206E6F7420656E64656420796574000000 PUSH1 0x0 DUP3 ADD MSTORE POP JUMP JUMPDEST PUSH1 0x0 PUSH2 0x935 PUSH1 0x1D DUP4 PUSH2 0x768 JUMP JUMPDEST SWAP2 POP PUSH2 0x940 DUP3 PUSH2 0x8FF JUMP JUMPDEST PUSH1 0x20 DUP3 ADD SWAP1 POP SWAP2 SWAP1 POP JUMP JUMPDEST PUSH1 0x0 PUSH1 0x20 DUP3 ADD SWAP1 POP DUP2 DUP2 SUB PUSH1 0x0 DUP4 ADD MSTORE PUSH2 0x964 DUP2 PUSH2 0x928 JUMP JUMPDEST SWAP1 POP SWAP2 SWAP1 POP JUMP INVALID LOG2 PUSH5 0x6970667358 0x22 SLT KECCAK256 0xE9 0xAD SSTORE LOG0 SWAP1 0xE4 0x5C 0x5E 0xDE 0xC PUSH11 0xBE14507A166CF72D916B60 0xBC 0x1E PUSH27 0xC27FCA81BCBAC364736F6C634300080D0033000000000000000000 "
				},
				"gasEstimates": {
					"creation": {
						"codeDepositCost": "493000",
						"executionCost": "infinite",
						"totalCost": "infinite"
					},
					"external": {
						"beneficiary()": "2514",
						"bid()": "infinite",
						"endAuction()": "infinite",
						"endTime()": "2496",
						"ended()": "2544",
						"highestPrice()": "2430",
						"highester()": "2536",
						"priceBack()": "infinite",
						"returnDict(address)": "2858"
					}
				},
				"methodIdentifiers": {
					"beneficiary()": "38af3eed",
					"bid()": "1998aeef",
					"endAuction()": "fe67a54b",
					"endTime()": "3197cbb6",
					"ended()": "12fa6feb",
					"highestPrice()": "0e8670e0",
					"highester()": "c0680113",
					"priceBack()": "e10aa9d1",
					"returnDict(address)": "d3ee63cb"
				}
			},
			"userdoc": {
				"kind": "user",
				"methods": {},
				"version": 1
			}
		}
	}
}