{
	"contracts/Auction.sol": {
		"SimpleAuction": {
			"abi": [
				{
					"inputs": [
						{
							"internalType": "uint256",
							"name": "_biddingTime",
							"type": "uint256"
						},
						{
							"internalType": "address payable",
							"name": "_beneficiary",
							"type": "address"
						}
					],
					"stateMutability": "nonpayable",
					"type": "constructor"
				},
				{
					"anonymous": false,
					"inputs": [
						{
							"indexed": false,
							"internalType": "address",
							"name": "winner",
							"type": "address"
						},
						{
							"indexed": false,
							"internalType": "uint256",
							"name": "amount",
							"type": "uint256"
						}
					],
					"name": "AuctionEnded",
					"type": "event"
				},
				{
					"anonymous": false,
					"inputs": [
						{
							"indexed": false,
							"internalType": "address",
							"name": "bidder",
							"type": "address"
						},
						{
							"indexed": false,
							"internalType": "uint256",
							"name": "amount",
							"type": "uint256"
						}
					],
					"name": "HighestBidIncreased",
					"type": "event"
				},
				{
					"inputs": [],
					"name": "auctionEnd",
					"outputs": [
						{
							"internalType": "uint256",
							"name": "",
							"type": "uint256"
						}
					],
					"stateMutability": "view",
					"type": "function"
				},
				{
					"inputs": [],
					"name": "beneficiary",
					"outputs": [
						{
							"internalType": "address payable",
							"name": "",
							"type": "address"
						}
					],
					"stateMutability": "view",
					"type": "function"
				},
				{
					"inputs": [],
					"name": "bid",
					"outputs": [],
					"stateMutability": "payable",
					"type": "function"
				},
				{
					"inputs": [],
					"name": "highestBid",
					"outputs": [
						{
							"internalType": "uint256",
							"name": "",
							"type": "uint256"
						}
					],
					"stateMutability": "view",
					"type": "function"
				},
				{
					"inputs": [],
					"name": "highestBidder",
					"outputs": [
						{
							"internalType": "address",
							"name": "",
							"type": "address"
						}
					],
					"stateMutability": "view",
					"type": "function"
				}
			],
			"devdoc": {
				"kind": "dev",
				"methods": {},
				"version": 1
			},
			"evm": {
				"assembly": "    /* \"contracts/Auction.sol\":70:1478  contract SimpleAuction{... */\n  mstore(0x40, 0x80)\n    /* \"contracts/Auction.sol\":594:787  constructor(uint _biddingTime, address payable _beneficiary){... */\n  callvalue\n  dup1\n  iszero\n  tag_1\n  jumpi\n  0x00\n  dup1\n  revert\ntag_1:\n  pop\n  mload(0x40)\n  sub(codesize, bytecodeSize)\n  dup1\n  bytecodeSize\n  dup4\n  codecopy\n  dup2\n  dup2\n  add\n  0x40\n  mstore\n  dup2\n  add\n  swap1\n  tag_2\n  swap2\n  swap1\n  tag_3\n  jump\t// in\ntag_2:\n    /* \"contracts/Auction.sol\":678:690  _beneficiary */\n  dup1\n    /* \"contracts/Auction.sol\":664:675  beneficiary */\n  0x00\n  dup1\n    /* \"contracts/Auction.sol\":664:690  beneficiary = _beneficiary */\n  0x0100\n  exp\n  dup2\n  sload\n  dup2\n  0xffffffffffffffffffffffffffffffffffffffff\n  mul\n  not\n  and\n  swap1\n  dup4\n  0xffffffffffffffffffffffffffffffffffffffff\n  and\n  mul\n  or\n  swap1\n  sstore\n  pop\n    /* \"contracts/Auction.sol\":745:757  _biddingTime */\n  dup2\n    /* \"contracts/Auction.sol\":727:742  block.timestamp */\n  timestamp\n    /* \"contracts/Auction.sol\":727:757  block.timestamp + _biddingTime */\n  tag_6\n  swap2\n  swap1\n  tag_7\n  jump\t// in\ntag_6:\n    /* \"contracts/Auction.sol\":714:724  auctionEnd */\n  0x01\n    /* \"contracts/Auction.sol\":714:757  auctionEnd = block.timestamp + _biddingTime */\n  dup2\n  swap1\n  sstore\n  pop\n    /* \"contracts/Auction.sol\":594:787  constructor(uint _biddingTime, address payable _beneficiary){... */\n  pop\n  pop\n    /* \"contracts/Auction.sol\":70:1478  contract SimpleAuction{... */\n  jump(tag_8)\n    /* \"#utility.yul\":88:205   */\ntag_10:\n    /* \"#utility.yul\":197:198   */\n  0x00\n    /* \"#utility.yul\":194:195   */\n  dup1\n    /* \"#utility.yul\":187:199   */\n  revert\n    /* \"#utility.yul\":334:411   */\ntag_12:\n    /* \"#utility.yul\":371:378   */\n  0x00\n    /* \"#utility.yul\":400:405   */\n  dup2\n    /* \"#utility.yul\":389:405   */\n  swap1\n  pop\n    /* \"#utility.yul\":334:411   */\n  swap2\n  swap1\n  pop\n  jump\t// out\n    /* \"#utility.yul\":417:539   */\ntag_13:\n    /* \"#utility.yul\":490:514   */\n  tag_26\n    /* \"#utility.yul\":508:513   */\n  dup2\n    /* \"#utility.yul\":490:514   */\n  tag_12\n  jump\t// in\ntag_26:\n    /* \"#utility.yul\":483:488   */\n  dup2\n    /* \"#utility.yul\":480:515   */\n  eq\n    /* \"#utility.yul\":470:533   */\n  tag_27\n  jumpi\n    /* \"#utility.yul\":529:530   */\n  0x00\n    /* \"#utility.yul\":526:527   */\n  dup1\n    /* \"#utility.yul\":519:531   */\n  revert\n    /* \"#utility.yul\":470:533   */\ntag_27:\n    /* \"#utility.yul\":417:539   */\n  pop\n  jump\t// out\n    /* \"#utility.yul\":545:688   */\ntag_14:\n    /* \"#utility.yul\":602:607   */\n  0x00\n    /* \"#utility.yul\":633:639   */\n  dup2\n    /* \"#utility.yul\":627:640   */\n  mload\n    /* \"#utility.yul\":618:640   */\n  swap1\n  pop\n    /* \"#utility.yul\":649:682   */\n  tag_29\n    /* \"#utility.yul\":676:681   */\n  dup2\n    /* \"#utility.yul\":649:682   */\n  tag_13\n  jump\t// in\ntag_29:\n    /* \"#utility.yul\":545:688   */\n  swap3\n  swap2\n  pop\n  pop\n  jump\t// out\n    /* \"#utility.yul\":694:820   */\ntag_15:\n    /* \"#utility.yul\":731:738   */\n  0x00\n    /* \"#utility.yul\":771:813   */\n  0xffffffffffffffffffffffffffffffffffffffff\n    /* \"#utility.yul\":764:769   */\n  dup3\n    /* \"#utility.yul\":760:814   */\n  and\n    /* \"#utility.yul\":749:814   */\n  swap1\n  pop\n    /* \"#utility.yul\":694:820   */\n  swap2\n  swap1\n  pop\n  jump\t// out\n    /* \"#utility.yul\":826:930   */\ntag_16:\n    /* \"#utility.yul\":871:878   */\n  0x00\n    /* \"#utility.yul\":900:924   */\n  tag_32\n    /* \"#utility.yul\":918:923   */\n  dup3\n    /* \"#utility.yul\":900:924   */\n  tag_15\n  jump\t// in\ntag_32:\n    /* \"#utility.yul\":889:924   */\n  swap1\n  pop\n    /* \"#utility.yul\":826:930   */\n  swap2\n  swap1\n  pop\n  jump\t// out\n    /* \"#utility.yul\":936:1074   */\ntag_17:\n    /* \"#utility.yul\":1017:1049   */\n  tag_34\n    /* \"#utility.yul\":1043:1048   */\n  dup2\n    /* \"#utility.yul\":1017:1049   */\n  tag_16\n  jump\t// in\ntag_34:\n    /* \"#utility.yul\":1010:1015   */\n  dup2\n    /* \"#utility.yul\":1007:1050   */\n  eq\n    /* \"#utility.yul\":997:1068   */\n  tag_35\n  jumpi\n    /* \"#utility.yul\":1064:1065   */\n  0x00\n    /* \"#utility.yul\":1061:1062   */\n  dup1\n    /* \"#utility.yul\":1054:1066   */\n  revert\n    /* \"#utility.yul\":997:1068   */\ntag_35:\n    /* \"#utility.yul\":936:1074   */\n  pop\n  jump\t// out\n    /* \"#utility.yul\":1080:1239   */\ntag_18:\n    /* \"#utility.yul\":1145:1150   */\n  0x00\n    /* \"#utility.yul\":1176:1182   */\n  dup2\n    /* \"#utility.yul\":1170:1183   */\n  mload\n    /* \"#utility.yul\":1161:1183   */\n  swap1\n  pop\n    /* \"#utility.yul\":1192:1233   */\n  tag_37\n    /* \"#utility.yul\":1227:1232   */\n  dup2\n    /* \"#utility.yul\":1192:1233   */\n  tag_17\n  jump\t// in\ntag_37:\n    /* \"#utility.yul\":1080:1239   */\n  swap3\n  swap2\n  pop\n  pop\n  jump\t// out\n    /* \"#utility.yul\":1245:1768   */\ntag_3:\n    /* \"#utility.yul\":1332:1338   */\n  0x00\n    /* \"#utility.yul\":1340:1346   */\n  dup1\n    /* \"#utility.yul\":1389:1391   */\n  0x40\n    /* \"#utility.yul\":1377:1386   */\n  dup4\n    /* \"#utility.yul\":1368:1375   */\n  dup6\n    /* \"#utility.yul\":1364:1387   */\n  sub\n    /* \"#utility.yul\":1360:1392   */\n  slt\n    /* \"#utility.yul\":1357:1476   */\n  iszero\n  tag_39\n  jumpi\n    /* \"#utility.yul\":1395:1474   */\n  tag_40\n  tag_10\n  jump\t// in\ntag_40:\n    /* \"#utility.yul\":1357:1476   */\ntag_39:\n    /* \"#utility.yul\":1515:1516   */\n  0x00\n    /* \"#utility.yul\":1540:1604   */\n  tag_41\n    /* \"#utility.yul\":1596:1603   */\n  dup6\n    /* \"#utility.yul\":1587:1593   */\n  dup3\n    /* \"#utility.yul\":1576:1585   */\n  dup7\n    /* \"#utility.yul\":1572:1594   */\n  add\n    /* \"#utility.yul\":1540:1604   */\n  tag_14\n  jump\t// in\ntag_41:\n    /* \"#utility.yul\":1530:1604   */\n  swap3\n  pop\n    /* \"#utility.yul\":1486:1614   */\n  pop\n    /* \"#utility.yul\":1653:1655   */\n  0x20\n    /* \"#utility.yul\":1679:1751   */\n  tag_42\n    /* \"#utility.yul\":1743:1750   */\n  dup6\n    /* \"#utility.yul\":1734:1740   */\n  dup3\n    /* \"#utility.yul\":1723:1732   */\n  dup7\n    /* \"#utility.yul\":1719:1741   */\n  add\n    /* \"#utility.yul\":1679:1751   */\n  tag_18\n  jump\t// in\ntag_42:\n    /* \"#utility.yul\":1669:1751   */\n  swap2\n  pop\n    /* \"#utility.yul\":1624:1761   */\n  pop\n    /* \"#utility.yul\":1245:1768   */\n  swap3\n  pop\n  swap3\n  swap1\n  pop\n  jump\t// out\n    /* \"#utility.yul\":1774:1954   */\ntag_19:\n    /* \"#utility.yul\":1822:1899   */\n  0x4e487b7100000000000000000000000000000000000000000000000000000000\n    /* \"#utility.yul\":1819:1820   */\n  0x00\n    /* \"#utility.yul\":1812:1900   */\n  mstore\n    /* \"#utility.yul\":1919:1923   */\n  0x11\n    /* \"#utility.yul\":1916:1917   */\n  0x04\n    /* \"#utility.yul\":1909:1924   */\n  mstore\n    /* \"#utility.yul\":1943:1947   */\n  0x24\n    /* \"#utility.yul\":1940:1941   */\n  0x00\n    /* \"#utility.yul\":1933:1948   */\n  revert\n    /* \"#utility.yul\":1960:2265   */\ntag_7:\n    /* \"#utility.yul\":2000:2003   */\n  0x00\n    /* \"#utility.yul\":2019:2039   */\n  tag_45\n    /* \"#utility.yul\":2037:2038   */\n  dup3\n    /* \"#utility.yul\":2019:2039   */\n  tag_12\n  jump\t// in\ntag_45:\n    /* \"#utility.yul\":2014:2039   */\n  swap2\n  pop\n    /* \"#utility.yul\":2053:2073   */\n  tag_46\n    /* \"#utility.yul\":2071:2072   */\n  dup4\n    /* \"#utility.yul\":2053:2073   */\n  tag_12\n  jump\t// in\ntag_46:\n    /* \"#utility.yul\":2048:2073   */\n  swap3\n  pop\n    /* \"#utility.yul\":2207:2208   */\n  dup3\n    /* \"#utility.yul\":2139:2205   */\n  0xffffffffffffffffffffffffffffffffffffffffffffffffffffffffffffffff\n    /* \"#utility.yul\":2135:2209   */\n  sub\n    /* \"#utility.yul\":2132:2133   */\n  dup3\n    /* \"#utility.yul\":2129:2210   */\n  gt\n    /* \"#utility.yul\":2126:2233   */\n  iszero\n  tag_47\n  jumpi\n    /* \"#utility.yul\":2213:2231   */\n  tag_48\n  tag_19\n  jump\t// in\ntag_48:\n    /* \"#utility.yul\":2126:2233   */\ntag_47:\n    /* \"#utility.yul\":2257:2258   */\n  dup3\n    /* \"#utility.yul\":2254:2255   */\n  dup3\n    /* \"#utility.yul\":2250:2259   */\n  add\n    /* \"#utility.yul\":2243:2259   */\n  swap1\n  pop\n    /* \"#utility.yul\":1960:2265   */\n  swap3\n  swap2\n  pop\n  pop\n  jump\t// out\n    /* \"contracts/Auction.sol\":70:1478  contract SimpleAuction{... */\ntag_8:\n  dataSize(sub_0)\n  dup1\n  dataOffset(sub_0)\n  0x00\n  codecopy\n  0x00\n  return\nstop\n\nsub_0: assembly {\n        /* \"contracts/Auction.sol\":70:1478  contract SimpleAuction{... */\n      mstore(0x40, 0x80)\n      jumpi(tag_1, lt(calldatasize, 0x04))\n      shr(0xe0, calldataload(0x00))\n      dup1\n      0x1998aeef\n      eq\n      tag_2\n      jumpi\n      dup1\n      0x2a24f46c\n      eq\n      tag_3\n      jumpi\n      dup1\n      0x38af3eed\n      eq\n      tag_4\n      jumpi\n      dup1\n      0x91f90157\n      eq\n      tag_5\n      jumpi\n      dup1\n      0xd57bde79\n      eq\n      tag_6\n      jumpi\n    tag_1:\n      0x00\n      dup1\n      revert\n        /* \"contracts/Auction.sol\":813:1473  function bid() public payable {... */\n    tag_2:\n      tag_7\n      tag_8\n      jump\t// in\n    tag_7:\n      stop\n        /* \"contracts/Auction.sol\":152:174  uint public auctionEnd */\n    tag_3:\n      callvalue\n      dup1\n      iszero\n      tag_9\n      jumpi\n      0x00\n      dup1\n      revert\n    tag_9:\n      pop\n      tag_10\n      tag_11\n      jump\t// in\n    tag_10:\n      mload(0x40)\n      tag_12\n      swap2\n      swap1\n      tag_13\n      jump\t// in\n    tag_12:\n      mload(0x40)\n      dup1\n      swap2\n      sub\n      swap1\n      return\n        /* \"contracts/Auction.sol\":98:132  address payable public beneficiary */\n    tag_4:\n      callvalue\n      dup1\n      iszero\n      tag_14\n      jumpi\n      0x00\n      dup1\n      revert\n    tag_14:\n      pop\n      tag_15\n      tag_16\n      jump\t// in\n    tag_15:\n      mload(0x40)\n      tag_17\n      swap2\n      swap1\n      tag_18\n      jump\t// in\n    tag_17:\n      mload(0x40)\n      dup1\n      swap2\n      sub\n      swap1\n      return\n        /* \"contracts/Auction.sol\":197:225  address public highestBidder */\n    tag_5:\n      callvalue\n      dup1\n      iszero\n      tag_19\n      jumpi\n      0x00\n      dup1\n      revert\n    tag_19:\n      pop\n      tag_20\n      tag_21\n      jump\t// in\n    tag_20:\n      mload(0x40)\n      tag_22\n      swap2\n      swap1\n      tag_23\n      jump\t// in\n    tag_22:\n      mload(0x40)\n      dup1\n      swap2\n      sub\n      swap1\n      return\n        /* \"contracts/Auction.sol\":250:272  uint public highestBid */\n    tag_6:\n      callvalue\n      dup1\n      iszero\n      tag_24\n      jumpi\n      0x00\n      dup1\n      revert\n    tag_24:\n      pop\n      tag_25\n      tag_26\n      jump\t// in\n    tag_25:\n      mload(0x40)\n      tag_27\n      swap2\n      swap1\n      tag_13\n      jump\t// in\n    tag_27:\n      mload(0x40)\n      dup1\n      swap2\n      sub\n      swap1\n      return\n        /* \"contracts/Auction.sol\":813:1473  function bid() public payable {... */\n    tag_8:\n        /* \"contracts/Auction.sol\":934:944  auctionEnd */\n      sload(0x01)\n        /* \"contracts/Auction.sol\":915:930  block.timestamp */\n      timestamp\n        /* \"contracts/Auction.sol\":915:944  block.timestamp <= auctionEnd */\n      gt\n      iszero\n        /* \"contracts/Auction.sol\":907:971  require(block.timestamp <= auctionEnd, \"Auction already ended.\") */\n      tag_29\n      jumpi\n      mload(0x40)\n      0x08c379a000000000000000000000000000000000000000000000000000000000\n      dup2\n      mstore\n      0x04\n      add\n      tag_30\n      swap1\n      tag_31\n      jump\t// in\n    tag_30:\n      mload(0x40)\n      dup1\n      swap2\n      sub\n      swap1\n      revert\n    tag_29:\n        /* \"contracts/Auction.sol\":1053:1063  highestBid */\n      sload(0x03)\n        /* \"contracts/Auction.sol\":1041:1050  msg.value */\n      callvalue\n        /* \"contracts/Auction.sol\":1041:1063  msg.value > highestBid */\n      gt\n        /* \"contracts/Auction.sol\":1033:1098  require(msg.value > highestBid, \"There already is a higher bid.\") */\n      tag_32\n      jumpi\n      mload(0x40)\n      0x08c379a000000000000000000000000000000000000000000000000000000000\n      dup2\n      mstore\n      0x04\n      add\n      tag_33\n      swap1\n      tag_34\n      jump\t// in\n    tag_33:\n      mload(0x40)\n      dup1\n      swap2\n      sub\n      swap1\n      revert\n    tag_32:\n        /* \"contracts/Auction.sol\":1173:1174  0 */\n      0x00\n        /* \"contracts/Auction.sol\":1160:1170  highestBid */\n      sload(0x03)\n        /* \"contracts/Auction.sol\":1160:1174  highestBid !=0 */\n      eq\n        /* \"contracts/Auction.sol\":1156:1299  if (highestBid !=0) {... */\n      tag_35\n      jumpi\n        /* \"contracts/Auction.sol\":1278:1288  highestBid */\n      sload(0x03)\n        /* \"contracts/Auction.sol\":1245:1259  pendingReturns */\n      0x04\n        /* \"contracts/Auction.sol\":1245:1274  pendingReturns[highestBidder] */\n      0x00\n        /* \"contracts/Auction.sol\":1260:1273  highestBidder */\n      0x02\n      0x00\n      swap1\n      sload\n      swap1\n      0x0100\n      exp\n      swap1\n      div\n      0xffffffffffffffffffffffffffffffffffffffff\n      and\n        /* \"contracts/Auction.sol\":1245:1274  pendingReturns[highestBidder] */\n      0xffffffffffffffffffffffffffffffffffffffff\n      and\n      0xffffffffffffffffffffffffffffffffffffffff\n      and\n      dup2\n      mstore\n      0x20\n      add\n      swap1\n      dup2\n      mstore\n      0x20\n      add\n      0x00\n      keccak256\n      0x00\n        /* \"contracts/Auction.sol\":1245:1288  pendingReturns[highestBidder] += highestBid */\n      dup3\n      dup3\n      sload\n      tag_36\n      swap2\n      swap1\n      tag_37\n      jump\t// in\n    tag_36:\n      swap3\n      pop\n      pop\n      dup2\n      swap1\n      sstore\n      pop\n        /* \"contracts/Auction.sol\":1156:1299  if (highestBid !=0) {... */\n    tag_35:\n        /* \"contracts/Auction.sol\":1325:1335  msg.sender */\n      caller\n        /* \"contracts/Auction.sol\":1309:1322  highestBidder */\n      0x02\n      0x00\n        /* \"contracts/Auction.sol\":1309:1335  highestBidder = msg.sender */\n      0x0100\n      exp\n      dup2\n      sload\n      dup2\n      0xffffffffffffffffffffffffffffffffffffffff\n      mul\n      not\n      and\n      swap1\n      dup4\n      0xffffffffffffffffffffffffffffffffffffffff\n      and\n      mul\n      or\n      swap1\n      sstore\n      pop\n        /* \"contracts/Auction.sol\":1380:1389  msg.value */\n      callvalue\n        /* \"contracts/Auction.sol\":1367:1377  highestBid */\n      0x03\n        /* \"contracts/Auction.sol\":1367:1389  highestBid = msg.value */\n      dup2\n      swap1\n      sstore\n      pop\n        /* \"contracts/Auction.sol\":1423:1465  HighestBidIncreased(msg.sender, msg.value) */\n      0xf4757a49b326036464bec6fe419a4ae38c8a02ce3e68bf0809674f6aab8ad300\n        /* \"contracts/Auction.sol\":1443:1453  msg.sender */\n      caller\n        /* \"contracts/Auction.sol\":1455:1464  msg.value */\n      callvalue\n        /* \"contracts/Auction.sol\":1423:1465  HighestBidIncreased(msg.sender, msg.value) */\n      mload(0x40)\n      tag_38\n      swap3\n      swap2\n      swap1\n      tag_39\n      jump\t// in\n    tag_38:\n      mload(0x40)\n      dup1\n      swap2\n      sub\n      swap1\n      log1\n        /* \"contracts/Auction.sol\":813:1473  function bid() public payable {... */\n      jump\t// out\n        /* \"contracts/Auction.sol\":152:174  uint public auctionEnd */\n    tag_11:\n      sload(0x01)\n      dup2\n      jump\t// out\n        /* \"contracts/Auction.sol\":98:132  address payable public beneficiary */\n    tag_16:\n      0x00\n      dup1\n      sload\n      swap1\n      0x0100\n      exp\n      swap1\n      div\n      0xffffffffffffffffffffffffffffffffffffffff\n      and\n      dup2\n      jump\t// out\n        /* \"contracts/Auction.sol\":197:225  address public highestBidder */\n    tag_21:\n      0x02\n      0x00\n      swap1\n      sload\n      swap1\n      0x0100\n      exp\n      swap1\n      div\n      0xffffffffffffffffffffffffffffffffffffffff\n      and\n      dup2\n      jump\t// out\n        /* \"contracts/Auction.sol\":250:272  uint public highestBid */\n    tag_26:\n      sload(0x03)\n      dup2\n      jump\t// out\n        /* \"#utility.yul\":7:84   */\n    tag_40:\n        /* \"#utility.yul\":44:51   */\n      0x00\n        /* \"#utility.yul\":73:78   */\n      dup2\n        /* \"#utility.yul\":62:78   */\n      swap1\n      pop\n        /* \"#utility.yul\":7:84   */\n      swap2\n      swap1\n      pop\n      jump\t// out\n        /* \"#utility.yul\":90:208   */\n    tag_41:\n        /* \"#utility.yul\":177:201   */\n      tag_56\n        /* \"#utility.yul\":195:200   */\n      dup2\n        /* \"#utility.yul\":177:201   */\n      tag_40\n      jump\t// in\n    tag_56:\n        /* \"#utility.yul\":172:175   */\n      dup3\n        /* \"#utility.yul\":165:202   */\n      mstore\n        /* \"#utility.yul\":90:208   */\n      pop\n      pop\n      jump\t// out\n        /* \"#utility.yul\":214:436   */\n    tag_13:\n        /* \"#utility.yul\":307:311   */\n      0x00\n        /* \"#utility.yul\":345:347   */\n      0x20\n        /* \"#utility.yul\":334:343   */\n      dup3\n        /* \"#utility.yul\":330:348   */\n      add\n        /* \"#utility.yul\":322:348   */\n      swap1\n      pop\n        /* \"#utility.yul\":358:429   */\n      tag_58\n        /* \"#utility.yul\":426:427   */\n      0x00\n        /* \"#utility.yul\":415:424   */\n      dup4\n        /* \"#utility.yul\":411:428   */\n      add\n        /* \"#utility.yul\":402:408   */\n      dup5\n        /* \"#utility.yul\":358:429   */\n      tag_41\n      jump\t// in\n    tag_58:\n        /* \"#utility.yul\":214:436   */\n      swap3\n      swap2\n      pop\n      pop\n      jump\t// out\n        /* \"#utility.yul\":442:568   */\n    tag_42:\n        /* \"#utility.yul\":479:486   */\n      0x00\n        /* \"#utility.yul\":519:561   */\n      0xffffffffffffffffffffffffffffffffffffffff\n        /* \"#utility.yul\":512:517   */\n      dup3\n        /* \"#utility.yul\":508:562   */\n      and\n        /* \"#utility.yul\":497:562   */\n      swap1\n      pop\n        /* \"#utility.yul\":442:568   */\n      swap2\n      swap1\n      pop\n      jump\t// out\n        /* \"#utility.yul\":574:678   */\n    tag_43:\n        /* \"#utility.yul\":619:626   */\n      0x00\n        /* \"#utility.yul\":648:672   */\n      tag_61\n        /* \"#utility.yul\":666:671   */\n      dup3\n        /* \"#utility.yul\":648:672   */\n      tag_42\n      jump\t// in\n    tag_61:\n        /* \"#utility.yul\":637:672   */\n      swap1\n      pop\n        /* \"#utility.yul\":574:678   */\n      swap2\n      swap1\n      pop\n      jump\t// out\n        /* \"#utility.yul\":684:826   */\n    tag_44:\n        /* \"#utility.yul\":787:819   */\n      tag_63\n        /* \"#utility.yul\":813:818   */\n      dup2\n        /* \"#utility.yul\":787:819   */\n      tag_43\n      jump\t// in\n    tag_63:\n        /* \"#utility.yul\":782:785   */\n      dup3\n        /* \"#utility.yul\":775:820   */\n      mstore\n        /* \"#utility.yul\":684:826   */\n      pop\n      pop\n      jump\t// out\n        /* \"#utility.yul\":832:1086   */\n    tag_18:\n        /* \"#utility.yul\":941:945   */\n      0x00\n        /* \"#utility.yul\":979:981   */\n      0x20\n        /* \"#utility.yul\":968:977   */\n      dup3\n        /* \"#utility.yul\":964:982   */\n      add\n        /* \"#utility.yul\":956:982   */\n      swap1\n      pop\n        /* \"#utility.yul\":992:1079   */\n      tag_65\n        /* \"#utility.yul\":1076:1077   */\n      0x00\n        /* \"#utility.yul\":1065:1074   */\n      dup4\n        /* \"#utility.yul\":1061:1078   */\n      add\n        /* \"#utility.yul\":1052:1058   */\n      dup5\n        /* \"#utility.yul\":992:1079   */\n      tag_44\n      jump\t// in\n    tag_65:\n        /* \"#utility.yul\":832:1086   */\n      swap3\n      swap2\n      pop\n      pop\n      jump\t// out\n        /* \"#utility.yul\":1092:1188   */\n    tag_45:\n        /* \"#utility.yul\":1129:1136   */\n      0x00\n        /* \"#utility.yul\":1158:1182   */\n      tag_67\n        /* \"#utility.yul\":1176:1181   */\n      dup3\n        /* \"#utility.yul\":1158:1182   */\n      tag_42\n      jump\t// in\n    tag_67:\n        /* \"#utility.yul\":1147:1182   */\n      swap1\n      pop\n        /* \"#utility.yul\":1092:1188   */\n      swap2\n      swap1\n      pop\n      jump\t// out\n        /* \"#utility.yul\":1194:1312   */\n    tag_46:\n        /* \"#utility.yul\":1281:1305   */\n      tag_69\n        /* \"#utility.yul\":1299:1304   */\n      dup2\n        /* \"#utility.yul\":1281:1305   */\n      tag_45\n      jump\t// in\n    tag_69:\n        /* \"#utility.yul\":1276:1279   */\n      dup3\n        /* \"#utility.yul\":1269:1306   */\n      mstore\n        /* \"#utility.yul\":1194:1312   */\n      pop\n      pop\n      jump\t// out\n        /* \"#utility.yul\":1318:1540   */\n    tag_23:\n        /* \"#utility.yul\":1411:1415   */\n      0x00\n        /* \"#utility.yul\":1449:1451   */\n      0x20\n        /* \"#utility.yul\":1438:1447   */\n      dup3\n        /* \"#utility.yul\":1434:1452   */\n      add\n        /* \"#utility.yul\":1426:1452   */\n      swap1\n      pop\n        /* \"#utility.yul\":1462:1533   */\n      tag_71\n        /* \"#utility.yul\":1530:1531   */\n      0x00\n        /* \"#utility.yul\":1519:1528   */\n      dup4\n        /* \"#utility.yul\":1515:1532   */\n      add\n        /* \"#utility.yul\":1506:1512   */\n      dup5\n        /* \"#utility.yul\":1462:1533   */\n      tag_46\n      jump\t// in\n    tag_71:\n        /* \"#utility.yul\":1318:1540   */\n      swap3\n      swap2\n      pop\n      pop\n      jump\t// out\n        /* \"#utility.yul\":1546:1715   */\n    tag_47:\n        /* \"#utility.yul\":1630:1641   */\n      0x00\n        /* \"#utility.yul\":1664:1670   */\n      dup3\n        /* \"#utility.yul\":1659:1662   */\n      dup3\n        /* \"#utility.yul\":1652:1671   */\n      mstore\n        /* \"#utility.yul\":1704:1708   */\n      0x20\n        /* \"#utility.yul\":1699:1702   */\n      dup3\n        /* \"#utility.yul\":1695:1709   */\n      add\n        /* \"#utility.yul\":1680:1709   */\n      swap1\n      pop\n        /* \"#utility.yul\":1546:1715   */\n      swap3\n      swap2\n      pop\n      pop\n      jump\t// out\n        /* \"#utility.yul\":1721:1893   */\n    tag_48:\n        /* \"#utility.yul\":1861:1885   */\n      0x41756374696f6e20616c726561647920656e6465642e00000000000000000000\n        /* \"#utility.yul\":1857:1858   */\n      0x00\n        /* \"#utility.yul\":1849:1855   */\n      dup3\n        /* \"#utility.yul\":1845:1859   */\n      add\n        /* \"#utility.yul\":1838:1886   */\n      mstore\n        /* \"#utility.yul\":1721:1893   */\n      pop\n      jump\t// out\n        /* \"#utility.yul\":1899:2265   */\n    tag_49:\n        /* \"#utility.yul\":2041:2044   */\n      0x00\n        /* \"#utility.yul\":2062:2129   */\n      tag_75\n        /* \"#utility.yul\":2126:2128   */\n      0x16\n        /* \"#utility.yul\":2121:2124   */\n      dup4\n        /* \"#utility.yul\":2062:2129   */\n      tag_47\n      jump\t// in\n    tag_75:\n        /* \"#utility.yul\":2055:2129   */\n      swap2\n      pop\n        /* \"#utility.yul\":2138:2231   */\n      tag_76\n        /* \"#utility.yul\":2227:2230   */\n      dup3\n        /* \"#utility.yul\":2138:2231   */\n      tag_48\n      jump\t// in\n    tag_76:\n        /* \"#utility.yul\":2256:2258   */\n      0x20\n        /* \"#utility.yul\":2251:2254   */\n      dup3\n        /* \"#utility.yul\":2247:2259   */\n      add\n        /* \"#utility.yul\":2240:2259   */\n      swap1\n      pop\n        /* \"#utility.yul\":1899:2265   */\n      swap2\n      swap1\n      pop\n      jump\t// out\n        /* \"#utility.yul\":2271:2690   */\n    tag_31:\n        /* \"#utility.yul\":2437:2441   */\n      0x00\n        /* \"#utility.yul\":2475:2477   */\n      0x20\n        /* \"#utility.yul\":2464:2473   */\n      dup3\n        /* \"#utility.yul\":2460:2478   */\n      add\n        /* \"#utility.yul\":2452:2478   */\n      swap1\n      pop\n        /* \"#utility.yul\":2524:2533   */\n      dup2\n        /* \"#utility.yul\":2518:2522   */\n      dup2\n        /* \"#utility.yul\":2514:2534   */\n      sub\n        /* \"#utility.yul\":2510:2511   */\n      0x00\n        /* \"#utility.yul\":2499:2508   */\n      dup4\n        /* \"#utility.yul\":2495:2512   */\n      add\n        /* \"#utility.yul\":2488:2535   */\n      mstore\n        /* \"#utility.yul\":2552:2683   */\n      tag_78\n        /* \"#utility.yul\":2678:2682   */\n      dup2\n        /* \"#utility.yul\":2552:2683   */\n      tag_49\n      jump\t// in\n    tag_78:\n        /* \"#utility.yul\":2544:2683   */\n      swap1\n      pop\n        /* \"#utility.yul\":2271:2690   */\n      swap2\n      swap1\n      pop\n      jump\t// out\n        /* \"#utility.yul\":2696:2876   */\n    tag_50:\n        /* \"#utility.yul\":2836:2868   */\n      0x546865726520616c7265616479206973206120686967686572206269642e0000\n        /* \"#utility.yul\":2832:2833   */\n      0x00\n        /* \"#utility.yul\":2824:2830   */\n      dup3\n        /* \"#utility.yul\":2820:2834   */\n      add\n        /* \"#utility.yul\":2813:2869   */\n      mstore\n        /* \"#utility.yul\":2696:2876   */\n      pop\n      jump\t// out\n        /* \"#utility.yul\":2882:3248   */\n    tag_51:\n        /* \"#utility.yul\":3024:3027   */\n      0x00\n        /* \"#utility.yul\":3045:3112   */\n      tag_81\n        /* \"#utility.yul\":3109:3111   */\n      0x1e\n        /* \"#utility.yul\":3104:3107   */\n      dup4\n        /* \"#utility.yul\":3045:3112   */\n      tag_47\n      jump\t// in\n    tag_81:\n        /* \"#utility.yul\":3038:3112   */\n      swap2\n      pop\n        /* \"#utility.yul\":3121:3214   */\n      tag_82\n        /* \"#utility.yul\":3210:3213   */\n      dup3\n        /* \"#utility.yul\":3121:3214   */\n      tag_50\n      jump\t// in\n    tag_82:\n        /* \"#utility.yul\":3239:3241   */\n      0x20\n        /* \"#utility.yul\":3234:3237   */\n      dup3\n        /* \"#utility.yul\":3230:3242   */\n      add\n        /* \"#utility.yul\":3223:3242   */\n      swap1\n      pop\n        /* \"#utility.yul\":2882:3248   */\n      swap2\n      swap1\n      pop\n      jump\t// out\n        /* \"#utility.yul\":3254:3673   */\n    tag_34:\n        /* \"#utility.yul\":3420:3424   */\n      0x00\n        /* \"#utility.yul\":3458:3460   */\n      0x20\n        /* \"#utility.yul\":3447:3456   */\n      dup3\n        /* \"#utility.yul\":3443:3461   */\n      add\n        /* \"#utility.yul\":3435:3461   */\n      swap1\n      pop\n        /* \"#utility.yul\":3507:3516   */\n      dup2\n        /* \"#utility.yul\":3501:3505   */\n      dup2\n        /* \"#utility.yul\":3497:3517   */\n      sub\n        /* \"#utility.yul\":3493:3494   */\n      0x00\n        /* \"#utility.yul\":3482:3491   */\n      dup4\n        /* \"#utility.yul\":3478:3495   */\n      add\n        /* \"#utility.yul\":3471:3518   */\n      mstore\n        /* \"#utility.yul\":3535:3666   */\n      tag_84\n        /* \"#utility.yul\":3661:3665   */\n      dup2\n        /* \"#utility.yul\":3535:3666   */\n      tag_51\n      jump\t// in\n    tag_84:\n        /* \"#utility.yul\":3527:3666   */\n      swap1\n      pop\n        /* \"#utility.yul\":3254:3673   */\n      swap2\n      swap1\n      pop\n      jump\t// out\n        /* \"#utility.yul\":3679:3859   */\n    tag_52:\n        /* \"#utility.yul\":3727:3804   */\n      0x4e487b7100000000000000000000000000000000000000000000000000000000\n        /* \"#utility.yul\":3724:3725   */\n      0x00\n        /* \"#utility.yul\":3717:3805   */\n      mstore\n        /* \"#utility.yul\":3824:3828   */\n      0x11\n        /* \"#utility.yul\":3821:3822   */\n      0x04\n        /* \"#utility.yul\":3814:3829   */\n      mstore\n        /* \"#utility.yul\":3848:3852   */\n      0x24\n        /* \"#utility.yul\":3845:3846   */\n      0x00\n        /* \"#utility.yul\":3838:3853   */\n      revert\n        /* \"#utility.yul\":3865:4170   */\n    tag_37:\n        /* \"#utility.yul\":3905:3908   */\n      0x00\n        /* \"#utility.yul\":3924:3944   */\n      tag_87\n        /* \"#utility.yul\":3942:3943   */\n      dup3\n        /* \"#utility.yul\":3924:3944   */\n      tag_40\n      jump\t// in\n    tag_87:\n        /* \"#utility.yul\":3919:3944   */\n      swap2\n      pop\n        /* \"#utility.yul\":3958:3978   */\n      tag_88\n        /* \"#utility.yul\":3976:3977   */\n      dup4\n        /* \"#utility.yul\":3958:3978   */\n      tag_40\n      jump\t// in\n    tag_88:\n        /* \"#utility.yul\":3953:3978   */\n      swap3\n      pop\n        /* \"#utility.yul\":4112:4113   */\n      dup3\n        /* \"#utility.yul\":4044:4110   */\n      0xffffffffffffffffffffffffffffffffffffffffffffffffffffffffffffffff\n        /* \"#utility.yul\":4040:4114   */\n      sub\n        /* \"#utility.yul\":4037:4038   */\n      dup3\n        /* \"#utility.yul\":4034:4115   */\n      gt\n        /* \"#utility.yul\":4031:4138   */\n      iszero\n      tag_89\n      jumpi\n        /* \"#utility.yul\":4118:4136   */\n      tag_90\n      tag_52\n      jump\t// in\n    tag_90:\n        /* \"#utility.yul\":4031:4138   */\n    tag_89:\n        /* \"#utility.yul\":4162:4163   */\n      dup3\n        /* \"#utility.yul\":4159:4160   */\n      dup3\n        /* \"#utility.yul\":4155:4164   */\n      add\n        /* \"#utility.yul\":4148:4164   */\n      swap1\n      pop\n        /* \"#utility.yul\":3865:4170   */\n      swap3\n      swap2\n      pop\n      pop\n      jump\t// out\n        /* \"#utility.yul\":4176:4508   */\n    tag_39:\n        /* \"#utility.yul\":4297:4301   */\n      0x00\n        /* \"#utility.yul\":4335:4337   */\n      0x40\n        /* \"#utility.yul\":4324:4333   */\n      dup3\n        /* \"#utility.yul\":4320:4338   */\n      add\n        /* \"#utility.yul\":4312:4338   */\n      swap1\n      pop\n        /* \"#utility.yul\":4348:4419   */\n      tag_92\n        /* \"#utility.yul\":4416:4417   */\n      0x00\n        /* \"#utility.yul\":4405:4414   */\n      dup4\n        /* \"#utility.yul\":4401:4418   */\n      add\n        /* \"#utility.yul\":4392:4398   */\n      dup6\n        /* \"#utility.yul\":4348:4419   */\n      tag_46\n      jump\t// in\n    tag_92:\n        /* \"#utility.yul\":4429:4501   */\n      tag_93\n        /* \"#utility.yul\":4497:4499   */\n      0x20\n        /* \"#utility.yul\":4486:4495   */\n      dup4\n        /* \"#utility.yul\":4482:4500   */\n      add\n        /* \"#utility.yul\":4473:4479   */\n      dup5\n        /* \"#utility.yul\":4429:4501   */\n      tag_41\n      jump\t// in\n    tag_93:\n        /* \"#utility.yul\":4176:4508   */\n      swap4\n      swap3\n      pop\n      pop\n      pop\n      jump\t// out\n\n    auxdata: 0xa26469706673582212209423487dc16a5de54cae183f58c20ea8da85bc5d55a325c323c5bd2b2d66e13664736f6c634300080d0033\n}\n",
				"bytecode": {
					"linkReferences": {},
					"object": "608060405234801561001057600080fd5b5060405161077d38038061077d83398181016040528101906100329190610124565b806000806101000a81548173ffffffffffffffffffffffffffffffffffffffff021916908373ffffffffffffffffffffffffffffffffffffffff160217905550814261007e9190610193565b60018190555050506101e9565b600080fd5b6000819050919050565b6100a381610090565b81146100ae57600080fd5b50565b6000815190506100c08161009a565b92915050565b600073ffffffffffffffffffffffffffffffffffffffff82169050919050565b60006100f1826100c6565b9050919050565b610101816100e6565b811461010c57600080fd5b50565b60008151905061011e816100f8565b92915050565b6000806040838503121561013b5761013a61008b565b5b6000610149858286016100b1565b925050602061015a8582860161010f565b9150509250929050565b7f4e487b7100000000000000000000000000000000000000000000000000000000600052601160045260246000fd5b600061019e82610090565b91506101a983610090565b9250827fffffffffffffffffffffffffffffffffffffffffffffffffffffffffffffffff038211156101de576101dd610164565b5b828201905092915050565b610585806101f86000396000f3fe60806040526004361061004a5760003560e01c80631998aeef1461004f5780632a24f46c1461005957806338af3eed1461008457806391f90157146100af578063d57bde79146100da575b600080fd5b610057610105565b005b34801561006557600080fd5b5061006e610296565b60405161007b9190610305565b60405180910390f35b34801561009057600080fd5b5061009961029c565b6040516100a69190610361565b60405180910390f35b3480156100bb57600080fd5b506100c46102c0565b6040516100d1919061039d565b60405180910390f35b3480156100e657600080fd5b506100ef6102e6565b6040516100fc9190610305565b60405180910390f35b60015442111561014a576040517f08c379a000000000000000000000000000000000000000000000000000000000815260040161014190610415565b60405180910390fd5b600354341161018e576040517f08c379a000000000000000000000000000000000000000000000000000000000815260040161018590610481565b60405180910390fd5b6000600354146102135760035460046000600260009054906101000a900473ffffffffffffffffffffffffffffffffffffffff1673ffffffffffffffffffffffffffffffffffffffff1673ffffffffffffffffffffffffffffffffffffffff168152602001908152602001600020600082825461020b91906104d0565b925050819055505b33600260006101000a81548173ffffffffffffffffffffffffffffffffffffffff021916908373ffffffffffffffffffffffffffffffffffffffff160217905550346003819055507ff4757a49b326036464bec6fe419a4ae38c8a02ce3e68bf0809674f6aab8ad300333460405161028c929190610526565b60405180910390a1565b60015481565b60008054906101000a900473ffffffffffffffffffffffffffffffffffffffff1681565b600260009054906101000a900473ffffffffffffffffffffffffffffffffffffffff1681565b60035481565b6000819050919050565b6102ff816102ec565b82525050565b600060208201905061031a60008301846102f6565b92915050565b600073ffffffffffffffffffffffffffffffffffffffff82169050919050565b600061034b82610320565b9050919050565b61035b81610340565b82525050565b60006020820190506103766000830184610352565b92915050565b600061038782610320565b9050919050565b6103978161037c565b82525050565b60006020820190506103b2600083018461038e565b92915050565b600082825260208201905092915050565b7f41756374696f6e20616c726561647920656e6465642e00000000000000000000600082015250565b60006103ff6016836103b8565b915061040a826103c9565b602082019050919050565b6000602082019050818103600083015261042e816103f2565b9050919050565b7f546865726520616c7265616479206973206120686967686572206269642e0000600082015250565b600061046b601e836103b8565b915061047682610435565b602082019050919050565b6000602082019050818103600083015261049a8161045e565b9050919050565b7f4e487b7100000000000000000000000000000000000000000000000000000000600052601160045260246000fd5b60006104db826102ec565b91506104e6836102ec565b9250827fffffffffffffffffffffffffffffffffffffffffffffffffffffffffffffffff0382111561051b5761051a6104a1565b5b828201905092915050565b600060408201905061053b600083018561038e565b61054860208301846102f6565b939250505056fea26469706673582212209423487dc16a5de54cae183f58c20ea8da85bc5d55a325c323c5bd2b2d66e13664736f6c634300080d0033",
					"opcodes": "PUSH1 0x80 PUSH1 0x40 MSTORE CALLVALUE DUP1 ISZERO PUSH2 0x10 JUMPI PUSH1 0x0 DUP1 REVERT JUMPDEST POP PUSH1 0x40 MLOAD PUSH2 0x77D CODESIZE SUB DUP1 PUSH2 0x77D DUP4 CODECOPY DUP2 DUP2 ADD PUSH1 0x40 MSTORE DUP2 ADD SWAP1 PUSH2 0x32 SWAP2 SWAP1 PUSH2 0x124 JUMP JUMPDEST DUP1 PUSH1 0x0 DUP1 PUSH2 0x100 EXP DUP2 SLOAD DUP2 PUSH20 0xFFFFFFFFFFFFFFFFFFFFFFFFFFFFFFFFFFFFFFFF MUL NOT AND SWAP1 DUP4 PUSH20 0xFFFFFFFFFFFFFFFFFFFFFFFFFFFFFFFFFFFFFFFF AND MUL OR SWAP1 SSTORE POP DUP2 TIMESTAMP PUSH2 0x7E SWAP2 SWAP1 PUSH2 0x193 JUMP JUMPDEST PUSH1 0x1 DUP2 SWAP1 SSTORE POP POP POP PUSH2 0x1E9 JUMP JUMPDEST PUSH1 0x0 DUP1 REVERT JUMPDEST PUSH1 0x0 DUP2 SWAP1 POP SWAP2 SWAP1 POP JUMP JUMPDEST PUSH2 0xA3 DUP2 PUSH2 0x90 JUMP JUMPDEST DUP2 EQ PUSH2 0xAE JUMPI PUSH1 0x0 DUP1 REVERT JUMPDEST POP JUMP JUMPDEST PUSH1 0x0 DUP2 MLOAD SWAP1 POP PUSH2 0xC0 DUP2 PUSH2 0x9A JUMP JUMPDEST SWAP3 SWAP2 POP POP JUMP JUMPDEST PUSH1 0x0 PUSH20 0xFFFFFFFFFFFFFFFFFFFFFFFFFFFFFFFFFFFFFFFF DUP3 AND SWAP1 POP SWAP2 SWAP1 POP JUMP JUMPDEST PUSH1 0x0 PUSH2 0xF1 DUP3 PUSH2 0xC6 JUMP JUMPDEST SWAP1 POP SWAP2 SWAP1 POP JUMP JUMPDEST PUSH2 0x101 DUP2 PUSH2 0xE6 JUMP JUMPDEST DUP2 EQ PUSH2 0x10C JUMPI PUSH1 0x0 DUP1 REVERT JUMPDEST POP JUMP JUMPDEST PUSH1 0x0 DUP2 MLOAD SWAP1 POP PUSH2 0x11E DUP2 PUSH2 0xF8 JUMP JUMPDEST SWAP3 SWAP2 POP POP JUMP JUMPDEST PUSH1 0x0 DUP1 PUSH1 0x40 DUP4 DUP6 SUB SLT ISZERO PUSH2 0x13B JUMPI PUSH2 0x13A PUSH2 0x8B JUMP JUMPDEST JUMPDEST PUSH1 0x0 PUSH2 0x149 DUP6 DUP3 DUP7 ADD PUSH2 0xB1 JUMP JUMPDEST SWAP3 POP POP PUSH1 0x20 PUSH2 0x15A DUP6 DUP3 DUP7 ADD PUSH2 0x10F JUMP JUMPDEST SWAP2 POP POP SWAP3 POP SWAP3 SWAP1 POP JUMP JUMPDEST PUSH32 0x4E487B7100000000000000000000000000000000000000000000000000000000 PUSH1 0x0 MSTORE PUSH1 0x11 PUSH1 0x4 MSTORE PUSH1 0x24 PUSH1 0x0 REVERT JUMPDEST PUSH1 0x0 PUSH2 0x19E DUP3 PUSH2 0x90 JUMP JUMPDEST SWAP2 POP PUSH2 0x1A9 DUP4 PUSH2 0x90 JUMP JUMPDEST SWAP3 POP DUP3 PUSH32 0xFFFFFFFFFFFFFFFFFFFFFFFFFFFFFFFFFFFFFFFFFFFFFFFFFFFFFFFFFFFFFFFF SUB DUP3 GT ISZERO PUSH2 0x1DE JUMPI PUSH2 0x1DD PUSH2 0x164 JUMP JUMPDEST JUMPDEST DUP3 DUP3 ADD SWAP1 POP SWAP3 SWAP2 POP POP JUMP JUMPDEST PUSH2 0x585 DUP1 PUSH2 0x1F8 PUSH1 0x0 CODECOPY PUSH1 0x0 RETURN INVALID PUSH1 0x80 PUSH1 0x40 MSTORE PUSH1 0x4 CALLDATASIZE LT PUSH2 0x4A JUMPI PUSH1 0x0 CALLDATALOAD PUSH1 0xE0 SHR DUP1 PUSH4 0x1998AEEF EQ PUSH2 0x4F JUMPI DUP1 PUSH4 0x2A24F46C EQ PUSH2 0x59 JUMPI DUP1 PUSH4 0x38AF3EED EQ PUSH2 0x84 JUMPI DUP1 PUSH4 0x91F90157 EQ PUSH2 0xAF JUMPI DUP1 PUSH4 0xD57BDE79 EQ PUSH2 0xDA JUMPI JUMPDEST PUSH1 0x0 DUP1 REVERT JUMPDEST PUSH2 0x57 PUSH2 0x105 JUMP JUMPDEST STOP JUMPDEST CALLVALUE DUP1 ISZERO PUSH2 0x65 JUMPI PUSH1 0x0 DUP1 REVERT JUMPDEST POP PUSH2 0x6E PUSH2 0x296 JUMP JUMPDEST PUSH1 0x40 MLOAD PUSH2 0x7B SWAP2 SWAP1 PUSH2 0x305 JUMP JUMPDEST PUSH1 0x40 MLOAD DUP1 SWAP2 SUB SWAP1 RETURN JUMPDEST CALLVALUE DUP1 ISZERO PUSH2 0x90 JUMPI PUSH1 0x0 DUP1 REVERT JUMPDEST POP PUSH2 0x99 PUSH2 0x29C JUMP JUMPDEST PUSH1 0x40 MLOAD PUSH2 0xA6 SWAP2 SWAP1 PUSH2 0x361 JUMP JUMPDEST PUSH1 0x40 MLOAD DUP1 SWAP2 SUB SWAP1 RETURN JUMPDEST CALLVALUE DUP1 ISZERO PUSH2 0xBB JUMPI PUSH1 0x0 DUP1 REVERT JUMPDEST POP PUSH2 0xC4 PUSH2 0x2C0 JUMP JUMPDEST PUSH1 0x40 MLOAD PUSH2 0xD1 SWAP2 SWAP1 PUSH2 0x39D JUMP JUMPDEST PUSH1 0x40 MLOAD DUP1 SWAP2 SUB SWAP1 RETURN JUMPDEST CALLVALUE DUP1 ISZERO PUSH2 0xE6 JUMPI PUSH1 0x0 DUP1 REVERT JUMPDEST POP PUSH2 0xEF PUSH2 0x2E6 JUMP JUMPDEST PUSH1 0x40 MLOAD PUSH2 0xFC SWAP2 SWAP1 PUSH2 0x305 JUMP JUMPDEST PUSH1 0x40 MLOAD DUP1 SWAP2 SUB SWAP1 RETURN JUMPDEST PUSH1 0x1 SLOAD TIMESTAMP GT ISZERO PUSH2 0x14A JUMPI PUSH1 0x40 MLOAD PUSH32 0x8C379A000000000000000000000000000000000000000000000000000000000 DUP2 MSTORE PUSH1 0x4 ADD PUSH2 0x141 SWAP1 PUSH2 0x415 JUMP JUMPDEST PUSH1 0x40 MLOAD DUP1 SWAP2 SUB SWAP1 REVERT JUMPDEST PUSH1 0x3 SLOAD CALLVALUE GT PUSH2 0x18E JUMPI PUSH1 0x40 MLOAD PUSH32 0x8C379A000000000000000000000000000000000000000000000000000000000 DUP2 MSTORE PUSH1 0x4 ADD PUSH2 0x185 SWAP1 PUSH2 0x481 JUMP JUMPDEST PUSH1 0x40 MLOAD DUP1 SWAP2 SUB SWAP1 REVERT JUMPDEST PUSH1 0x0 PUSH1 0x3 SLOAD EQ PUSH2 0x213 JUMPI PUSH1 0x3 SLOAD PUSH1 0x4 PUSH1 0x0 PUSH1 0x2 PUSH1 0x0 SWAP1 SLOAD SWAP1 PUSH2 0x100 EXP SWAP1 DIV PUSH20 0xFFFFFFFFFFFFFFFFFFFFFFFFFFFFFFFFFFFFFFFF AND PUSH20 0xFFFFFFFFFFFFFFFFFFFFFFFFFFFFFFFFFFFFFFFF AND PUSH20 0xFFFFFFFFFFFFFFFFFFFFFFFFFFFFFFFFFFFFFFFF AND DUP2 MSTORE PUSH1 0x20 ADD SWAP1 DUP2 MSTORE PUSH1 0x20 ADD PUSH1 0x0 KECCAK256 PUSH1 0x0 DUP3 DUP3 SLOAD PUSH2 0x20B SWAP2 SWAP1 PUSH2 0x4D0 JUMP JUMPDEST SWAP3 POP POP DUP2 SWAP1 SSTORE POP JUMPDEST CALLER PUSH1 0x2 PUSH1 0x0 PUSH2 0x100 EXP DUP2 SLOAD DUP2 PUSH20 0xFFFFFFFFFFFFFFFFFFFFFFFFFFFFFFFFFFFFFFFF MUL NOT AND SWAP1 DUP4 PUSH20 0xFFFFFFFFFFFFFFFFFFFFFFFFFFFFFFFFFFFFFFFF AND MUL OR SWAP1 SSTORE POP CALLVALUE PUSH1 0x3 DUP2 SWAP1 SSTORE POP PUSH32 0xF4757A49B326036464BEC6FE419A4AE38C8A02CE3E68BF0809674F6AAB8AD300 CALLER CALLVALUE PUSH1 0x40 MLOAD PUSH2 0x28C SWAP3 SWAP2 SWAP1 PUSH2 0x526 JUMP JUMPDEST PUSH1 0x40 MLOAD DUP1 SWAP2 SUB SWAP1 LOG1 JUMP JUMPDEST PUSH1 0x1 SLOAD DUP2 JUMP JUMPDEST PUSH1 0x0 DUP1 SLOAD SWAP1 PUSH2 0x100 EXP SWAP1 DIV PUSH20 0xFFFFFFFFFFFFFFFFFFFFFFFFFFFFFFFFFFFFFFFF AND DUP2 JUMP JUMPDEST PUSH1 0x2 PUSH1 0x0 SWAP1 SLOAD SWAP1 PUSH2 0x100 EXP SWAP1 DIV PUSH20 0xFFFFFFFFFFFFFFFFFFFFFFFFFFFFFFFFFFFFFFFF AND DUP2 JUMP JUMPDEST PUSH1 0x3 SLOAD DUP2 JUMP JUMPDEST PUSH1 0x0 DUP2 SWAP1 POP SWAP2 SWAP1 POP JUMP JUMPDEST PUSH2 0x2FF DUP2 PUSH2 0x2EC JUMP JUMPDEST DUP3 MSTORE POP POP JUMP JUMPDEST PUSH1 0x0 PUSH1 0x20 DUP3 ADD SWAP1 POP PUSH2 0x31A PUSH1 0x0 DUP4 ADD DUP5 PUSH2 0x2F6 JUMP JUMPDEST SWAP3 SWAP2 POP POP JUMP JUMPDEST PUSH1 0x0 PUSH20 0xFFFFFFFFFFFFFFFFFFFFFFFFFFFFFFFFFFFFFFFF DUP3 AND SWAP1 POP SWAP2 SWAP1 POP JUMP JUMPDEST PUSH1 0x0 PUSH2 0x34B DUP3 PUSH2 0x320 JUMP JUMPDEST SWAP1 POP SWAP2 SWAP1 POP JUMP JUMPDEST PUSH2 0x35B DUP2 PUSH2 0x340 JUMP JUMPDEST DUP3 MSTORE POP POP JUMP JUMPDEST PUSH1 0x0 PUSH1 0x20 DUP3 ADD SWAP1 POP PUSH2 0x376 PUSH1 0x0 DUP4 ADD DUP5 PUSH2 0x352 JUMP JUMPDEST SWAP3 SWAP2 POP POP JUMP JUMPDEST PUSH1 0x0 PUSH2 0x387 DUP3 PUSH2 0x320 JUMP JUMPDEST SWAP1 POP SWAP2 SWAP1 POP JUMP JUMPDEST PUSH2 0x397 DUP2 PUSH2 0x37C JUMP JUMPDEST DUP3 MSTORE POP POP JUMP JUMPDEST PUSH1 0x0 PUSH1 0x20 DUP3 ADD SWAP1 POP PUSH2 0x3B2 PUSH1 0x0 DUP4 ADD DUP5 PUSH2 0x38E JUMP JUMPDEST SWAP3 SWAP2 POP POP JUMP JUMPDEST PUSH1 0x0 DUP3 DUP3 MSTORE PUSH1 0x20 DUP3 ADD SWAP1 POP SWAP3 SWAP2 POP POP JUMP JUMPDEST PUSH32 0x41756374696F6E20616C726561647920656E6465642E00000000000000000000 PUSH1 0x0 DUP3 ADD MSTORE POP JUMP JUMPDEST PUSH1 0x0 PUSH2 0x3FF PUSH1 0x16 DUP4 PUSH2 0x3B8 JUMP JUMPDEST SWAP2 POP PUSH2 0x40A DUP3 PUSH2 0x3C9 JUMP JUMPDEST PUSH1 0x20 DUP3 ADD SWAP1 POP SWAP2 SWAP1 POP JUMP JUMPDEST PUSH1 0x0 PUSH1 0x20 DUP3 ADD SWAP1 POP DUP2 DUP2 SUB PUSH1 0x0 DUP4 ADD MSTORE PUSH2 0x42E DUP2 PUSH2 0x3F2 JUMP JUMPDEST SWAP1 POP SWAP2 SWAP1 POP JUMP JUMPDEST PUSH32 0x546865726520616C7265616479206973206120686967686572206269642E0000 PUSH1 0x0 DUP3 ADD MSTORE POP JUMP JUMPDEST PUSH1 0x0 PUSH2 0x46B PUSH1 0x1E DUP4 PUSH2 0x3B8 JUMP JUMPDEST SWAP2 POP PUSH2 0x476 DUP3 PUSH2 0x435 JUMP JUMPDEST PUSH1 0x20 DUP3 ADD SWAP1 POP SWAP2 SWAP1 POP JUMP JUMPDEST PUSH1 0x0 PUSH1 0x20 DUP3 ADD SWAP1 POP DUP2 DUP2 SUB PUSH1 0x0 DUP4 ADD MSTORE PUSH2 0x49A DUP2 PUSH2 0x45E JUMP JUMPDEST SWAP1 POP SWAP2 SWAP1 POP JUMP JUMPDEST PUSH32 0x4E487B7100000000000000000000000000000000000000000000000000000000 PUSH1 0x0 MSTORE PUSH1 0x11 PUSH1 0x4 MSTORE PUSH1 0x24 PUSH1 0x0 REVERT JUMPDEST PUSH1 0x0 PUSH2 0x4DB DUP3 PUSH2 0x2EC JUMP JUMPDEST SWAP2 POP PUSH2 0x4E6 DUP4 PUSH2 0x2EC JUMP JUMPDEST SWAP3 POP DUP3 PUSH32 0xFFFFFFFFFFFFFFFFFFFFFFFFFFFFFFFFFFFFFFFFFFFFFFFFFFFFFFFFFFFFFFFF SUB DUP3 GT ISZERO PUSH2 0x51B JUMPI PUSH2 0x51A PUSH2 0x4A1 JUMP JUMPDEST JUMPDEST DUP3 DUP3 ADD SWAP1 POP SWAP3 SWAP2 POP POP JUMP JUMPDEST PUSH1 0x0 PUSH1 0x40 DUP3 ADD SWAP1 POP PUSH2 0x53B PUSH1 0x0 DUP4 ADD DUP6 PUSH2 0x38E JUMP JUMPDEST PUSH2 0x548 PUSH1 0x20 DUP4 ADD DUP5 PUSH2 0x2F6 JUMP JUMPDEST SWAP4 SWAP3 POP POP POP JUMP INVALID LOG2 PUSH5 0x6970667358 0x22 SLT KECCAK256 SWAP5 0x23 BASEFEE PUSH30 0xC16A5DE54CAE183F58C20EA8DA85BC5D55A325C323C5BD2B2D66E1366473 PUSH16 0x6C634300080D00330000000000000000 "
				},
				"gasEstimates": {
					"creation": {
						"codeDepositCost": "282600",
						"executionCost": "infinite",
						"totalCost": "infinite"
					},
					"external": {
						"auctionEnd()": "2429",
						"beneficiary()": "2533",
						"bid()": "infinite",
						"highestBid()": "2495",
						"highestBidder()": "2558"
					}
				},
				"methodIdentifiers": {
					"auctionEnd()": "2a24f46c",
					"beneficiary()": "38af3eed",
					"bid()": "1998aeef",
					"highestBid()": "d57bde79",
					"highestBidder()": "91f90157"
				}
			},
			"userdoc": {
				"kind": "user",
				"methods": {},
				"version": 1
			}
		}
	}
}